:100000000C949B1F0C94CC1F0C94CC1F0C94CC1FF5
:100010000C94CC1F0C94CC1F0C94CC1F0C94CC1FB4
:100020000C94CC1F0C9407380C9407380C940738A8
:100030000C94CC1F0C94CC1F0C94A7390C94CC1F9F
:100040000C94CC1F0C94D9370C94CC1F0C94CC1F5F
:100050000C94CC1F0C94CC1F0C94CC1F0C94A53684
:100060000C94CC1F0C9419370C94EF360C94CC1FC5
:100070000C94CC1F0C94CC1F0C94CC1F0C94CC1F54
:100080000C94AB370C94CC1F0C94CC1F0C94CC1F4D
:100090000C94CC1F0C94CC1F0C94CC1F0C94833864
:1000A0000C94CC1F0C94CC1F0C947D370C94CC1F5B
:1000B0000C94CC1F0C94CC1F0C94CC1F0C944F3779
:1000C0000C94CC1F0C94CC1F0C94CC1F0C94CC1F04
:1000D0000C94CC1F0C94CC1F0C94CC1F0C94CC1FF4
:1000E0000C94CC1F084AD73B3BCE016E84BCBFFDAD
:1000F000C12F3D6C74319ABD56833DDA3D00C77FF8
:1001000011BED9E4BB4C3E916BAAAABE0000008090
:100110003F000C94DF200C943E2F0C943F2C0C9449
:1001200050220C9414270C9423220C94CB2A0C9468
:1001300060270C94DB200C94AF240C943A260C948A
:1001400046220C942F2F0C94C7260C940C300C9440
:10015000172C0C94512F0C9422260C94DE2B0C940B
:10016000C4300C94CA210C94EB210C94E3200C9421
:10017000DD260C94C4200C94ED200C94272C0C94B8
:10018000852F0C949A290C942E200C94FD210C940C
:1001900064220C94D7210C9419240C9492320C9460
:1001A000D81F0C94582F0C946C2A0C9432220C9467
:1001B000A52B0C94F7200C94D5200C94D2210C94F0
:1001C0005F270C94332C0C94DE2F0C94602B0C9432
:1001D0000F220C9469240C94C8200C9455240C9480
:1001E000F22C0C94B4400C945A220C9419220C94C6
:1001F000432B0C94A2550C94F5210C9417250C94C8
:10020000462C0C9477240C94F1200C9405220C9429
:1002100046240C94A7310C94E9200C94C0200C9433
:10022000F6200C94FB200C94BC200C9443300C94CE
:10023000B6200C943C220C94D1200C94E1210C9417
:10024000D91F0C94CB20000000000000000000002B
:10025000000000000000F8041404041404F8070867
:10026000090B0B090807F8FC6C7C7C6CFCF8070F89
:100270000F0C0C0F0F0700F0F8F8F0F8F8F0000082
:100280000103070301000040E0F0F8F0E040000047
:10029000000103010000E0E0F81C1CF8E0E00000B1
:1002A00004070704000060F0F8FCFCF8F0600000B0
:1002B000040707040000000060F0F0600000000088
:1002C00000000000000000FF1F0F0F0F1FFF00FFC6
:1002D000FFFEFEFEFFFF0000E0101010E000000037
:1002E00000010101000000FF1FEFEFEF1FFF00FF03
:1002F000FFFEFEFEFFFF000090487C4890000003D8
:10030000040808080403003048848484483000024C
:1003100002020F020202000000FC04087000000646
:100320000F0700000000000000FC141414FC000C77
:100330001E0F00060F075050E0BCBCE050500101FA
:100340000007070001010000FCF8F0E04000000099
:10035000070301000000000040E0F0F8FC0000008E
:10036000000001030700001018FCFC181000000139
:100370000307070301000000FCFC0000FCFC000078
:10038000040400000404387C44FCFC04FCFC000071
:1003900000070700070700C4EE3A1232E6C400085F
:1003A000191312171D080000000000000000000EC5
:1003B0000E0E0E0E0E00001018FCFC18100008099E
:1003C0000B0F0F0B0908001018FCFC1810000000A0
:1003D000000707000000000000FCFC000000000116
:1003E0000307070301000040404050F0E0400000D8
:1003F0000000010100000040E0F0504040400000DB
:10040000000101000000F8000000000000000302ED
:1004100002020202020240E050404050E040000070
:10042000010000010000000000C0F0C00000000456
:10043000070707070704001070F0F0F070100000C5
:1004400000010701000000000000000000000000A3
:10045000000000000000000038FCFC380000000034
:10046000000D0D000000000E1E00001E0E0000001A
:1004700000000000000020F8F820F8F82000020F2B
:100480000F020F0F0200387C444747CC9800060C3F
:100490000838380F070030300080C06030000C068C
:1004A0000301000C0C0080D87CE4BCD84000070F8E
:1004B0000808070F080000101E0E000000000000D2
:1004C0000000000000000000F0F80C040000000034
:1004D00003070C0800000000040CF8F00000000006
:1004E000080C0703000080A0E0C0C0E0A08000026C
:1004F000030101030200008080E0E0808000000032
:1005000000030300000000000000000000000000E5
:10051000101E0E000000808080808080800000001F
:1005200000000000000000000000000000000000CB
:10053000000C0C00000000000080C06030000C06C1
:10054000030100000000F0F80CC40CF8F0000307F1
:100550000C080C070300001018FCFC000000000849
:10056000080F0F080800080C84C4643C18000E0F24
:100570000908080C0C00080C444444FCB800040CA6
:100580000808080F0700C0E0B098FCFC80000000DD
:1005900000080F0F08007C7C444444C48400040C11
:1005A0000808080F0700F0F84C4444C08000070F0B
:1005B0000808080F07000C0C0484C47C3C000000F1
:1005C0000F0F00000000B8FC444444FCB800070FC3
:1005D0000808080F0700387C444444FCF800000871
:1005E00008080C0703000000003030000000000085
:1005F000000606000000000000303000000000008F
:10060000080E060000000080C060301808000000DE
:100610000103060C080000202020202020000001FB
:100620000101010101000008183060C080000008CD
:100630000C0603010000181C04C4E43C1800000070
:10064000000D0D000000F0F808C8C8F8F000070F12
:10065000080B0B0B0100E0F0988C98F0E0000F0FF6
:100660000000000F0F0004FCFC4444FCB800080F1D
:100670000F08080F0700F0F80C04040C180003071B
:100680000C08080C060004FCFC040CF8F000080F31
:100690000F080C07030004FCFC44E40C1C00080FCA
:1006A0000F08080C0E0004FCFC44E40C1C00080FAE
:1006B0000F0800000000F0F80C84848C98000307F9
:1006C0000C0808070F00FCFC404040FCFC000F0F2A
:1006D0000000000F0F00000004FCFC0400000000FC
:1006E000080F0F08000000000004FCFC0400070FC6
:1006F00008080F07000004FCFCC0E03C1C00080FC9
:100700000F00010F0E0004FCFC0400000000080FA5
:100710000F08080C0E00FCFC387038FCFC000F0FB2
:100720000000000F0F00FCFC3870E0FCFC000F0F15
:100730000000000F0F00F8FC040404FCF800070F91
:100740000808080F070004FCFC44447C3800080F2C
:100750000F0800000000F8FC040404FCF800070F78
:10076000080E3C3F270004FCFC44C4FC3800080F82
:100770000F00000F0F00183C6444C49C1800060EC4
:100780000808080F0700001C0CFCFC0C1C000000F3
:10079000080F0F080000FCFC000000FCFC00070F25
:1007A0000808080F0700FCFC000000FCFC00010327
:1007B000060C06030100FCFC00C000FCFC00070F57
:1007C0000E030E0F07000C3CF0E0F03C0C000C0F89
:1007D0000301030F0C00003C7CC0C07C3C00000007
:1007E000080F0F0800001C0C84C4643C1C000E0F92
:1007F0000908080C0E000000FCFC040400000000C6
:100800000F0F080800003870E0C0800000000000F2
:10081000000103070E0000000404FCFC00000000BF
:1008200008080F0F0000080C0603060C0800000063
:100830000000000000000000000000000000202078
:1008400020202020202000000307040000000000DA
:1008500000000000000000A0A0A0E0C00000070F02
:100860000808070F080004FCFC2060C08000000F8F
:100870000F08080F0700C0E0202020604000070F8D
:100880000808080C040080C06024FCFC0000070F6E
:100890000808070F0800C0E0A0A0A0E0C000070FF4
:1008A0000808080C040040F8FC440C180000080F6D
:1008B0000F0800000000C0E02020C0E02000276FEB
:1008C00048487F3F000004FCFC4020E0C000080FC7
:1008D0000F00000F0F00000020ECEC0000000000F3
:1008E000080F0F0800000000000020ECEC000030B2
:1008F0007040407F3F0004FCFC80C0602000080F77
:100900000F01030E0C00000004FCFC0000000000BE
:10091000080F0F080000E0E060C060E0C0000F0FAB
:100920000007000F0F0020E0C02020E0C000000FF3
:100930000F00000F0F00C0E0202020E0C000070FD4
:100940000808080F070020E0C02020E0C000407F1A
:100950007F48080F0700C0E02020C0E02000070FFC
:1009600008487F7F400020E0C06020E0C000080F02
:100970000F080000000040E0A02020604000040CB0
:1009800009090B0E04002020F8FC202000000000C4
:10099000070F080C0400E0E00000E0E00000070F93
:1009A0000808070F080000E0E00000E0E000000396
:1009B000070C0C070300E0E0008000E0E000070FF8
:1009C0000C070C0F07002060C080C0602000080CDE
:1009D0000703070C0800E0E0000000E0E000474FDC
:1009E0004848683F1F00606020A0E06020000C0EB7
:1009F0000B09080C0C00004040F8BC040400000087
:100A000000070F080800000000BCBC000000000048
:100A1000000F0F000000000404BCF8404000000874
:100A2000080F0700000080C040C080C040000000E8
:100A300000000000000000000609060000000000A1
:100A400000000000000000000000000000000000A6
:100A50000000000000000000000000000000000096
:100A600000000000000000000082C262321E0E0082
:100A70000000000000000000000000000000000076
:100A800000000000000000004262325E6E321E0E66
:100A90000000000000000000000000000000000056
:100AA000000000000000000000FEFE80808080004A
:100AB0000000000000000000000000000000000036
:100AC000000000000000000000FEFE828282820022
:100AD0000000000000000000000000000000000016
:100AE0000000000000000000FEFE82FEFE82820088
:100AF00000000000000000000000000000000000F6
:100B000000000000000000007A7A4A4A4A4E4E0077
:100B100000000000000000000000000000000000D5
:100B200000000000000000007E7E4242427E7E0007
:100B300000000000000000000000000000000000B5
:100B400000000000000000007E7E4848487E7E00D5
:100B50000000000000000000000000000000000095
:100B600000000000000000007E5E487E5E487E7E41
:100B70000000000000000000000000000000000075
:100B800000000000000000004060301E1E30604089
:100B90000000000000000000000000000000000055
:100BA0000000000000000040603E5E603E1E6040AD
:100BB0000000000000000000000000000000000035
:100BC0000000000000000000003C7E42427E3C002D
:100BD0000000000000000000000000000000000015
:100BE00000000000000000004262321E1E3262421D
:100BF00000000000000000000000000000000000F5
:100C00000000000000000042623E5E623E1E624242
:100C100000000000000000000000000000000000D4
:100C200000000000000000004464341E1E346444D0
:100C300000000000000000000000000000000000B4
:100C40000000000000000000008ACA6A3A1E0E0080
:100C50000000000000000000000000000000000094
:100C600000000000000000007E7E4A4A4A4A400020
:100C70000000000000000000000000000000000074
:100C80000000000000000000427E7E42427E7E4264
:100C90000000000000000000000000000000000054
:100CA0000000000000000000023A7E47477E3A0242
:100CB0000000000000000000000000000000000034
:100CC0000000000000000000000000000000000024
:100CD0000000000000000000000000000000000014
:100CE00000000000000000000002020202020202F6
:100CF000023E3E0000000000000000000000000076
:100D00000000000000000000000202023E3E02025D
:100D1000023E3E0000000000000000000000000055
:100D20000000000000000000003E3E2020202020A7
:100D30002020200000000000000000000000000053
:100D40000000000000000000003E3E22222222227D
:100D5000222222000000000000000000000000002D
:100D60000000000000000000003E3E2222003E3E47
:100D7000222222000000000000000000000000000D
:100D80000000000000000000003A3A2A2A2A2A2A1D
:100D90002A2E2E00000000000000000000000000CD
:100DA000000000000000000000003E3E222222223F
:100DB0003E3E0000000000000000000000000000B7
:100DC0000000000000000000003E3E2828282828DF
:100DD000283E3E000000000000000000000000006F
:100DE0000000000000000000003E3E28283E3E2893
:100DF000283E3E000000000000000000000000004F
:100E00000000000000000000002030180C06060C56
:100E1000183020000000000000000000000000006A
:100E200000000000000000000020301E1E30301EB8
:100E30001E30200000000000000000000000000044
:100E4000000000000000000000001C3E22222222C0
:100E50003E1C000000000000000000000000000038
:100E600000000000000000000022321A0E06060EEC
:100E70001A32220000000000000000000000000004
:100E800000000000000000000022321A2E361A0E68
:100E90000E322200000000000000000000000000F0
:100EA00000000000000000000024341C0C06060CAA
:100EB0001C342400000000000000000000000000BE
:100EC0000000000000000000000A0A0A0A0A0A0ADC
:100ED0000A3E3E000000000000000000000000008C
:100EE0000000000000000000003E3E2A2A2A2A2AB4
:100EF0002A2A2A0000000000000000000000000074
:100F000000000000000000000022223E3E22223E9F
:100F10003E2222000000000000000000000000004F
:100F2000000000000000000000021A3E26272726CD
:100F30003E1A020000000000000000000000000057
:100F400000000000000000000000000000000000A1
:100F50000000000000000000000000000000000091
:100F60000000000000000000000202020202020273
:100F7000023E3E00000000000000000000000000F3
:100F80000000000000000000000202023E3E0202DB
:100F9000023E3E00000000000000000000000000D3
:100FA0000000000000000000003E3E202020202025
:100FB00020202000000000000000000000000000D1
:100FC0000000000000000000003E3E2222222222FB
:100FD00022222200000000000000000000000000AB
:100FE0000000000000000000003E3E2222003E3EC5
:100FF000222222000000000000000000000000008B
:101000000000000000000000003A3A2A2A2A2A2A9A
:101010002A2E2E000000000000000000000000004A
:10102000000000000000000000003E3E22222222BC
:101030003E3E000000000000000000000000000034
:101040000000000000000000003E3E28282828285C
:10105000283E3E00000000000000000000000000EC
:101060000000000000000000003E3E28283E3E2810
:10107000283E3E00000000000000000000000000CC
:101080000000000000000000002030180C06060CD4
:1010900018302000000000000000000000000000E8
:1010A00000000000000000000020301E1E30301E36
:1010B0001E302000000000000000000000000000C2
:1010C000000000000000000000001C3E222222223E
:1010D0003E1C0000000000000000000000000000B6
:1010E00000000000000000000022321A0E06060E6A
:1010F0001A32220000000000000000000000000082
:1011000000000000000000000022321A2E361A0EE5
:101110000E3222000000000000000000000000006D
:1011200000000000000000000024341C0C06060C27
:101130001C3424000000000000000000000000003B
:101140000000000000000000000A0A0A0A0A0A0A59
:101150000A3E3E0000000000000000000000000009
:101160000000000000000000003E3E2A2A2A2A2A31
:101170002A2A2A00000000000000000000000000F1
:1011800000000000000000000022223E3E22223E1D
:101190003E222200000000000000000000000000CD
:1011A000000000000000000000021A3E262727264B
:1011B0003E1A0200000000000000000000000000D5
:1011C000000000000000000000000000000000001F
:1011D000000000000000000000000000000000000F
:1011E000000000000000000002020202023E3E0079
:1011F00000000000000000000000000000000000EF
:101200000000000000000002023E3E02023E3E00DE
:1012100000000000000000000000000000000000CE
:1012200000000000000000003E3E20202020202082
:1012300000000000000000000000000000000000AE
:1012400000000000000000003E3E22222222222256
:10125000000000000000000000000000000000008E
:1012600000000000000000003E3E22223E3E2222FE
:10127000000000000000000000000000000000006E
:1012800000000000000000003A3A2A2A2A2E2E0010
:10129000000000000000000000000000000000004E
:1012A00000000000000000003E3E2222223E3E00E0
:1012B000000000000000000000000000000000002E
:1012C00000000000000000003E3E2828283E3E00AE
:1012D000000000000000000000000000000000000E
:1012E00000000000000000003E2E283E2E283E3E5A
:1012F00000000000000000000000000000000000EE
:1013000000000000000000002030180E0E183020F1
:1013100000000000000000000000000000000000CD
:10132000000000000000000020301E2E301E0E3095
:10133000200000000000000000000000000000008D
:101340000000000000000000001C3E22223E1C00A5
:10135000000000000000000000000000000000008D
:10136000000000000000000022321A0E0E1A322285
:10137000000000000000000000000000000000006D
:101380000000000000000022321E2E321E0E32220B
:10139000000000000000000000000000000000004D
:1013A000000000000000000024341C0E0E1C342439
:1013B000000000000000000000000000000000002D
:1013C00000000000000000000A0A0A0A0A0A3E3E65
:1013D000000000000000000000000000000000000D
:1013E00000000000000000003E3E2A2A2A2A2A00AF
:1013F00000000000000000000000000000000000ED
:101400000000000000000000223E3E22223E3E225C
:1014100000000000000000000000000000000000CC
:101420000000000000000000021A3E27273E1A02BA
:1014300000000000000000000000000000000000AC
:10144000000000000000000000000000000000009C
:10145000000000000000000000000000000000008C
:10146000000000000000000002020202023E3E00F6
:10147000000000000000000000000000000000006C
:101480000000000000000002023E3E02023E3E005C
:10149000000000000000000000000000000000004C
:1014A00000000000000000003E3E20202020202000
:1014B000000000000000000000000000000000002C
:1014C00000000000000000003E3E222222222222D4
:1014D000000000000000000000000000000000000C
:1014E00000000000000000003E3E22223E3E22227C
:1014F00000000000000000000000000000000000EC
:1015000000000000000000003A3A2A2A2A2E2E008D
:1015100000000000000000000000000000000000CB
:1015200000000000000000003E3E2222223E3E005D
:1015300000000000000000000000000000000000AB
:1015400000000000000000003E3E2828283E3E002B
:10155000000000000000000000000000000000008B
:1015600000000000000000003E2E283E2E283E3ED7
:10157000000000000000000000000000000000006B
:1015800000000000000000002030180E0E1830206F
:10159000000000000000000000000000000000004B
:1015A000000000000000000020301E2E301E0E3013
:1015B000200000000000000000000000000000000B
:1015C0000000000000000000001C3E22223E1C0023
:1015D000000000000000000000000000000000000B
:1015E000000000000000000022321A0E0E1A322203
:1015F00000000000000000000000000000000000EB
:101600000000000000000022321E2E321E0E322288
:1016100000000000000000000000000000000000CA
:10162000000000000000000024341C0E0E1C3424B6
:1016300000000000000000000000000000000000AA
:1016400000000000000000000A0A0A0A0A0A3E3EE2
:10165000000000000000000000000000000000008A
:1016600000000000000000003E3E2A2A2A2A2A002C
:10167000000000000000000000000000000000006A
:101680000000000000000000223E3E22223E3E22DA
:10169000000000000000000000000000000000004A
:1016A0000000000000000000021A3E27273E1A0238
:1016B000000000000000000000000000000000002A
:1016C000000000000000000000000000000000001A
:1016D000000000000000000000000000000000000A
:1016E000000000000000000082C262321E0E0000F6
:1016F00000000000000000000000000000000000EA
:10170000000000000000004262325E6E321E0E00D9
:1017100000000000000000000000000000000000C9
:101720000000000000000000FEFE8080808080003D
:1017300000000000000000000000000000000000A9
:101740000000000000000000FEFE82828282000095
:101750000000000000000000000000000000000089
:101760000000000000000000FEFE82FEFE828200FB
:101770000000000000000000000000000000000069
:1017800000000000000000007A7A4A4A4E4E000035
:101790000000000000000000000000000000000049
:1017A00000000000000000007E7E42427E7E0000BD
:1017B0000000000000000000000000000000000029
:1017C00000000000000000007E7E48487E7E000091
:1017D0000000000000000000000000000000000009
:1017E000000000000000007E5E487E5E487E000033
:1017F00000000000000000000000000000000000E9
:10180000000000000000004060301E1E30604000FC
:1018100000000000000000000000000000000000C8
:1018200000000000000040603E5E603E1E60400020
:1018300000000000000000000000000000000000A8
:1018400000000000000000003C7E42427E3C0000A0
:101850000000000000000000000000000000000088
:10186000000000000000004262321E1E3262420090
:101870000000000000000000000000000000000068
:1018800000000000000042623E5E623E1E624000B8
:101890000000000000000000000000000000000048
:1018A000000000000000004464341E1E3464440044
:1018B0000000000000000000000000000000000028
:1018C00000000000000000008ACA6A3A1E0E0000F4
:1018D0000000000000000000000000000000000008
:1018E00000000000000000007E7E4A4A4A4A0000D4
:1018F00000000000000000000000000000000000E8
:1019000000000000000000427E7E427E7E42000019
:1019100000000000000000000000000000000000C7
:1019200000000000000000023A7E47477E3A0200B5
:1019300000000000000000000000000000000000A7
:101940000000000000000000000000000000000097
:101950000000000000000000000000000000000087
:101960000000000000000000000202020202020269
:10197000023E3E00000000000000000000000000E9
:101980000000000000000000000202023E3E0202D1
:10199000023E3E00000000000000000000000000C9
:1019A0000000000000000000003E3E20202020201B
:1019B00020202000000000000000000000000000C7
:1019C0000000000000000000003E3E2222222222F1
:1019D00022222200000000000000000000000000A1
:1019E0000000000000000000003E3E2222003E3EBB
:1019F0002222220000000000000000000000000081
:101A00000000000000000000003A3A2A2A2A2A2A90
:101A10002A2E2E0000000000000000000000000040
:101A2000000000000000000000003E3E22222222B2
:101A30003E3E00000000000000000000000000002A
:101A40000000000000000000003E3E282828282852
:101A5000283E3E00000000000000000000000000E2
:101A60000000000000000000003E3E28283E3E2806
:101A7000283E3E00000000000000000000000000C2
:101A80000000000000000000002030180C06060CCA
:101A900018302000000000000000000000000000DE
:101AA00000000000000000000020301E1E30301E2C
:101AB0001E302000000000000000000000000000B8
:101AC000000000000000000000001C3E2222222234
:101AD0003E1C0000000000000000000000000000AC
:101AE00000000000000000000022321A0E06060E60
:101AF0001A32220000000000000000000000000078
:101B000000000000000000000022321A2E361A0EDB
:101B10000E32220000000000000000000000000063
:101B200000000000000000000024341C0C06060C1D
:101B30001C34240000000000000000000000000031
:101B40000000000000000000000A0A0A0A0A0A0A4F
:101B50000A3E3E00000000000000000000000000FF
:101B60000000000000000000003E3E2A2A2A2A2A27
:101B70002A2A2A00000000000000000000000000E7
:101B800000000000000000000022223E3E22223E13
:101B90003E222200000000000000000000000000C3
:101BA000000000000000000000021A3E2627272641
:101BB0003E1A0200000000000000000000000000CB
:101BC0000000000000000000000000000000000015
:101BD0000000000000000000000000000000000005
:101BE0000000000000000000020202023E3E000071
:101BF00000000000000000000000000000000000E5
:101C00000000000000000002023E3E02023E3E00D4
:101C100000000000000000000000000000000000C4
:101C200000000000000000003E3E20202020200098
:101C300000000000000000000000000000000000A4
:101C400000000000000000003E3E22222222000090
:101C50000000000000000000000000000000000084
:101C600000000000000000003E3E223E3E22220016
:101C70000000000000000000000000000000000064
:101C8000000000000000003A3A2A2A2A2E2E000006
:101C90000000000000000000000000000000000044
:101CA000000000000000003E3E2222223E3E0000D6
:101CB0000000000000000000000000000000000024
:101CC000000000000000003E3E2828283E3E0000A4
:101CD0000000000000000000000000000000000004
:101CE000000000000000003E2E283E2E283E00008E
:101CF00000000000000000000000000000000000E4
:101D0000000000000000002030180E0E18302000E7
:101D100000000000000000000000000000000000C3
:101D20000000000000000020301E2E301E0E30206B
:101D300000000000000000000000000000000000A3
:101D400000000000000000001C3E22223E1C00009B
:101D50000000000000000000000000000000000083
:101D60000000000000000022321A0E0E1A3222007B
:101D70000000000000000000000000000000000063
:101D800000000000000022321E2E321E0E32220001
:101D90000000000000000000000000000000000043
:101DA0000000000000000024341C0E0E1C3424002F
:101DB0000000000000000000000000000000000023
:101DC000000000000000000A0A0A0A0A3E3E000065
:101DD0000000000000000000000000000000000003
:101DE00000000000000000003E3E2A2A2A2A0000CF
:101DF00000000000000000000000000000000000E3
:101E000000000000000000223E3E223E3E22000074
:101E100000000000000000000000000000000000C2
:101E200000000000000000021A3E27273E1A0200B0
:101E300000000000000000000000000000000000A2
:101E40000000000000000000000000000000000092
:101E50000000000000000000000000000000000082
:101E60000000000000000000000000000000000072
:101E70000000FEFE10100000000000000000000046
:101E800000001F1F00000000000000000000000014
:101E9000FEFE20FEFE00000000000000000000002A
:101EA0000F0F001F1F0000000000000000000000D6
:101EB0000000FEFE48480000000000000000000096
:101EC00000001F1F000000000000000000000000D4
:101ED000FEFE90FEFE00000000000000000000007A
:101EE0000F0F001F1F000000000000000000001086
:101EF0001010FEFE000000000000000000000000C6
:101F000000001F1F00000000000000000010101063
:101F1000FEFE00FEFE0000000000000000000000C9
:101F20000F0F001F1F00000000000000000000282D
:101F30002828FEFE00000000000000000000000055
:101F400000001F1F000000000000000000282828DB
:101F5000FEFE00FEFE000000000000000000000089
:101F60000F0F001F1F000000000000000080800015
:101F7000000000000000000004040404040707043B
:101F80000404040400000000000000808000000041
:101F900000FEFE8080000000020202030302020233
:101FA000001F1F00000000000000808000000000F3
:101FB000FEFE20FEFE0000020202030302020202F5
:101FC0000F0F001F1F0000000000008080000000B5
:101FD0000000FEFE000000000202020303020202F3
:101FE00002021F1F0000000000000080800000802F
:101FF0008000000000000000040404070704040738
:1020000007040404000000000000000000000000BD
:10201000000000000000000001010101013F3F013C
:1020200001010101000000008080808080808080AC
:102030008000FEFE000000000000001F1F000004E2
:1020400004043F3F0000008080808080808080000A
:10205000FEFE00FEFE00000000000F0F000404045E
:102060001F1F003F3F0000008080808080808080B4
:102070008000FEFE000000000000001F1F000000A6
:1020800000003F3F000000000000000000000000D2
:1020900000000000000000000101013F3F01013F7E
:1020A0003F010101000000000000000000000000EE
:1020B0000000000000000000040404040404040400
:1020C00004040404040000000000000000000000FC
:1020D0000000FEFE000000000101010101010101FC
:1020E00001001F1F000000000000000000000000B1
:1020F0000000FEFE000000000000000000000000E4
:1021000000001F1F00000000000000000000000091
:1021100000000000000000000000000000000000BF
:1021200000000000000000000000000000000000AF
:102130000000FEFE10100000000000000000000083
:1021400000001F1F00000000000000000000000051
:10215000FEFE20FEFE000000000000000000000067
:102160000F0F001F1F000000000000000000000013
:102170000000FEFE484800000000000000000000D3
:1021800000001F1F00000000000000000000000011
:10219000FEFE90FEFE0000000000000000000000B7
:1021A0000F0F001F1F0000000000000000000010C3
:1021B0001010FEFE00000000000000000000000003
:1021C00000001F1F000000000000000000101010A1
:1021D000FEFE00FEFE000000000000000000000007
:1021E0000F0F001F1F00000000000000000000286B
:1021F0002828FEFE00000000000000000000000093
:1022000000001F1F00000000000000000028282818
:10221000FEFE00FEFE0000000000000000000000C6
:102220000F0F001F1F000000000000000080800052
:102230000000000000000000040404040407070478
:10224000040404040000000000000080800000007E
:1022500000FEFE8080000000020202030302020270
:10226000001F1F0000000000000080800000000030
:10227000FEFE20FEFE000002020203030202020232
:102280000F0F001F1F0000000000008080000000F2
:102290000000FEFE00000000020202030302020230
:1022A00002021F1F0000000000000080800000806C
:1022B0008000000000000000040404070704040775
:1022C00007040404000000000000000000000000FB
:1022D000000000000000000001010101013F3F017A
:1022E00001010101000000008080808080808080EA
:1022F0008000FEFE000000000000001F1F00000420
:1023000004043F3F00000080808080808080800047
:10231000FEFE00FEFE00000000000F0F000404049B
:102320001F1F003F3F0000008080808080808080F1
:102330008000FEFE000000000000001F1F000000E3
:1023400000003F3F0000000000000000000000000F
:1023500000000000000000000101013F3F01013FBB
:102360003F0101010000000000000000000000002B
:10237000000000000000000004040404040404043D
:102380000404040404000000000000000000000039
:102390000000FEFE00000000010101010101010139
:1023A00001001F1F000000000000000000000000EE
:1023B0000000FEFE00000000000000000000000021
:1023C00000001F1F000000000000000000000000CF
:1023D00000000000000000000000000000000000FD
:1023E00000000000000000000000000000000000ED
:1023F0000000FEFE101000000000000000000000C1
:1024000000000101000000000000000000000000CA
:10241000FEFE10FEFE0000000000000000000000B4
:1024200001010001010000000000000000000000A8
:102430000000FEFE28280000000000000000000050
:10244000000001010000000000000000000000008A
:10245000FEFE50FEFE000000000000000000000034
:102460000101000101000000000000000000001058
:102470001010FEFE00000000000000000000000040
:10248000000001010000000000000000001010101A
:10249000FEFE00FEFE000000000000000000000044
:1024A0000101000101000000000000000000002800
:1024B0002828FEFE000000000000000000000000D0
:1024C00000000101000000000000000000002828BA
:1024D000FEFE00FEFE000000000000000000000004
:1024E00001010001010000000000000000E0E00028
:1024F00000000000000000000101010101010101D4
:102500000101010100000000000000C0C000000047
:102510000000FEFE10100000010101010101010197
:1025200001000101000000000000C0C00000000028
:10253000FEFE10FEFE00000101010101010101008B
:102540000101000101000000000000C0C000000007
:102550000000FEFE00000000010101010101010177
:102560000100010100000000000000C0C00000C028
:10257000C000000000000000010101010101010193
:102580000101010100000000808080808080808047
:102590008080808000000000000000000003030035
:1025A00000000000000000008080808080808000AB
:1025B0001010FEFE000000000002030100000000F9
:1025C00000000101000000808080808080809010E9
:1025D000FEFE00FEFE0000000002030100000000FD
:1025E00001010001010000008080808080808080E7
:1025F0008000FEFE00000000000203010000000059
:1026000000000101000000008080808080808080C8
:1026100080808080000000000000000303000003B1
:1026200003000000000000000000000000000000A7
:102630000000000000000000010101010101010192
:102640000101010100000000000000000000000086
:102650000000FEFE00000000010101010101010176
:102660000100010100000000000000000000000067
:102670000000FEFE0000000000000000000000005E
:102680000000010100000000000000000000000048
:10269000000000000000000000000000000000003A
:1026A000000000000000000000000000000000002A
:1026B0000000FEFE101000000000000000000000FE
:1026C0000000010100000000000000000000000008
:1026D000FEFE10FEFE0000000000000000000000F2
:1026E00001010001010000000000000000000000E6
:1026F0000000FEFE2828000000000000000000008E
:1027000000000101000000000000000000000000C7
:10271000FEFE50FEFE000000000000000000000071
:102720000101000101000000000000000000001095
:102730001010FEFE0000000000000000000000007D
:102740000000010100000000000000000010101057
:10275000FEFE00FEFE000000000000000000000081
:10276000010100010100000000000000000000283D
:102770002828FEFE0000000000000000000000000D
:1027800000000101000000000000000000002828F7
:10279000FEFE00FEFE000000000000000000000041
:1027A00001010001010000000000000000E0E00065
:1027B0000000000000000000010101010101010111
:1027C0000101010100000000000000C0C000000085
:1027D0000000FEFE101000000101010101010101D5
:1027E00001000101000000000000C0C00000000066
:1027F000FEFE10FEFE0000010101010101010100C9
:102800000101000101000000000000C0C000000044
:102810000000FEFE000000000101010101010101B4
:102820000100010100000000000000C0C00000C065
:10283000C0000000000000000101010101010101D0
:102840000101010100000000808080808080808084
:102850008080808000000000000000000003030072
:1028600000000000000000008080808080808000E8
:102870001010FEFE00000000000203010000000036
:102880000000010100000080808080808080901026
:10289000FEFE00FEFE00000000020301000000003A
:1028A0000101000101000000808080808080808024
:1028B0008000FEFE00000000000203010000000096
:1028C0000000010100000000808080808080808006
:1028D00080808080000000000000000303000003EF
:1028E00003000000000000000000000000000000E5
:1028F00000000000000000000101010101010101D0
:1029000001010101000000000000000000000000C3
:102910000000FEFE000000000101010101010101B3
:1029200001000101000000000000000000000000A4
:102930000000FEFE0000000000000000000000009B
:102940000000010100000000000000000000000085
:102950000000000000000000000000000000000077
:102960000000000000000000000000000000000067
:102970000000000000000000000000040404040443
:1029800004047C7C00000000000000000000000047
:10299000000000000000000000000404047C7C042F
:1029A00004047C7C00000000000000000000000027
:1029B000000000000000000000000404047C7C40D3
:1029C000603C3C604000000000000000000000008F
:1029D0000000000000000000000000007C7C40407F
:1029E00040404040000000000000000000000000E7
:1029F00000000000000000000000007C7C4040441B
:102A0000643C3C6444000000000000000000000042
:102A100000000000000000000000007C7C40402816
:102A2000785C5C78280000000000000000000000D6
:102A30000000000000000000000000007C7C444416
:102A40004444444400000000000000000000000076
:102A500000000000000000000000000074745454E6
:102A600054545C5C00000000000000000000000006
:102A700000000000000000000000007474545C5C62
:102A800004047C7C00000000000000000000000046
:102A9000000000000000000000007474545C5C0042
:102AA0007C7C447C7C0000000000000000000000F2
:102AB000000000000000000000007474545C5C0022
:102AC0007C7C507C7C0000000000000000000000C6
:102AD00000000000000000000000007474545C5C02
:102AE00040603C3C6040000000000000000000002E
:102AF000000000000000000000007474545C5C00E2
:102B00007C7C5454540000000000000000000000D1
:102B1000000000000000000000007474545C5C00C1
:102B2000447C447C440000000000000000000000E1
:102B3000000000000000000000007474545C5C2879
:102B4000785C5C78280000000000000000000000B5
:102B50000000000000000000000000007C7C4444F5
:102B600044447C7C000000000000000000000000E5
:102B70000000000000000000000000007C7C5050BD
:102B800050507C7C000000000000000000000000AD
:102B900000000000000000000000007C7C507C7CF5
:102BA00040603C3C6040000000000000000000006D
:102BB0000000000000000000000000406030180C21
:102BC0000C18306040000000000000000000000011
:102BD00000000000000000000000004060305C7C4D
:102BE000301C1C30604000000000000000000000AD
:102BF00000000000000000000000000000387C44DD
:102C000044447C3800000000000000000000000088
:102C100000000000000000000000004848283818AC
:102C2000183828484800000000000000000000009C
:102C30000000000000000000000000484828381C88
:102C40001C38284848000000000000000000000078
:102C50000000000000000000000000141414141410
:102C600014147C7C00000000000000000000000044
:102C7000000000000000000000000000007C7C5408
:102C800054545454000000000000000000000000F4
:102C9000000000000000000000000000447C7C44B4
:102CA000447C7C44000000000000000000000000A4
:102CB0000000000000000000000000000828785C10
:102CC0005C5C7828080000000000000000000000A4
:102CD00000000000000000000000000000000000F4
:102CE00000000000000000000000000000000000E4
:102CF00000000000000000000000000404040404C0
:102D000004047C7C000000000000000000000000C3
:102D1000000000000000000000000404047C7C04AB
:102D200004047C7C000000000000000000000000A3
:102D3000000000000000000000000404047C7C404F
:102D4000603C3C604000000000000000000000000B
:102D50000000000000000000000000007C7C4040FB
:102D60004040404000000000000000000000000063
:102D700000000000000000000000007C7C40404497
:102D8000643C3C64440000000000000000000000BF
:102D900000000000000000000000007C7C40402893
:102DA000785C5C7828000000000000000000000053
:102DB0000000000000000000000000007C7C444493
:102DC00044444444000000000000000000000000F3
:102DD0000000000000000000000000007474545463
:102DE00054545C5C00000000000000000000000083
:102DF00000000000000000000000007474545C5CDF
:102E000004047C7C000000000000000000000000C2
:102E1000000000000000000000007474545C5C00BE
:102E20007C7C447C7C00000000000000000000006E
:102E3000000000000000000000007474545C5C009E
:102E40007C7C507C7C000000000000000000000042
:102E500000000000000000000000007474545C5C7E
:102E600040603C3C604000000000000000000000AA
:102E7000000000000000000000007474545C5C005E
:102E80007C7C54545400000000000000000000004E
:102E9000000000000000000000007474545C5C003E
:102EA000447C447C4400000000000000000000005E
:102EB000000000000000000000007474545C5C28F6
:102EC000785C5C7828000000000000000000000032
:102ED0000000000000000000000000007C7C444472
:102EE00044447C7C00000000000000000000000062
:102EF0000000000000000000000000007C7C50503A
:102F000050507C7C00000000000000000000000029
:102F100000000000000000000000007C7C507C7C71
:102F200040603C3C604000000000000000000000E9
:102F30000000000000000000000000406030180C9D
:102F40000C1830604000000000000000000000008D
:102F500000000000000000000000004060305C7CC9
:102F6000301C1C3060400000000000000000000029
:102F700000000000000000000000000000387C4459
:102F800044447C3800000000000000000000000005
:102F90000000000000000000000000484828381829
:102FA0001838284848000000000000000000000019
:102FB0000000000000000000000000484828381C05
:102FC0001C382848480000000000000000000000F5
:102FD000000000000000000000000014141414148D
:102FE00014147C7C000000000000000000000000C1
:102FF000000000000000000000000000007C7C5485
:103000005454545400000000000000000000000070
:10301000000000000000000000000000447C7C4430
:10302000447C7C4400000000000000000000000020
:103030000000000000000000000000000828785C8C
:103040005C5C782808000000000000000000000020
:103050000000000000000000000000000000000070
:103060000000000000000000000000000000000060
:10307000000000000000000000000004040404043C
:103080000404047C7C00000000000000000000003C
:1030900000000000000000000000040404047C7C28
:1030A0000404047C7C00000000000000000000001C
:1030B00000000000000000000000040404047C7C08
:1030C00040603C3C60400000000000000000000048
:1030D0000000000000000000000000007C7C404078
:1030E00040404040400000000000000000000000A0
:1030F00000000000000000000000007C7C40404414
:10310000643C3C644400000000000000000000003B
:10311000000000000000000000007C7C40404028CF
:10312000785C5C78280000000000000000000000CF
:103130000000000000000000000000007C7C44440F
:10314000444444444400000000000000000000002B
:1031500000000000000000000000000074745454DF
:103160005454545C5C0000000000000000000000AB
:1031700000000000000000000000007474545C5C5B
:103180000404047C7C00000000000000000000003B
:10319000000000000000000000007474545C5C003B
:1031A0007C7C447C7C0000000000000000000000EB
:1031B000000000000000000000007474545C5C001B
:1031C0007C7C507C7C0000000000000000000000BF
:1031D00000000000000000000000007474545C5CFB
:1031E00040603C3C60400000000000000000000027
:1031F000000000000000000000007474545C5C00DB
:103200007C7C5454540000000000000000000000CA
:10321000000000000000000000007474545C5C00BA
:10322000447C447C440000000000000000000000DA
:10323000000000000000000000007474545C5C009A
:1032400028785C5C78280000000000000000000086
:103250000000000000000000000000007C7C4444EE
:103260004444447C7C00000000000000000000009A
:103270000000000000000000000000007C7C5050B6
:103280005050507C7C000000000000000000000056
:1032900000000000000000000000007C7C507C7CEE
:1032A00040603C3C60400000000000000000000066
:1032B0000000000000000000000000406030180C1A
:1032C0000C1830604000000000000000000000000A
:1032D00000000000000000000000004060305C7C46
:1032E000301C1C30604000000000000000000000A6
:1032F0000000000000000000000000000000387C1A
:103300004444447C3800000000000000000000003D
:1033100000000000000000000000004848283818A5
:103320001838284848000000000000000000000095
:103330000000000000000000000000484828381C81
:103340001C38284848000000000000000000000071
:10335000000000000000000000000000141414141D
:103360001414147C7C000000000000000000000029
:10337000000000000000000000000000007C7C5401
:103380005454545454000000000000000000000099
:10339000000000000000000000000044447C7C4469
:1033A000447C7C4444000000000000000000000059
:1033B0000000000000000000000000000828785C09
:1033C0005C5C5C7828080000000000000000000041
:1033D00000000000000000000000000000000000ED
:1033E00000000000000000000000000000000000DD
:1033F00000000000000000000004040404040404B1
:10340000047C7C00000000000000000000000000C0
:103410000000000000000000000404047C7C0404A0
:10342000047C7C00000000000000000000000000A0
:103430000000000000000000000404047C7C4060E8
:103440003C3C604000000000000000000000000064
:103450000000000000000000007C7C404040404034
:10346000404040000000000000000000000000009C
:103470000000000000000000007C7C4040404464EC
:103480003C3C64440000000000000000000000001C
:103490000000000000000000007C7C4040402878D4
:1034A0005C5C7828000000000000000000000000C4
:1034B0000000000000000000007C7C4444444444C0
:1034C0004444440000000000000000000000000030
:1034D0000000000000000000007474545454545460
:1034E000545C5C00000000000000000000000000D0
:1034F0000000000000000000007474545C5C0004D4
:10350000047C7C00000000000000000000000000BF
:103510000000000000000000007474545C5C007C3B
:103520007C447C7C000000000000000000000000E3
:103530000000000000000000007474545C5C007C1B
:103540007C507C7C000000000000000000000000B7
:103550000000000000000000007474545C5C4060D7
:103560003C3C604000000000000000000000000043
:103570000000000000000000007474545C5C007CDB
:103580007C545454000000000000000000000000C3
:103590000000000000000000007474545C5C0044F3
:1035A0007C447C440000000000000000000000009B
:1035B0000000000000000000007474545C5C287877
:1035C0005C5C7828000000000000000000000000A3
:1035D0000000000000000000007C7C44444444449F
:1035E000447C7C000000000000000000000000009F
:1035F0000000000000000000007C7C505050505043
:10360000507C7C0000000000000000000000000072
:103610000000000000000000007C7C507C7C4060CA
:103620003C3C604000000000000000000000000082
:10363000000000000000000000406030180C0C1872
:1036400030604000000000000000000000000000AA
:103650000000000000000000004060305C7C301C76
:103660001C3060400000000000000000000000006E
:1036700000000000000000000000387C4444444486
:103680007C38000000000000000000000000000086
:103690000000000000000000004868381808081802
:1036A0003868480000000000000000000000000032
:1036B000000000000000000000486838180C0C18DA
:1036C0003868480000000000000000000000000012
:1036D000000000000000000000141414141414145E
:1036E000147C7C00000000000000000000000000CE
:1036F0000000000000000000007C7C54545454542E
:1037000054545400000000000000000000000000BD
:1037100000000000000000000044447C7C44447C25
:103720007C44440000000000000000000000000095
:103730000000000000000000000828785C5C5C5C71
:1037400078280800000000000000003E5B4F5B3E50
:103750003E6B4F6B3E1C3E7C3E1C183C7E3C181C56
:10376000577D571C1C5E7F5E1C00183C1800FFE74D
:10377000C3E7FF0018241800FFE7DBE7FF30483AF3
:10378000060E2629792926407F050507407F052555
:103790003F5A3CE73C5A7F3E1C1C08081C1C3E7FDD
:1037A00014227F22145F5F005F5F06097F017F00A4
:1037B0006689956A606060606094A2FFA2940804C4
:1037C0007E040810207E201008082A1C08081C2AE5
:1037D00008081E101010100C1E0C1E0C30383E383D
:1037E00030060E3E0E06000000000000005F0000E4
:1037F0000007000700147F147F14242A7F2A122355
:103800001308646236495620500008070300001C64
:103810002241000041221C002A1C7F1C2A08083E6D
:103820000808008070300008080808080000606080
:103830000020100804023E5149453E00427F4000EE
:1038400072494949462141494D331814127F1027C6
:10385000454545393C4A4949314121110907364915
:10386000494936464949291E0000140000004034E9
:1038700000000008142241141414141400412214EE
:103880000802015909063E415D594E7C1211127C15
:103890007F494949363E414141227F4141413E7F76
:1038A000494949417F090909013E414151737F0856
:1038B00008087F00417F41002040413F017F0814FC
:1038C00022417F404040407F021C027F7F0408105D
:1038D0007F3E4141413E7F090909063E4151215E3B
:1038E0007F09192946264949493203017F01033FCF
:1038F0004040403F1F2040201F3F4038403F63145E
:1039000008146303047804036159494D43007F415F
:1039100041410204081020004141417F040201029C
:1039200004404040404000030708002054547840C1
:103930007F284444383844444428384444287F3855
:103940005454541800087E090218A4A49C787F08D7
:1039500004047800447D40002040403D007F102852
:10396000440000417F40007C047804787C08040413
:10397000783844444438FC1824241818242418FCAB
:103980007C08040408485454542404043F44243C50
:103990004040207C1C2040201C3C4030403C4428BF
:1039A0001028444C9090907C4464544C4400083659
:1039B00041000000770000004136080002010204C7
:1039C000023C2623263C1EA1A161123A4040207AE7
:1039D000385454555921555579412254547842212F
:1039E0005554784020545579400C1E527212395566
:1039F0005555593954545459395554545800004563
:103A00007C410002457D420001457C407D1211123F
:103A10007DF0282528F07C545545002054547C54D2
:103A20007C0A097F4932494949323A4444443A328E
:103A30004A4848303A4141217A3A42402078009D34
:103A4000A0A07D3D4242423D3D4040403D3C24FFE0
:103A50002424487E4943662B2FFC2F2BFF0929F68F
:103A600020C0887E090320545479410000447D41E0
:103A70003048484A32384040227A007A0A0A727D39
:103A80000D19317D2629292F282629292926304854
:103A90004D4020380808080808080808382F10C8C2
:103AA000ACBA2F102834FA00007B000008142A1446
:103AB0002222142A14085500550055AA55AA55AAC1
:103AC000FF55FF55FF000000FF00101010FF00140D
:103AD0001414FF001010FF00FF1010F010F0141469
:103AE00014FC001414F700FF0000FF00FF1414F48E
:103AF00004FC141417101F10101F101F1414141F8F
:103B000000101010F0000000001F101010101F1007
:103B1000101010F010000000FF1010101010101006
:103B20001010FF10000000FF140000FF00FF000055
:103B30001F10170000FC04F414141710171414F4C9
:103B400004F40000FF00F714141414141414F70004
:103B5000F7141414171410101F101F141414F41455
:103B60001010F010F000001F101F0000001F1400C4
:103B70000000FC140000F010F01010FF10FF1414EF
:103B800014FF141010101F00000000F010FFFFFFC2
:103B9000FFFFF0F0F0F0F0FFFFFF0000000000FF7B
:103BA000FF0F0F0F0F0F3844443844FC4A4A4A3481
:103BB0007E02020606027E027E0263554941633898
:103BC00044443C04407E201E2006027E020299A549
:103BD000E7A5991C2A492A1C4C7201724C304A4DA7
:103BE0004D303048784830BC625A463D3E494949DC
:103BF000007E0101017E2A2A2A2A2A44445F444485
:103C000040514A444040444A51400000FF0103E013
:103C100080FF000008086B6B083612362436060F4A
:103C2000090F06000018180000001010003040FFB7
:103C30000101001F01011E00191D1712003C3C3C30
:103C40003C0000000000AE2000B0C8001040813FE2
:103C5000A1A6A83FA4D300D5F0D922DA12DB208D8B
:103C600014AF524541445920626F6172643D6D65E5
:103C700067615F7375706572726963682066773D0E
:103C8000312E320065727220756E6B6E6F776E200A
:103C900000617220006472200062746E20006972FC
:103CA0002000746F75636820006D69632000736C79
:103CB0006964657220006A6F7920006B6E6F622004
:103CC000006C6967687420006779726F2000616317
:103CD00063656C200068756D69200074656D7020E7
:103CE00000646973742000183C7EFF181818003CAB
:103CF00042A581A599423C66FFFFFF7E3C180070FB
:103D00006F6E670043415053207472616666696349
:103D10002C7267622C62757A7A65722C6C6173659D
:103D2000722C6D6F746F722C736572766F2C646376
:103D30006D6F746F722C6E656F2C6C63642C666E85
:103D4000642C6F6C65642C6D61747269782C6D7075
:103D5000332C646973742C74656D702C68756D698F
:103D60002C616363656C2C6779726F2C6C69676872
:103D7000742C6B6E6F622C6A6F792C736C6964653E
:103D8000722C6D69632C62746E2C746F7563682C71
:103D900069722C64772C64722C61722C61772C749C
:103DA0006F6E6500524541445920626F6172643DF7
:103DB0006D6567615F7375706572726963682066AF
:103DC000773D312E3200080026002380113002900A
:103DD0000630023002006E009232757000646F7718
:103DE0006E0065767420746F7563682000757000CE
:103DF000646F776E006576742062746E3220007591
:103E00007000646F776E006576742062746E312086
:103E10000000002100240027002A002D003000337C
:103E20000001010000040107010A0100000A0B0261
:103E3000090C0D0E0807030401000000000000003B
:103E40000000000000000000000000000000000072
:103E5000000000000000001211100000000000002F
:103E60000000000000000000000000000000000052
:103E700000000020002300260029002C002F003223
:103E800000000100000301060109010102102020C9
:103E9000080810204010204080020102010804029E
:103EA0000101020408102040808040201008040214
:103EB000018004020180402010080402010804026D
:103EC0000101020408102040800102040810204073
:103ED0008000002200250028002B002E0031003435
:103EE0000002010000050108010B01050505050799
:103EF0000508080808020202020A0A080804040465
:103F00000401010101010101010303030303030390
:103F100003040707070C0C0C0C0C0C0C0C0202021F
:103F20000206060606060606060B0B0B0B0B0B0B12
:103F30000B00B440A25511241FBECFEFD1E2DEBF6B
:103F4000CDBF00E00CBF15E0A0E0B2E0E4E5F8EB87
:103F500000E00BBF02C007900D92A631B107D9F760
:103F60002FE0A6E1B5E001C01D92AA3EB207E1F73D
:103F70001FE1CAE9DFE100E006C021970109802FB7
:103F8000FE010E94CB5AC939D10780E00807A9F782
:103F90000E94A3420C94185C0C94000091E0909352
:103FA000750A8093970A1092760A1092980A0895DB
:103FB00008950895EFE7FCE0148E138E168E158E8B
:103FC00010A2178E12A211A214A213A216A215A259
:103FD00010A617A212A611A608951F93CF93DF93E0
:103FE00011E0180F2091B90C1217A1F1C091BA0C71
:103FF000D091BB0C215070E060E061F08F3FF1F494
:1040000030E050E040E06FEF7FEF80E090E00E9412
:10401000A658B901FE014091B50C5091B60CCF01E4
:104020008C1B9D0B8417950798F44081469FC00117
:10403000479F900D112490833196EDCF812F90E012
:10404000982F88270197622F70E00E94B75AE2CF1D
:104050001093B90CDF91CF911F91089508954F925D
:104060005F926F927F928F929F92AF92BF92FF92D8
:104070002091B30C3091B40C8217930708F043C021
:104080002B0166247724852E962EA72EBB24B82DCF
:10409000A42F2091B90CF42C222391F0E22FF0E010
:1040A000E49DD001E59DB00DF49DB00D1124FB2ED3
:1040B000289D40011124B92D249F90011124A32F84
:1040C000E091BF0C2091BA0C3091BB0C5091BC0C0C
:1040D000E51323C0FC01EE0FFF1F8E0F9F1F820F01
:1040E000931FE091BC0CE80FF92FF11DF082E091D5
:1040F000BD0CE80FF92FF11DB0832091BE0C820F8B
:10410000911DFC01A083FF90BF90AF909F908F9076
:104110007F906F905F904F900895880F991F880F40
:10412000991F820F931FE80FF92FF11D1082D9CF2D
:104130008150823108F05AC0E82FF0E08827EC5512
:10414000FF4D8F4F0C94CB5AC420C820B620BC2002
:10415000C020F620CB20D120D520DB20DF20E3209B
:10416000E920ED20F620F120F720FB20809180004F
:104170008F77809380000895809180008F7DF9CFA4
:1041800080918000877FF5CF84B58F7784BD0895B7
:1041900084B58F7DFBCF8091B0008F778093B00086
:1041A00008958091B0008F7DF9CF809190008F7736
:1041B000809390000895809190008F7DF9CF809139
:1041C0009000877FF5CF8091A0008F778093A0002B
:1041D00008958091A0008F7DF9CF8091A000877F06
:1041E000F5CF809120018F778093200108958091F1
:1041F00020018F7DF9CF80912001877FF5CFCF936C
:10420000DF93282F30E0F901E55DF14C8491F9014D
:10421000E557F14CD491F901E551F14CC491CC230F
:10422000A1F081110E949820EC2FF0E0EE0FFF1F0B
:10423000EF58F14CA591B491EC91ED2381E090E021
:1042400009F480E0DF91CF91089580E090E0FACF0B
:104250001F93CF93DF93282F30E0F901E55DF14CF8
:104260008491F901E557F14CD491F901E551F14CF4
:10427000C491CC23A9F0162F81110E949820EC2F15
:10428000F0E0EE0FFF1FEF52F14CA591B4918FB704
:10429000F894EC91111108C0D095DE23DC938FBF08
:1042A000DF91CF911F910895DE2BF8CFCF93DF934D
:1042B00090E0FC01E557F14C24918551914CFC01B3
:1042C00084918823C9F090E0880F991FFC01EF5E6C
:1042D000F14CA591B491FC01EF52F14CC591D491F0
:1042E00061110DC09FB7F8948C91209582238C9317
:1042F0008881282328839FBFDF91CF910895623062
:1043000051F49FB7F8943C91822F809583238C932E
:10431000E8812E2BEFCF8FB7F894EC912E2B2C93B6
:104320008FBFEACF1F93CF93DF93182FEB0161E08C
:104330000E945621209739F460E0812FDF91CF91C0
:104340001F910C942821CF3FD10511F461E0F5CFE6
:10435000E12FF0E0E55DF14CE491E150E23108F04D
:10436000B3C0F0E08827E854FE4D8F4F0C94CB5A31
:10437000CA21D221D721E121EB216422F521FD219F
:1043800005220F221922232232223C2264224622B5
:1043900050225A2284B5806884BDC7BDDF91CF9179
:1043A0001F91089584B5806284BDC8BDF7CF809108
:1043B0008000806880938000D0938900C09388003B
:1043C000EDCF80918000806280938000D0938B003D
:1043D000C0938A00E3CF8091800088608093800042
:1043E000D0938D00C0938C00D9CF8091B0008068AD
:1043F0008093B000C093B300D1CF8091B0008062B1
:104400008093B000C093B400C9CF809190008068C1
:1044100080939000D0939900C0939800BFCF809173
:104420009000806280939000D0939B00C0939A008C
:10443000B5CF80919000886080939000D0939D00CC
:10444000C0939C00ABCF8091A00080688093A000B7
:104450008091A0008F7B8093A000D093A900C0938F
:10446000A8009CCF8091A00080628093A000D09390
:10447000AB00C093AA0092CF8091A0008860809387
:10448000A000D093AD00C093AC0088CF80912001F4
:10449000806880932001D0932901C09328017ECFAA
:1044A00080912001806280932001D0932B01C093E2
:1044B0002A0174CF80912001886080932001D093DD
:1044C0002D01C0932C016ACFC038D1050CF03ECF2E
:1044D00033CF8230910538F0880F991F880F991FCC
:1044E00005970197F1F708954F925F926F927F922F
:1044F0008F929F92AF92BF92FF920F931F93CF9391
:10450000DF93F62E5901BA0190E080E00E945557E2
:104510009B01AC0160E074E284E799E40E94C65913
:104520000E94385A072E000C880B990B0E9457578F
:104530002B013C0120E030E040E05FE30E94B657F1
:104540000E94385AEB0161E08F2D0E945621C5016F
:10455000B8010E94555720E030E04AE754E40E9439
:10456000B657A30192010E94C6594B015C0101E0BC
:1045700010E0B801012E000C880B990B0E945757D0
:10458000A50194010E94505718168CF061E08F2D00
:104590000E942821CE010E94692260E08F2D0E9496
:1045A0002821CE010E9469220F5F1F4FE2CFDF91C9
:1045B000CF911F910F91FF90BF90AF909F908F90E0
:1045C0007F906F905F904F9008953FB7F8948091DF
:1045D0001F0A9091200AA091210AB091220A26B5C3
:1045E000A89B05C02F3F19F00196A11DB11D3FBF2B
:1045F000BA2FA92F982F8827BC01CD01620F711DFA
:10460000811D911D42E0660F771F881F991F4A95F3
:10461000D1F708950F931F93CF93DF9300D000D06D
:1046200000D0CDB7DEB78091BA0C9091BB0C892B2E
:1046300009F47CC00E94E5220091C00C1091C10CCD
:104640002091C20C3091C30C601771078207930749
:1046500040F46093C00C7093C10C8093C20C909393
:10466000C30C0091C00C1091C10C2091C20C309170
:10467000C30C601B710B820B930B6C327140810574
:104680009105C0F2F8948091B50C9091B60C9A8384
:104690008983E091BA0CF091BB0CDF011196808107
:1046A00089879091B10CE091C40CF091C50C809178
:1046B000C60C992309F445C09081982B9887908166
:1046C000809589238F838F818C8388E08B835885A5
:1046D0006F8149853B812C8189819A81508347FD77
:1046E000252F3A952083262F39F0441F00C0000063
:1046F0006083000000C0F2CF38E04D91608300007D
:10470000019761F7F093C50CE093C40C49873B8394
:104710002C839A83898378940E94E5226093C00C4D
:104720007093C10C8093C20C9093C30C29960FB662
:10473000F894DEBF0FBECDBFDF91CF911F910F91D7
:1047400008959081982B98879081809589238F83F5
:104750008F818E8388E08D8358856F8149853D8167
:104760002E8189819A81508347FD252F00C000C08A
:10477000208300C000C000C000C000C060830000F3
:10478000262F3A9541F0441F000000C000C000C031
:1047900000C000C0E8CF38E04D9100C0608300C089
:1047A000019709F7F093C50CE093C40C49873D834A
:1047B0002E83AFCF8F929F92AF92BF92CF92DF9214
:1047C000EF92FF926B017C010E94E5224B015C019C
:1047D000C114D104E104F104B9F00E94E522681982
:1047E00079098A099B09683E73408105910580F328
:1047F00021E0C21AD108E108F10888EE880E83E0B2
:10480000981EA11CB11CE4CFFF90EF90DF90CF90D9
:10481000BF90AF909F908F9008952FB7F8946091BC
:104820001B0A70911C0A80911D0A90911E0A2FBFCD
:104830000895AF92BF92CF92DF92EF92FF920F93C3
:104840001F93CF93DF936C017B018B01040F151F26
:10485000EB015E01AE18BF08C017D10759F069918E
:10486000D601ED91FC910190F081E02DC6011995E2
:10487000892B79F7C501DF91CF911F910F91FF909F
:10488000EF90DF90CF90BF90AF900895FC01538DD3
:10489000448D252F30E0842F90E0821B930B54171A
:1048A00010F0CF96089501970895FC01918D828DA7
:1048B000981761F0A28DAE0FBF2FB11D5D968C9140
:1048C000928D9F5F9F73928F90E008958FEF9FEF7F
:1048D0000895FC01918D828D981731F0828DE80F3B
:1048E000F11D858D90E008958FEF9FEF0895FC01F5
:1048F000918D228D892F90E0805C9F4F821B9109C2
:104900008F739927089589E99AE00E94772421E01E
:10491000892B09F420E0822F0895FC01A48DA80FB3
:10492000B92FB11DA35ABF4F2C91848D90E00196F1
:104930008F739927848FA689B7892C93A089B18911
:104940008C91837080648C93938D848D981306C0B2
:104950000288F389E02D80818F7D80830895EF9216
:10496000FF920F931F93CF93DF93EC0181E0888F29
:104970009B8D8C8D98131AC0E889F989808185FFF9
:1049800015C09FB7F894EE89FF896083E889F9899B
:1049900080818370806480839FBF81E090E0DF919D
:1049A000CF911F910F91FF90EF900895F62E0B8DF0
:1049B00010E00F5F1F4F0F731127E02E8C8D8E11AB
:1049C0000CC00FB607FCFACFE889F989808185FF12
:1049D000F5CFCE010E948D24F1CFEB8DEC0FFD2F92
:1049E000F11DE35AFF4FF0829FB7F8940B8FEA89CD
:1049F000FB8980818062CFCF0F931F93CF93DF938A
:104A00008C01D0E0C0E0F801EC0FFD1F649166233B
:104A100041F089E99AE00E94AF24892B11F0219698
:104A2000F2CFCE01DF91CF911F910F910895CF93D7
:104A3000DF93EC01888D8823B9F0AA89BB89E889C6
:104A4000F9898C9185FD03C0808186FD0DC00FB66C
:104A500007FCF7CF8C9185FFF2CF808185FFEDCFEA
:104A6000CE010E948D24E9CFDF91CF91089580E09F
:104A700090E0892B29F00E94832481110E9400007C
:104A800080E090E0892B49F080E090E0892B29F0CC
:104A90000E94000081110E94000080E090E0892BBC
:104AA00049F080E090E0892B29F00E9400008111FC
:104AB0000E94000080E090E0892B49F080E090E0C7
:104AC000892B29F00E94000081110C9400000895A8
:104AD000AF92BF92CF92DF92EF92FF920F931F930C
:104AE000CF93DF936B017A01EC01C656DA4F288130
:104AF0003CE0389F8001399F100D1124A090C60B17
:104B0000B12C27FF1FC0FB011182108288818F5FAB
:104B1000888388819801280F311D87FD3A95F60119
:104B20002A153B051CF488818C30C4F18081918169
:104B3000049680349C4908F473C0F6018081918109
:104B4000049670C088819801280F311D87FD3A9521
:104B50002A153B05DCF68881A801480F511D87FD09
:104B60005A95FA01EE0FFF1FE40FF51FEA5CF44FB0
:104B7000808186FFCBCF8881F801E80FF11D87FD8A
:104B8000FA95CF01EE0FFF1FE80FF91FEA5CF44F13
:104B9000808160E08F730E942821B8CF808191814D
:104BA0002881A801420F511D27FD5A959A01FA014B
:104BB000EE0FFF1FE20FF31FEA5CF44F21813281F9
:104BC000820F931FF7019183808388819801280FBA
:104BD000311D87FD3A95F901EE0FFF1FE20FF31F1C
:104BE000EA5CF44F808186FF22C08881080F111D86
:104BF00087FD1A95F801EE0FFF1FE00FF11FEA5C29
:104C0000F44F808161E08F73DF91CF911F910F91FD
:104C1000FF90EF90DF90CF90BF90AF900C94282141
:104C200080E49CE9F701918380838FEF8883DF9193
:104C3000CF911F910F91FF90EF90DF90CF90BF9099
:104C4000AF9008952091A0053091A105281739074C
:104C500071F490919E0580919F05981741F0E09125
:104C60009E05F0E0E65AFA4F808190E008958FEFBC
:104C70009FEF0895EF92FF920F931F93CF93DF93CF
:104C8000DC015C96ED90FC905D97E114F10479F401
:104C900081E090E013969C938E93129790E080E0D1
:104CA000DF91CF911F910F91FF90EF900895519652
:104CB000ED91FC91529750968C915097982F90952A
:104CC0000FB75E962C915E97122F127021FD6095A2
:104CD000F8942081112319F1282B2083E7012197D3
:104CE000F1F728E0462F50E0308160FF1AC0382BE2
:104CF0003083E7012197F1F7BA0175956795215047
:104D000089F7112381F08081892380830FBF5C960E
:104D10008D919C910197F1F781E090E0C1CF29231B
:104D2000DCCF3923E5CF9081892BEFCFCF93C82FEC
:104D30006EE78CEC9BE00E943A266FEF8CEC9BE0D8
:104D40000E943A2666E08CEC9BE00E943A2666E0E0
:104D50008CEC9BE00E943A2660E08CEC9BE00E9489
:104D60003A2660E08CEC9BE00E943A266C2F8CEC9B
:104D70009BE00E943A266FEE8CEC9BE00E943A2664
:104D80006AE070E080E090E0CF910C94DA2320910B
:104D9000A0053091A1052817390761F480919F057E
:104DA00020919E0590E0805C9F4F821B91098F733C
:104DB0009927089590E080E008952091A005309112
:104DC000A10528173907B9F490919E0580919F0598
:104DD000981789F0E0919E05F0E0E65AFA4F80813D
:104DE00020919E0530E02F5F3F4F2F733327209394
:104DF0009E0590E008958FEF9FEF0895E091A00544
:104E0000F091A105E817F90769F4A389B4899C9189
:104E10008589809589238C931092A1051092A00515
:104E200081E0089580E008954830510580F56830AC
:104E3000710568F5DC015696EC91E23049F1E330FA
:104E400091F1E13031F4E7E0F0E0E41BF50BAB0168
:104E5000BF01695F7F4F440F551FDC01A40FB51FD1
:104E60005B968D919C915C9767707727E1E0F0E00D
:104E7000AF0102C0440F551F6A95E2F7BA01232B18
:104E8000C9F0682B792B5C967C936E935B970895A1
:104E9000E7E0F0E0DF01A61BB70BBD01DF01A41BBB
:104EA000B50BAD01D6CFE7E0F0E0E61BF70BBA019A
:104EB000AF01CFCF6095709568237923E4CF089533
:104EC000FC016370668B8481958126813781613016
:104ED00039F0633029F091878087338722870895DE
:104EE000318720879387828708952F923F924F9230
:104EF0005F926F927F928F929F92AF92BF92CF926A
:104F0000DF92EF92FF920F931F93CF93DF93CDB772
:104F1000DEB76A970FB6F894DEBF0FBECDBF9A8F8B
:104F2000898F7A8369834A01D22E18870F833701CC
:104F3000BC2CDC0159962D913C915A9721153105D5
:104F400009F015C118968D919C91199768177907EA
:104F50000CF0D7C11A968D919C91481759070CF007
:104F6000D0C14C2C512CB6E0CB9E600D711D11248C
:104F70007C876B87161617060CF0C3C1EA2DF0E08C
:104F8000FA87E98793E0EE0FFF1F9A95E1F7F88B18
:104F9000EF87CF01840F951F181619060CF0B1C1C9
:104FA000A98DBA8D58968C91811104C0BFEABD15A8
:104FB00008F4D394A98DBA8DED91FC9111970284D8
:104FC000F385E02DCD011995B5E0DB9EC0011124DC
:104FD000E981FA81FC83EB83312C212C9C012A5B33
:104FE000384C388F2F8B4A2D50E05E8B4D8BEF89DC
:104FF000F88DE20DF31D44919E828D82D12CC12C3F
:1050000069817A81620D731D7A8B698B842F90E0A0
:105010009C8B8B8BE98DFA8DA081B18140FF82C082
:10502000F1E0BF126FC0AF126DC01C96ED91FC9104
:105030002F813885A4014C0D5D1D69897A89898D80
:105040009A8D1995EB89FC89F595E7954E2F5FEFC1
:10505000C51AD50A6D817E818D899E89680F791F59
:105060007E836D8398E0C916D10481F6AFEF2A1ACA
:105070003A0AEB81FC81E40DF51DFC83EB83F5E03E
:105080002F16310409F0B3CF2F8138852615370547
:10509000B9F0A98DBA8DED91FC91B1E0BB1257C06A
:1050A000AB1255C069817A816B5F7F4F0088F189AF
:1050B000E02D830128E030E0A401898D9A8D1995B7
:1050C000A98DBA8DED91FC9111970688F789E02D95
:1050D000CD016A960FB6F894DEBF0FBECDBFDF914B
:1050E000CF911F910F91FF90EF90DF90CF90BF90E5
:1050F000AF909F908F907F906F905F904F903F9078
:105100002F9019941E96ED91FC91EF80F8840985FB
:105110001A8592014D815E816B817C81898D9A8D8A
:10512000199590CF2F8138852615370509F48ACF38
:1051300031E0B31207C0A31205C01C96ED91FC919B
:10514000930178CF1E96ED91FC917301E0CF6B85B2
:105150007C85641975090684F785E02D73010F8538
:1051600018899201A401898D9A8D1995A9CFF90109
:1051700034969491329745915491D91AB7E0DB9EB9
:10518000400D511D1124F901259134913C8B2B8B3D
:10519000FA0125903490FA01329674903196349148
:1051A000398B329664903196449041E04C1518F05A
:1051B0004A1508F07FC0662D062C000C770B7C8307
:1051C0006B83842D042C000C990B9E838D83A98DF9
:1051D000BA8DED91FC9111970284F385E02DCD01FC
:1051E0001995512CD12CC12CEA2DF0E0FA87E987D2
:1051F0002B2D30E03C872B87A401440D511D47FC2B
:105200005A95588F4F8B69817A81660D711D67FCA5
:105210007A957E876D877989C71608F051CF2C2D36
:1052200030E04D815E81420F531FA985BA854A9FA8
:10523000C0014B9F900D5A9F900D1124FC01E80D69
:10524000F91DF88BEF87852D612C4F89588D420F02
:10525000531F5E8B4D8B671408F050C04424439459
:10526000480E877041F4C1010196EB89FC89E20D7B
:10527000F31DD4901C01D7FE19C0A98DBA8DED91F4
:10528000FC91662D70E0B1E0BB1219C0AB1217C0E3
:105290002D853E85620F731F0484F585E02D2F81D7
:1052A00038854D895E89898D9A8D1995DD0C6394B9
:1052B000842DD1CF1E821D821C821B8288CF4B8100
:1052C0005C81640F751FAB85BC856A9FC0016B9FB5
:1052D000900D7A9F900D112469817A81680F791F52
:1052E0000684F785E02DEF80F88409851A859D01F5
:1052F0004F855889898D9A8D1995D8CF570CC394AD
:105300008ACF6A960FB6F894DEBF0FBECDBFDF918D
:10531000CF911F910F91FF90EF90DF90CF90BF90B2
:10532000AF909F908F907F906F905F904F903F9045
:105330002F9008958F929F92AF92CF92EF92FF920B
:105340000F931F93CF93DF93EC01262F898D9A8DB6
:10535000009709F051C06A30D1F41D861C868D89F2
:1053600048E0849F900111248E859F85820F931FB2
:105370009F878E8781E090E0DF91CF911F910F9101
:10538000FF90EF90CF90AF909F908F9008956D30E9
:1053900089F3CC88AD888F898823C1F08C859D8561
:1053A00036E0C39E800D911D11244885598548170C
:1053B000590764F44E855F851D861C8638E0A39EE0
:1053C000C0011124840F951F9F878E87EA88FB8870
:1053D000088919894E855F856C857D85CE010E947F
:1053E00075272C898C859D8546E0249F800D911D15
:1053F00011249D878C87BECF6A3069F41D861C8678
:10540000FC013896E4912D898E859F85E29F800D61
:10541000911D1124ADCF6D3009F4ACCFFC01349651
:105420003491631708F4A6CF3296E491E61708F496
:10543000A1CFFC01329685909490462F431B342FC8
:1054400047E0349F800C911C1124F4013296349172
:105450003196E4913323A9F1EE2399F1CC88F4013C
:105460003596E491AD884F89442301F10E2E000C4E
:10547000FF0BE30FF11DCE9EA001CF9E500D112416
:105480006C857D85460F571F68857985641775077C
:105490006CF44E855F851D861C86FC013896E49170
:1054A000AE9E400D511D11245F874E87EA88FB8810
:1054B000088919894E855F856C857D85CE010E949E
:1054C0007527F4013496E4912C898C859D85E29FA3
:1054D000800D911D11248DCF6F927F928F929F929C
:1054E000AF92BF92CF92DF92EF92FF920F931F93F2
:1054F000CF93DF93EC016B015A0139014801E88138
:10550000F9810284F385E02D1995E881F9810288FB
:10551000F389E02D87019301A501B601CE0119950C
:10552000A501480D591D41505109E881F9810288B2
:10553000F389E02D9301B601CE011995E881F98137
:105540000088F189E02D9401A501B601CE011995DD
:10555000C60CD71CB60161507109E881F981008839
:10556000F189E02D9401A501CE011995E881F98119
:105570000688F789E02DCE01DF91CF911F910F9121
:10558000FF90EF90DF90CF90BF90AF909F908F9063
:105590007F906F9019946F927F928F929F92AF92AB
:1055A000BF92CF92DF92EF92FF920F931F93CF9310
:1055B000DF935C01EB016A01490138018701DC01DD
:1055C000ED91FC916217730719F5641675062CF0BE
:1055D000962D872D3A01C92ED82E96012619370906
:1055E0002F5F3F4F048CF58DE02DA301BE01C50157
:1055F0001995DF91CF911F910F91FF90EF90DF9060
:10560000CF90BF90AF909F908F907F906F900895B4
:105610004615570591F42617370724F0892D4B01BD
:10562000C22FD82F9E01281939092F5F3F4F068CB2
:10563000F78DE02DA601B401DACF0284F385E02DC9
:105640001995D501ED91FC910488F589E02D830130
:105650009401A601BE01C5011995D501ED91FC91FA
:105660000688F789E02DC501DF91CF911F910F9139
:10567000FF90EF90DF90CF90BF90AF909F908F9072
:105680007F906F901994EF92FF920F931F93DC011C
:105690001A960D911C911B9718962D913C91199774
:1056A000ED91FC9100A0F1A1E02D7B0150E040E0E4
:1056B00070E060E019951F910F91FF90EF900895B1
:1056C0004F925F926F927F928F929F92AF92BF9212
:1056D000CF92DF92EF92FF920F931F93CF93DF93BE
:1056E0006C012B015A0139014801DC01ED91FC915B
:1056F0000284F385E02D1995E201640C751CD60136
:10570000ED91FC91C615D7055CF40088F189E02D78
:1057100087019401A501BE01C60119952196EFCF1D
:105720000688F789E02DC601DF91CF911F910F9177
:10573000FF90EF90DF90CF90BF90AF909F908F90B1
:105740007F906F905F904F9019948F929F92AF923D
:10575000BF92CF92DF92EF92FF920F931F93CF935E
:10576000DF93EC015B014A016901E881F981028460
:10577000F385E02D199595012C0D3D1D2150310922
:10578000E881F9810488F589E02D78018401A4017C
:10579000B501CE011995E881F9810688F789E02DD8
:1057A000CE01DF91CF911F910F91FF90EF90DF908D
:1057B000CF90BF90AF909F908F9019948F929F92AF
:1057C000AF92BF92CF92DF92EF92FF920F931F930F
:1057D000CF93DF93EC015B014A0169017801E88115
:1057E000F9810284F385E02D1995C80CD91C860136
:1057F00001501109E881F9810488F589E02D9501AE
:10580000A401B501CE011995E881F9810688F789CF
:10581000E02DCE01DF91CF911F910F91FF90EF907E
:10582000DF90CF90BF90AF909F908F901994EF92A0
:10583000FF920F931F93DC01ED91FC9100A0F1A169
:10584000E02D19951F910F91FF90EF9008950F9300
:105850001F93DC01ED91FC91068CF78DE02D1995DD
:105860001F910F9108950F931F93DC01ED91FC910F
:10587000048CF58DE02D19951F910F910895DC0191
:10588000ED91FC910084F185E02D19942F923F92C7
:105890004F925F926F927F928F929F92AF92BF9240
:1058A000CF92DF92EF92FF920F931F93CF93DF93EC
:1058B00000D000D0CDB7DEB73C016A013E832D8316
:1058C000FC82EB825801A41AB50AB7FE03C0B1945A
:1058D000A194B1088D809E80861A970A97FE03C016
:1058E0009194819491088A149B045CF0902F812FED
:1058F0000D811E819D838E839C2D8D2D6B01692FC3
:10590000782F0C151D055CF09D818E817E836D8343
:10591000692F782F902F812F8601C92ED82E16013E
:10592000201A310A2B012D813E81421A530A57FE5B
:1059300003C0519441945108710137FE03C03FEFF9
:10594000E31AF30AF594E7948D819E8186179707F1
:105950005CF5A1E0B0E0BA83A983C016D1064CF192
:10596000D301ED91FC910484F585E02D2B813C81E0
:10597000A8016D817E818A149B041CF04D815E819B
:10598000B801C3011995E418F508F7FE0AC02D8186
:105990003E8189819A81280F391F3E832D83E20C35
:1059A000F31C0F5F1F4FD9CF2FEF3FEF3A832983AF
:1059B000D4CF26960FB6F894DEBF0FBECDBFDF91D1
:1059C000CF911F910F91FF90EF90DF90CF90BF90FC
:1059D000AF909F908F907F906F905F904F903F908F
:1059E0002F900895089520913705260F3327331FF0
:1059F00021323105ECF420916F0AFC0190E080E047
:105A0000243069F082E00895A09137052191AC011E
:105A1000495E5A4FA40FB52FB11D2C9301968617DE
:105A200098F380913705680F6093370580E00895FB
:105A300081E0089510926F0A81E080936E0A1092BF
:105A4000490A61E084E10E94282161E085E10E9429
:105A50002821E9EBF0E080818E7F808380818D7F3B
:105A6000808388E48093B80085E48093BC00089527
:105A70001092480A1092470A1092760A1092980AD9
:105A80000E941A2D88ED9FE19093460A8093450A63
:105A900089ED9FE19093440A8093430A0895CF9340
:105AA000DF9391E0909316058823B9F0C091B80078
:105AB000D091BA008091BC008A7B8093BC0060E0EA
:105AC00084E10E94282160E085E10E9428210E9453
:105AD0001A2DD093BA00C093B800DF91CF910895EA
