:100000000C94F6000C94810B0C941E010C941E01B0
:100010000C941E010C941E010C941E010C941E01E4
:100020000C941E010C941E010C941E010C94A60944
:100030000C941E010C941E010C941E010C941E01C4
:100040000C94F6080C941E010C9466090C9440095B
:100050000C941E010C941E010C941E010C941E01A4
:100060000C94620A0C941E01524541445920626F5F
:100070006172643D726963685F736869656C64206E
:1000800066773D302E360065727220756E6B6E6F2E
:10009000776E2000617220006472200062746E200E
:1000A00000697220006D696320006A6F7920006B1F
:1000B0006E6F6220006C6967687420006468746801
:1000C000756D69200064687474656D7020007465D6
:1000D0006D702000646973742000706F6E67004358
:1000E000415053207267622C62757A7A65722C7364
:1000F0006572766F2C6E656F2C666E642C6C636413
:100100002C646973742C74656D702C6468747465E8
:100110006D702C64687468756D692C6C696768749F
:100120002C6B6E6F622C6A6F792C6D69632C69720F
:100130002C62746E2C64772C64722C61722C617743
:100140002C746F6E652C6D6F646500524541445987
:1001500020626F6172643D726963685F736869658C
:100160006C642066773D302E3600757000646F77C2
:100170006E006576742062746E32200075700064C3
:100180006F776E006576742062746E312000000017
:100190000000240027002A000000000800020100DF
:1001A0000003040700000000000000000000000041
:1001B00023002600290001020408102040800102CB
:1001C000040810200102040810200000000025008F
:1001D00028002B00040404040404040402020202A4
:1001E00002020303030303030F100E1A11241FBEA0
:1001F000CFEFD8E0DEBFCDBF12E0A0E0B1E0E2E19A
:10020000FDE302C005900D92A23DB107D9F724E0AD
:10021000A2EDB2E001C01D92A23EB207E1F710E0EC
:10022000C5EFD0E004C02197FE010E94361DC43FF7
:10023000D107C9F70E9419110C947C1E0C94000080
:100240008230910538F0880F991F880F991F059704
:100250000197F1F708958091C4049091C5040C941E
:1002600020014F925F926F927F928F929F92AF92F6
:10027000BF92FF922091C8043091C904821793075E
:1002800008F043C02B0166247724852E962EA72ED6
:10029000BB24B82DA42F2091CE04F42C222391F05E
:1002A000E22FF0E0E49DD001E59DB00DF49DB00D8E
:1002B0001124FB2E289D40011124B92D249F90016B
:1002C0001124A32FE091D4042091CF043091D004C5
:1002D0005091D104E51323C0FC01EE0FFF1F8E0FD8
:1002E0009F1F820F931FE091D104E80FF92FF11D9A
:1002F000F082E091D204E80FF92FF11DB083209134
:10030000D304820F911DFC01A083FF90BF90AF909A
:100310009F908F907F906F905F904F900895880F7F
:10032000991F880F991F820F931FE80FF92FF11D56
:100330001082D9CF1F93CF93DF9311E0180F209134
:10034000CE041217A1F1C091CF04D091D004215056
:1003500070E060E061F08F3FF1F430E050E040E0A9
:100360006FEF7FEF80E090E00E94701AB901FE010C
:100370004091CA045091CB04CF018C1B9D0B841774
:10038000950798F44081469FC001479F900D112426
:1003900090833196EDCF812F90E0982F8827019799
:1003A000622F70E00E94221DE2CF1093CE04DF91F5
:1003B000CF911F910895833081F028F4813099F016
:1003C0008230A9F008958730A9F08830C9F08430D0
:1003D000B1F4809180008F7D03C0809180008F7781
:1003E00080938000089584B58F7784BD089584B587
:1003F0008F7DFBCF8091B0008F778093B000089500
:100400008091B0008F7DF9CFCF93DF93282F30E01C
:10041000F901E856FE4F8491F901EA54FE4FD49158
:10042000F901EC52FE4FC491CC23A1F081110E943E
:10043000DB01EC2FF0E0EE0FFF1FE455FE4FA5911E
:10044000B491EC91ED2381E090E009F480E0DF913C
:10045000CF91089580E090E0FACF1F93CF93DF9380
:10046000282F30E0F901E856FE4F8491F901EA5453
:10047000FE4FD491F901EC52FE4FC491CC23A9F068
:10048000162F81110E94DB01EC2FF0E0EE0FFF1F11
:10049000E653FE4FA591B4918FB7F894EC911111EA
:1004A00008C0D095DE23DC938FBFDF91CF911F91E1
:1004B0000895DE2BF8CFCF93DF9390E0FC01EA5450
:1004C000FE4F24918C529E4FFC0184918823C9F0E9
:1004D00090E0880F991FFC01E257FE4FA591B4915F
:1004E000FC01E653FE4FC591D49161110DC09FB739
:1004F000F8948C91209582238C93888128232883DB
:100500009FBFDF91CF910895623051F49FB7F89467
:100510003C91822F809583238C93E8812E2BEFCF03
:100520008FB7F894EC912E2B2C938FBFEACF4F927C
:100530005F926F927F928F929F92AF92BF92FF9243
:100540000F931F93CF93DF93F62E5901BA0190E0DA
:1005500080E00E94ED1B9B01AC0160E074E284E747
:1005600099E40E94451B0E94B71B072E000C880BC4
:10057000990B0E94EF1B2B013C0120E030E040E092
:100580005FE30E94A41C0E94B71BEB0161E08F2D6A
:100590000E945B02C501B8010E94ED1B20E030E023
:1005A0004AE754E40E94A41CA30192010E94451B47
:1005B0004B015C0101E010E0B801012E000C880B3A
:1005C000990B0E94EF1BA50194010E94401B181675
:1005D0008CF061E08F2D0E942D02CE010E9420013F
:1005E00060E08F2D0E942D02CE010E9420010F5F3E
:1005F0001F4FE2CFDF91CF911F910F91FF90BF90DE
:10060000AF909F908F907F906F905F904F900895E4
:10061000CF93DF93C1ECD4E061E089810E945B025B
:100620000E942B0160E088810E945B020E942B01E6
:1006300060E089810E945B02DF91CF910C942B01D5
:100640000F931F93CF93DF93D82FC8E061E0809181
:10065000C1040E945B020E942B010D2F10E060E09C
:10066000D0FF61E08091C2040E945B020E942B01D6
:1006700060E08091C1040E945B020E942B011595ED
:100680000795D02FC15011F761E08091C1040E94FD
:100690005B0260E08091C2040E945B020E942B0119
:1006A00060E08091C1040E945B020E942B01809156
:1006B000C2040E940402C82F811105C061E080912C
:1006C000C2040E945B020E942B0161E08091C10480
:1006D0000E945B020E942B0181E0C11101C080E0F9
:1006E000DF91CF911F910F91089561E08091C20435
:1006F0000E945B020C942B010F931F93CF93DF9307
:100700008C010E94750380E40E9420030E9408036C
:100710000E94750380EC0E942003E8010C5F1F4FCC
:1007200089910E942003C017D107D1F70E940803C6
:100730000E9475038091C3048F7080580E9420032B
:10074000DF91CF911F910F910C940803CF93DF930A
:1007500000D000D0CDB7DEB719821A821B821C826E
:10076000CE0101960E947C030F900F900F900F9086
:10077000DF91CF9108951F93CF93DF93182FEB0153
:1007800061E00E945B02209739F460E0812FDF91E5
:10079000CF911F910C942D02CF3FD10511F461E050
:1007A000F5CFE12FF0E0E856FE4FE491E33031F170
:1007B00040F4E130B1F0E230E1F0C038D1057CF72F
:1007C000E4CFE73029F1E83059F1E430B1F7809116
:1007D0008000806280938000D0938B00C0938A0059
:1007E00004C084B5806884BDC7BDDF91CF911F91DF
:1007F000089584B5806284BDC8BDF7CF8091800024
:10080000806880938000D0938900C0938800EDCFEA
:100810008091B00080688093B000C093B300E5CFB2
:100820008091B00080628093B000C093B400DDCFAF
:100830003FB7F8948091080490910904A0910A04AC
:10084000B0910B0426B5A89B05C02F3F19F0019667
:10085000A11DB11D3FBFBA2FA92F982F8827BC011A
:10086000CD01620F711D811D911D42E0660F771F42
:10087000881F991F4A95D1F708950F931F93CF931F
:10088000DF93CDB7DEB729970FB6F894DEBF0FBE62
:10089000CDBF8091CF049091D004892B09F47CC006
:1008A0000E9418040091D5041091D6042091D70419
:1008B0003091D804601771078207930740F4609362
:1008C000D5047093D6048093D7049093D8040091F4
:1008D000D5041091D6042091D7043091D804601B20
:1008E000710B820B930B6C32714081059105C0F244
:1008F000F8948091CA049091CB049A838983E09103
:10090000CF04F091D004DF01119680818987909106
:10091000C604E091D904F091DA048091DB049923B4
:1009200009F445C09081982B988790818095892300
:100930008F838F818C8388E08B8358856F81498575
:100940003B812C8189819A81508347FD252F3A95DF
:100950002083262F39F0441F00C000006083000070
:1009600000C0F2CF38E04D9160830000019761F73D
:10097000F093DA04E093D90449873B832C839A836C
:10098000898378940E9418046093D5047093D604E8
:100990008093D7049093D80429960FB6F894DEBFBD
:1009A0000FBECDBFDF91CF911F910F910895908120
:1009B000982B98879081809589238F838F818E8350
:1009C00088E08D8358856F8149853D812E8189819D
:1009D0009A81508347FD252F00C000C0208300C0AE
:1009E00000C000C000C000C060830000262F3A9500
:1009F00041F0441F000000C000C000C000C000C0A3
:100A0000E8CF38E04D9100C0608300C0019709F73E
:100A1000F093DA04E093D90449873D832E83AFCF66
:100A20008F929F92AF92BF92CF92DF92EF92FF92FE
:100A30004B015C010E9418046B017C010E941804A8
:100A40006C197D098E099F09683E734081059105E7
:100A5000A8F321E0821A9108A108B10888EEC80E17
:100A600083E0D81EE11CF11C81149104A104B1049F
:100A700029F7FF90EF90DF90CF90BF90AF909F90BD
:100A80008F9008952FB7F894609104047091050435
:100A900080910604909107042FBF0895089508954A
:100AA000AF92BF92CF92DF92EF92FF920F931F937C
:100AB000CF93DF936C017B018B01040F151FEB01BA
:100AC0005E01AE18BF08C017D10759F06991D60171
:100AD000ED91FC910190F081E02DC6010995892BE3
:100AE00079F7C501DF91CF911F910F91FF90EF90A2
:100AF000DF90CF90BF90AF900895FC01538D448D4F
:100B0000252F30E0842F90E0821B930B541710F0B8
:100B10004F96089501970895FC01918D828D981745
:100B200079F0A28DAE0FBF2FB11D5D962C91828DF5
:100B30008F5F60E30E94161D928F822F90E00895D0
:100B40008FEF9FEF0895FC01918D828D981731F002
:100B5000828DE80FF11D858D90E008958FEF9FEF56
:100B60000895FC01918D228D892F90E0C096821B03
:100B7000910960E370E00E94221D08958CE094E0EA
:100B80000E94B10521E0892B09F420E0822F08950D
:100B900080E090E0892B29F00E94BE0581110C9421
:100BA00000000895FC01A48DA80FB92FB11DA35B0F
:100BB000BF4F2C91848D90E001968F719927848F7F
:100BC000A689B7892C93A089B1898C9183708064A0
:100BD0008C93938D848D981306C00288F389E02D41
:100BE00080818F7D80830895EF92FF920F931F93F2
:100BF000CF93DF93EC0181E0888F9B8D8C8D9813D0
:100C00001AC0E889F989808185FF15C09FB7F894DB
:100C1000EE89FF896083E889F98980818370806427
:100C200080839FBF81E090E0DF91CF911F910F9172
:100C3000FF90EF900895F62E0B8D10E00F5F1F4F81
:100C40000F711127E02E8C8D8E110CC00FB607FC92
:100C5000FACFE889F989808185FFF5CFCE010E941E
:100C6000D205F1CFEB8DEC0FFD2FF11DE35BFF4FB4
:100C7000F0829FB7F8940B8FEA89FB8980818062AC
:100C8000CFCF0F931F93CF93DF938C01D0E0C0E0C1
:100C9000F801EC0FFD1F6491662341F08CE094E0B5
:100CA0000E94F405892B11F02196F2CFCE01DF913D
:100CB000CF911F910F910895CF93DF93EC01888D11
:100CC0008823B9F0AA89BB89E889F9898C9185FDC7
:100CD00003C0808186FD0DC00FB607FCF7CF8C9155
:100CE00085FFF2CF808185FFEDCFCE010E94D20536
:100CF000E9CFDF91CF910895089520912203260F27
:100D00003327331F21323105ECF420916B03FC01B2
:100D100090E080E0243069F082E00895A091220301
:100D20002191AC014E5F5C4FA40FB52FB11D2C93E8
:100D30000196861798F380912203680F609322032F
:100D400080E0089581E0089510926B0381E0809324
:100D50006A031092450361E082E10E942D0261E086
:100D600083E10E942D02E9EBF0E080818E7F808399
:100D700080818D7F808388E48093B80085E48093B0
:100D8000BC000895CF93DF9391E0909301038823F3
:100D9000B9F0C091B800D091BA008091BC008A7BB4
:100DA0008093BC0060E082E10E942D0260E083E15C
:100DB0000E942D020E94A406D093BA00C093B800EE
:100DC000DF91CF9108950895E0919F0380919E0354
:100DD000E81730F4F0E0EF51FD4F808190E0089586
:100DE0008FEF9FEF089590919F0380919E032FEFC7
:100DF0003FEF981748F4E92FF0E0EF51FD4F2081C5
:100E000030E09F5F90939F03C901089580919E03F6
:100E100090919F03891B990B0895CF92DF92EF92D7
:100E2000FF920F931F93CF93DF937C01CB018A0135
:100E300020917103222389F0EB016B01C40ED51EB2
:100E4000CC15DD0569F06991D701ED91FC91019018
:100E5000F081E02DC7010995F3CF642F0E947D0634
:100E6000C801DF91CF911F910F91FF90EF90DF901C
:100E7000CF900895CF93DF931F92CDB7DEB76983EC
:100E8000209171032223F9F020919C03203258F025
:100E900021E030E0FC013383228390E080E00F907A
:100EA000DF91CF91089580919D03E82FF0E0EE58F7
:100EB000FC4F998190838F5F80939D0380939C0367
:100EC00081E090E0ECCF61E0CE0101960E947D06CA
:100ED000F7CFCF92DF92EF92FF920F931F93CF93B2
:100EE000DF93FC01C48121E020937103C09392033E
:100EF00010929D0310929C038385682B89E794E0F0
:100F00000E943A07D0919C03D13208F092C00E940F
:100F100018046B017C0180916B03811165C082E034
:100F200080936B0381E080936A038FEF8093690362
:100F300010926803D0936703A2E7B3E0E7E4F3E01D
:100F400080E0D81385C01092460380914603CC0FF1
:100F5000C82BC093460380914503813009F07CC0C3
:100F6000109245030E9418046B017C018091460396
:100F70008093BB0080916D0390916E03A0916F03ED
:100F8000B0917003892B8A2B8B2B99F00E94180447
:100F900000916D0310916E0320916F0330917003E7
:100FA0006C197D098E099F0906171707280739074D
:100FB000E0F18091BC0083FDD9CF85EC8093BC002B
:100FC0000E9418046B017C0180916B03823009F44C
:100FD00045C0809169038F3F61F180916903803240
:100FE00041F18091690325C080916D0390916E035A
:100FF000A0916F03B0917003892B8A2B8B2B09F47E
:101000008ACF0E94180400916D0310916E03209105
:101010006F03309170036C197D098E099F090617C3
:1010200017072807390708F076CF80916C030E94D4
:10103000C20610929D0310929C0310927103DF91DF
:10104000CF911F910F91FF90EF90DF90CF90089577
:101050009D9191938F5F75CF85EEB0CF80916D0399
:1010600090916E03A0916F03B0917003892B8A2B2E
:101070008B2B09F4A9CF0E94180400916D031091E5
:101080006E0320916F03309170036C197D098E09F6
:101090009F09061717072807390708F095CFC5CF0E
:1010A00090E080E008950F931F93CF938C01C62F9B
:1010B0000E9469076C2F6460C8010E9469076C2F49
:1010C0006B7FC8010E94690783EC90E00197F1F7FC
:1010D000CF911F910F9108950F931F93CF93DF939B
:1010E0008C01D62FC42F607F642B0E94530880E1AF
:1010F000D89FB00111246C2BC801DF91CF911F91B3
:101100000F910C94530841E00E946C0881E090E03C
:10111000089540E061E00E946C088BE39FE1019735
:10112000F1F7089568E072E090E080E00E943C1AD8
:10113000009711F00C941E1A90E080E00895FB01D6
:1011400001900020E9F73197AF01461B570BDC01F6
:10115000ED91FC910280F381E02D0994CF93DF9310
:101160000E944106EC016FE072E08CE094E00E9486
:101170009F088C0F9D1FDF91CF91089585ED80937F
:10118000BC0080916D0390916E03A0916F03B091AC
:1011900070030796A11DB11D23E0B695A7959795FD
:1011A00087952A95D1F72091BC0024FD03C01092A9
:1011B0006B03089540916D0350916E0360916F032E
:1011C00070917003452B462B472B69F30097A105BF
:1011D000B10541F02AE22A95F1F700C00197A10973
:1011E000B109E1CF80916C030C94C2061F920F925B
:1011F0000FB60F9211242F933F938F939F93AF932A
:10120000BF938091040490910504A0910604B091CD
:1012100007043091030423E0230F2D3758F501967E
:10122000A11DB11D20930304809304049093050431
:10123000A0930604B09307048091080490910904D8
:10124000A0910A04B0910B040196A11DB11D8093D9
:10125000080490930904A0930A04B0930B04BF916F
:10126000AF919F918F913F912F910F900FBE0F9053
:101270001F90189526E8230F0296A11DB11DD2CF0D
:101280001F920F920FB60F9211242F933F934F93FB
:101290005F936F937F938F939F93AF93BF93EF93DE
:1012A000FF938CE094E00E94D205FF91EF91BF91F3
:1012B000AF919F918F917F916F915F914F913F91EE
:1012C0002F910F900FBE0F901F9018951F920F92A5
:1012D0000FB60F9211242F935F936F937F938F9389
:1012E0009F93AF93BF93EF93FF93E0911C04F09112
:1012F0001D048081E0912204F091230482FD24C02A
:1013000020818091250490E0019660E370E00E94C6
:10131000221D90912604981741F0E0912504F0E0F9
:10132000E45FFB4F258F80932504FF91EF91BF91E0
:10133000AF919F918F917F916F915F912F910F90BE
:101340000FBE0F901F9018958081EFCF1F920F92C4
:101350000FB60F9211242F933F934F935F936F9388
:101360007F938F939F93AF93BF93CF93DF93EF932D
:10137000FF9380919303C091A904D0E087FF24C01C
:101380001092850010928400809193038F5F809368
:10139000930380919303082E000C990B8C179D07E3
:1013A00024F4809193038C30C4F180918400909157
:1013B0008500049680349C4908F47AC080918400AA
:1013C00090918500049676C080919303082E000CBE
:1013D000990B8C179D07C4F6E09193038E2FEE0FA7
:1013E000990BFC01EE0FFF1FE80FF91FEB57FB4FA6
:1013F000808186FFC9CFE09193038E2FEE0F990B6A
:10140000FC01EE0FFF1FE80FF91FEB57FB4F808128
:1014100060E08F730E942D02B7CF2091840030913D
:101420008500E09193038E2FEE0F990BFC01EE0FD8
:10143000FF1FE80FF91FEB57FB4F81819281820F4D
:10144000931F9093890080938800E09193038E2FDF
:10145000EE0F990BFC01EE0FFF1FE80FF91FEB5782
:10146000FB4F808186FF11C0E09193038E2FEE0F1A
:10147000990BFC01EE0FFF1FE80FF91FEB57FB4F15
:10148000808161E08F730E942D02FF91EF91DF91C7
:10149000CF91BF91AF919F918F917F916F915F910C
:1014A0004F913F912F910F900FBE0F901F90189565
:1014B00080E49CE990938900809388008FEF80936B
:1014C0009303E3CF1F920F920FB60F9211242F9325
:1014D0003F934F935F936F937F938F939F93AF93BC
:1014E000BF93EF93FF938091B900887F803609F412
:1014F0004AC0F0F5883209F4A7C018F5803109F424
:101500009BC0B8F4882309F4F9C0883009F494C06A
:10151000FF91EF91BF91AF919F918F917F916F91CB
:101520005F914F913F912F910F900FBE0F901F90A1
:101530001895883109F488C0803251F78093690387
:1015400014C0803409F49DC040F48033B9F388336B
:10155000F9F68093690385ECB0C0803509F485C045
:10156000883509F496C0883499F60E94BE08D0CF19
:10157000883909F48CC038F5883729F050F488365A
:1015800011F0803729F683E080936B0310924403B7
:1015900057C0883809F47BC0803919F0803809F0C9
:1015A000B7CF80914403803208F071C0E0914403CA
:1015B00081E08E0F809344038091BB00F0E0EC5DEE
:1015C000FC4F80833DC0803B39F0E0F4803A09F461
:1015D00079C0883A09F09CCF84E080936B03109225
:1015E000230310922203E0919A03F0919B03099543
:1015F0008091220381110FC081E080932203109219
:10160000020309C0803C09F4A6CF883C09F4A3CFAB
:10161000883B09F07DCFE091230381E08E0F80931A
:101620002303F0E0EE5FFC4F80818093BB0090913C
:1016300023038091220329C0809146038093BB003D
:1016400085EC8093BC0064CF909168038091670320
:10165000981758F5E091680381E08E0F8093680336
:10166000F0E0E95BFC4F8081E9CFE091680381E025
:101670008E0F809368038091BB00F0E0E95BFC4F24
:10168000808390916803809167039817C8F285E87A
:10169000D8CFE091680381E08E0F8093680380913A
:1016A000BB00F0E0E95BFC4F808380916A0381110D
:1016B0005CCF81E08093450384EA8093BC00109264
:1016C0006B0326CF85EC8093BC0010926B03809156
:1016D0004403803230F4E0914403F0E0EC5DFC4FD1
:1016E00010826091440370E0E0919803F0919903B7
:1016F00084E293E00995109244030ACF10926903A3
:1017000034CF1F920F920FB60F9211240F931F9395
:101710002F933F934F935F936F937F938F939F93F9
:10172000AF93BF93CF93EF93FF934A9B40C02D9805
:10173000C1E00E9418048B019C018091D20290911B
:10174000D302A091D402B091D502B901A801481BDF
:10175000590B6A0B7B0BCA010093D2021093D30280
:101760002093D4023093D5022091D602C1118BC0B0
:10177000413066E4560710F421111CC01092E002BB
:1017800081E08093D602FF91EF91CF91BF91AF910D
:101790009F918F917F916F915F914F913F912F9189
:1017A0001F910F910F900FBE0F901F9018952D9ABB
:1017B000C0E0BFCF223069F59C0120523D40213C62
:1017C0003840C0F41092D7021092DC021092DD0271
:1017D0001092DE021092DF0281E090E0A0E0B0E023
:1017E0008093D8029093D902A093DA02B093DB02DF
:1017F00083E0C7CF805996408136944008F07FC07F
:101800008091D702803208F47AC081E08093E002B0
:10181000EFCF243009F073C088519140813C98404B
:1018200008F06DC08091D8029091D902A091DA029F
:10183000B091DB0240365440A0F04091DC02509160
:10184000DD026091DE027091DF02482B592B6A2B7A
:101850007B2B4093DC025093DD026093DE02709399
:10186000DF02880F991FAA1FBB1F8093D802909395
:10187000D902A093DA02B093DB028091D7028F5F86
:101880008093D702B5CF213039F480549A41813802
:101890009141A8F582E075CF233089F588519140B8
:1018A0008133924060F58091D702803220F480919C
:1018B000E00280FF26C08091DD0280959091DC02DD
:1018C000981719F084E08093E0028091DF02809500
:1018D0009091DE02981719F084E08093E0027894EA
:1018E00081E08093A5038091E0028093A40380911E
:1018F000DC028093A2038091DE028093A30380E048
:1019000040CF84E03ECFCF92DF92EF92FF920F93D1
:101910001F93E82FF92F05C0015011092109310942
:1019200061F1908196239417B9F305C00150110914
:101930002109310911F1908196239413F7CFC12C1D
:10194000D12CE12CF12C0AC08FEFC81AD80AE80A72
:10195000F80A0C151D052E053F0579F080818623B8
:10196000841791F36C2D7D2D8E2D9F2D1F910F913E
:10197000FF90EF90DF90CF90089560E070E080E0FE
:1019800090E01F910F91FF90EF90DF90CF9008951E
:101990008F929F92AF92BF92CF92DF92EF92FF927F
:1019A000CF93DF93A091B60430E081113A2F80915C
:1019B000B70490E0880F991FAC0144555E4FC0906A
:1019C000BC04D090BD04E090BE04F090BF0460E081
:1019D00070E0CB01FA01C591D49128812A23231309
:1019E0000FC04B015C012FEF821A920AA20AB20AC1
:1019F0006C157D058E059F0570F060E070E0CB01F1
:101A0000DF91CF91FF90EF90DF90CF90BF90AF909C
:101A10009F908F900895C501B401DCCFAF92BF9223
:101A2000CF92DF92EF92FF920F931F93CF93DF93AA
:101A300000D000D0CDB7DEB79B01D12C87FF03C00B
:101A40008195DD24D39421153105C1F419821A82C0
:101A50001B828FE38C83CE0101960E947C030F9042
:101A60000F900F900F90DF91CF911F910F91FF90EA
:101A7000EF90DF90CF90BF90AF900895BE016F5F61
:101A80007F4F7B015E0173E0A71AB108F701082FB1
:101A9000880F110B80E4C82EC901B8010E94221DD5
:101AA000DC01982F811109C02115310531F4138211
:101AB000DD2059F0C382D12C08C0AC52BE4F8C91AE
:101AC0008383911102C0232B99F39B013197AE16AA
:101AD000BF0611F7442309F4BECF21E030E02C0FFC
:101AE0003D1F2C5F3F4FF70191917F013197842F6C
:101AF0008078892B8083440FE216F306A1F7ABCFE1
:101B00008E3008F08E508770806480937C008091C6
:101B10007A00806480937A0080917A0086FDFCCF01
:101B200080917800909179000895CF92DF92EF92A2
:101B3000FF920F931F93CF93DF93CDB7DEB7C054BF
:101B4000D1400FB6F894DEBF0FBECDBF0E94420554
:101B50000091B8041091B9042091BA043091BB04EB
:101B60006B017C01C01AD10AE20AF30A97018601CF
:101B7000003D17402105310590F48091C004C05C00
:101B8000DE4F0FB6F894DEBF0FBECDBFDF91CF9111
:101B90001F910F91FF90EF90DF90CF900895609389
:101BA000B8047093B9048093BA049093BB04109264
:101BB000B3041092B2041092B1041092B0041092C7
:101BC000AF0461E08091B4040E942D026AEF70E0DE
:101BD00080E090E00E94100561E08091B4040E94D2
:101BE0005B0260E08091B4040E942D0264E170E029
:101BF00080E090E00E941005F89461E08091B404C8
:101C00000E942D028BE990E00197F1F762E080914C
:101C1000B4040E945B0283E290E00197F1F780E058
:101C20000E94C80C672B682B692B29F41092C00402
:101C3000789480E0A4CF81E00E94C80C672B682BC9
:101C4000692BA1F38E010F5F1F4F6E018FEBC81A36
:101C50008EEFD80A780180E00E94C80CF7016083FB
:101C600071838283938381E00E94C80CF7016483AF
:101C7000758386839783F8E0EF0EF11CEC14FD0466
:101C800051F7789430E020E0F801C080D180E28004
:101C9000F3804481558166817781C114D104E104C8
:101CA000F10429F0411551056105710519F41092EF
:101CB000C004BFCFF90183E0F595E7958A95E1F778
:101CC000E155FB4F8081880FC416D506E606F7065E
:101CD00010F180832F5F3F4F085F1F4F283231057F
:101CE00099F64091B3042091AF048091B004280F7D
:101CF0003327331F8091B104280F311D8091B20426
:101D0000820F932F911D99274817190681F681E0BC
:101D10008093C00434CF8160DCCFDC01ED91FC9175
:101D20000190F081E02D0994CF93DF9368E072E099
:101D300090E080E00E943C1AEC010097A9F061E776
:101D400072E00E94681E892BA1F066EB72E0CE0162
:101D50000E94681E892B69F06AE072E0CE010E9441
:101D6000681E21E0892B09F020E0822FDF91CF91BE
:101D7000089521E0FACF8F929F92AF92BF920F9376
:101D80001F93CF93DF93CDB7DEB7A1970FB6F8942B
:101D9000DEBF0FBECDBF19A2423008F44AE08E016B
:101DA0000F5D1F4F842E912CB12CA12CA501940105
:101DB0000E94A21AE62FB901CA01EA3004F5E05DDB
:101DC000D801EE938D01232B242B252B79F790E05E
:101DD00080E0109729F0BD018CE094E00E949F08FC
:101DE000A1960FB6F894DEBF0FBECDBFDF91CF91A5
:101DF0001F910F91BF90AF909F908F900895E95CD5
:101E0000DFCFCF92DF92EF92FF92CF93DF936C01FF
:101E1000990FEE08FF08F7FE19C06DE28CE094E020
:101E20000E948D0EEC0166277727CB016C197D0986
:101E30008E099F094AE00E94BB0E8C0F9D1FDF9107
:101E4000CF91FF90EF90DF90CF9008954AE0C701C7
:101E5000B601DF91CF91FF90EF90DF90CF900C947F
:101E6000BB0ECF92DF92EF92FF92CF93DF936C0184
:101E7000990FEE08FF08F7FE21C06DE28CE094E0B8
:101E80000E948D0EEC0166277727CB016C197D0926
:101E90008E099F094AE00E94BB0EC80FD91F6FE050
:101EA00072E08CE094E00E949F088C0F9D1FDF91F0
:101EB000CF91FF90EF90DF90CF9008954AE0C70157
:101EC000B6010E94BB0EEC01EACF8F929F92AF92B7
:101ED000BF92CF92DF92EF92FF92CF93DF936B018D
:101EE0007C01AC019B010E94111D62E172E0811135
:101EF0001AC046015701E894B7F82FEF3FEF4FE7BC
:101F00005FE7C501B4010E94111D811124C02FEFAC
:101F10003FEF4FE75FE7C501B4010E94401B181671
:101F2000D4F466E172E08CE094E00E949F08EC013A
:101F30006FE072E08CE094E00E949F088C0F9D1F80
:101F4000DF91CF91FF90EF90DF90CF90BF90AF9057
:101F50009F908F9008952FEF3FEF4FE75FE4C70109
:101F6000B6010E949F1C18161CF46AE172E0DBCFD8
:101F70002FEF3FEF4FE75FECC701B6010E94401B18
:101F800087FDF3CF20E030E0A901C701B6010E9430
:101F9000401BD0E0C0E087FF0AC06DE28CE094E017
:101FA0000E948D0EEC01F7FAF094F7F8F0942DEC06
:101FB0003CEC4CE45DE3C701B6010E94D41A4B012E
:101FC0005C010E94BE1B6B017C010E94ED1B9B010A
:101FD000AC01C501B4010E94D31A4B015C014AE077
:101FE000C701B6010E94BB0EC80FD91F6EE28CE07C
:101FF00094E00E948D0EC80FD91F20E030E040E22F
:1020000051E4C501B4010E94A41C0E94BE1B90E0D3
:1020100080E04AE00E94BB0EC80FD91F89CF109202
:102020000F0410920E0488EE93E0A0E0B0E08093DD
:10203000100490931104A0931204B093130428EE9B
:1020400031E030930D0420930C0425EC30E0309304
:1020500019042093180424EC30E030931B042093DF
:102060001A0420EC30E030931D0420931C0421EC72
:1020700030E030931F0420931E0422EC30E03093B4
:1020800021042093200426EC30E030932304209395
:102090002204109225041092260410922704109214
:1020A000280410927C0410927B0480937D0490930A
:1020B0007E04A0937F04B09380048AEF91E0909314
:1020C0007A04809379041092C7041092CE0410927F
:1020D000D5041092D6041092D7041092D80481E04F
:1020E0008093D4048093D1041092D20492E0909310
:1020F000D3048093C60488E190E09093CB0480934E
:10210000CA040E943C1D9093D0048093CF04009792
:1021100009F482C028E1FC0111922A95E9F788E0D0
:1021200090E09093C9048093C8048DE090E0909370
:10213000CD048093CC048091C704882341F061E0F2
:102140008DE00E945B0260E08DE00E942D02E1EED6
:10215000F1E0E491F0E0EE0FFF1FE653FE4F8591B2
:1021600094919093DA048093D904E3ECF1E0E49144
:10217000E093DB0485E08093C10484E08093C20493
:1021800084E690E09093C5048093C40460E085E009
:102190000E945B0260E08091C2040E945B0260E0EA
:1021A0008091C1040E942D0260E08091C2040E94CF
:1021B0002D028CE08093B4048BE08093B504E2ECB4
:1021C000F1E0E491E093B604E0EEF1E0E491E09315
:1021D000B70480E89EE3A0E0B0E08093BC04909355
:1021E000BD04A093BE04B093BF048091A9048C30B9
:1021F000E0F491E0980F9093A9048093AA0490E0F2
:10220000FC01EE0FFF1FE80FF91FEB57FB4F88EBA8
:102210009BE09283818308951092CB041092CA04AC
:102220001092C9041092C80480CF8FEF8093AA0443
:102230000895CF93DF93CDB7DEB728970FB6F89404
:10224000DEBF0FBECDBF789484B5826084BD84B5F7
:10225000816084BD85B5826085BD85B5816085BDA1
:1022600080916E00816080936E0010928100809159
:1022700081008260809381008091810081608093E1
:102280008100809180008160809380008091B10006
:1022900084608093B1008091B00081608093B00031
:1022A00080917A00846080937A0080917A008260C5
:1022B00080937A0080917A00816080937A00809187
:1022C0007A00806880937A001092C100E0911C042B
:1022D000F0911D0482E08083E0911804F0911904CC
:1022E0001082E0911A04F0911B0480E18083109227
:1022F0002404E0912004F091210486E08083E091A1
:102300001E04F0911F04808180618083E0911E048F
:10231000F0911F04808188608083E0911E04F09119
:102320001F04808180688083E0911E04F0911F0467
:1023300080818F7D808361E089E00E945B0261E0A3
:102340008AE00E945B0261E08BE00E945B0260E039
:1023500089E00E942D0260E08AE00E942D0260E088
:102360008BE00E942D028091CC049091CD0497FDCA
:1023700099C061E00E945B0260E08091CC040E9401
:102380002D0281E08093C7048CE30E949A01409162
:10239000CA045091CB0470E060E08091CF0490912A
:1023A000D0040E94611E0E943D0462E08091B4044A
:1023B0000E945B0280E398EFAFEFBFEF8093B80419
:1023C0009093B904A093BA04B093BB048DE08093BA
:1023D000C3040E94A6035298259A809169008160E7
:1023E00080936900E09AE89A88E690E00E94AE083F
:1023F00034EB832E912CA12CB12C809102048823E4
:10240000A9F00E9442050091FE031091FF03209164
:10241000000430910104601B710B820B930B693C2B
:1024200071058105910510F0109202048CE094E092
:102430000E94B105892B09F46AC70E944205609386
:10244000FE037093FF0380930004909301048CE0DB
:1024500094E00E948C05E09102048A3019F08D30DE
:1024600009F049C7EE2311F3F0E0E255FC4F10826A
:10247000EEEAF3E0CF0121912032E1F32223A1F231
:1024800068E072E00E943C1A8C01009769F26EE1EC
:1024900072E00E94681E892B41F48BE491E00E9457
:1024A000AE08C2CF1092C7046FCF64E272E0C801D9
:1024B0000E94681E892B19F48FED90E0F0CF6AE23C
:1024C00072E0C8010E94681E892B19F48AED90E021
:1024D000E6CF6FE272E0C8010E94681E892B09F006
:1024E0000BC168E072E090E080E00E943C1A7C0141
:1024F00068E072E090E080E00E943C1A8C01E114F8
:10250000F10409F491CF892B09F48ECF64E372E0D2
:10251000C7010E94681E892BE1F469E372E0C801DB
:102520000E94681E21E0009709F020E02093090135
:10253000892B31F48DE08093C3040E94A60374CFED
:1025400062E084E00E945B0262E085E00E945B0240
:102550006BCF6DE372E0C7010E94681E892B09F002
:1025600063CF61E472E0C8010E94681E21E0009719
:1025700009F020E020930601892B09F4A7C01092EE
:102580009F0310929E0310929D0310929C030E9441
:10259000A4068EE495E090939B0380939A038FE4C6
:1025A00095E090939903809398038091A003909174
:1025B000A103892BC1F48CE090E00E943C1DFC013A
:1025C000138212828CE191E09183808380E2848384
:1025D00080E1808782E08187128688E08387F0939C
:1025E000A103E093A0030091A0031091A1030E9416
:1025F000A406F80115828185823010F098E0958359
:10260000F8019285992329F0813019F4858184603D
:10261000858362E370E080E090E00E941005F8019D
:102620006385C8010E94690768EE73E080E090E06E
:102630000E94100560E3C8010E9453082BE4E22EBB
:1026400026E4F22EC7010197F1F760E3C8010E946A
:102650005308C7010197F1F760E3C8010E945308CE
:1026600083E592E00197F1F760E2C8010E94530808
:10267000F8016581606240E0C8010E946C0884E056
:10268000F801868340E06CE0C8010E946C08C80134
:102690000E94890882E0F801878340E066E0C80173
:1026A0000E946C0840E062E0C8010E946C088BE365
:1026B0009FE10197F1F788E0F801838760E0C801A6
:1026C0000E946907C8010E948908AECE8091BC00B3
:1026D0008B7F8093BC0060E082E10E945B0260E03F
:1026E00082E10E942D0260E083E10E945B0260E0D3
:1026F00083E10E942D0298CE68E472E0C8010E9436
:10270000681E892BA1F50E9492086C010E94920814
:102710007C010E9492088C01B6016F3F710519F08F
:1027200014F06FEF70E077FF02C070E060E089E0C6
:102730000E94BB03B7016F3F710519F014F06FEFF2
:1027400070E077FF02C070E060E08AE00E94BB03A7
:10275000B8010F3F110519F014F06FEF70E077FF2B
:1027600002C070E060E08BE00E94BB035DCE6CE4D1
:1027700072E0C8010E94681E892BE1F40E94920851
:102780007C010E9492081E141F041CF060E083E08C
:10279000B0CF1816190614F088EC90E08C01990F50
:1027A000220B330BA70163E070E080E090E00E9411
:1027B00097023ACE63E572E0C8010E94681E892B39
:1027C00009F0E1C00E9492088C010E949208C82E74
:1027D000792E20910401309105010217130709F4A5
:1027E00072C08091AA0437FD0CC0282F30E0F90197
:1027F000EE0FFF1FE20FF31FEB57FB4F90819F7B04
:1028000090838C3008F05BC061E0802F0E945B02F7
:102810008091AA04282F30E0F901EE0FFF1FE20F8C
:10282000F31FEB57FB4F9081907C202F2F73922B3F
:10283000908325EF3FEF3093AC042093AB042AE85C
:1028400032E03093AE042093AD042CE0622F0E945E
:10285000161D829FB001112430E020E0AB01420F31
:10286000531FFA01EE0FFF1FE40FF51FEB57FB4F4D
:10287000908196FD16C02F5F3F4F2C30310571F7C8
:1028800081110FC01092800082E08093810010922D
:10289000850010928400B19A80916F0082608093CD
:1028A0006F00E091AA048E2F90E0FC01EE0FFF1F55
:1028B000E80FF91FEB57FB4F8081806480831093F2
:1028C000050100930401D090AA042BE02D1508F413
:1028D000ABCD8091AD049091AE0412EEE12E14E0E8
:1028E000F12EE81AF90AEE0CFF1CEE0CFF1C809189
:1028F000AB049091AC040DE710E0081B190B000F1E
:10290000111F000F111F1801012E000C440855085B
:10291000AC2DB72DA53BB10514F0A4EBB0E0B7FF8B
:1029200002C0B0E0A0E097010F2C000C440B550B47
:1029300022193309440955090E949A1AA5019401E4
:102940000E94701ABA01A901420D531D641D751D24
:10295000401751072CF087014E155F050CF48A01D2
:1029600002501109000F111F2FB7F8948D2D90E020
:10297000FC01EE0FFF1FE80FF91FEB57FB4F12830F
:1029800001832FBF51CD69E572E0C8010E94681E26
:10299000892B09F079C068E072E090E080E00E9445
:1029A0003C1A8C01009709F43FCD6DE572E00E945E
:1029B000681E892B79F44091CA045091CB0470E0D1
:1029C00060E08091CF049091D0040E94611E0E942B
:1029D0003D042ACD63E672E0C8010E94681E892B7F
:1029E00079F40E94920897FD09C08F3F910519F074
:1029F00014F08FEF90E00E949A01E9CF80E0FBCFC6
:102A00006AE672E0C8010E94681E7C01892BF1F41D
:102A10000E949208182F0E949208482E0E94920845
:102A2000512C712C612C762C652C542C4424612A59
:102A3000482AB301A201C7010E943101FFEFEF1A3A
:102A4000FF0A28E0E216F104A1F7C1CFC8010E94F5
:102A50001E1A8C010E949208F82E0E949208E82EFD
:102A60000E9492080830110508F0B1CF4E2D50E0B9
:102A700070E060E0762F652F542F44276F29482B94
:102A8000C8010E943101A3CF69E372E0C8010E942E
:102A9000681E892B09F05AC080910901882309F426
:102AA000C3CC68E072E090E080E00E943C1A8C01A8
:102AB000009709F4B9CC6DE572E00E94681E892B7D
:102AC00009F43BCD63E672E0C8010E94681E892BC1
:102AD000A9F40E94920897FD0FC08830910514F068
:102AE00087E090E088608093C30440E070E060E09D
:102AF0008AE00E940E0D98CC80E0F4CF6EE672E082
:102B0000C8010E94681E892B81F40E949208BC01B2
:102B100097FF04C066277727681B790B97FF03C0D0
:102B200086EF40E4E6CF8AE0FCCFC8010E941E1A7F
:102B3000BC0197FF04C066277727681B790B97FFB6
:102B400003C086EF40E0D5CF8AE0FCCF64E772E0B7
:102B5000C8010E94681E892B09F0B5C0809106014A
:102B6000811162CC8091A0039091A103892B09F47B
:102B70005BCC68E072E090E080E00E943C1A8C013F
:102B8000009709F451CC6DE572E00E94681E892B14
:102B900029F48091A0039091A10395CD68E772E09C
:102BA000C8010E94681E892B89F40E94940EE0914E
:102BB000A003F091A103882339F088E0838760E0C7
:102BC000CF010E94690730CC1386F9CF6BE772E022
:102BD000C8010E94681E892B09F026CC0E94920829
:102BE0007C010E949208782E61E172E090E080E022
:102BF0000E943C1AFC01892B09F416CC8F01DF01DD
:102C00008D91803251F08232C9F480E09191992304
:102C100031F09232D9F78F5FF9CFFD01EFCF8230DB
:102C200009F002CC0F5F1F4F62E270E0C8010E9402
:102C3000711E009709F4F8CBFC011082C090A0032C
:102C4000D090A103872D98E0E0E1F1E0DE0111963C
:102C500001900D929A95E1F7F6019185971510F480
:102C60008FEF890FE82FF0E0EE0FFF1F21E030E03B
:102C70002C0F3D1FE20FF31F60816E0D606840E076
:102C8000C6010E946C080115110521F0B801C601AA
:102C90000E949F08F80101900020E9F73197E01B9E
:102CA000F10BEE0EFF1E30E1E316F1040CF0BCCB8D
:102CB00060E28091A0039091A1030E948D0E4FEFDE
:102CC000E41AF40AF0CF60E872E0C8010E94681EBE
:102CD000892B09F003C268E072E090E080E00E9476
:102CE0003C1A8C01009709F49FCB64E872E00E94C3
:102CF000681E892B09F099C084ED90E00E9441067E
:102D00000E9442052B013C01C0900001D0900101BE
:102D1000E0900201F090030120E030E0A901C7013A
:102D2000B6010E949F1C87FD15C08091940390916D
:102D30009503A0919603B0919703A3019201281BDC
:102D4000390B4A0B5B0BDA01C901CC97A105B10520
:102D500008F44FC0409294035092950360929603FA
:102D60007092970361E088E00E945B0260E087E078
:102D70000E945B0260E088E00E942D0283E090E008
:102D80000197F1F761E088E00E942D0283E290E074
:102D90000197F1F760E088E00E942D02EDEBF1E091
:102DA0006491EBEDF1E0E491F0E0EE0FFF1FE455EC
:102DB000FE4F8591949108EA11E620E030E0462F1D
:102DC0000E94830C611571058105910551F06F5FBB
:102DD0007F4F8F4F9F4F9F70611571058105910542
:102DE00059F4C0900001D0900101E0900201F090F0
:102DF0000301C701B6013FC00E94ED1B28E23EE778
:102E00004CE05DE30E94A41C20E030E040E05FE382
:102E10000E94A41C6B017C01C0920001D0920101B0
:102E2000E0920201F0920301E4CF6CE872E0C80185
:102E30000E94681E892B11F580910601882309F4F0
:102E4000F3CA83E10E94800D8C018EEC90E00E9419
:102E50004106B801110F880B990B0E94EF1B2AE164
:102E600037E64CE950E40E94A41C20E030E040E248
:102E700051E40E94451B0E94650FD6CA69E872E0C2
:102E8000C8010E94681E892B09F05BC00E94950D45
:102E9000882341F08091B5048B3059F018F08551AA
:102EA000823020F1C12CD12C40ECE42E4FE7F42EDF
:102EB00009C06091B10470E090E080E00E94ED1BD9
:102EC0006B017C0185EC90E00E944106A701960110
:102ED000C701B6010E94111D882309F48ACFC12CB5
:102EE000D12C26ECE22E22ECF22E83CF1091B104ED
:102EF000612F6F7770E090E080E00E94EF1B20E090
:102F000030E040E853E40E94A41C6B017C01609116
:102F1000B20470E090E080E00E94EF1BA7019601F0
:102F20000E94D41A2DEC3CEC4CEC5DE30E94A41CF6
:102F30006B017C0117FFC6CFF7FAF094F7F8F09415
:102F4000C1CF61E972E0C8010E94681E892B09F0B7
:102F500040C00E94950D882341F08091B5048B30CC
:102F600059F018F08551823098F0C12CD12C30ECFA
:102F7000E32E3FE7F32E09C06091AF0470E090E0CC
:102F800080E00E94ED1B6B017C018CEB90E09CCFFC
:102F90006091AF0470E090E080E00E94ED1B20E0C3
:102FA00030E040E853E40E94A41C6B017C01609176
:102FB000B00470E090E080E00E94EF1BA701960152
:102FC0000E94D41A2DEC3CEC4CEC5DE30E94A41C56
:102FD000DACF69E972E0C8010E94681E892B41F4CA
:102FE00085EB90E00E9441068EE00E94800D45C076
:102FF0006FE972E0C8010E94681E892B31F48FEAE4
:1030000090E00E9441068FE0F0CF64EA72E0C801D0
:103010000E94681E892B81F48AEA90E00E94410692
:1030200080E10E94800D0E94010F60E28CE094E03C
:103030000E948D0E81E1D9CF68EA72E0C8010E943A
:10304000681E892B59F480910601882309F4ECC984
:1030500085EA90E00E94410682E1C7CF6CEA72E007
:10306000C8010E94681E892B59F481EA90E00E94F1
:10307000410680910701909108010E94310FD4C947
:103080006FEA72E0C8010E94681E892B09F0CCC962
:103090000E9492088C0185E00230110509F084E05D
:1030A00090910901EE24EA94FF24FA94911108C04A
:1030B0000E94040221E0F12C892B09F020E0E22E8D
:1030C0008CE990E00E944106C8010E94010F60E275
:1030D0008CE094E00E948D0EC701CFCF6FEB72E0C1
:1030E000C8010E94681E892B01F568E072E090E03B
:1030F00080E00E943C1A8C01009709F495C963EBAB
:1031000072E00E94681E892B21F481E08093A9035C
:103110008BC968EB72E0C8010E94681E892B09F018
:1031200083C981E08093A7037FC96DEB72E0C8017A
:103130000E94681E892BF1F468E072E090E080E064
:103140000E943C1A8C01009709F46EC963EB72E08F
:103150000E94681E892B19F41092A90365C968EBB7
:1031600072E0C8010E94681E892B09F05DC91092A7
:10317000A7035AC963EC72E0C8010E94681E892B3C
:1031800069F40E949208182F0E94940E082F61E0A3
:10319000812F0E945B02602F812FABCA66EC72E028
:1031A000C8010E94681E892BC1F40E949208182F42
:1031B000092F60E00E945B0288E990E00E944106CE
:1031C000812F902F0E94010F60E28CE094E00E941A
:1031D0008D0E812F0E94040250CF60E672E0C8017C
:1031E0000E94681E892B89F568E072E090E080E01B
:1031F0000E943C1A8C019EE0E92EF12C011511056C
:1032000059F0F80180818F7D8134D9F4C80101968D
:103210000E941E1A0E967C0184E990E00E944106ED
:103220000115110511F408E212E0B8018CE094E0F8
:103230000E949F0860E28CE094E00E948D0E8E2D2B
:10324000D4CEC8010E941E1AE6CF69EC72E0C80114
:103250000E94681E892BC9F40E949208182F0E94B0
:103260009208F82E092F61E0812F0E945B026F2DDA
:10327000702F6F3F710519F014F06FEF70E077FF5A
:1032800002C070E060E0812F6FCA6CEC72E0C80190
:103290000E94681E892BF9F40E9492087C010E940A
:1032A00092086C010E9492088C01C701FF0CAA0BC6
:1032B000BB0B1C141D046CF41016110614F008EC62
:1032C00010E0012E000C220B330BA601BC01CD0136
:1032D0006ECA60E00ECA87E890E00E944106B8011D
:1032E0008CE094E00E949F086FE072E08CE094E034
:1032F0000E949F0899C8EF3408F098C891E09E0F8B
:1033000090930204F0E0E255FC4F80838FC88091D7
:10331000A5038823A9F01092A503E091A303E75029
:10332000E83570F4F0E0EE0FFF1FEC5DFE4F80819A
:1033300091818F3F980721F09093080180930701B6
:103340008091090181115AC00E9442050091AA038F
:103350001091AB032091AC033091AD03601B710B56
:10336000820B930B643171058105910508F446C009
:103370000E9442056093AA037093AB038093AC0351
:103380009093AD038091A9038823D1F084E00E943B
:1033900004027C0111E0892B09F010E08091A80360
:1033A000811771F084E891E00E9441068CE791E07A
:1033B000EF2811F48FE791E00E94AE081093A80364
:1033C0008091A7038823D1F085E00E9404027C014C
:1033D00011E0892B09F010E08091A603811771F0AC
:1033E00082E791E00E9441068AE691E0EF2811F41D
:1033F0008DE691E00E94AE081093A60380E090E075
:10340000892B11F40C94FD110E94BE05882311F440
:103410000C94FD110E9400000C94FD118091CF04CA
:103420009091D0040E94D81D8091CC049091CD043D
:1034300097FD03C060E00C945B020895FC018827AF
:103440009927E89421912032E9F3293010F02E30A9
:10345000C8F32B3241F02D3239F4689404C00E9435
:10346000681A820F911D219120532A30C0F31EF457
:10347000909581959F4F08954CED54E00E94411A1C
:103480000895FA01A191B081009719F41097E1F025
:10349000CD01DC01CD010D90002011F4C00113C05D
:1034A000FB012191222319F02015D9F7F3CFFB015D
:1034B0002191201519F41E92119606C02223C1F7FE
:1034C0000D900020A1F7D001FA01A193B0830895D7
:1034D0007AE0979F902D879F802D910D112408955C
:1034E000052E97FB1EF400940E94871A57FD07D003
:1034F0000E94A21A07FC03D04EF40C94871A509530
:103500004095309521953F4F4F4F5F4F08959095CF
:103510008095709561957F4F8F4F9F4F08950E94C2
:10352000C41AA59F900DB49F900DA49F800D911D6E
:1035300011240895B7FF0C948F1A0E948F1A821BD2
:10354000930B0895A1E21A2EAA1BBB1BFD010DC00F
:10355000AA1FBB1FEE1FFF1FA217B307E407F50743
:1035600020F0A21BB30BE40BF50B661F771F881F1F
:10357000991F1A9469F760957095809590959B01B5
:10358000AC01BD01CF010895A29FB001B39FC0015E
:10359000A39F700D811D1124911DB29F700D811D7F
:1035A0001124911D08955058BB27AA270E94EB1A99
:1035B0000C94651C0E94571C38F00E945E1C20F081
:1035C00039F49F3F19F426F40C94541C0EF4E09542
:1035D000E7FB0C944E1CE92F0E94761C58F3BA1797
:1035E000620773078407950720F079F4A6F50C9419
:1035F000981C0EF4E0950B2EBA2FA02D0B01B901EB
:1036000090010C01CA01A0011124FF27591B99F058
:10361000593F50F4503E68F11A16F040A22F232F64
:10362000342F4427585FF3CF469537952795A795B4
:10363000F0405395C9F77EF41F16BA0B620B730B5B
:10364000840BBAF09150A1F0FF0FBB1F661F771FCC
:10365000881FC2F70EC0BA0F621F731F841F48F481
:10366000879577956795B795F7959E3F08F0B0CF0A
:103670009395880F08F09927EE0F979587950895F1
:103680000E942A1C08F481E008950E94591B0C94A2
:10369000651C0E945E1C58F00E94571C40F029F4E3
:1036A0005F3F29F00C944E1C51110C94991C0C9402
:1036B000541C0E94761C68F39923B1F3552391F3AF
:1036C000951B550BBB27AA2762177307840738F091
:1036D0009F5F5F4F220F331F441FAA1FA9F335D0EE
:1036E0000E2E3AF0E0E832D091505040E695001CA2
:1036F000CAF72BD0FE2F29D0660F771F881FBB1F5C
:10370000261737074807AB07B0E809F0BB0B802D39
:10371000BF01FF2793585F4F3AF09E3F510578F065
:103720000C944E1C0C94991C5F3FE4F3983ED4F328
:10373000869577956795B795F7959F5FC9F7880F39
:10374000911D9695879597F90895E1E0660F771F8B
:10375000881FBB1F621773078407BA0720F0621B1C
:10376000730B840BBA0BEE1F88F7E09508950E9447
:10377000BE1B6894B1110C94991C08950E947E1C84
:1037800088F09F5798F0B92F9927B751B0F0E1F022
:10379000660F771F881F991F1AF0BA95C9F714C0D2
:1037A000B13091F00E94981CB1E008950C94981CDF
:1037B000672F782F8827B85F39F0B93FCCF386950B
:1037C00077956795B395D9F73EF490958095709568
:1037D00061957F4F8F4F9F4F0895E89409C097FBE5
:1037E0003EF490958095709561957F4F8F4F9F4FD8
:1037F0009923A9F0F92F96E9BB279395F69587951C
:1038000077956795B795F111F8CFFAF4BB0F11F4DE
:1038100060FF1BC06F5F7F4F8F4F9F4F16C0882385
:1038200011F096E911C0772321F09EE8872F762FBB
:1038300005C0662371F096E8862F70E060E02AF0FC
:103840009A95660F771F881FDAF7880F96958795E8
:1038500097F90895990F0008550FAA0BE0E8FEEFBD
:1038600016161706E807F907C0F012161306E40744
:10387000F50798F0621B730B840B950B39F40A263D
:1038800061F0232B242B252B21F408950A2609F41B
:10389000A140A6958FEF811D811D089597F99F671F
:1038A00080E870E060E008959FEF80EC08950024C8
:1038B0000A941616170618060906089500240A9495
:1038C00012161306140605060895092E0394000C1B
:1038D00011F4882352F0BB0F40F4BF2B11F460FFAA
:1038E00004C06F5F7F4F8F4F9F4F089557FD9058D3
:1038F000440F551F59F05F3F71F04795880F97FBB4
:10390000991F61F09F3F79F087950895121613066D
:103910001406551FF2CF4695F1DF08C0161617069C
:103920001806991FF1CF86957105610508940895D1
:10393000E894BB2766277727CB0197F908950E9463
:103940002A1C08F48FEF08950E94B71C0C94651C84
:103950000E94571C38F00E945E1C20F0952311F045
:103960000C944E1C0C94541C11240C94991C0E9411
:10397000761C70F3959FC1F3950F50E0551F629F21
:10398000F001729FBB27F00DB11D639FAA27F00DB8
:10399000B11DAA1F649F6627B00DA11D661F829FDF
:1039A0002227B00DA11D621F739FB00DA11D621FC4
:1039B000839FA00D611D221F749F3327A00D611DE1
:1039C000231F849F600D211D822F762F6A2F1124C3
:1039D0009F5750409AF0F1F088234AF0EE0FFF1FF6
:1039E000BB1F661F771F881F91505040A9F79E3F4D
:1039F000510580F00C944E1C0C94991C5F3FE4F32D
:103A0000983ED4F3869577956795B795F795E795A2
:103A10009F5FC1F7FE2B880F911D9695879597F9AB
:103A200008950E942A1C880B990B0895991B79E030
:103A300004C0991F961708F0961B881F7A95C9F73E
:103A400080950895AA1BBB1B51E107C0AA1FBB1F8D
:103A5000A617B70710F0A61BB70B881F991F5A951A
:103A6000A9F780959095BC01CD010895EE0FFF1F39
:103A70000590F491E02D09940F931F93CF93DF935A
:103A80008230910510F482E090E0E091E004F09142
:103A9000E10430E020E0B0E0A0E0309799F4211597
:103AA000310509F44AC0281B390B24303105D8F5FB
:103AB0008A819B816115710589F1FB019383828362
:103AC000FE0111C0408151810281138148175907BD
:103AD000E0F04817590799F4109761F012960C938B
:103AE000129713961C933296CF01DF91CF911F91BD
:103AF0000F9108950093E0041093E104F4CF211591
:103B0000310551F04217530738F0A901DB019A0142
:103B1000BD01DF01F801C1CFEF01F9CF9093E104BE
:103B20008093E004CDCFFE01E20FF31F81939193C8
:103B30002250310939832883D7CF2091DE04309178
:103B4000DF04232B41F420910C0130910D013093BF
:103B5000DF042093DE0420910A0130910B0121152E
:103B6000310541F42DB73EB740910E0150910F0140
:103B7000241B350BE091DE04F091DF04E217F3071C
:103B8000A0F42E1B3F0B2817390778F0AC014E5FCD
:103B90005F4F2417350748F04E0F5F1F5093DF0427
:103BA0004093DE04819391939FCFF0E0E0E09CCFBF
:103BB000CF93DF930097E9F0FC01329713821282D2
:103BC000A091E004B091E104ED0130E020E0109715
:103BD000A1F420813181820F931F2091DE04309166
:103BE000DF042817390709F061C0F093DF04E09380
:103BF000DE04DF91CF910895EA01CE17DF07E8F5E3
:103C00004A815B819E0141155105B1F7E901FB83B2
:103C1000EA8349915991C40FD51FEC17FD0761F450
:103C2000808191810296840F951FE9019983888391
:103C3000828193819B838A83F0E0E0E012968D91EC
:103C40009C9113970097B9F52D913C911197CD0157
:103C50000296820F931F2091DE043091DF04281713
:103C6000390739F6309751F51092E1041092E004CB
:103C7000B093DF04A093DE04BCCFD383C283408122
:103C80005181840F951FC817D90761F44E5F5F4FAC
:103C900088819981480F591F518340838A819B8174
:103CA000938382832115310509F0B0CFF093E104AD
:103CB000E093E0049ECFFD01DC01C0CF13821282AD
:103CC000D7CFDC0101C06D9341505040E0F708951B
:103CD000FB01DC018D91019080190110D9F3990B42
:103CE0000895FC0181E090E00190061609F4CF01EF
:103CF0000020D1F70197089510E0C5EFD0E004C08F
:103D0000FE010E94361D2196C63FD107C9F7F894DF
:023D1000FFCFE3
:103D1200000080BFFFFF01FFFF010000E2048000FE
:103D22000000400014005400000000008308500509
:103D320050087C061E0004002000FFFFFFFF010068
:103D4200C800FFFFFFFFFFFFFFFFFFFFFFFFFFFFB7
:103D52001F000000FFFF02006400FFFFFFFF0500DD
:103D6200FFFFFFFFFFFFFFFFFFFFFFFFFFFFFFFF61
:103D7200FFFFFFFFFFFFFFFFFFFFFFFFFFFFFFFF51
:103D8200FFFFFFFFFFFFFFFFFFFFFFFFFFFFFFFF41
:103D9200FFFFFFFFFFFFFFFFFFFFFFFFFFFFFFFF31
:103DA200FFFFFFFFFFFF1500FFFF070016001400D3
:103DB2000A000B000C00FFFFFFFF0900FFFFFFFFDF
:103DC200FFFFFFFFFFFFFFFFFFFF0800FFFFFFFFF7
:103DD200FFFFFFFFFFFFFFFFFFFF0600FFFFFFFFE9
:103DE200FFFF03003F065B4F666D7D077F6F777CA9
:103DF200395E797100000000F40550057D055C060E
:103E0200B1058C05A305000000003A070D07500814
:103E1200E3060607F306E406200068696768000DFA
:103E22000A006E616E00696E66006F766600484534
:103E32004C4C4F00434150533F0070696E67006D18
:103E42006F6465006469737000666E640061757802
:103E52000073656E736F72007267620062757A7AC0
:103E6200657200736572766F006E656F00636C65D4
:103E720061720062726967687400616C6C00636FE2
:103E82006C6F6E006C636400626C00746578740021
:103E920067657400646973740064687474656D7036
:103EA2000064687468756D69006C69676874006B9A
:103EB2006E6F62006A6F79006D69630069720062F9
:103EC200746E0062746E310062746E3200756E73CD
:103ED200756200647700647200617700746F6E65CA
:023EE2000000DE
:00000001FF
