:100000000C94E3020C940B030C940B030C944B0F15
:100010000C944B0F0C944B0F0C940B030C940B0390
:100020000C940B030C940B030C940B030C940B0318
:100030000C940B030C940B030C940B030C940B0308
:100040000C949B0E0C940B030C940B0F0C94E50E6C
:100050000C940B030C940B030C940B030C940B03E8
:100060000C94C30F0C940B03084AD73B3BCE016E94
:1000700084BCBFFDC12F3D6C74319ABD56833DDAFF
:100080003D00C77F11BED9E4BB4C3E916BAAAABE0E
:10009000000000803F08000000BE922449123EABE1
:1000A000AAAA2ABECDCCCC4C3E00000080BEABAA92
:1000B000AAAA3E00000000BF000000803F00000030
:1000C0000000084178D3BB4387D1133D190E3CC3D0
:1000D000BD4282AD2B3E68EC8276BED98FE1A93E4F
:1000E0004C80EFFFBE01C4FF7F3F00000000000016
:1000F0004E414E494E495459494E46CDCCCC3D0A0D
:10010000D7233C17B7D13877CC2B329595E6241FEF
:10011000B14F0A000020410000C84200401C4620A8
:10012000BCBE4CCA1B0E5AAEC59D74657272206F60
:100130006C65645F6F6F6D00005EBCE2613FDD83E4
:10014000C29C7E20A3FD1F41009D23BE46DB65F8B7
:100150008C11AF32CA57E974524541445920626F3D
:100160006172643D756E6F2066773D312E35006596
:100170007272206D70755F6F6F6D0000000000235C
:100180000026002900000000000000000000005FC1
:1001900000000000000003000003000000147F14B2
:1001A0007F14000000242A7F2A1200000023130875
:1001B000646200000036495522500000000005032B
:1001C00000000000001C2241000000000041221C31
:1001D000000000000014083E081400000008083E5B
:1001E0000808000000005030000000000008080867
:1001F00008080000000060600000000000201008F7
:1002000004020000003E5149453E00000000427FCC
:100210004000000000426151494600000021414574
:100220004B310000001814127F10000000274545D4
:1002300045390000003C4A4949300000000171097D
:1002400005030000003649494936000000064949C7
:10025000291E00000000363600000000000056365F
:1002600000000000000814224100000000141414D3
:100270001414000000004122140800000002015183
:100280000906000000324979413E0000007E11114C
:10029000117E0000007F494949360000003E41417F
:1002A00041220000007F4141221C0000007F49499B
:1002B00049410000007F090901010000003E414161
:1002C00051320000007F0808087F00000000417FD5
:1002D00041000000002040413F010000007F081461
:1002E00022410000007F404040400000007F0204A7
:1002F000027F0000007F0408107F0000003E4141A3
:10030000413E0000007F090909060000003E4151FE
:10031000215E0000007F0919294600000046494976
:10032000493100000001017F01010000003F404011
:10033000403F0000001F2040201F0000007F2018C9
:10034000207F000000631408146300000003047899
:1003500004030000006151494543000000007F4153
:10036000410000000002040810200000000041418C
:100370007F00000000040201020400000040404031
:10038000404000000000010204000000002054541E
:1003900054780000007F484444380000003844444A
:1003A0004420000000384444487F00000038545482
:1003B0005418000000087E0901020000000C52528F
:1003C000523E0000007F0804047800000000447DD5
:1003D00040000000002040443D000000007F102845
:1003E000440000000000417F40000000007C041831
:1003F00004780000007C08040478000000384444BD
:1004000044380000007C1414140800000008141480
:10041000187C0000007C08040408000000485454C4
:100420005420000000043F4440200000003C4040B5
:10043000207C0000001C2040201C0000003C4030BC
:10044000403C00000044281028440000000C50509C
:10045000503C0000004464544C4400000000083646
:10046000410000000000007F000000000000413655
:100470000800000000020102040200000000000069
:10048000000000000065727220756E6B6E6F776EF3
:10049000200056414C20636F32200056414C2070A2
:1004A0006D73200056414C206469737420005641DE
:1004B0004C2064735F0056414C20646874200056E1
:1004C000414C20646874202D313237202D31005684
:1004D000414C20004F4B004F4B004F4B004F4B0007
:1004E00056414C2063616C726177200056414C206C
:1004F0000056414C200056414C200056414C20668D
:100500007720312E3500706F6E67004341505320C5
:1005100061726561642C64726561642C64777269D0
:1005200074652C70776D2C6D70752C6468742C64F8
:100530007331386232302C736F6E69632C706D7357
:100540002C636F322C6C63642C6F6C65642C6E654D
:100550006F2C616E616C6F672C63616C005245415A
:10056000445920626F6172643D756E6F2066773DFD
:10057000312E350000000000240027002A00000072
:100580000000250028002B000404040404040404D3
:10059000020202020202030303030303010204082E
:1005A00010204080010204081020010204081020DD
:1005B0000000000800020100000304070000000022
:1005C000000000002A1B11241FBECFEFD8E0DEBFC1
:1005D000CDBF24E0A0E8B2E001C01D92AD3EB2075D
:1005E000E1F712E0A0E0B1E0EEE1F8E602C005902C
:1005F0000D92A038B107D9F712E0C3EED2E004C0E3
:100600002197FE010E94C732C23ED107C9F70E945E
:10061000631B0C940D340C940000833081F028F49B
:10062000813099F08230A9F008958730A9F08830A0
:10063000C9F08430B1F4809180008F7D03C0809137
:1006400080008F7780938000089584B58F7784BD74
:10065000089584B58F7DFBCF8091B0008F77809314
:10066000B00008958091B0008F7DF9CF1F93CF9394
:10067000DF93282F30E0F901E055FA4F8491F9011A
:10068000E456FA4FD491F901E857FA4FC491CC23BC
:10069000A9F0162F81110E940D03EC2FF0E0EE0F50
:1006A000FF1FE258FA4FA591B4918FB7F894EC91DF
:1006B000111108C0D095DE23DC938FBFDF91CF915D
:1006C0001F910895DE2BF8CFCF93DF9390E0FC01CC
:1006D000E456FA4F249188579A4FFC01849188235D
:1006E000C9F090E0880F991FFC01EC58FA4FA591D2
:1006F000B491FC01E258FA4FC591D49161110DC03B
:100700009FB7F8948C91209582238C93888128231D
:1007100028839FBFDF91CF910895623051F49FB736
:10072000F8943C91822F809583238C93E8812E2B23
:10073000EFCF8FB7F894EC912E2B2C938FBFEACF8D
:100740008E3008F08E508770806480937C0080919A
:100750007A00806480937A0080917A0086FDFCCFD5
:10076000809178009091790008953FB7F894809136
:10077000180490911904A0911A04B0911B0426B595
:10078000A89B05C02F3F19F00196A11DB11D3FBFC9
:10079000BA2FA92F982F8827BC01CD01620F711D98
:1007A000811D911D42E0660F771F881F991F4A9592
:1007B000D1F708958F929F92AF92BF92CF92DF921E
:1007C000EF92FF926B017C010E94B5034B015C012B
:1007D000C114D104E104F104B9F00E94B503681911
:1007E00079098A099B09683E73408105910580F368
:1007F00021E0C21AD108E108F10888EE880E83E0F2
:10080000981EA11CB11CE4CFFF90EF90DF90CF9019
:10081000BF90AF909F908F9008952FB7F8946091FC
:1008200014047091150480911604909117042FBF41
:10083000089508950895AF92BF92CF92DF92EF92FC
:10084000FF920F931F93CF93DF936C017B018B017A
:10085000040F151FEB015E01AE18BF08C017D107CA
:1008600059F06991D601ED91FC910190F081E02D54
:10087000C6010995892B79F7C501DF91CF911F91A9
:100880000F91FF90EF90DF90CF90BF90AF900895C1
:10089000FC01538D448D252F30E0842F90E0821B86
:1008A000930B541710F04F96089501970895FC018B
:1008B000918D828D981779F0A28DAE0FBF2FB11D4B
:1008C0005D962C91828D8F5F60E30E947432928FCF
:1008D000822F90E008958FEF9FEF0895FC01918D96
:1008E000828D981731F0828DE80FF11D858D90E093
:1008F00008958FEF9FEF0895FC01918D228D892F30
:1009000090E0C096821B910960E370E00E94803203
:1009100008958CE694E00E947C0421E0892B09F480
:1009200020E0822F089580E090E0892B29F00E943A
:10093000890481110C9400000895FC01A48DA80F76
:10094000B92FB11DA35BBF4F2C91848D90E0019610
:100950008F719927848FA689B7892C93A089B18933
:100960008C91837080648C93938D848D981306C0D2
:100970000288F389E02D80818F7D80830895EF9236
:10098000FF920F931F93CF93DF93EC0181E0888F49
:100990009B8D8C8D98131AC0E889F989808185FF19
:1009A00015C09FB7F894EE89FF896083E889F989BB
:1009B00080818370806480839FBF81E090E0DF91BD
:1009C000CF911F910F91FF90EF900895F62E0B8D10
:1009D00010E00F5F1F4F0F711127E02E8C8D8E11CD
:1009E0000CC00FB607FCFACFE889F989808185FF32
:1009F000F5CFCE010E949D04F1CFEB8DEC0FFD2FC2
:100A0000F11DE35BFF4FF0829FB7F8940B8FEA89EB
:100A1000FB8980818062CFCF0F931F93CF93DF93A9
:100A20008C01D0E0C0E0F801EC0FFD1F649166235B
:100A300041F08CE694E00E94BF04892B11F02196CE
:100A4000F2CFCE01DF91CF911F910F910895682FC2
:100A50008CE694E00C94BF04CF93DF93EC01888D77
:100A60008823B9F0AA89BB89E889F9898C9185FD29
:100A700003C0808186FD0DC00FB607FCF7CF8C91B7
:100A800085FFF2CF808185FFEDCFCE010E949D04CE
:100A9000E9CFDF91CF910895209148033091490328
:100AA0002817390771F490914703809146039817EE
:100AB00041F0E0914703F0E0EA5FFC4F808190E075
:100AC00008958FEF9FEF08950895EF92FF920F938F
:100AD0001F93CF93DF93DC015C96ED90FC905D97C4
:100AE000E114F10479F481E090E013969C938E93E5
:100AF000129790E080E0DF91CF911F910F91FF90CE
:100B0000EF9008955196ED91FC91529750968C91EB
:100B10005097982F90950FB75E962C915E97122F55
:100B2000127021FD6095F8942081112319F1282B72
:100B30002083E7012197F1F728E0462F50E030812C
:100B400060FF1AC0382B3083E7012197F1F7BA0113
:100B500075956795215089F7112381F0808189234C
:100B600080830FBF5C968D919C910197F1F781E096
:100B700090E0C1CF2923DCCF3923E5CF9081892BA9
:100B8000EFCF20914803309149032817390761F4CA
:100B9000809146032091470390E0805C9F4F821B29
:100BA00091098F739927089590E080E0089520912E
:100BB00048033091490328173907B9F49091470346
:100BC00080914603981789F0E0914703F0E0EA5FCF
:100BD000FC4F80812091470330E02F5F3F4F2F7300
:100BE00033272093470390E008958FEF9FEF0895F8
:100BF0000895FF920F931F93CF93DF93EC01FF248F
:100C0000F394F60E28852F1581F109851A85215058
:100C100041F16F3FE1F430E050E040E06FEF7FEFF3
:100C200080E090E00E94A832B901F8014C815D811A
:100C3000CF01801B910B84179507B0F44081469F2C
:100C4000C001479F900D112490833196EFCF8F2DD7
:100C500090E0982F88270197622F70E00E948032E1
:100C6000E4CF70E060E0E1CFF886DF91CF911F9193
:100C70000F91FF9008958F929F92AF92BF92CF9263
:100C8000DF92EF92FF92CF93DF93FC0182819381F9
:100C900068177907D8F54A01AA24BB24C32ED42E9D
:100CA000E52EFF24DC2DC22F8085982D882391F01E
:100CB000C82FD0E0C89DD001C99DB00DD89DB00D02
:100CC00011249B2F8C9D60011124DD2D829F9001AA
:100CD0001124C32FA685218532858385A81321C0C1
:100CE000AB01440F551F640F751F620F731FA3855F
:100CF000A60FB72FB11D9C93A485A60FB72FB11DCA
:100D0000DC938585680F711DFB01C083DF91CF9156
:100D1000FF90EF90DF90CF90BF90AF909F908F901B
:100D20000895660F771F660F771F620F731FA60F58
:100D3000B72FB11D1C92DBCFCF92DF92EF92FF92C3
:100D40000F931F93CF93DF93CDB7DEB729970FB6DD
:100D5000F894DEBF0FBECDBF8C01DC0119968D91DA
:100D60009C91892B09F473C00E94B503F801C784D4
:100D7000D088E188F2886C157D058E059F0520F4EA
:100D80006787708B818B928BF801C784D088E1884C
:100D9000F2886C197D098E099F096C3271408105BA
:100DA000910510F3F894D80114968D919C911597A4
:100DB0009A8389831996ED91FC917F01BFEFEB1A1D
:100DC000FB0A80818987F80190810388F489E02DEE
:100DD000D80155968C91992309F448C09081982B9D
:100DE00098879081809589238F838F818C8388E079
:100DF0008B8358856F8149853B812C8189819A81BC
:100E0000D701508347FD252F3A952083262F39F0AF
:100E1000441F00C000006083000000C0F2CF38E033
:100E20004D9160830000019761F7D8015496FC93BF
:100E3000EE93539749873B832C839A8389837894D5
:100E40000E94B503F8016787708B818B928B29967E
:100E50000FB6F894DEBF0FBECDBFDF91CF911F91CB
:100E60000F91FF90EF90DF90CF9008959081982B95
:100E700098879081809589238F838F818E8388E0E6
:100E80008D8358856F8149853D812E8189819A8125
:100E9000D701508347FD252F00C000C0208300C02C
:100EA00000C000C000C000C060830000262F3A953B
:100EB00041F0441F000000C000C000C000C000C0DE
:100EC000E8CF38E04D9100C0608300C0019709F77A
:100ED000D8015496FC93EE93539749873D832E8314
:100EE000ACCF2091C302260F3327331F21323105A7
:100EF000ECF420914204FC0190E080E0243069F0A1
:100F000082E00895A091C3022191AC014D555D4F3F
:100F1000A40FB52FB11D2C930196861798F38091DD
:100F2000C302680F6093C30280E0089581E00895D2
:100F30001092420481E08093410410921C0461E00D
:100F400082E10E94360361E083E10E943603E9EB0F
:100F5000F0E080818E7F808380818D7F808388E434
:100F60008093B80085E48093BC000895CF93DF930D
:100F700091E09093A2028823B9F0C091B800D0917B
:100F8000BA008091BC008A7B8093BC0060E082E163
:100F90000E94360360E083E10E9436030E949807B6
:100FA000D093BA00C093B800DF91CF9108958F928B
:100FB0009F92AF92BF92CF92DF92EF92FF920F93E8
:100FC0001F93CF93DF93D0916B04D13208F0D7C039
:100FD000182FC0916A040E94B5036B017C018091B7
:100FE000420481116BC082E080934204109341045B
:100FF0008FEF8093400410923F04D0933E04AAE404
:10100000B4E0EEE1F4E080E0D81391C010921D044A
:1010100080911D04CC0FC82BC0931D0480911C042B
:10102000813009F088C010921C040E94B5036B0146
:101030007C0180911D048093BB00809144049091B9
:101040004504A0914604B0914704892B8A2B8B2B31
:10105000A1F00E94B5030091440410914504209131
:101060004604309147046C197D098E099F090617C3
:1010700017072807390708F442C08091BC0083FD98
:10108000D8CF85EC8093BC000E94B5036B017C0136
:1010900080914204823009F450C0809140048F3F17
:1010A00009F46FC080914004803209F46CC08091D3
:1010B0004004803309F469C084E026C08091440470
:1010C00090914504A0914604B0914704892B8A2B46
:1010D0008B2B09F484CF0E94B50380904404909038
:1010E0004504A0904604B09047046C197D098E0910
:1010F0009F0986169706A806B90608F070CF80915A
:1011000043040E94B60785E01092490410926B04D4
:1011100010924804DF91CF911F910F91FF90EF90B3
:10112000DF90CF90BF90AF909F908F9008959D914A
:1011300091938F5F69CF85EEA5CF80914404909104
:101140004504A0914604B0914704892B8A2B8B2B30
:1011500009F49ECF0E94B503009144041091450408
:1011600020914604309147046C197D098E099F092E
:10117000061717072807390708F08ACFC0CF81E084
:10118000C3CF80E0C1CF82E0BFCF83E0BDCFE0918D
:101190004F0380914E03E81730F4F0E0EA51FD4F21
:1011A000808190E008958FEF9FEF089590914F0315
:1011B00080914E032FEF3FEF981748F4E92FF0E0AE
:1011C000EA51FD4F208130E09F5F90934F03C901AA
:1011D000089580914E0390914F03891B990B0895B8
:1011E000CF92DF92EF92FF920F931F93CF93DF93F3
:1011F0007C01CB018A0120914804222389F0EB0174
:101200006B01C40ED51ECC15DD0569F06991D701BF
:10121000ED91FC910190F081E02DC7010995F3CF8C
:10122000642F0E947107C801DF91CF911F910F9128
:10123000FF90EF90DF90CF900895CF93DF931F92B0
:10124000CDB7DEB76983209148042223F9F02091BD
:101250006B04203258F021E030E0FC01338322831C
:1012600090E080E00F90DF91CF9108958091490444
:10127000E82FF0E0E65BFB4F998190838F5F8093CE
:10128000490480936B0481E090E0ECCF61E0CE01F3
:1012900001960E947107F7CF81E00C94D70790E088
:1012A00080E00895CF93DF93C2E0D1E080911104F4
:1012B00090911204DC01ED91FC910084F185E02D08
:1012C0000995892B09F44DC0809111049091120465
:1012D000DC01ED91FC910284F385E02D0995E0910C
:1012E000A102E11107C0823409F7D093A1028093D3
:1012F0008102DCCFE13039F48D3481F5C093A10255
:1013000080938202D3CF91E09E0F9093A102F0E0F0
:10131000EF57FD4F8083903248F280918B0290917D
:101320008C0298278927982790935F0380935E0308
:1013300080918D0290918E0298278927982790930B
:101340005D0380935C0380918F02909190029827B7
:101350008927982790935B0380935A031092A102E8
:10136000A5CFDF91CF910895DC01ED91FC91019023
:10137000F081E02D0994FC01248131E03093480490
:1013800020936A041092490410926B048385682BA1
:1013900070E089ED94E00E94B40989ED94E00C942A
:1013A0004C09CF93C82F8091120191E0909348048B
:1013B00080936A041092490410926B0470E060E01C
:1013C00089ED94E00E94B4096C2F89ED94E00E94AD
:1013D0001D0989ED94E0CF910C944C090F931F9354
:1013E000CF93DF93811101C08CE38093120162E3FC
:1013F00070E080E090E00E94DA038EEA0E94D1095A
:1014000085ED0E94D10980E80E94D10988EA0E94F6
:10141000D1098FE30E94D10983ED0E94D10980E0B8
:101420000E94D10980E40E94D1098DE80E94D1096F
:1014300084E10E94D10981EA0E94D10988EC0E94CE
:10144000D1098AED0E94D10982E10E94D10981E887
:101450000E94D1098FE70E94D10989ED0E94D1092C
:1014600081EF0E94D1098BED0E94D10980E40E9496
:10147000D10984EA0E94D10986EA0E94D1098EE24C
:101480000E94D10981E080935903C0E001E08C2FD4
:10149000806B0E94D10982E00E94D10980E10E9404
:1014A000D109D0E0809112010093480480936A042E
:1014B0001092490410926B0460E470E089ED94E0AE
:1014C0000E94B40910E160E089ED94E00E941D09DA
:1014D0001150C9F789ED94E00E944C09D05FD038D3
:1014E00009F7CF5FC83099F68FEADF91CF911F914E
:1014F0000F910C94D109CF92DF92EF92FF920F934C
:101500001F93CF93DF938091CC039091CD03892BD0
:1015100009F44DC080915903811104C080911201DA
:101520000E94EE09D0E0C0E0D12CCC24C3948D2DD4
:10153000806B0E94D10982E00E94D10980E10E9463
:10154000D1098E0100581F4FC017D10761F180915A
:101550001201C092480480936A04109249041092C8
:101560006B0460E470E089ED94E00E94B409F12C12
:10157000E12CE091CC03F091CD03EE0DFF1DEC0FBB
:10158000FD1F608189ED94E00E941D098FEFE81A2C
:10159000F80A80E1E816F10461F789ED94E00E9411
:1015A0004C096096D1CFD39488E0D812C0CFDF9198
:1015B000CF911F910F91FF90EF90DF90CF90089502
:1015C000FC0101900020E9F73197AF01481B590B4E
:1015D000BC018CE694E00C941B04CF93DF930E9433
:1015E0000C05EC0186E791E00E94E00A8C0F9D1F3C
:1015F000DF91CF9108958F929F92AF92BF920F93F8
:101600001F93CF93DF93CDB7DEB7A1970FB6F894B2
:10161000DEBF0FBECDBF19A2423008F44AE08E01F2
:101620000F5D1F4F842E912CB12CA12CA50194018C
:101630000E94E62FE62FB901CA01EA30F4F4E05D1A
:10164000D801EE938D01232B242B252B79F790E0E5
:1016500080E0109719F0CD010E94E00AA1960FB624
:10166000F894DEBF0FBECDBFDF91CF911F910F91D8
:10167000BF90AF909F908F900895E95CE1CF009765
:1016800011F00C94E00A90E080E00895CF92DF9290
:10169000EF92FF92CF93DF936C01990FEE08FF0852
:1016A000F7FE1DC08DE20E942705EC016627772713
:1016B000CB016C197D098E099F094AE00E94FB0A43
:1016C000C80FD91F86E791E00E94E00A8C0F9D1F8A
:1016D000DF91CF91FF90EF90DF90CF9008954AE097
:1016E000C701B6010E94FB0AEC01ECCFCF92DF925A
:1016F000EF92FF92CF93DF936C01990FEE08FF08F2
:10170000F7FE17C08DE20E942705EC0166277727B8
:10171000CB016C197D098E099F094AE00E94FB0AE2
:101720008C0F9D1FDF91CF91FF90EF90DF90CF90B6
:1017300008954AE0C701B601DF91CF91FF90EF9085
:10174000DF90CF900C94FB0A4F925F926F927F9242
:101750008F929F92AF92BF92CF92DF92EF92FF92C1
:101760000F931F93CF936B017C01742EAC019B01EF
:101770000E946132882399F089E791E0CF911F910F
:101780000F91FF90EF90DF90CF90BF90AF909F9020
:101790008F907F906F905F904F900C94E00A46017D
:1017A0005701E894B7F82FEF3FEF4FE75FE7C50128
:1017B000B4010E94613281110DC02FEF3FEF4FE75E
:1017C0005FE7C501B4010E949C2E18161CF48DE73A
:1017D00091E0D4CF2FEF3FEF4FE75FE4C701B601B1
:1017E0000E94003218161CF481E891E0C7CF2FEF59
:1017F0003FEF4FE75FECC701B6010E949C2E87FDCB
:10180000F3CF20E030E0A901C701B6010E949C2E71
:1018100010E000E087FF08C08DE20E9427058C01E0
:10182000F7FAF094F7F8F094C0E060E070E080E040
:101830009FE37C1641F020E030E040E251E40E945A
:101840003831CF5FF6CFA70196010E945A302B01A5
:101850003C010E94AA314B015C014AE00E94FB0A54
:101860007C01E00EF11ECC23B1F1C501B4010E9450
:10187000A12E9B01AC01C301B2010E9459304B0162
:101880005C018EE20E942705E80EF91EC15018F196
:1018900020E030E040E251E4C501B4010E94022F93
:1018A0002B013C010E94AA314B01B12CA12C4AE032
:1018B000C501B4010E94FB0AE80EF91EC501B4017E
:1018C0000E94A12E9B01AC01C301B2010E945930BC
:1018D0004B015C01DBCFC701CF911F910F91FF90AE
:1018E000EF90DF90CF90BF90AF909F908F907F90C0
:1018F0006F905F904F900895CF93DF930E94A40B59
:10190000EC0186E791E00E94E00A8C0F9D1FDF91B9
:10191000CF9108950F931F93CF938C01C62F0E94F0
:10192000BB096C2F6460C8010E94BB096C2F6B7FE0
:10193000C8010E94BB0983EC90E00197F1F7CF91B9
:101940001F910F9108950F931F93CF93DF938C01F5
:10195000D62FC42F607F642B0E948A0C80E1D89F11
:10196000B00111246C2BC801DF91CF911F910F9111
:101970000C948A0C41E00E94A30C81E090E0089551
:10198000CF93DF93CDB7DEB728970FB6F894DEBFBD
:101990000FBECDBF28E0EDE1F1E0DE011196019030
:1019A0000D922A95E1F7FC012185241710F44FEFE1
:1019B000420F50E0440F551F21E030E02C0F3D1F37
:1019C000420F531FFA012081620F606840E02896A1
:1019D0000FB6F894DEBF0FBECDBFDF91CF910C9450
:1019E000A30C40E061E00E94A30C8BE39FE1019710
:1019F000F1F70895CF93DF9365E871E090E080E020
:101A00000E94FD2CEC010097A9F067E871E00E94AC
:101A1000F933892BA1F06AE871E0CE010E94F93315
:101A2000892B69F06CE871E0CE010E94F93321E066
:101A3000892B09F020E0822FDF91CF91089521E0DA
:101A4000FACF8091CC039091CD03892BC1F480E033
:101A500094E00E94CD329093CD038093CC03009705
:101A600031F48BE291E00E94ED0A80E0089520E0DD
:101A700034E0FC01A901119241505040E1F781E0AE
:101A800008950E94210D882361F0E091CC03F0912C
:101A9000CD0380E094E0DF019C011D922150304095
:101AA000E1F70895EF92FF920F931F93CF93DF9387
:101AB000F82E062F142F8091CE039091CF0300971C
:101AC00079F0209180022F1109C020911601261370
:101AD00005C020911501241709F4A6C00E9469339E
:101AE0008CE090E00E94CD32EC011B821A8289E2E8
:101AF00091E099838883FC82088719871A8688E099
:101B0000E82EEB86D093CF03C093CE03F0928002F1
:101B1000009316011093150110924F0310924E037B
:101B20001092490410926B040E94980789E194E096
:101B300090934B0380934A038AE194E090934D0382
:101B400080934C031D828985823008F0ED829A854E
:101B5000992329F0813019F48D8184608D8362E3AB
:101B600070E080E090E00E94DA036B85CE010E9475
:101B7000BB0968EE73E080E090E00E94DA0360E366
:101B8000CE010E948A0C0BE416E4C8010197F1F71C
:101B900060E3CE010E948A0CC8010197F1F760E36F
:101BA000CE010E948A0C83E592E00197F1F760E292
:101BB000CE010E948A0C6D81606240E0CE010E94DD
:101BC000A30C84E08E8340E06CE0CE010E94A30C65
:101BD000CE010E94F10C82E08F8340E066E0CE01EE
:101BE0000E94A30C40E062E0CE010E94A30C8BE3B4
:101BF0009FE10197F1F78CE08093B8008091CE03CC
:101C00009091CF0328E0FC01238760E00E94BB098C
:101C10008091CE039091CF03DF91CF911F910F91CF
:101C2000FF90EF900C94F10CDF91CF911F910F91E9
:101C3000FF90EF9008950F931F93CF93DF9390E061
:101C400080E00E94C02F813C89F0109266031092C0
:101C5000770310928803109299031092AA031092AE
:101C6000BB03DF91CF911F910F91089506E613E01A
:101C7000C1E0D0E0CE010E94C02FF80181938F0116
:101C80002196C736D105B1F7ECCF85ED8093BC0026
:101C90008091440490914504A0914604B09147047A
:101CA0000796A11DB11D23E0B695A7959795879539
:101CB0002A95D1F72091BC0024FD03C01092420464
:101CC00008954091440450914504609146047091F8
:101CD0004704452B462B472B69F30097A105B10517
:101CE00041F02AE22A95F1F700C00197A109B10954
:101CF000E1CF809143040C94B607009761F0FC019A
:101D000020812F7D213429F401960E94D62C0E9635
:101D100008950C94D62C8EE090E0089565E871E06B
:101D200090E080E00E94FD2C009711F00C94D62CDE
:101D300090E080E008951F920F920FB60F92112449
:101D40002F933F938F939F93AF93BF9380911404EE
:101D500090911504A0911604B091170430911304CA
:101D600023E0230F2D3758F50196A11DB11D2093B7
:101D700013048093140490931504A0931604B09355
:101D800017048091180490911904A0911A04B0913D
:101D90001B040196A11DB11D809318049093190492
:101DA000A0931A04B0931B04BF91AF919F918F91A0
:101DB0003F912F910F900FBE0F901F90189526E81E
:101DC000230F0296A11DB11DD2CF1F920F920FB605
:101DD0000F9211242F933F934F935F936F937F93B1
:101DE0008F939F93AF93BF93EF93FF938CE694E011
:101DF0000E949D04FF91EF91BF91AF919F918F91B0
:101E00007F916F915F914F913F912F910F900FBEF6
:101E10000F901F9018951F920F920FB60F921124DA
:101E20002F935F936F937F938F939F93AF93BF9302
:101E3000EF93FF93E0917C04F0917D048081E09129
:101E40008204F091830482FD24C020818091850466
:101E500090E0019660E370E00E94803290918604E9
:101E6000981741F0E0918504F0E0E459FB4F258F8D
:101E700080938504FF91EF91BF91AF919F918F91D6
:101E80007F916F915F912F910F900FBE0F901F90D8
:101E900018958081EFCF1F920F920FB60F921124E9
:101EA0002F933F934F935F936F937F938F939F9362
:101EB000AF93BF93EF93FF93E0914803F0914903F1
:101EC000309749F0A685B7858585968D91FF14C01A
:101ED0009C918923A1F4FF91EF91BF91AF919F91C4
:101EE0008F917F916F915F914F913F912F910F90C3
:101EF0000FBE0F901F9018959C91892361F7A389BD
:101F0000B4899C918589809589238C93868997894A
:101F10000197F1F7608D718DA685B785558538E0FD
:101F200020E0CB010197F1F7822F90E095958795FE
:101F3000282F4C91452309F02068315091F7868D68
:101F400081FD20958091460390E001968F7399273B
:101F500030914703381799F0A0914603B0E0AA5F8B
:101F6000BC4F2C9380934603828D938D0197F1F79C
:101F7000A389B4898C919589892B8C93ACCF868D5C
:101F80008160868FF1CF1F920F920FB60F921124AE
:101F90002F933F934F935F936F937F938F939F9371
:101FA000AF93BF93EF93FF938091B900887F803602
:101FB00009F44AC0F0F5883209F4A7C018F5803159
:101FC00009F49BC0B8F4882309F4F9C0883009F4F7
:101FD00094C0FF91EF91BF91AF919F918F917F91AD
:101FE0006F915F914F913F912F910F900FBE0F9086
:101FF0001F901895883109F488C0803251F780937A
:10200000400414C0803409F49DC040F48033B9F317
:102010008833F9F68093400485ECB0C0803509F42C
:1020200085C0883509F496C0883499F60E94450E1B
:10203000D0CF883909F48CC038F5883729F050F4AE
:10204000883611F0803729F683E08093420410929D
:10205000E50257C0883809F47BC0803919F0803810
:1020600009F0B7CF8091E502803208F071C0E091AD
:10207000E50281E08E0F8093E5028091BB00F0E0E5
:10208000EB53FD4F80833DC0803B39F0E0F4803A54
:1020900009F479C0883A09F09CCF84E08093420427
:1020A0001092C4021092C302E0914A03F0914B03D4
:1020B00009958091C30281110FC081E08093C30212
:1020C0001092A30209C0803C09F4A6CF883C09F411
:1020D000A3CF883B09F07DCFE091C40281E08E0F51
:1020E0008093C402F0E0ED55FD4F80818093BB00EA
:1020F0009091C4028091C30229C080911D048093F5
:10210000BB0085EC8093BC0064CF90913F0480912C
:102110003E04981758F5E0913F0481E08E0F8093BC
:102120003F04F0E0E25EFB4F8081E9CFE0913F04A5
:1021300081E08E0F80933F048091BB00F0E0E25E6F
:10214000FB4F808390913F0480913E049817C8F222
:1021500085E8D8CFE0913F0481E08E0F80933F0463
:102160008091BB00F0E0E25EFB4F808380914104F0
:1021700081115CCF81E080931C0484EA8093BC00D1
:102180001092420426CF85EC8093BC00109242044A
:102190008091E502803230F4E091E502F0E0EB530B
:1021A000FD4F10826091E50270E0E0914C03F091E8
:1021B0004D0385EC92E009951092E5020ACF10924A
:1021C000400434CFCF92DF92EF92FF920F931F9390
:1021D000E82FF92F05C0015011092109310961F1DA
:1021E000908196239417B9F305C001501109210974
:1021F000310911F1908196239413F7CFC12CD12C82
:10220000E12CF12C0AC08FEFC81AD80AE80AF80AA4
:102210000C151D052E053F0579F080818623841756
:1022200091F36C2D7D2D8E2D9F2D1F910F91FF9081
:10223000EF90DF90CF90089560E070E080E090E054
:102240001F910F91FF90EF90DF90CF9008951F9313
:10225000CF93DF93EC01162F60E0812F0E9464037F
:102260008E8D81FD04C061E0812F0E9436031C87A2
:10227000812F90E0FC01E456FA4FE491ED87FC01D8
:10228000E857FA4FE491F0E0EE0FFF1FE558FE4FDC
:10229000859194919F878E87DF91CF911F910895AB
:1022A0001F93CF93DF93EC01162F6E8D66956170AF
:1022B00081E06827812F0E94360361E0812F0E9410
:1022C0006403812F90E0FC01E456FA4FE491E88B1F
:1022D000FC01E857FA4FE491F0E0EE0FFF1FE258DF
:1022E000FA4F859194919A8B898BDF91CF911F91B1
:1022F0000895FC0184E491E09183808380914803F8
:1023000090914903E817F90759F4A389B4899C917E
:102310008589809589238C931092490310924803F4
:102320000895CF93DF93FC01828D938D892B41F12A
:10233000A0914803B0914903AE17BF0709F1109768
:1023400051F05396CD91DC915497988155968C918C
:10235000809589238883868D8E7F868F1092460391
:1023600010924703F0934903E0934803A389B4898B
:102370008C919589892B8C9381E0DF91CF91089581
:1023800080E0FBCFFC01138E128E118E108E178A07
:10239000168A8DE991E0958F848F84858631D8F5F2
:1023A0002DEB30E0378B268B2BE931E0318F208FFE
:1023B0002CE231E0338F228F90916800883070F1E9
:1023C00021E08E3008F420E081E001C0880F2A95DA
:1023D000EAF7892B8093680084852DE630E0883009
:1023E00050F02BE630E08E3030F02CE630E08631D5
:1023F00010F030E020E0348B238B282F30E0883041
:1024000078F491E001C0990F8A95EAF7958B848D55
:10241000958D0197F1F7CF010C94911184E0D9CFFC
:102420008E3040F42850310991E001C0990F2A956F
:10243000EAF7ECCF2E503109F7CFDC0180E0615094
:1024400090F09D919827E92FEF70F0E0E85CFE4F47
:102450002491E92FE295EF70F0E0E85BFE4FE49104
:10246000822F8E27ECCF0895DC012C911196ED91EF
:10247000FC91F8948181822B81839281322F309557
:102480009323928387E090E00197F1F78181832382
:10249000818383E290E00197F1F790817894EFECEB
:1024A000F0E03197F1F7922381E009F480E008959C
:1024B000FC0190810180F281E02D292F209560FFA1
:1024C00014C0F8948281822382838181892B818345
:1024D000A3E2B0E01197F1F78281982B9283789470
:1024E00087ED90E00197F1F70895F89482818223B7
:1024F00082838181892B8183AFEFB0E01197F1F75F
:102500008281982B928378948FE090E0EBCFDF92DA
:10251000EF92FF920F931F93CF93DF93EC01D62E90
:10252000E42E08E010E0FF24F39461E08D2D8F216C
:1025300009F460E0CE010E945812FF0C015011090D
:10254000A1F7E11010C0F894E981FA8191818881A6
:10255000809589238183E981FA81928188818095A0
:10256000892382837894DF91CF911F910F91FF90FF
:10257000EF90DF900895EF92FF920F931F93CF9308
:10258000DF938C017B0140E065E50E948712E70143
:1025900088E0E80EF11C699140E0C8010E948712B2
:1025A000CE15DF05C1F7DF91CF911F910F91FF90FD
:1025B000EF900895FC0190810180F281E02DF89464
:1025C0008181292F20958223818378943DE743E000
:1025D00050E0315029F1DA011197F1F78081892318
:1025E000C1F3F8948281822382838181892B818344
:1025F0007894ABE7B7E01197F1F7F89481818223E3
:102600008183A3E1B1E01197F1F78081982381E004
:1026100009F080E07894E3E6F6E03197F1F7089569
:1026200080E008958F929F92AF92BF92CF92DF92F7
:10263000EF92FF92CF93DF93EC018E819F810E94F6
:10264000DA1240E06CEC8E819F810E9487124881F3
:1026500064E48E819F810E9487128A81882371F1B0
:10266000E981E9508EEEC82E82E0D82EE33038F4AE
:10267000F0E0EE0FFF1FEF5CFE4FC080D1808B813A
:10268000882339F18881811124C00E940D044B01F7
:102690005C010D2C000CEE08FF088E819F810E94CA
:1026A0003412813059F00E940D046C197D098E0995
:1026B0009F09681579058A059B0578F3DF91CF910D
:1026C000FF90EF90DF90CF90BF90AF909F908F9052
:1026D0000895B601DD0C880B990BDF91CF91FF9027
:1026E000EF90DF90CF90BF90AF909F908F900C9421
:1026F000DA036F927F928F929F92AF92BF92CF92A6
:10270000DF92EF92FF920F931F93CF93DF93EC0131
:102710007B018A018E819F810E94DA12811102C0A1
:1027200090E037C0B7018E819F810E94BB1240E0CC
:102730006EEB8E819F810E9487127801680189E08B
:10274000C80ED11CAE80BF8088E0882E912C712CE1
:1027500066246394C5010E94341281117628660CA8
:10276000E1E08E1A9108B1F7F70171927F01EC1543
:10277000FD0541F78E819F810E94DA12813081F63A
:1027800068E0C8010E941D1291E0F801208528131D
:10279000C7CF892FDF91CF911F910F91FF90EF90BD
:1027A000DF90CF90BF90AF909F908F907F906F9071
:1027B0000895CF93DF93CDB7DEB729970FB6F8947E
:1027C000DEBF0FBECDBFAE014F5F5F4F0E947913DA
:1027D000882331F08D818F33A9F020F48F31A1F05F
:1027E00080E007C08F3521F08F37D1F78CE001C032
:1027F0008BE029960FB6F894DEBF0FBECDBFDF91F8
:10280000CF9108958AE0F5CF89E0F3CF8F929F9220
:10281000AF92BF92CF92DF92EF92FF92CF93DC0103
:102820001796CC91179750E061115C2F18962C9158
:10283000189730E0220F331F25583E4F60E070E0BC
:10284000CB01F901E590F490F70140814C23451349
:1028500015C04B015C01FFEF8F1A9F0AAF0ABF0A38
:102860001D96CD90DD90ED90FC9050976C157D05F8
:102870008E059F0568F060E070E0CB01CF91FF907E
:10288000EF90DF90CF90BF90AF909F908F90089582
:10289000C501B401D6CF8F929F92AF92BF92CF92D3
:1028A000DF92EF92FF920F931F93CF93DF93CDB7F9
:1028B000DEB7C054D1400FB6F894DEBF0FBECDBF17
:1028C0008C010E940D04F801C184D284E384F48455
:1028D0009B01AC012C193D094E095F0969017A0180
:1028E00030EDC31637E0D306E104F104A8F4818982
:1028F000C05CDE4F0FB6F894DEBF0FBECDBFDF91D8
:10290000CF911F910F91FF90EF90DF90CF90BF90EC
:10291000AF909F908F900895618772878387948787
:102920001482138212821182108261E085810E94DA
:1029300036036AEF70E080E090E00E94DA0361E025
:10294000F80185810E94640360E0F80185810E949E
:10295000360364E170E080E090E00E94DA03F894CE
:1029600061E0F80185810E9436038BE990E00197D0
:10297000F1F762E0F80185810E94640383E290E050
:102980000197F1F760E0C8010E940614672B682BDD
:10299000692B29F4F801118A789480E0A9CF61E0CD
:1029A000C8010E940614672B682B692B99F39E01BE
:1029B0002F5F3F4F79015E013FEBA31A3EEFB30A51
:1029C000670160E0C8010E940614F601608371830C
:1029D0008283938361E0C8010E940614F601648338
:1029E000758386839783F8E0CF0ED11CCA14DB046D
:1029F00041F7789430E020E0F70180809180A28058
:102A0000B380448155816681778181149104A1044A
:102A1000B10429F0411551056105710519F4F8015A
:102A2000118ABBCFF90183E0F595E7958A95E1F727
:102A3000E00FF11F8081880F84169506A606B70661
:102A4000F0F080832F5F3F4FF8E0EF0EF11C28324B
:102A5000310591F6F801448120818181280F3327C7
:102A6000331F8281280F311D8381820F932F911D87
:102A700099274817190699F681E0818B39CF816033
:102A8000E0CF1F93CF93DF93EC01142F88819981BE
:102A900021E02093480428E620936A041092490418
:102AA00010926B04DC01ED91FC910190F081E02D1E
:102AB000099588819981DC01ED91FC910190F0816B
:102AC000E02D612F099588819981DF91CF911F9128
:102AD0000C944C09BF92CF92DF92EF92FF920F932A
:102AE0001F93CF93DF93B82E0E940D046B017C01DE
:102AF000D0E0C0E00FEF13E00E940D046C197D09D7
:102B00008E099F09623371058105910560F48B2D53
:102B10000E94A0038017910708F48C01C817D907F9
:102B200058F7EC01E9CFBE01601B710B072E000CBA
:102B3000880B990B0E94A32E20E030E048EC52E471
:102B40000E94022F20E030EC4FE754E40E9438311D
:102B5000DF91CF911F910F91FF90EF90DF90CF9079
:102B6000BF900895E091CC03F091CD03309711F11F
:102B700080389105F8F460347105E0F4DB01A7704A
:102B8000BB2721E030E001C0220FAA95EAF733E02D
:102B9000759567953A95E1F77695762F662777953F
:102BA0006795860F971FE80FF91F8081442319F05E
:102BB000282B2083089520952823FBCF2F923F9226
:102BC0004F925F926F927F928F929F92AF92BF923D
:102BD000CF92DF92EF92FF920F931F93CF93DF93E9
:102BE00000D000D0CDB7DEB77C017C836B834A0177
:102BF00039018091CC039091CD03892B09F455C004
:102C00008A010E191F0917FF03C0119501951109BB
:102C100044244A94542CE814F9041CF444244394A6
:102C2000512C63012B813C81C21AD30AD7FE03C009
:102C3000D194C194D108882799278C199D099A832A
:102C400089832B813C8122242A94322C2615370536
:102C50001CF422242394312C5801AC18BD0841E007
:102C60006B817C81C7010E94B215E814F90429F434
:102C70008B819C8186159705C1F0C501880F991F2E
:102C800029813A81821793073CF0AC18BD08E40C07
:102C9000F51C081719071CF3A00EB11E8B819C812F
:102CA000820D931D9C838B83DACF0F900F900F9032
:102CB0000F90DF91CF911F910F91FF90EF90DF90D8
:102CC000CF90BF90AF909F908F907F906F905F90CC
:102CD0004F903F902F900895BF92CF92DF92EF9246
:102CE000FF920F931F93CF93DF93EC01B62EC72E65
:102CF0008D85811105C0CE010E94DA1281110EC0AE
:102D00001B861D861C8680E0DF91CF911F910F915D
:102D1000FF90EF90DF90CF90BF90089540E060EF7C
:102D2000CE010E94871201E0E12CD12C11E0CE01EE
:102D30000E943412F82ECE010E94341291E0F91252
:102D400018C0813099F51134D8F2DB86D11002C059
:102D500081E08D878B81882399F22396EB2DFC2DC2
:102D6000CF01089629912193E817F907D9F781E057
:102D7000CBCFEE2DF0E0F8120FC08B851817A0F422
:102D8000DE01AE0FBF1F13968C91802379F4F12CD6
:102D9000193008F41C87D12EEC0FFD1F8381902F72
:102DA0009095892383830AC08113F1CFFE01EE0D34
:102DB000F11D8381802B8383FF24F3946F2DCE013B
:102DC0000E9458121F5F000F11F4E39401E087E0A6
:102DD0008E1508F0ACCFB7CFDF92EF92FF920F9332
:102DE0001F93CF93DF937C018B01D42EDC011696C9
:102DF000ED91FC9113861586148612861186108635
:102E000017821682158214821382C0E0B801F7017E
:102E1000868197810E946C16D82F882329F0DC16B2
:102E200029F0CF5FDC1690F7D0E009C067E0C80159
:102E30000E941D12D80117969C918913F2CF8D2FF5
:102E4000DF91CF911F910F91FF90EF90DF90089548
:102E50002F923F924F925F926F927F928F929F92AA
:102E6000AF92BF92CF92DF92EF92FF920F931F9398
:102E7000CF93DF93CDB7DEB72C970FB6F894DEBFB4
:102E80000FBECDBF9C878B87DC018D919C9121E08B
:102E90002093480428E620936A0410924904109273
:102EA0006B046BE370E00E94B40980E00E94D707D6
:102EB0000E94B5036B017C0180914204811165C0C1
:102EC00081E080934204809341049FEF90934004FB
:102ED00010923F049DE090933E0480931D048091E6
:102EE0001D04806D80931D0480911C04813009F0C5
:102EF0007DC310921C040E94B5036B017C0180917C
:102F00001D048093BB008091440490914504A091DE
:102F10004604B0914704892B8A2B8B2BA1F00E9489
:102F2000B50300914404109145042091460430916A
:102F300047046C197D098E099F0906171707280792
:102F4000390708F443C08091BC0083FDD8CF85ECDD
:102F50008093BC000E94B5036B017C018091420408
:102F6000813009F445C380913F048E3008F062C37C
:102F700080913F04EEE1F4E0A6EEB2E090E0981715
:102F800051F121912D939F5FFACF8091440490914C
:102F90004504A0914604B0914704892B8A2B8B2BC2
:102FA00009F48ACF0E94B5030091440410914504AE
:102FB00020914604309147046C197D098E099F09C0
:102FC000061717072807390708F076CF80914304C2
:102FD0000E94B60780E010924F0380934E03EB856A
:102FE000FC8580819181DC01ED91FC910284F38567
:102FF000E02D0995182FEB85FC8580819181DC01FE
:10300000ED91FC910284F385E02D099520E0822B5F
:10301000912BEB85FC859383828380819181DC01F8
:10302000ED91FC910284F385E02D0995182FEB8535
:10303000FC8580819181DC01ED91FC910284F38516
:10304000E02D099520E0822B912BEB85FC85958363
:10305000848380819181DC01ED91FC910284F38570
:10306000E02D0995182FEB85FC8580819181DC018D
:10307000ED91FC910284F385E02D099520E0822BEF
:10308000912BEB85FC859783868380819181DC0180
:10309000ED91FC910284F385E02D0995182FEB85C5
:1030A000FC8580819181DC01ED91FC910284F385A6
:1030B000E02D099520E0822B912BEB85FC859187F3
:1030C000808780819181DC01ED91FC910284F38500
:1030D000E02D0995182FEB85FC8580819181DC011D
:1030E000ED91FC910284F385E02D099520E0822B7F
:1030F000912BEB85FC859387828780819181DC0110
:10310000ED91FC910284F385E02D0995182FEB8554
:10311000FC8580819181DC01ED91FC910284F38535
:10312000E02D099520E0822B912BEB85FC8595877E
:10313000848780819181DC01ED91FC910284F3858B
:10314000E02D0995182FEB85FC8580819181DC01AC
:10315000ED91FC910284F385E02D099520E0312F5B
:103160001901282A392AEB85FC8537862686608551
:103170007185072E000C880B990B0E94A32E20E06E
:1031800030EF41E456E40E945A3020E030E04AEA51
:1031900053E40E943831AB85BC855C966D937D937A
:1031A0008D939C935F9712966D917C91072E000CE6
:1031B000880B990B0E94A32E20E030E040E858E3F2
:1031C0000E94022F4B015C01EB85FC8580A291A23D
:1031D000A2A2B3A264817581072E000C880B990B03
:1031E0000E94A32E20E030E040E858E30E94022F26
:1031F0006B017C01AB85BC859496CD92DD92ED92FE
:10320000FC92979716966D917C91072E000C880B77
:10321000990B0E94A32E20E030E040E858E30E9482
:10322000022F2B013C01EB85FC8540A651A662A62E
:1032300073A620E030E0A901C501B4010E9400326C
:10324000A501940118160CF05058C301B2010E9458
:103250005A309B01AC01C701B6010E94D9300B85E1
:103260001C850C5B1F4F20E030E044EB53E40E94D0
:10327000022F20E030E040E05FE30E94022F2BEDC0
:103280003FE049E450E40E943831D8016D937D93CA
:103290008D939C93139720E030E0A901C701B601FC
:1032A0000E940032181624F0F7FAF094F7F8F09420
:1032B000A7019601C301B2010E945A309B01AC01E3
:1032C000C501B4010E94D9300B851C85085B1F4FD6
:1032D00020E030E044EB53E40E94022F20E030E095
:1032E00040E05FEB0E94022F2BED3FE049E450E409
:1032F0000E943831F8016083718382839383AB85A8
:10330000BC851C966D917C91072E000C880B990B47
:103310000E94A32E20E030E043E852E40E943831BE
:103320006B017C01EB85FC8562857385072E000CA3
:10333000880B990B0E94A32E20E030E043E852E472
:103340000E943831AB85BC8550962D913D914D91B1
:103350005C9153970E945930EB85FC8564A775A753
:1033600086A797A72489358946895789C701B60159
:103370000E945930AB85BC85D0966D937D938D931B
:103380009C93D397B101330C880B990B0E94A32E09
:1033900020E030E043E852E40E943831EB85FC85C0
:1033A000208D318D428D538D0E945930AB85BC8567
:1033B000D4966D937D938D939C93D7970E940D0423
:1033C000EB85FC85E05AFF4FFE83ED83C080D18002
:1033D000E280F3806C197D098E099F090E94A12E5D
:1033E0002FE632E143E85AE30E94022F2B013C0111
:1033F000EB85FC85E45AFF4F4082518262827382E2
:10340000AB85BC859C962D913D914D915C919F978C
:103410000E94022F4B015C01AC019B01EB85FC85F6
:1034200060AD71AD82AD93AD0E945A30AB85BC8565
:10343000D8966D937D938D939C93DB97D0962D9129
:103440003D914D915C91D397C301B2010E94022F2F
:103450006B017C01AC019B01EB85FC8564AD75AD16
:1034600086AD97AD0E945A30AB85BC85DC966D93D6
:103470007D938D939C93DF97D4962D913D914D91A3
:103480005C91D797C301B2010E94022F6B847C84A8
:10349000B0E46B0E711CF3012081318142815381B4
:1034A0000E945A306F83788789879A87D3016D93FA
:1034B0007D938D939C931397EB85FC85E859FF4F83
:1034C0004080518062807380EB85FC85EC59FF4F12
:1034D00080819181A281B38189839A83AB83BC83EC
:1034E0002B843C8490E5290E311CD1012D913D9116
:1034F0004D915C91C501B4010E945A30A301920123
:103500000E94022F4B015C01EB85FC85EC5BFF4FB9
:10351000208131814281538169817A818B819C81B3
:103520000E94022F9B01AC01C501B4010E945A30D8
:10353000F1016083718382839383AB84BC84F4E55F
:10354000AF0EB11CD5012D913D914D915C91C701FC
:10355000B6010E945A30A30192010E94022F6B0112
:103560007C01F801208131814281538169817A8116
:103570008B819C810E94022F9B01AC01C701B60187
:103580000E945A30D5016D937D938D939C93139730
:10359000EB85FC85E85AFF4F8F819885A985BA8510
:1035A00080839183A283B3830E940D04AD81BE8189
:1035B0006D937D938D939C9313972C960FB6F894EF
:1035C000DEBF0FBECDBFDF91CF911F910F91FF9056
:1035D000EF90DF90CF90BF90AF909F908F907F90B3
:1035E0006F905F904F903F902F90089585EEB0CCF4
:1035F0008091440490914504A0914604B091470401
:10360000892B8A2B8B2B09F4A9CC0E94B50300913E
:1036100044041091450420914604309147046C19EC
:103620007D098E099F09061717072807390708F033
:1036300095CCCCCC8EE09ECC65E871E090E080E04B
:103640000E94FD2C009711F00C94D22C60E070E0E9
:10365000CB010895ECE6F4E01382128288EE93E049
:10366000A0E0B0E084839583A683B78326E531E0AC
:103670003183208325EC30E03587248724EC30E04B
:103680003787268720EC30E0318B208B21EC30E02F
:10369000338B228B22EC30E0358B248B26EC30E010
:1036A000378B268B118E128E138E148EE9EDF4E07B
:1036B0001382128284839583A683B78388E691E080
:1036C000918380830895CF93DF93CDB7DEB7A3971F
:1036D0000FB6F894DEBF0FBECDBF789484B582607C
:1036E00084BD84B5816084BD85B5826085BD85B5A6
:1036F000816085BD80916E00816080936E00109224
:10370000810080918100826080938100809181009E
:10371000816080938100809180008160809380002F
:103720008091B10084608093B1008091B00081608D
:103730008093B00080917A00846080937A008091B9
:103740007A00826080937A0080917A008160809311
:103750007A0080917A00806880937A001092C1008C
:10376000E0917C04F0917D0482E08083E091780414
:10377000F09179041082E0917A04F0917B0480E169
:10378000808310928404E0918004F091810486E0AB
:103790008083E0917E04F0917F048081806180834A
:1037A000E0917E04F0917F04808188608083E091C5
:1037B0007E04F0917F04808180688083E0917E04A4
:1037C000F0917F0480818F7D808310924F0310924F
:1037D0004E031092490410926B040E94980789E1ED
:1037E00094E090934B0380934A038AE194E0909392
:1037F0004D0380934C038CE08093B8000E941B0E15
:1038000088E591E00E94ED0A8091110490911204E4
:10381000892B11F00E945209809110048823A9F08D
:103820000E940D0400910C0410910D0420910E04CF
:1038300030910F04601B710B820B930B693C710577
:103840008105910510F0109210049E01275F3F4FF3
:103850003B8B2A8B8CE694E00E947C04892B11F42C
:103860000C94512B0E940D0460930C0470930D0472
:1038700080930E0490930F048CE694E00E9457040A
:10388000E09110048A3021F08D3011F00C94432B1C
:10389000EE2301F3F0E0EC52FC4F1082E4EDF3E094
:1038A000CF0121912032E1F3222309F411C165E80F
:1038B00071E00E94FD2C8C01009709F409C169E9AF
:1038C00071E00E94F933892B29F48DE595E00E947F
:1038D000ED0AFEC06FE971E0C8010E94F933892B3F
:1038E00019F48BE095E0F3CF65EA71E0C8010E941E
:1038F000F933892B19F486E095E0E9CF6AEA71E0A3
:10390000C8010E94F933892B19F48BEF94E0DFCFC3
:103910006EEA71E0C8010E94F933892B09F07DC17C
:1039200065E871E090E080E00E94FD2C8C0100973A
:1039300009F4CEC062EB71E00E94F933892B09F0E3
:10394000D6C00E948E0E6C010E948E0E009749F424
:103950008091D0039091D10310E1E12EF12C0097DA
:1039600031F07C014F9718F00EE1E02EF12C009120
:10397000D2031091D3030115110521F18091130198
:1039800090911401C816D90641F48091D00390910A
:10399000D1038E159F0509F49BC0D80119968D910E
:1039A0009C910E946933F8018681978197FD03C03D
:1039B00060E00E946403C8010E9469331092D3033F
:1039C0001092D20386E190E00E94CD328C01DC019E
:1039D00011961C92119718961C92FC011786108A5A
:1039E000118A128A81E086878387148692E0958700
:1039F00080835701AA0CBB1CAE0CBF1CB582A482ED
:103A0000C5010E94CD32D8011A969C938E931997C6
:103A1000009709F460C0A50170E060E00E94F233F5
:103A2000F801F382E282F801D782C682818188237D
:103A300041F061E08C2D0E94640360E08C2D0E94B7
:103A40003603F601E857FA4FE491F0E0EE0FFF1F5E
:103A5000E258FA4F85919491D80154969C938E9395
:103A60005397F601E456FA4FE4915596EC93559727
:103A70001093D3030093D20316968D919C9197FDDA
:103A800033C061E00E94640360E0F80186810E9417
:103A9000360381E0D80111968C9360E5C8010E943D
:103AA000F905D80114964D915C91159770E060E08E
:103AB00019968D919C910E94F233C8010E949C0638
:103AC000D0921401C0921301F092D103E092D0037E
:103AD00010921004BFCE15961C921E921497139646
:103AE0001C921E9212979FCFF8011182D6CFE090C0
:103AF000D203F090D303E114F10451F367EB71E0CA
:103B0000C8010E94F933892B69F4F701448155817A
:103B100070E060E0818592850E94F233C7010E94C7
:103B20009C06D6CF6DEB71E0C8010E94F933892B5A
:103B3000A1F40E948E0E0091D2031091D3038F3F07
:103B4000910519F014F08FEF90E097FD80E0682F59
:103B5000C8010E94F905C801E2CF64EC71E0C80118
:103B60000E94F933892B39F50E948E0E182F0E947E
:103B70008E0EC82E0E948E0ED12CF12CE12CFE2C24
:103B8000ED2CDC2CCC24E12AC82A10E000E02091A6
:103B9000D0033091D1038091D2039091D3030217C7
:103BA000130708F0BCCFA7019601B8010E943B069D
:103BB0000F5F1F4FECCF69EC71E0C8010E94F93331
:103BC000892B09F085CF0E948E0E8C010E948E0EEB
:103BD000E82E0E948E0EF82E0E948E0E17FD18C041
:103BE0002091D0033091D103021713078CF42F2DAD
:103BF00030E050E040E0542F432F322F22274E294F
:103C0000282BB8018091D2039091D3030E943B06E8
:103C10008091D2039091D30382CF6FEC71E0C80101
:103C20000E94F933892B09F000C165E871E090E04A
:103C300080E00E94FD2C8C01009709F449CF62EBD3
:103C400071E00E94F933892B31F565E871E090E06D
:103C500080E00E94FD2C70E2F72E009739F050E0D2
:103C600040E070E060E00E94BB2BF62E0E948E0EBA
:103C70008C010E948E0E1016110614F000E110E067
:103C80001816190614F082E090E0482F602F8F2D4F
:103C90000E94520D1DCF8091CE039091CF03892BAE
:103CA00029F442E060E180E20E94520D67EB71E08E
:103CB000C8010E94F933892B39F48091CE03909189
:103CC000CF030E94F10C04CF63ED71E0C8010E94A4
:103CD000F933892B89F40E94FA0CE091CE03F0911C
:103CE000CF03882339F088E0838760E0CF010E940A
:103CF000BB09EECE1386F9CF66ED71E0C8010E94D4
:103D0000F933892B09F0E4CE0E948E0E7C010E94CB
:103D10008E0E5C0168E771E090E080E00E94FD2C6F
:103D2000FC01892B09F4D4CE6F01DF018D91803223
:103D300051F08232D1F480E09191992331F09232A6
:103D4000D9F78F5FF9CFFD01EFCF823009F0C0CEF8
:103D5000FFEFCF1ADF0A62E270E0C6010E94023470
:103D6000009709F4B5CEDC011C928701F7FE02C072
:103D700010E000E07501B7FE02C0F12CE12C4E2DE1
:103D8000602F8091CE039091CF030E94C00CF6016A
:103D900081916F01882361F18091160180171106CE
:103DA00009F09CF4FFEFEF1AFF0A809115018E15C0
:103DB0001F04E1F0DCF04E2D60E08091CE03909185
:103DC000CF030E94C00C10E000E08091CE039091E0
:103DD000CF03DC01ED91FC910190F081E02DD60143
:103DE00011976C9109950F5F1F4FD1CF10E000E044
:103DF000809115018E151F0409F00CF469CE809195
:103E000016018017110609F00CF462CE8091CE03E2
:103E10009091CF03DC01ED91FC910190F081E02DB8
:103E200060E209950F5F1F4FEACF6BED71E0C801AB
:103E30000E94F933892B09F018C265E871E090E01F
:103E400080E00E94FD2C8C01009709F441CE62EBCA
:103E500071E00E94F933892BE9F465E871E090E0A4
:103E600080E00E94FD2C009799F050E040E070E067
:103E700060E00E94BB2B862F0E94EE090E94210D5C
:103E8000882309F425CE0E94410D0E947B0A20CE92
:103E90008CE3F2CF0E94210D882309F419CE67EB41
:103EA00071E0C8010E94F933892B69F366ED71E076
:103EB000C8010E94F933892B09F0ABC00E948E0E15
:103EC0007C010E948E0ED82E192F68E771E090E0D9
:103ED00080E00E94FD2CFC01892B09F4F9CD2F0113
:103EE000DF018D91803251F08232D1F480E09191E6
:103EF000992331F09232D9F78F5FF9CFFD01EFCFDF
:103F0000823009F0E5CDBFEF4B1A5B0A62E270E048
:103F1000C2010E940234009709F4DACDFC0110823C
:103F2000C701F7FE02C090E080E0ED2CF12EF7FE15
:103F300002C0F12CE12CEC8A2091CC033091CD030E
:103F4000FE2DF83068F4F701F695FE2FEE27F79571
:103F5000E795E20FF31F40E8DF011D924A95E9F76C
:103F6000170143E0220C331C4A95E1F78C0153E022
:103F7000000F111F5A95E1F7232B09F4A9CDF20187
:103F800061902F01662011F40C94612B003811050B
:103F900014F00C94612B862D90EE960D903608F05F
:103FA00080E28052990B3C0183E0660C771C8A9575
:103FB000E1F74801F8E08F0E911C85E891E0801B45
:103FC000910B680E791EF301E00FF11FE491D12CE3
:103FD000C12CAE2EB12CC5010C2C02C09595879535
:103FE0000A94E2F780FF07C041E0B1016C0D7D1D2E
:103FF000C8010E94B2152FEFC21AD20A38E0C316C8
:10400000D10449F70F5F1F4F80169106E1F6840136
:10401000B6CF69EC71E0C8010E94F933892B89F4AD
:104020000E948E0E8C010E948E0E7C010E948E0ECC
:1040300041E0892B09F440E0B701C8010E94B215A4
:1040400024CF60EE71E0C8010E94F933892B91F40E
:104050000E948E0E8C010E948E0E7C010E948E0E9C
:104060006C010E948E0E9C01A601B701C8010E943E
:10407000DE150BCF65EE71E0C8010E94F9334C01EB
:10408000892B09F046C00E948E0E6C010E948E0E94
:104090005C010E948E0E8C010E948E0E7C010E949B
:1040A0008E0E2091CC033091CD03232B09F4EDCE5D
:1040B0000C0D1D1D01501109892B81F08E149F04D8
:1040C0000CF0E3CEB501680D791D9B01A801C60176
:1040D0000E94DE159FEF891A990AF0CF9501A80179
:1040E000B501C6010E94DE15EA0CFB1CA1E0EA1A2C
:1040F000F1089701A801B701C6010E94DE159701DA
:10410000A601B501C6010E94DE159701A801B501FF
:10411000ADCF6AEE71E0C8010E94F9336C01892BC2
:1041200009F0D6CC0E948E0E9D8B8C8B0E948E0E39
:10413000998F888F0E948E0E7C010E948E0E9BA309
:104140008AA38091CC039091CD03892B09F49DCE55
:1041500001E010E00E191F09EC14FD040CF495CEDB
:10416000888C998C8C0C9D1CAC88BD88AE0CBF1CB7
:10417000EC89FD89EE19FF09FD8FEC8F288D398DB3
:104180002C193D0939A328A3488D598D4E0D5F1D6B
:104190005F8F4E8F2C883D882C0C3D1C6C887D8851
:1041A0006C187D08488C598C4E185F088AA19BA119
:1041B000892B61F19401A501B401CF010E94DE15A4
:1041C00028A139A1A501B9018C8D9D8D0E94DE1514
:1041D0002E8D3F8DA101B901C3010E94DE15920110
:1041E000A101B201C3010E94DE159FEFC91AD90ACD
:1041F000C60117FD05C0A1E0EA1AF1088E199F0952
:10420000880F991F0196080F191FA6CF41E0B4012E
:10421000C5010E94B21541E0B4018C8D9D8D0E94B4
:10422000B21541E068A179A1C5010E94B21541E033
:1042300068A179A18C8D9D8D0E94B21541E06E8D93
:104240007F8DC1010E94B21541E06E8D7F8DC3014B
:104250000E94B21541E0B201C1010E94B21541E0D5
:10426000B201C3010E94B215C0CF61EF71E0C80175
:104270000E94F933892BE9F465E871E090E080E071
:104280000E94FD2C8C010E947D0EF82E86EF94E09A
:104290000E940C050115110511F401E911E0C80196
:1042A0000E943F0B80E20E9427058F2D0E94A003F1
:1042B0003DC067EF71E0C8010E94F9337C01892B92
:1042C00009F037C00E948E0E8C0160E00E946403EA
:1042D00081EF94E00E940C05C8010E94760B80E2F9
:1042E0000E94270598013327F901E055FA4F849180
:1042F000F901E456FA4F1491F901E857FA4F049185
:10430000002399F081110E940D03E02FF0E0EE0FE1
:10431000FF1FE558FE4FA591B491EC911E2391E04B
:1043200080E009F490E0E92EF82EC7010E94460BC8
:10433000CFCB6DEF71E0C8010E94F933892B79F47E
:104340000E948E0E182F0E94FA0C082F61E0812F18
:104350000E946403602F812F0E943603B9CB64E072
:1043600072E0C8010E94F933892B09F05DC00E94F8
:104370008E0E7C010E948E0E8C0161E08E2D0E94BB
:10438000640361E08E2D0E946403101611061CF078
:1043900060E08E2DE1CF0F3F110514F061E0F9CF01
:1043A000F701FF27E055FA4FE491E33019F140F4AB
:1043B000E130B1F0E230C9F0003811057CF7E8CF08
:1043C000E73011F1E83041F1E430B1F7809180003D
:1043D00080628093800010938B0000938A0078CBDA
:1043E00084B5806884BD07BD73CB84B5806284BD0D
:1043F00008BD6ECB80918000806880938000109310
:1044000089000093880064CB8091B000806880931D
:10441000B0000093B3005CCB8091B00080628093C9
:10442000B0000093B40054CB68E072E0C8010E9471
:10443000F933892B09F066C165E871E090E080E00E
:104440000E94FD2C8C0165E871E090E080E00E9404
:10445000FD2C1C01C8010E947D0E7C010E97863048
:10446000910508F088C021E1289F8001299F100D47
:1044700011240A591C4FF8018081882309F47BC05C
:104480008E2D0E94A003BC01990F880B990B0E94EE
:10449000A32E688F798F8A8F9B8FD80119962D91C3
:1044A0003D914D915C911C972C8B3D8B4E8B5F8B7E
:1044B0001196CD90DD90ED90FC901497A701960198
:1044C0006C897D898E899F890E949C2E81111BC0D9
:1044D000F801C580D680E780F0848CEE94E00E94DD
:1044E0000C052114310421F4E4E92E2EE1E03E2EE6
:1044F000C1010E943F0B80E20E94270542E050E08C
:10450000C701B60139C2D80115964D905D906D90E6
:104510007C901897A30192011D966D917D918D91CC
:104520009C9150970E9459304B015C01A701960164
:10453000688D798D8A8D9B8D0E9459309B01AC01CD
:10454000C501B4010E94022F4B015C01A701960135
:104550006C897D898E899F890E9459309B01AC01AD
:10456000C501B4010E943831A30192010E945A3062
:104570006B017C01B2CF81012114310411F404E9F3
:1045800011E06FE072E0C8010E94F933892B21F439
:10459000C7010E946A15ECCF63E172E0C8010E9476
:1045A000F933892BA9F38E2D0E94A0035C01BC0175
:1045B000990F880B990B0E94A32E6B017C0120E0C0
:1045C00030E040EA50E40E94022F20E030EC4FE758
:1045D00054E40E9438312B013C0164E971E0C801C8
:1045E0000E94F933892B49F420E030E048EC52E492
:1045F000C301B2010E94022FBBCF67E172E0C80184
:104600000E94F933892B79F420E030E048EC52E441
:10461000C301B2010E94022F20E030E048E452E4DE
:104620000E945930A5CF6DE172E0C8010E94F933B4
:10463000892BB1F5AB2809F45DC0A701960160E0B4
:1046400070EC8FE794E40E94593020E030E44CE1B4
:1046500056E40E94022FA70196010E94383120E003
:1046600030E44CE156E40E9438310E9415322CE2CD
:104670003BEB44E859E30E94022F2FE03FEC4BE56F
:104680005BE30E945A309B01AC0160E070E080E87F
:104690009FE30E94383123E333E948E853E4C0CF75
:1046A00061E272E0C8010E94F933892B39F420E0FD
:1046B00030E048EC52E4C701B60113C065E272E095
:1046C000C8010E94F933892B91F7A701960160E098
:1046D00070EC8FE794E40E94593020E030E048EC21
:1046E00052E40E94022F20E030EC4FE754E40E9495
:1046F00038313ECFC12CF0E8DF2EF8E8EF2EF3EC96
:10470000FF2EEBCE6DE272E0C8010E94F933892BD7
:1047100009F0C7C065E871E090E080E00E94FD2CE0
:104720008C01009709F4D4C961E372E00E94F93367
:10473000892B79F465E871E090E080E00E94FD2C1F
:104740000E947D0E182F80EE94E00E940C05812FB0
:10475000ADCD65E372E0C8010E94F933892B09F001
:1047600047C065E871E090E080E00E94FD2C8C017C
:1047700065E871E090E080E00E94FD2C0E941C1B27
:104780002B013C010E941C1B6C8B7D8B8E8B9F8BA5
:104790000E941C1B4B015C010E941C1B6B017C01D5
:1047A000C8010E947D0E0E9786309105F0F421E13C
:1047B000289FF001299FF00D1124EA59FC4F4182F6
:1047C0005282638274822C893D894E895F89258358
:1047D00036834783508781869286A386B486C586B2
:1047E000D686E786F08A81E080838DED94E06FC8FD
:1047F00067EB71E0C8010E94F933892BC1F465E8C9
:1048000071E090E080E00E94FD2C0E947D0E0E97EA
:104810008630910548F421E1289FF001299FF00D91
:104820001124EA59FC4F10828AED94E050C869E3E4
:1048300072E0C8010E94F933892B29F590E080E0ED
:104840000E94C02F813C29F061EC90E080E00E9442
:10485000C82F76E6E72E73E0F72E01E010E0D701CF
:10486000DD907D01C8010E94C02FD81621F06D2D6A
:10487000C8010E94C82F0F5F1F4F0736110579F737
:1048800087ED94E024C86EE372E0C8010E94F9331A
:10489000892B09F01DC90E941B0E84ED94E00C9435
:1048A000671C63E472E0C8010E94F933892B09F0A8
:1048B00037C165E871E090E080E00E94FD2C7C014A
:1048C000892B09F405C980915803811131C0809169
:1048D000640390916503892B01F58CE690E00E94BA
:1048E000CD3229ED34E0FC0131832083EC59FF4FB8
:1048F0002AE037ED43EA5CE320833183428353832C
:10490000349628E431EE4AE75FE320833183428323
:104910005383909365038093640300916403109123
:1049200065030115110559F58FE691E00E94ED0A26
:1049300080916403909165030E94281767E472E0F8
:10494000C7010E94F933892B09F068C0E091640324
:10495000F091650380A091A0A2A0B3A08FEC94E099
:104960000E940C05C7010E943F0B80E20E942705B0
:1049700042E050E0C501B4010E947C0CA9C840E0AF
:1049800069E1C8010E94411540E06AE1C8010E9446
:10499000411548E06BE1C8010E94411540E06CE11F
:1049A000C8010E94411541E06BE6C8010E94411513
:1049B000C8010E942817D801D8961D921D921D92F9
:1049C0001C92DB97F80114AE15AE16AE17AEE05B85
:1049D000FF4FAC5BBF4F8D919D910D90BC91A02D71
:1049E00080839183A283B3833496D801A85BBF4FA1
:1049F0008D919D910D90BC91A02D80839183A28378
:104A0000B3830E940D04F801E05AFF4F6083718365
:104A10008283938381E0809358038ACF6AE472E0B3
:104A2000C7010E94F933892B49F4E0916403F091A6
:104A3000650384A095A0A6A0B7A090CF6DE472E016
:104A4000C7010E94F933892B49F4E0916403F09186
:104A5000650380A491A4A2A4B3A480CF60E572E012
:104A6000C7010E94F933892B49F4E0916403F09166
:104A7000650384A495A4A6A4B7A470CF63E572E0EF
:104A8000C7010E94F933892B49F4E0916403F09146
:104A9000650380A891A8A2A8B3A860CF66E572E0DC
:104AA000C7010E94F933892B49F4E0916403F09126
:104AB000650384A895A8A6A8B7A850CF69E572E0B9
:104AC000C7010E94F933892B59F4E0916403F091F6
:104AD0006503E05BFF4F80809180A280B3803ECF72
:104AE0006DE572E0C7010E94F933892B39F4E0913A
:104AF0006403F0916503EC5AFF4FEDCF61E672E07D
:104B0000C7010E94F933812C912C5401892B09F0A3
:104B100025CFE0916403F0916503E85AFF4FDBCFA6
:104B200065E672E0C8010E94F933892B09F014C1CF
:104B30000E948E0E7C010E948E0E8C01469711F011
:104B40000BE010E08091620390916303009789F07D
:104B50002091100130911101E216F30641F42091E9
:104B60000E0130910F012017310709F448C00E944F
:104B7000693382E190E00E94CD326C0186E106311A
:104B8000110509F08BE0D6011596EC921597169653
:104B90008C931697C7019927FC01E456FA4FE491CC
:104BA0001796EC931797FC01E857FA4FE491189683
:104BB000EC93189720E83EE340E050E01D962D93DB
:104BC0003D934D935C935097D0926303C0926203E0
:104BD00062E08E2D0E94640320E338EF4FEF5FEF19
:104BE000D60119962D933D934D935C931C97F092AB
:104BF0001101E092100110930F0100930E0100913A
:104C0000620310916303C8010E944B14882341F092
:104C1000F80186818B3059F018F08551823028F1E7
:104C2000812C912C60ECA62E6FE7B62E08C0628115
:104C300070E090E080E00E94A12E4B015C01C80171
:104C40000E944B14882309F453C0F80186818B30ED
:104C5000B9F120F08551823008F44EC0C12CD12C1E
:104C600050ECE52E5FE7F52E33C0F2806F2D6F77A5
:104C700070E090E080E00E94A32E20E030E040E869
:104C800053E40E94022F4B015C01D80113966C91F2
:104C900070E090E080E00E94A32EA50194010E94A4
:104CA0005A302DEC3CEC4CEC5DE30E94022F4B01A2
:104CB0005C01F7FEC4CFB7FAB094B7F8B094BFCF99
:104CC000608170E090E080E00E94A12E6B017C0189
:104CD000A5019401C501B4010E946132811108C08F
:104CE000A7019601C701B6010E946132882329F10C
:104CF0008FEB94E00C94671C608170E090E080E0A2
:104D00000E94A12E20E030E040E853E40E94022FF0
:104D10006B017C01D80111966C9170E090E080E00D
:104D20000E94A32EA70196010E945A302DEC3CEC64
:104D30004CEC5DE30E94022FC9CF86EB94E00E9409
:104D40000C0541E0C501B4010E94A40B80E20E9461
:104D5000270541E050E0D4CB69E672E0C8010E942B
:104D6000F9336C01892B09F030C265E871E090E0FD
:104D700080E00E94FD2C4C010E947D0E5C010E948F
:104D80008E0E782E692E80916003909161030097BA
:104D900071F020910C0130910D01A216B30609F4B7
:104DA0009EC10E946933109261031092600380914A
:104DB000560390915703009711F00E9469338EE0DB
:104DC00090E00E94CD327C0160E08A2D0E94640355
:104DD000C5019927FC01E456FA4FE491D701EC9301
:104DE000FC01E857FA4FE491F0E0EE0FFF1FE558A1
:104DF000FE4F85919491F7019283818313861586E6
:104E00001486F0925703E092560384E190E00E94EA
:104E1000CD328C01DC011796FC92EE921697149617
:104E20001C92149715961C9215971C9289E0119666
:104E30008C93119781E012968C93129713968C9312
:104E4000139753961C921E925297109361030093EE
:104E50006003F7011286118610861782168215826A
:104E600014821382EE24E394BE016F5F7F4FD8015A
:104E700016968D919C910E946C16882309F469C046
:104E800067E0CE0101960E941D1298858913ECCF30
:104E9000F8018081811124C0868197810E94DA12F5
:104EA000BE016F5F7F4FD80116968D919C910E9435
:104EB000BB1240E064EBF801868197810E94871263
:104EC000D80116968D919C910E943412F82EF8010B
:104ED000868197810E94DA12F11002C0D801EC920B
:104EE000F801F1808981803109F440C4BE016F5F0F
:104EF0007F4FC8010E94D9138F15C8F4D8011196AD
:104F00008C91F801818384818F5F848389818832C9
:104F100031F0C8F4803119F0823209F0A5CFD80100
:104F200015968C9115978F5F15968C939DCF8981DF
:104F3000803111F48CE0E5CFBE016F5F7F4FC80177
:104F40000E94D913DECF8B3351F3823409F08CCF1A
:104F5000E6CF8CE0F80181838FE5E82E9FE7592E9C
:104F60002FE1422E3FE3332ED80114968C918C15FD
:104F70001D0409F00CF4AAC04C2DBE01665F7F4FE2
:104F8000C8010E94EC16F801F180FCE0FF1550F515
:104F9000BCE0FB2E8A85803159F1BE01665F7F4FF0
:104FA000C8010E94D913F81609F488C0AE014F5FFA
:104FB0005F4FBE01665F7F4FC8010E94791388234F
:104FC00009F47CC08A85803109F478C03BE0F3168F
:104FD00009F478C04CE0F41669F05AE0F51274C098
:104FE0003D8209C029E0F216A8F6A9E0FA2ED2CF38
:104FF0008CE0D9CF5D82D80116968D919C910E944C
:10500000DA12BE01665F7F4FF801868197810E94A8
:10501000BB1240E06EE4D80116968D919C910E94DF
:10502000871240E06B81F801868197810E94871288
:1050300040E06C81D80116968D919C910E94871258
:105040008A85803139F040E06D81F8018681978151
:105050000E948712D80116968D919C910E94DA12B7
:10506000BE01665F7F4FF801868197810E94BB1267
:10507000D8014C9168E416968D919C910E948712FC
:1050800064E170E080E090E00E94DA03F801808142
:10509000882331F06AE070E080E090E00E94DA035B
:1050A000D80116968D919C910E94DA12F8018181A7
:1050B0008F1508F48F2DD80111968C93BFEFCB1A62
:1050C000DB0A52CFED8297CF4D8295CFC8010E9467
:1050D0001213F8011282B0920D01A0920C010091FE
:1050E000600310916103472DBE01665F7F4FC801C9
:1050F0000E94EC1681111FC0C12CD12CFEEFEF2EA7
:10510000F2ECFF2EC8010E9412138EEA94E00E9476
:105110000C058114910421F421E9822E21E0922EC4
:10512000C4010E943F0B8FE50E942705872D962D15
:105130000E94760B0BCEAE014F5F5F4FBE01665FE4
:105140007F4FC8010E9479138823B1F26A8170E011
:10515000762F6627770F770F770F2981F8E02F9F3B
:1051600090011124262B372B8A858031D1F4688554
:1051700070E08F81AB01481B5109CA019695982FA9
:105180008827979587950E949432CB014097B90163
:1051900053E0660F771F5A95E1F760789C01260F60
:1051A000371F213854EE35070CF4A6CFB901330F61
:1051B000880B990B0E94A32E20E030E040E05CE3D6
:1051C0000E94022F6B017C019DCF61E772E0C80154
:1051D0000E94F933892B09F0A0C00E948E0EB82ED0
:1051E0000E948E0E8C0184EA94E00E940C0561E01E
:1051F0008B2D0E94640360E0802F0E9464030E9454
:105200000D042B013C01C0900801D0900901E090F1
:105210000A01F0900B0120E030E0A901C701B601BE
:105220000E94003287FD15C0809152039091530374
:10523000A0915403B0915503A3019201281B390B8F
:105240004A0B5B0BDA01C901CC97A105B10508F443
:1052500080CD409252035092530360925403709257
:10526000550360E08B2D0E94360383E090E00197A8
:10527000F1F761E08B2D0E94360383E290E0019705
:10528000F1F760E08B2D0E9436031127F801E456F8
:10529000FA4F6491F801E857FA4FE491F0E0EE0F0D
:1052A000FF1FE558FE4F8591949108EA11E620E032
:1052B00030E0462F0E94E2106115710581059105CD
:1052C00051F06F5F7F4F8F4F9F4F9F70611571053A
:1052D0008105910549F4C0900801D0900901E09042
:1052E0000A01F0900B0135CD0E94A12E28E23EE785
:1052F0004CE05DE30E94022F20E030E040E05FE3FD
:105300000E94022F6B017C01C0920801D09209011A
:10531000E0920A01F0920B011CCD67E772E0C80130
:105320000E94F933892B09F0A2C00E948E0E7C01E5
:105330000E948E0E8C01C0901104D0901204C114F2
:10534000D104A9F08091060190910701E816F906B1
:1053500041F480910401909105010817190709F49F
:1053600053C0C6010E947911C6010E9469338FE1C2
:1053700090E00E94CD326C01DC0113961C921E92CB
:10538000129728EE33E040E050E014962D933D93C1
:105390004D935C93179784E491E011969C938E93C0
:1053A00057961C921E92569759961C921E92589789
:1053B0005B961C921E925A975D961C921E925C9769
:1053C0005E968C915E978E7F8D7F5E968C93602F1C
:1053D000C6010E9450116E2DC6010E942711D09265
:1053E0001204C0921104C6010E94C211F09207017A
:1053F000E0920601109305010093040168E270E059
:1054000080E090E00E94DA038091110490911204F0
:10541000892B11F00E9452098BE994E00E940C053F
:1054200060915E0370915F0390E080E04AE00E942B
:10543000FB0A80E20E94270560915C0370915D0386
:1054400090E080E04AE00E94FB0A80E20E9427058B
:1054500060915A0370915B0390E080E04AE00E9403
:10546000FB0A86E791E00E94E00A0C94681D6BE756
:1054700072E0C8010E94F933892B09F0FCC00E9438
:105480008E0E7C010E948E0E8C01C0905003D09035
:105490005103C114D104A9F080910201909103013C
:1054A000E816F90641F48091000190910101081776
:1054B000190709F443C0C6010E947911C6010E9470
:1054C00069338FE190E00E94CD326C01FC011382C0
:1054D000128228EE33E040E050E024833583468397
:1054E000578384E491E091838083178A168A118E12
:1054F000108E138E128E158E148E868D8E7F8D7F5C
:10550000868F602FC6010E9450116E2DC6010E9429
:105510002711D0925103C0925003C6010E94C211BC
:10552000F0920301E0920201109301010093000147
:1055300068E270E080E090E00E94DA0382E994E0A3
:105540000E940C0580915003909151030FEF1FEFC3
:10555000009709F441C00E949111809150039091ED
:105560005103DC01ED91FC910084F185E02D09955A
:10557000A0915003B0915103ED91FC911197892BAB
:1055800031F00284F385E02DCD010995E6CF02804C
:10559000F381E02D49E050E067E371E0CD0109952A
:1055A0000E940D046B017C0110E001C0192F0E94C4
:1055B0000D046C197D098E099F096C3271408105BB
:1055C000910568F00FEF1FEF809111049091120484
:1055D000009711F00E949111C8010C9496218091BE
:1055E000500390915103DC01ED91FC910084F18511
:1055F000E02D0995892BD9F28091500390915103A8
:10560000DC01ED91FC910284F385E02D09951111E7
:1056100005C08F3F61F6898311E0C9CF113049F48D
:10562000863819F48A8312E0C2CF8F3F09F0BCCFCD
:10563000BECF91E0910FE1E0F0E0EC0FFD1FE10F34
:10564000F11D8083993009F0B1CFFE01329680E0E0
:105650009191890F2A893B892E173F07C9F78195B8
:1056600099858913AFCF0B8110E0102F00278C8113
:10567000080F111DA9CF85E894E00E940C05C80110
:105680000E94E00AEECEE73310F00C942A1C91E061
:105690009E0F90931004F0E0EC52FC4F80830C942A
:1056A0002A1C80E090E0892B11F40C94041C0E94C9
:1056B0008904882311F40C94041C0E9400000C94AB
:1056C000041C3C89383010F00C94681D80915903FB
:1056D000811104C0809112010E94EE098C89806BB7
:1056E0000E94D10982E00E94D10980E10E94D10983
:1056F000FF24F694FE2CEE24F794E79487010058DB
:105700001F4FBB24B394E016F10611F40C94681DEE
:1057100080911201B092480480936A041092490467
:1057200010926B0460E470E089ED94E00E94B4098B
:10573000D12CC12CE091CC03F091CD03EC0DFD1DDB
:10574000EE0DFF1D608189ED94E00E941D094FEF71
:10575000C41AD40A50E1C516D10461F789ED94E06A
:105760000E944C0980E1E80EF11CCDCF4CE04F15B2
:1057700008F4C4CBDFCBB0E0A0E0E1ECFBE20C949A
:1057800014305C016B017A016115710519F0FB01A0
:1057900091838083E114F10451F0C701029783974C
:1057A00030F040E030E020E090E072C05E01E501C2
:1057B0002196F5011081812F90E00E94F42C892B15
:1057C000A9F71D3201F52196F501118101E0E114DF
:1057D000F10409F4DAC0F0E1EF16F10409F082C037
:1057E000103359F488818F7D883509F076C019818E
:1057F00022960260F0E1EF2EF12C812C912CA12C4D
:1058000088E0B82E8CC01B3221F4E5012296F50108
:10581000118100E0DCCFEAE0EE16F10409F4BBC030
:10582000F0E1EF16F10409F06DC0E7CF78E0E72E64
:10583000F12C812C912CA12C60E1B62E70C03FE997
:10584000310F3A3128F439EA332E80C021E09AC072
:10585000302F3170C114D10431F0222309F1219786
:10586000F601D183C08327FF21C060E070E080E0B3
:1058700090E8311104C06FEF7FEF8FEF9FE722E2D6
:1058800030E03093E8042093E704462F372F282F89
:10589000642F732F822FCDB7DEB7E1E10C94303047
:1058A00001FF04C02297F601D183C083332341F066
:1058B00090958095709561957F4F8F4F9F4FE5CF65
:1058C00097FFE3CF82E290E09093E8048093E704AF
:1058D0006FEF7FEF8FEF9FE7D8CF10E3E114F10474
:1058E00009F4A4CF28E0E216F10409F4A2CF0CF0E9
:1058F00092CF812C912CA12CE0E4BE2E82E0E81600
:10590000F10469F060E070E080E090E897010F2C0E
:10591000000C440B550B0E94E62F49015A0120E070
:1059200060E070E0CB0127010F2C000C66087708BF
:10593000FE0150ED352E310E39E0331540F43FEBCA
:10594000310F3A3108F07BCF49EC342E310E3E1442
:105950001F040CF07DCF27FD15C086169706A806FC
:10596000B90678F0A30192010E94D62F630D711D34
:10597000811D911D61307105810520E8920708F4B1
:1059800065CF2FEF21961081D3CF103309F42ACFA2
:105990002AE0E22EF12C9CEC892E982CA82C9CE07D
:1059A000B92EBDCF662777270C94312DFC018827AF
:1059B0009927E89421912032E9F3293010F02E3014
:1059C000C8F32B3241F02D3239F4689404C00E94A0
:1059D000292D820F911D219120532A30C0F31EF4EE
:1059E000909581959F4F089591110C94812E80324E
:1059F00019F089508550C8F7089545EE54E00E948B
:105A0000022D0895FA01A191B081009719F4109721
:105A1000E1F0CD01DC01CD010D90002011F4C001B9
:105A200013C0FB012191222319F02015D9F7F3CFE0
:105A3000FB012191201519F41E92119606C0222314
:105A4000C1F70D900020A1F7D001FA01A193B08316
:105A500008957AE0979F902D879F802D910D1124B6
:105A60000895B0E0A0E0E7E3FDE20C9419305C019A
:105A70007B016115710519F0DB018D939C93850104
:105A80000F5F1F4FF501D0818D2F90E00E94F42C05
:105A90006C01892BB9F5DD32B9F50F5F1F4FD501C8
:105AA0001196DC91C1E05801F1E0AF1AB10843E072
:105AB00050E068EF70E0C5010E94842E892B69F5E3
:105AC000680182E0C80ED11C45E050E063EF70E051
:105AD000C6010E94842E892B21F4680197E0C90E2B
