:100000000C949D030C94C5030C94C5030C94C50378
:100010000C94C5030C94C5030C94C5030C94C50340
:100020000C94C5030C94C5030C94C5030C94DA0C12
:100030000C94C5030C94C5030C94C5030C94C50320
:100040000C942A0C0C94C5030C949A0C0C94740C0C
:100050000C94C5030C94C5030C94C5030C94C50300
:100060000C94960D0C94C503084AD73B3BCE016E09
:1000700084BCBFFDC12F3D6C74319ABD56833DDAFF
:100080003D00C77F11BED9E4BB4C3E916BAAAABE0E
:10009000000000803F004E414E494E495459494EA0
:1000A00046CDCCCC3D0AD7233C17B7D13877CC2BE3
:1000B000329595E6241FB14F0A000020410000C888
:1000C0004200401C4620BCBE4CCA1B0E5AAEC59D09
:1000D00074657272206F6C65645F6F6F6D0065721E
:1000E00072206D70755F6F6F6D00005EBCE2613FE6
:1000F000DD83C29C7E20A3FD1F41009D23BE46DB05
:1001000065F88C11AF32CA57E97452454144592001
:10011000626F6172643D756E6F2066773D312E337C
:10012000002C457869742050482043616C696272E4
:100130006174696F6E204D6F64653C3C3C003E3ECF
:100140003E43616C6962726174696F6E20466169D9
:100150006C6564003E3E3E43616C69627261746925
:100160006F6E205375636365737366756C003E3EF6
:100170003E42756666657220536F6C7574696F6E6A
:10018000204572726F722054727920416761696EE6
:100190003C3C3C002C53656E642045584954504803
:1001A00020746F205361766520616E642045786904
:1001B000743C3C3C003E3E3E427566666572205390
:1001C0006F6C7574696F6E3A342E30002C53656E07
:1001D000642045584954504820746F205361766517
:1001E00020616E6420457869743C3C3C003E3E3E94
:1001F00042756666657220536F6C7574696F6E3AEE
:10020000372E30003E3E3E506C6561736520707540
:1002100074207468652070726F626520696E746FF7
:100220002074686520342E30206F7220372E3020E5
:100230007374616E646172642062756666657220B3
:10024000736F6C7574696F6E3C3C3C003E3E3E457E
:100250006E7465722050482043616C6962726174EB
:10026000696F6E204D6F64653C3C3C003E3E3E43F2
:100270006F6D6D616E64204572726F723C3C3C0024
:10028000000000000000000000005F00000000000F
:100290000003000003000000147F147F140000001E
:1002A000242A7F2A12000000231308646200000041
:1002B00036495522500000000005030000000000F0
:1002C0001C2241000000000041221C000000000030
:1002D00014083E081400000008083E08080000004A
:1002E0000050300000000000080808080800000066
:1002F0000060600000000000201008040200000000
:100300003E5149453E00000000427F400000000091
:1003100042615149460000002141454B3100000037
:100320001814127F100000002745454539000000D1
:100330003C4A4949300000000171090503000000F2
:100340003649494936000000064949291E00000087
:1003500000363600000000000056360000000000A5
:1003600008142241000000001414141414000000AA
:10037000004122140800000002015109060000009B
:10038000324979413E0000007E1111117E000000CB
:100390007F494949360000003E41414122000000AA
:1003A0007F4141221C0000007F4949494100000073
:1003B0007F090901010000003E4141513200000067
:1003C0007F0808087F00000000417F410000000016
:1003D0002040413F010000007F081422410000003E
:1003E0007F404040400000007F0204027F00000088
:1003F0007F0408107F0000003E4141413E000000A4
:100400007F090909060000003E4151215E000000FD
:100410007F0919294600000046494949310000007A
:1004200001017F01010000003F4040403F0000000B
:100430001F2040201F0000007F2018207F000000A8
:100440006314081463000000030478040300000030
:100450006151494543000000007F41410000000018
:1004600002040810200000000041417F000000004D
:10047000040201020400000040404040400000002F
:1004800000010204000000002054545478000000D1
:100490007F484444380000003844444420000000B1
:1004A000384444487F000000385454541800000079
:1004B000087E0901020000000C5252523E0000006A
:1004C0007F0804047800000000447D400000000024
:1004D0002040443D000000007F1028440000000040
:1004E00000417F40000000007C04180478000000F8
:1004F0007C080404780000003844444438000000BC
:100500007C14141408000000081414187C00000067
:100510007C080404080000004854545420000000E3
:10052000043F4440200000003C4040207C0000008C
:100530001C2040201C0000003C4030403C000000DB
:1005400044281028440000000C5050503C0000008B
:100550004464544C44000000000836410000000090
:1005600000007F000000000000413608000000008D
:100570000201020402000000000000000000000070
:1005800065727220756E6B6E6F776E2000617220DF
:1005900000647220004F4B004F4B004F4B004F4BFD
:1005A0000063616C72617720004F4B0070687620A9
:1005B000007068200069326377656967687420009D
:1005C0006932637772617720006A6F7920006779FA
:1005D000726F2000616363656C200064735F006468
:1005E00068745F6820006468745F742000766F6CC4
:1005F00074616765200063757272656E74200074A3
:10060000757262696469747920006469737420008A
:10061000312E33007665722000706F6E67004341A3
:100620005053207267622C6C617365722C62757A0C
:100630007A65722C736572766F2C736572766F753E
:10064000732C766962726174652C66616E2C6E65BE
:100650006F2C666E642C6C63642C6F6C65642C6408
:1006600068742C776174657274656D702C6469733D
:10067000742C7475726269646974792C6375727212
:10068000656E742C766F6C746167652C63616C2C7D
:1006900070682C6932637765696768742C6A6F7952
:1006A0002C6C696768742C6B6E6F622C6D69632C9F
:1006B000616363656C2C6779726F2C64772C64724C
:1006C0002C61722C617700524541445920626F6160
:1006D00072643D756E6F2066773D312E33000000E9
:1006E0000000240027002A00000000002500280048
:1006F0002B0000000000230026002900040404044D
:1007000004040404020202020202030303030303BB
:100710000102040810204080010204081020010298
:100720000408102000000008000201000003040774
:100730000000000000000000F11D11241FBECFEFDB
:10074000D8E0DEBFCDBF12E0A0E0B1E0E6E8F3E71D
:1007500002C005900D92A83DB107D9F725E0A8ED9C
:10076000B2E001C01D92A430B207E1F713E0CDE979
:10077000D3E004C02197FE010E945238CC39D10742
:10078000C9F70E94991E0C94C1390C94000091E0A5
:100790009093160480933804109217041092390431
:1007A0000895E091F704EC3088F54091F8045091F9
:1007B000F9042DE730E0241B350B220F331F220FE5
:1007C000331F8217930784F04091FA045091FB0481
:1007D00022EE34E0241B350B220F331F220F331F70
:1007E000821793070CF49C0122503109220F331F0A
:1007F0004FB7F8948E2F90E0FC01EE0FFF1FE80F2B
:10080000F91FED54FB4F328321834FBF089583308E
:1008100081F028F4813099F08230A9F00895873072
:10082000A9F08830C9F08430B1F4809180008F7DC8
:1008300003C0809180008F7780938000089584B5F5
:100840008F7784BD089584B58F7DFBCF8091B000F4
:100850008F778093B00008958091B0008F7DF9CF9D
:100860001F93CF93DF93282F30E0F901EC5DF84F11
:100870008491F901E05FF84FD491F901E450F94F08
:10088000C491CC23A9F0162F81110E940704EC2FEC
:10089000F0E0EE0FFF1FE851F94FA591B4918FB72B
:1008A000F894EC91111108C0D095DE23DC938FBF32
:1008B000DF91CF911F910895DE2BF8CFCF93DF9377
:1008C00090E0FC01E05FF84F24918450994FFC01C7
:1008D00084918823C9F090E0880F991FFC01E252AF
:1008E000F94FA591B491FC01E851F94FC591D4910C
:1008F00061110DC09FB7F8948C91209582238C9341
:100900008881282328839FBFDF91CF91089562308B
:1009100051F49FB7F8943C91822F809583238C9358
:10092000E8812E2BEFCF8FB7F894EC912E2B2C93E0
:100930008FBFEACF1F93CF93DF93182FEB0161E0B6
:100940000E945E04209739F460E0812FDF91CF91FF
:100950001F910C943004CF3FD10511F461E0F5CF25
:10096000E12FF0E0EC5DF84FE491E33031F140F439
:10097000E130B1F0E230E1F0C038D1057CF7E4CFEE
:10098000E73029F1E83059F1E430B1F78091800087
:10099000806280938000D0938B00C0938A0004C053
:1009A00084B5806884BDC7BDDF91CF911F91089544
:1009B00084B5806284BDC8BDF7CF80918000806817
:1009C00080938000D0938900C0938800EDCF809100
:1009D000B00080688093B000C093B300E5CF8091F1
:1009E000B00080628093B000C093B400DDCF3FB709
:1009F000F8948091C6039091C703A091C803B09169
:100A0000C90326B5A89B05C02F3F19F00196A11D6B
:100A1000B11D3FBFBA2FA92F982F8827BC01CD0148
:100A2000620F711D811D911D42E0660F771F881FA7
:100A3000991F4A95D1F708952FB7F8946091C20392
:100A40007091C3038091C4039091C5032FBF089593
:100A500008950895AF92BF92CF92DF92EF92FF92E6
:100A60000F931F93CF93DF936C017B018B01040FD6
:100A7000151FEB015E01AE18BF08C017D10759F072
:100A80006991D601ED91FC910190F081E02DC601B4
:100A90000995892B79F7C501DF91CF911F910F91AE
:100AA000FF90EF90DF90CF90BF90AF900895FC0142
:100AB000538D448D252F30E0842F90E0821B930BC3
:100AC000541710F04F96089501970895FC01918DE9
:100AD000828D981779F0A28DAE0FBF2FB11D5D9654
:100AE0002C91828D8F5F60E30E941E38928F822F3F
:100AF00090E008958FEF9FEF0895FC01918D828D16
:100B0000981731F0828DE80FF11D858D90E00895E2
:100B10008FEF9FEF0895FC01918D228D892F90E03A
:100B2000C096821B910960E370E00E942A38089504
:100B30008AE394E00E948B0521E0892B09F420E0F0
:100B4000822F089580E090E0892B29F00E9498057B
:100B500081110C9400000895FC01A48DA80FB92FF9
:100B6000B11DA35BBF4F2C91848D90E001968F71D6
:100B70009927848FA689B7892C93A089B1898C91F4
:100B8000837080648C93938D848D981306C0028843
:100B9000F389E02D80818F7D80830895EF92FF920D
:100BA0000F931F93CF93DF93EC0181E0888F9B8D90
:100BB0008C8D98131AC0E889F989808185FF15C04A
:100BC0009FB7F894EE89FF896083E889F98980816D
:100BD0008370806480839FBF81E090E0DF91CF913C
:100BE0001F910F91FF90EF900895F62E0B8D10E05E
:100BF0000F5F1F4F0F711127E02E8C8D8E110CC0CF
:100C00000FB607FCFACFE889F989808185FFF5CF17
:100C1000CE010E94AC05F1CFEB8DEC0FFD2FF11D45
:100C2000E35BFF4FF0829FB7F8940B8FEA89FB8953
:100C300080818062CFCF0F931F93CF93DF938C017E
:100C4000D0E0C0E0F801EC0FFD1F6491662341F095
:100C50008AE394E00E94CE05892B11F02196F2CF11
:100C6000CE01DF91CF911F910F910895CF93DF9324
:100C7000EC01888D8823B9F0AA89BB89E889F989B4
:100C80008C9185FD03C0808186FD0DC00FB607FCE9
:100C9000F7CF8C9185FFF2CF808185FFEDCFCE011C
:100CA0000E94AC05E9CFDF91CF9108950895FF929E
:100CB0000F931F93CF93DF93EC01FF24F394F60E71
:100CC00028852F1581F109851A85215041F16F3F43
:100CD000E1F430E050E040E06FEF7FEF80E090E043
:100CE0000E94E235B901F8014C815D81CF01801B82
:100CF000910B84179507B0F44081469FC001479F30
:100D0000900D112490833196EFCF8F2D90E0982F86
:100D100088270197622F70E00E942A38E4CF70E0A4
:100D200060E0E1CFF886DF91CF911F910F91FF90A6
:100D300008958F929F92AF92BF92CF92DF92EF92DF
:100D4000FF92CF93DF93FC0182819381681779072B
:100D5000D8F54A01AA24BB24C32ED42EE52EFF24A5
:100D6000DC2DC22F8085982D882391F0C82FD0E0EC
:100D7000C89DD001C99DB00DD89DB00D11249B2FE9
:100D80008C9D60011124DD2D829F90011124C32FC1
:100D9000A685218532858385A81321C0AB01440F28
:100DA000551F640F751F620F731FA385A60FB72F02
:100DB000B11D9C93A485A60FB72FB11DDC9385852B
:100DC000680F711DFB01C083DF91CF91FF90EF9001
:100DD000DF90CF90BF90AF909F908F900895660F57
:100DE000771F660F771F620F731FA60FB72FB11DF6
:100DF0001C92DBCFCF92DF92EF92FF920F931F9363
:100E0000CF93DF93CDB7DEB729970FB6F894DEBF47
:100E10000FBECDBF8C01DC0119968D919C91892B61
:100E200009F473C00E94F704F801C784D088E188F0
:100E3000F2886C157D058E059F0520F46787708B01
:100E4000818B928BF801C784D088E188F2886C1975
:100E50007D098E099F096C3271408105910510F35F
:100E6000F894D80114968D919C9115979A83898353
:100E70001996ED91FC917F01BFEFEB1AFB0A80817F
:100E80008987F80190810388F489E02DD80155966F
:100E90008C91992309F448C09081982B9887908170
:100EA000809589238F838F818C8388E08B835885FD
:100EB0006F8149853B812C8189819A81D70150833B
:100EC00047FD252F3A952083262F39F0441F00C077
:100ED00000006083000000C0F2CF38E04D916083D5
:100EE0000000019761F7D8015496FC93EE93539755
:100EF00049873B832C839A83898378940E94F704E3
:100F0000F8016787708B818B928B29960FB6F894C6
:100F1000DEBF0FBECDBFDF91CF911F910F91FF902C
:100F2000EF90DF90CF9008959081982B98879081D3
:100F3000809589238F838F818E8388E08D83588568
:100F40006F8149853D812E8189819A81D7015083A6
:100F500047FD252F00C000C0208300C000C000C096
:100F600000C000C060830000262F3A9541F0441F66
:100F7000000000C000C000C000C000C0E8CF38E0E2
:100F80004D9100C0608300C0019709F7D8015496C5
:100F9000FC93EE93539749873D832E83ACCF2091EA
:100FA000FC02260F3327331F21323105ECF4209148
:100FB0001004FC0190E080E0243069F082E00895A4
:100FC000A091FC022191AC0144525D4FA40FB52FBA
:100FD000B11D2C930196861798F38091FC02680F3F
:100FE0006093FC0280E0089581E00895109210045F
:100FF00081E080930F041092EA0361E082E10E9495
:10100000300461E083E10E943004E9EBF0E080818C
:101010008E7F808380818D7F808388E48093B80079
:1010200085E48093BC000895CF93DF9391E0909383
:10103000DB028823B9F0C091B800D091BA0080914A
:10104000BC008A7B8093BC0060E082E10E94300497
:1010500060E083E10E9430040E94F607D093BA005A
:10106000C093B800DF91CF9108958F929F92AF9275
:10107000BF92CF92DF92EF92FF920F931F93CF9385
:10108000DF93D0913904D13208F0D7C0182FC09126
:1010900038040E94F7046B017C01809110048111D7
:1010A0006BC082E08093100410930F048FEF809345
:1010B0000E0410920D04D0930C04A8E1B4E0ECEE01
:1010C000F3E080E0D81391C01092EB038091EB0322
:1010D000CC0FC82BC093EB038091EA03813009F059
:1010E00088C01092EA030E94F7046B017C01809192
:1010F000EB038093BB008091120490911304A091A4
:101100001404B0911504892B8A2B8B2BA1F00E941B
:10111000F7040091120410911304209114043091EB
:1011200015046C197D098E099F09061717072807F2
:10113000390708F442C08091BC0083FDD8CF85EC0C
:101140008093BC000E94F7046B017C018091100425
:10115000823009F450C080910E048F3F09F46FC0B3
:1011600080910E04803209F46CC080910E048033AB
:1011700009F469C084E026C08091120490911304A0
:10118000A0911404B0911504892B8A2B8B2B09F4A0
:1011900084CF0E94F7048090120490901304A090D2
:1011A0001404B09015046C197D098E099F098616E8
:1011B0009706A806B90608F070CF809111040E9426
:1011C000140885E010921704109239041092160446
:1011D000DF91CF911F910F91FF90EF90DF90CF9013
:1011E000BF90AF909F908F9008959D9191938F5F46
:1011F00069CF85EEA5CF8091120490911304A09140
:101200001404B0911504892B8A2B8B2B09F49ECFE3
:101210000E94F70400911204109113042091140409
:10122000309115046C197D098E099F09061717075F
:101230002807390708F08ACFC0CF81E0C3CF80E00C
:10124000C1CF82E0BFCF83E0BDCF0895E0912703F7
:1012500080912603E81730F4F0E0E653FC4F8081DC
:1012600090E008958FEF9FEF08959091270380916C
:1012700026032FEF3FEF981748F4E92FF0E0E653ED
:10128000FC4F208130E09F5F90932703C9010895B0
:101290008091260390912703891B990B0895CF9283
:1012A000DF92EF92FF920F931F93CF93DF937C0116
:1012B000CB018A0120911604222389F0EB016B01F6
:1012C000C40ED51ECC15DD0569F06991D701ED91ED
:1012D000FC910190F081E02DC7010995F3CF642FB7
:1012E0000E94CF07C801DF91CF911F910F91FF900E
:1012F000EF90DF90CF900895CF93DF931F92CDB7FB
:10130000DEB76983209116042223F9F02091390475
:10131000203258F021E030E0FC013383228390E05A
:1013200080E00F90DF91CF91089580911704E82F0E
:10133000F0E0E85EFB4F998190838F5F8093170404
:101340008093390481E090E0ECCF61E0CE0101961A
:101350000E94CF07F7CF81E00C94350890E080E041
:101360000895CF92DF92EF92FF921F93CF93DF9376
:10137000EC0120910201309103012817390729F46B
:101380008091D802861709F497C09091F70437FD31
:101390000CC0292F30E0F901EE0FFF1FE20FF31F01
:1013A000ED54FB4F80818F7B8083E4ECEE2EE9E0EF
:1013B000FE2EF4EFCF2EDD24D394611108C050E649
:1013C000E52E59E0F52E70E2C72E72E0D72E162FCB
:1013D0009C3008F06BC061E08C2F0E945E0480910D
:1013E000F704282F30E0F901EE0FFF1FE20FF31F83
:1013F000ED54FB4F9081907C2C2F2F73922B908378
:1014000024EF31E02C193D0937FF02C02D5F3F4F1B
:1014100035952795359527953093F9042093F80451
:1014200028E833E12E193F093595279535952795FD
:101430003093FB042093FA042CE0622F0E941E38A4
:10144000829FB001112430E020E0AB01420F531F16
:10145000FA01EE0FFF1FE40FF51FED54FB4F9081D3
:1014600096FD16C02F5F3F4F2C30310571F781116B
:101470000FC01092800082E080938100109285005E
:1014800010928400B19A80916F00826080936F0007
:10149000E091F7048E2F90E0FC01EE0FFF1FE80FA4
:1014A000F91FED54FB4F808180648083D09303014A
:1014B000C09302011093D802DF91CF911F91FF904A
:1014C000EF90DF90CF900895DC01ED91FC910190B9
:1014D000F081E02D09940F931F93CF938C01C62FB9
:1014E000FC0184810E94C703F8016385C62B6C2F21
:1014F00070E087EA94E00E94640A87EA94E0CF9162
:101500001F910F910C94AB090F931F93CF938C01F4
:10151000C62F0E946B0A6C2F6460C8010E946B0A80
:101520006C2F6B7FC8010E946B0A83EC90E00197DF
:10153000F1F7CF911F910F9108950F931F93CF93C0
:10154000DF938C01D62FC42F607F642B0E94840A06
:1015500080E1D89FB00111246C2BC801DF91CF919D
:101560001F910F910C94840A41E00E949D0A81E032
:1015700090E00895FC0101900020E9F73197AF0158
:10158000481B590BBC018AE394E00C942A0587E6BA
:1015900091E00C94BA0ACF93DF930E941B06EC01F2
:1015A0000E94C70A8C0F9D1FDF91CF910895CF93A2
:1015B000DF9366E771E090E080E00E94CD32EC01BD
:1015C0000097A9F069EE71E00E948439892BA1F09F
:1015D00068E771E0CE010E948439892B69F06AE7DF
:1015E00071E0CE010E94843921E0892B09F020E0CE
:1015F000822FDF91CF91089521E0FACF66E771E065
:1016000090E080E00E94CD32009711F00C94A63259
:1016100090E080E00895CF92DF92EF92FF920F93D7
:101620001F93CF93DF937C016115710549F460919D
:1016300082037091830300E110E06115710531F0C0
:101640008B016F31710510F00EE110E0C091800345
:10165000D0918103209709F180911101909112019D
:101660008E159F0541F4809182039091830380172A
:10167000910709F481C089859A850E94F4388E818A
:101680009F8197FD03C060E00E945E04CE010E942E
:10169000F438109281031092800386E190E00E945A
:1016A0005838EC01198218861F86188A198A1A8AF6
:1016B00081E08E878B871C8692E09D8788836801F6
:1016C000CC0CDD1CC00ED11EDD82CC82C6010E9476
:1016D00058389A878987009709F457C0A60170E0A7
:1016E00060E00E947D391B830A83FF82EE8289813C
:1016F000882341F061E08E2D0E945E0460E08E2D13
:101700000E943004F701E450F94FE491F0E0EE0F4D
:10171000FF1FE851F94F859194919C8B8B8BF701BA
:10172000E05FF84FE491ED8BD0938103C093800389
:101730008E819F8197FD2EC061E00E945E0460E073
:101740008E810E94300481E0898360E5CE010E9491
:1017500057064C815D8170E060E089859A850E9422
:101760007D39CE010E94FA06F0921201E092110139
:101770001093830300938203DF91CF911F910F9108
:10178000FF90EF90DF90CF9008951D821C821B8206
:101790001A82ABCF1982D9CF0F931F93CF93DF93C8
:1017A00084E690E00E949A35823C69F010922F0303
:1017B000109240031092510310926203DF91CF9177
:1017C0001F910F9108950FE213E0C5E6D0E0CE011E
:1017D0000E949A35F80181938F012196C93AD1056B
:1017E000B1F7ECCF85ED8093BC008091120490910D
:1017F0001304A0911404B09115040796A11DB11D06
:1018000023E0B695A795979587952A95D1F72091CE
:10181000BC0024FD03C010921004089540911204EE
:10182000509113046091140470911504452B462BBC
:10183000472B69F30097A105B10541F02AE22A95EB
:10184000F1F700C00197A109B109E1CF809111041E
:101850000C9414081F920F920FB60F9211242F931D
:101860003F938F939F93AF93BF938091C2039091C7
:10187000C303A091C403B091C5033091C10323E019
:10188000230F2D3758F50196A11DB11D2093C103DB
:101890008093C2039093C303A093C403B093C50382
:1018A0008091C6039091C703A091C803B091C9036A
:1018B0000196A11DB11D8093C6039093C703A09309
:1018C000C803B093C903BF91AF919F918F913F918E
:1018D0002F910F900FBE0F901F90189526E8230FA1
:1018E0000296A11DB11DD2CF1F920F920FB60F927B
:1018F00011242F933F934F935F936F937F938F9315
:101900009F93AF93BF93EF93FF938AE394E00E947A
:10191000AC05FF91EF91BF91AF919F918F917F9116
:101920006F915F914F913F912F910F900FBE0F904C
:101930001F9018951F920F920FB60F9211242F939C
:101940005F936F937F938F939F93AF93BF93EF9327
:10195000FF93E0914A04F0914B048081E0915004A0
:10196000F091510482FD24C020818091530490E0C5
:10197000019660E370E00E942A3890915404981711
:1019800041F0E0915304F0E0E65CFB4F258F80933B
:101990005304FF91EF91BF91AF919F918F917F91F0
:1019A0006F915F912F910F900FBE0F901F90189520
:1019B0008081EFCF1F920F920FB60F9211242F93B9
:1019C0003F934F935F936F937F938F939F93AF93C7
:1019D000BF93CF93DF93EF93FF9380911F03C09149
:1019E000D704D0E087FF24C01092850010928400B5
:1019F00080911F038F5F80931F0380911F03082E28
:101A0000000C990B8C179D0724F480911F038C30D8
:101A1000C4F18091840090918500049680349C49A3
:101A200008F47AC08091840090918500049676C075
:101A300080911F03082E000C990B8C179D07C4F68C
:101A4000E0911F038E2FEE0F990BFC01EE0FFF1F8D
:101A5000E80FF91FED54FB4F808186FFC9CFE0915D
:101A60001F038E2FEE0F990BFC01EE0FFF1FE80FE7
:101A7000F91FED54FB4F808160E08F730E943004AA
:101A8000B7CF2091840030918500E0911F038E2F05
:101A9000EE0F990BFC01EE0FFF1FE80FF91FED543D
:101AA000FB4F81819281820F931F909389008093D5
:101AB0008800E0911F038E2FEE0F990BFC01EE0FB3
:101AC000FF1FE80FF91FED54FB4F808186FF11C007
:101AD000E0911F038E2FEE0F990BFC01EE0FFF1FFD
:101AE000E80FF91FED54FB4F808161E08F730E9476
:101AF0003004FF91EF91DF91CF91BF91AF919F9112
:101B00008F917F916F915F914F913F912F910F90A6
:101B10000FBE0F901F90189580E49CE99093890068
:101B2000809388008FEF80931F03E3CF1F920F9263
:101B30000FB60F9211242F933F934F935F936F93A0
:101B40007F938F939F93AF93BF93EF93FF93809176
:101B5000B900887F803609F44AC0F0F5883209F46C
:101B6000A7C018F5803109F49BC0B8F4882309F4A4
:101B7000F9C0883009F494C0FF91EF91BF91AF9103
:101B80009F918F917F916F915F914F913F912F9195
:101B90000F900FBE0F901F901895883109F488C0E0
:101BA000803251F780930E0414C0803409F49DC034
:101BB00040F48033B9F38833F9F680930E0485EC52
:101BC000B0C0803509F485C0883509F496C08834E2
:101BD00099F60E94F20BD0CF883909F48CC038F501
:101BE000883729F050F4883611F0803729F683E0E1
:101BF0008093100410921E0357C0883809F47BC0EC
:101C0000803919F0803809F0B7CF80911E038032F7
:101C100008F071C0E0911E0381E08E0F80931E03D7
:101C20008091BB00F0E0E250FD4F80833DC0803BDF
:101C300039F0E0F4803A09F479C0883A09F09CCF91
:101C400084E0809310041092FD021092FC02E09157
:101C50002003F091210309958091FC0281110FC0AE
:101C600081E08093FC021092DC0209C0803C09F400
:101C7000A6CF883C09F4A3CF883B09F07DCFE09143
:101C8000FD0281E08E0F8093FD02F0E0E452FD4FF3
:101C900080818093BB009091FD028091FC0229C05D
:101CA0008091EB038093BB0085EC8093BC0064CFF4
:101CB00090910D0480910C04981758F5E0910D0453
:101CC00081E08E0F80930D04F0E0E451FC4F8081A1
:101CD000E9CFE0910D0481E08E0F80930D04809197
:101CE000BB00F0E0E451FC4F808390910D048091A3
:101CF0000C049817C8F285E8D8CFE0910D0481E074
:101D00008E0F80930D048091BB00F0E0E451FC4FF6
:101D1000808380910F0481115CCF81E08093EA037E
:101D200084EA8093BC001092100426CF85EC809347
:101D3000BC001092100480911E03803230F4E091B8
:101D40001E03F0E0E250FD4F108260911E0370E030
:101D5000E0912203F09123038EEF92E00995109217
:101D60001E030ACF10920E0434CFCF92DF92EF926F
:101D7000FF920F931F93E82FF92F05C0015011090F
:101D80002109310961F1908196239417B9F305C0B7
:101D9000015011092109310911F190819623941301
:101DA000F7CFC12CD12CE12CF12C0AC08FEFC81A2F
:101DB000D80AE80AF80A0C151D052E053F0579F02A
:101DC00080818623841791F36C2D7D2D8E2D9F2D80
:101DD0001F910F91FF90EF90DF90CF90089560E0FA
:101DE00070E080E090E01F910F91FF90EF90DF9006
:101DF000CF9008958230910538F0880F991F880F91
:101E0000991F05970197F1F70895CF93DF93282F36
:101E100030E0F901EC5DF84F8491F901E05FF84F93
:101E2000D491F901E450F94FC491CC23A1F0811170
:101E30000E940704EC2FF0E0EE0FFF1FEE50F94F69
:101E4000A591B491EC91ED2381E090E009F480E05C
:101E5000DF91CF91089580E090E0FACF8E3008F0C6
:101E60008E508770806480937C0080917A008064BB
:101E700080937A0080917A0086FDFCCF8091780073
:101E80009091790008958F929F92AF92BF92CF92D6
:101E9000DF92EF92FF926B017C010E94F7044B01ED
:101EA0005C01C114D104E104F104B9F00E94F7040B
:101EB000681979098A099B09683E73408105910573
:101EC00080F321E0C21AD108E108F10888EE880EFB
:101ED00083E0981EA11CB11CE4CFFF90EF90DF902F
:101EE000CF90BF90AF909F908F900895682F8AE316
:101EF00094E00C94CE05DC0180E0615090F09D915F
:101F00009827E92FEF70F0E0E651FF4F2491E92F79
:101F1000E295EF70F0E0E650FF4FE491822F8E27BC
:101F2000ECCF0895DC012C911196ED91FC91F89481
:101F30008181822B81839281322F309593239283EA
:101F400087E090E00197F1F781818323818383E229
:101F500090E00197F1F790817894EFECF0E0319701
:101F6000F1F7922381E009F480E00895FC0190816B
:101F70000180F281E02D292F209560FF14C0F89494
:101F80008281822382838181892B8183A3E2B0E0D5
:101F90001197F1F78281982B9283789487ED90E0E6
:101FA0000197F1F70895F8948281822382838181D9
:101FB000892B8183AFEFB0E01197F1F78281982BE5
:101FC000928378948FE090E0EBCFDF92EF92FF92D4
:101FD0000F931F93CF93DF93EC01D62EE42E08E0EE
:101FE00010E0FF24F39461E08D2D8F2109F460E06F
:101FF000CE010E94B60FFF0C01501109A1F7E110AC
:1020000010C0F894E981FA819181888180958923B3
:102010008183E981FA8192818881809589238283F5
:102020007894DF91CF911F910F91FF90EF90DF9007
:102030000895EF92FF920F931F93CF93DF938C013C
:102040007B0140E065E50E94E50FE70188E0E80ECE
:10205000F11C699140E0C8010E94E50FCE15DF0533
:10206000C1F7DF91CF911F910F91FF90EF900895ED
:10207000FC0190810180F281E02DF8948181292F6B
:1020800020958223818378943DE743E050E03150EE
:1020900029F1DA011197F1F780818923C1F3F894CE
:1020A0008281822382838181892B81837894ABE72B
:1020B000B7E01197F1F7F894818182238183A3E13E
:1020C000B1E01197F1F78081982381E009F080E079
:1020D0007894E3E6F6E03197F1F7089580E008950B
:1020E0008F929F92AF92BF92CF92DF92EF92FF9228
:1020F0000F931F93CF93DF938C017A01FC018681AC
:1021000097810E94191040E06EEBF801868197815B
:102110000E94E50FE7015701F9E0AF0EB11CF8018D
:102120008680978088E0C82ED12CF12CEE24E39491
:10213000C4010E94920F8111FE28EE0CF1E0CF1A2B
:10214000D108B1F7F992AC16BD0649F7F8018681BE
:1021500097810E94381091E0813009F090E0892F3A
:10216000DF91CF911F910F91FF90EF90DF90CF9073
:10217000BF90AF909F908F900895EF92FF920F9332
:102180001F93CF93DF93CDB7DEB729970FB6F8949F
:10219000DEBF0FBECDBF8C017B01FC018681978124
:1021A0000E943810811102C080E020C0AE014F5F54
:1021B0005F4FB701C8010E9470108823A9F368E03F
:1021C000CE0101960E947B0F99858913EDCF8D81F9
:1021D0008F33C9F020F48F3139F789E007C08F358C
:1021E00021F08F3709F78CE001C08BE029960FB6FC
:1021F000F894DEBF0FBECDBFDF91CF911F910F913D
:10220000FF90EF9008958AE0F1CF8F929F92AF9266
:10221000BF92CF92DF92EF92FF92CF93DC0117969D
:10222000CC91179750E061115C2F18962C9118975C
:1022300030E0220F331F2E50394F60E070E0CB01A9
:10224000F901E590F490F70140814C23451315C046
:102250004B015C01FFEF8F1A9F0AAF0ABF0A1D9660
:10226000CD90DD90ED90FC9050976C157D058E051E
:102270009F0568F060E070E0CB01CF91FF90EF9098
:10228000DF90CF90BF90AF909F908F900895C50141
:10229000B401D6CF8F929F92AF92BF92CF92DF922E
:1022A000EF92FF920F931F93CF93DF93CDB7DEB7DB
:1022B000C054D1400FB6F894DEBF0FBECDBF8C0125
:1022C0000E941C05F801C184D284E384F4849B013C
:1022D000AC012C193D094E095F0969017A0130ED05
:1022E000C31637E0D306E104F104A8F48189C05C89
:1022F000DE4F0FB6F894DEBF0FBECDBFDF91CF919A
:102300001F910F91FF90EF90DF90CF90BF90AF9013
:102310009F908F9008956187728783879487148236
:10232000138212821182108261E085810E94300442
:102330006AEF70E080E090E00E94430F61E0F801F6
:1023400085810E945E0460E0F80185810E9430046E
:1023500064E170E080E090E00E94430FF89461E057
:10236000F80185810E9430048BE990E00197F1F734
:1023700062E0F80185810E945E0483E290E00197AB
:10238000F1F760E0C8010E940511672B682B692BEB
:1023900029F4F801118A789480E0A9CF61E0C8019E
:1023A0000E940511672B682B692B99F39E012F5F03
:1023B0003F4F79015E013FEBA31A3EEFB30A67017D
:1023C00060E0C8010E940511F60160837183828379
:1023D000938361E0C8010E940511F601648375834F
:1023E00086839783F8E0CF0ED11CCA14DB0441F733
:1023F000789430E020E0F70180809180A280B38063
:10240000448155816681778181149104A104B104CE
:1024100029F0411551056105710519F4F801118A7A
:10242000BBCFF90183E0F595E7958A95E1F7E00FD9
:10243000F11F8081880F84169506A606B706F0F076
:1024400080832F5F3F4FF8E0EF0EF11C28323105FB
:1024500091F6F801448120818181280F3327331FB1
:102460008281280F311D8381820F932F911D99271F
:102470004817190699F681E0818B39CF8160E0CF4A
:10248000FC01838194810C94FA0EEF92FF920F93DA
:102490001F93CF93DF93EC01062F18E061E0888152
:1024A0000E945E04CE010E944012E02EF12C60E0FA
:1024B00000FF61E089810E945E04CE010E9440120B
:1024C00060E088810E945E04CE010E944012F59473
:1024D000E7940E2D115011F761E088810E945E048F
:1024E00060E089810E945E04CE010E94401260E09B
:1024F00088810E945E04CE010E94401289810E9460
:10250000050F182F811104C061E089810E945E04CB
:10251000CE010E94401261E088810E945E04CE01DB
:102520000E94401281E0111101C080E0DF91CF9143
:102530001F910F91FF90EF900895CF93DF93EC01DF
:1025400061E089810E945E04CE010E94401260E039
:1025500088810E945E04CE010E94401260E0898161
:102560000E945E04CE01DF91CF910C944012CF9374
:10257000DF93EC0161E089810E945E04CE01DF916E
:10258000CF910C944012EF92FF920F931F93CF9331
:10259000DF93EC017B010E94B71260E4CE010E9440
:1025A0004512CE010E949D12CE010E94B71260EC2E
:1025B000CE010E944512870184E0E80EF11CF8016B
:1025C00061918F01CE010E9445120E151F05B9F7CA
:1025D000CE010E949D12CE010E94B7126A816F70D7
:1025E0006058CE010E944512CE01DF91CF911F911C
:1025F0000F91FF90EF900C949D127F928F929F927B
:10260000AF92BF92CF92DF92EF92FF920F931F9300
:10261000CF93DF9300D000D0CDB7DEB75C01FA01D5
:1026200030E067FF02C0619531E03097E9F419822C
:102630001A821B828FE38C83BE016F5F7F4FC501BF
:102640000E94C3120F900F900F900F90DF91CF91C7
:102650001F910F91FF90EF90DF90CF90BF90AF90C0
:102660009F908F907F900895CE0101966C014E014E
:1026700093E0891A91088601E62E660FFF0880E430
:10268000782ECF01B7010E942A38AC01982F811112
:102690000BC0309749F4D80113961C92332379F07C
:1026A000F801738230E00BC04D5C5E4FDA018C9113
:1026B000D80113968C93911102C0EF2B79F3FB0193
:1026C0000150110980169106E1F6222309F4B4CFD6
:1026D00041E050E04C0F5D1F4C5F5F4FD6019D9174
:1026E0006D01FD013197822F8078892B8083220F25
:1026F000A417B50799F7A0CFCF92DF92EF92FF9280
:102700000F931F93CF93DF93D82FC62F613208F01A
:1027100098C00E94F7046B017C0180911004811124
:102720006BC081E08093100480930F049FEF90931F
:102730000E0410920D049C0F90930C048093EB03F5
:102740008091EB03DD0FD82BD093EB038091EA034C
:10275000813009F078C01092EA030E94F7046B01FF
:102760007C018091EB038093BB00809112049091D7
:102770001304A0911404B0911504892B8A2B8B2B80
:10278000A1F00E94F704009112041091130420910B
:102790001404309115046C197D098E099F090617E0
:1027A00017072807390708F448C08091BC0083FD4B
:1027B000D8CF85EC8093BC000E94F7046B017C01AC
:1027C00080911004813009F440C080910D048C1771
:1027D00010F4C0910D04ECEEF3E0AAECB3E080E05D
:1027E0008C1355C08C2FDF91CF911F910F91FF90CB
:1027F000EF90DF90CF900895809112049091130490
:10280000A0911404B0911504892B8A2B8B2B09F409
:1028100084CF0E94F70400911204109113042091B8
:102820001404309115046C197D098E099F0906174F
:1028300017072807390708F070CF809111040E940C
:102840001408C0E0CFCF85EEB5CF809112049091EF
:102850001304A0911404B0911504892B8A2B8B2B9F
:1028600009F4AECF0E94F7040091120410911304F2
:1028700020911404309115046C197D098E099F096B
:10288000061717072807390708F09ACFD6CF919176
:102890009D938F5FA5CF0F931F93CF93DF93EC0191
:1028A000062F142F88E60E94C70388819981DC01D6
:1028B000ED91FC910190F081E02D602F09958881C8
:1028C0009981DC01ED91FC910190F081E02D612F67
:1028D000099588819981DF91CF911F910F910C9477
:1028E000AB094F925F926F927F928F929F92AF92BD
:1028F000BF92CF92DF92EF92FF92CF93DF93CDB74B
:10290000DEB72A970FB6F894DEBF0FBECDBF4D835A
:102910005E836F83788721E1289FA001299F500D56
:102920001124415D5C4F5A874987DA0119968D91D0
:102930009D910D90BC91A02D89839A83AB83BC831C
:10294000FA0181809280A380B480C580D680E78020
:10295000F084A5019401BC01CD010E947634882346
:10296000A1F1A7019601A985BA851D966D917D916A
:102970008D919C9150970E945A362B013C01A501E4
:1029800094016D817E818F8198850E945A369B01CA
:10299000AC01C301B2010E94DC342B013C01A50152
:1029A000940169817A818B819C810E945A369B01B6
:1029B000AC01C301B2010E9439379B01AC01C701D0
:1029C000B6010E945B366B017C01C701B6012A96F5
:1029D0000FB6F894DEBF0FBECDBFDF91CF91FF9051
:1029E000EF90DF90CF90BF90AF909F908F907F90AF
:1029F0006F905F904F900895E0917A03F0917B0380
:102A0000309711F180389105F8F460347105E0F4E5
:102A1000DB01A770BB2721E030E001C0220FAA959F
:102A2000EAF733E0759567953A95E1F77695762F55
:102A3000662777956795860F971FE80FF91F8081A6
:102A4000442319F0282B2083089520952823FBCFB9
:102A50002F923F924F925F926F927F928F929F92AE
:102A6000AF92BF92CF92DF92EF92FF920F931F939C
:102A7000CF93DF9300D000D0CDB7DEB77C017C834D
:102A80006B834A01390180917A0390917B03892BF2
:102A900009F455C08A010E191F0917FF03C01195CB
:102AA0000195110944244A94542CE814F9041CF4A7
:102AB00044244394512C63012B813C81C21AD30AD4
:102AC000D7FE03C0D194C194D108882799278C19C7
:102AD0009D099A8389832B813C8122242A94322C5C
:102AE000261537051CF422242394312C5801AC18E8
:102AF000BD0841E06B817C81C7010E94FC14E81491
:102B0000F90429F48B819C8186159705C1F0C501D4
:102B1000880F991F29813A81821793073CF0AC18DE
:102B2000BD08E40CF51C081719071CF3A00EB11E14
:102B30008B819C81820D931D9C838B83DACF0F90B8
:102B40000F900F900F90DF91CF911F910F91FF90F9
:102B5000EF90DF90CF90BF90AF909F908F907F903D
:102B60006F905F904F903F902F900895CF93C82F14
:102B700080910A010E94C70370E060E087EA94E058
:102B80000E94640A6C2F87EA94E00E947C0987EA1D
:102B900094E0CF910C94AB091F93CF93DF938111F5
:102BA00001C08CE380930A0162E370E080E090E072
:102BB0000E94430F8EEA0E94B61585ED0E94B6155D
:102BC00080E80E94B61588EA0E94B6158FE30E943D
:102BD000B61583ED0E94B61580E00E94B61580E41C
:102BE0000E94B6158DE80E94B61584E10E94B615C4
:102BF00081EA0E94B61588EC0E94B6158AED0E9403
:102C0000B61582E10E94B61581E80E94B6158FE7DD
:102C10000E94B61589ED0E94B61581EF0E94B61587
:102C20008BED0E94B61580E40E94B61584EA0E94DE
:102C3000B61586EA0E94B6158EE20E94B61581E0AE
:102C400080932E03C0E08C2F806B0E94B61582E02B
:102C50000E94B61580E10E94B615D0E080910A016D
:102C60000E94C70360E470E087EA94E00E94640A6F
:102C700010E160E087EA94E00E947C091150C9F7F6
:102C800087EA94E00E94AB09D05FD03839F7CF5F74
:102C9000C830C9F68FEADF91CF911F910C94B61519
:102CA000DF92EF92FF920F931F93CF93DF93809168
:102CB0007A0390917B03892B09F445C080912E0300
:102CC000811104C080910A010E94CC15D0E0C0E0BF
:102CD000D12C8D2D806B0E94B61582E00E94B61516
:102CE00080E10E94B6158E0100581F4FC017D10712
:102CF00031F180910A010E94C70360E470E087EA25
:102D000094E00E94640AF12CE12CE0917A03F091A6
:102D10007B03EE0DFF1DEC0FFD1F608187EA94E041
:102D20000E947C098FEFE81AF80A80E1E816F104A6
:102D300061F787EA94E00E94AB096096D7CFD394FD
:102D400088E0D812C6CFDF91CF911F910F91FF90ED
:102D5000EF90DF900895BF92CF92DF92EF92FF92B3
:102D60000F931F93CF93DF93EC01B62EC72E8D8563
:102D7000811105C0CE010E94381081110EC01B8642
:102D80001D861C8680E0DF91CF911F910F91FF90EF
:102D9000EF90DF90CF90BF90089540E060EFCE01BC
:102DA0000E94E50F01E0E12CD12C11E0CE010E9440
:102DB000920FF82ECE010E94920F91E0F91218C0E6
:102DC000813099F51134D8F2DB86D11002C081E050
:102DD0008D878B81882399F22396EB2DFC2DCF01D3
:102DE000089629912193E817F907D9F781E0CBCF0D
:102DF000EE2DF0E0F8120FC08B851817A0F4DE015D
:102E0000AE0FBF1F13968C91802379F4F12C1930EB
:102E100008F41C87D12EEC0FFD1F8381902F909515
:102E2000892383830AC08113F1CFFE01EE0DF11DCA
:102E30008381802B8383FF24F3946F2DCE010E9426
:102E4000B60F1F5F000F11F4E39401E087E08E15C9
:102E500008F0ACCFB7CFCF93DF93CDB7DEB72897CD
:102E60000FB6F894DEBF0FBECDBF28E0E9E1F1E078
:102E7000DE01119601900D922A95E1F7FC01218562
:102E8000241710F44FEF420F50E0440F551F21E07C
:102E900030E02C0F3D1F420F531FFA012081620FBB
:102EA000606840E028960FB6F894DEBF0FBECDBF35
:102EB000DF91CF910C949D0A40E061E00E949D0A51
:102EC0008BE39FE10197F1F708958F929F92AF9264
:102ED000BF920F931F93CF93DF93CDB7DEB7A19728
:102EE0000FB6F894DEBF0FBECDBF19A2423008F472
:102EF0004AE08E010F5D1F4F842E912CB12CA12C26
:102F0000A50194010E94C035E62FB901CA01EA303B
:102F1000F4F4E05DD801EE938D01232B242B252BB7
:102F200079F790E080E0109719F0CD010E94BA0A7D
:102F3000A1960FB6F894DEBF0FBECDBFDF91CF9143
:102F40001F910F91BF90AF909F908F900895E95C73
:102F5000E1CFCF92DF92EF92FF92CF93DF936C019C
:102F6000990FEE08FF08F7FE17C08DE20E94760F5A
:102F7000EC0166277727CB016C197D098E099F0923
:102F80004AE00E9465178C0F9D1FDF91CF91FF9043
:102F9000EF90DF90CF9008954AE0C701B601DF912E
:102FA000CF91FF90EF90DF90CF900C946517CF9367
:102FB000DF930E94A917EC010E94C70A8C0F9D1F86
:102FC000DF91CF910895009711F00C94BA0A90E028
:102FD00080E008954F925F926F927F928F929F92BE
:102FE000AF92BF92CF92DF92EF92FF920F931F9317
:102FF000CF936B017C01742EAC019B010E941938A8
:10300000882399F08AE691E0CF911F910F91FF906C
:10301000EF90DF90CF90BF90AF909F908F907F9078
:103020006F905F904F900C94BA0A46015701E89454
:10303000B7F82FEF3FEF4FE75FE7C501B4010E94FC
:10304000193881110DC02FEF3FEF4FE75FE7C50142
:10305000B4010E94763418161CF48EE691E0D4CFA9
:103060002FEF3FEF4FE75FE4C701B6010E9408383A
:1030700018161CF482E791E0C7CF2FEF3FEF4FE720
:103080005FECC701B6010E94763487FDF3CF20E0E4
:1030900030E0A901C701B6010E94763410E000E0DB
:1030A00087FF08C08DE20E94760F8C01F7FAF0943A
:1030B000F7F8F094C0E060E070E080E09FE37C16F9
:1030C00041F020E030E040E251E40E943937CF5F28
:1030D000F6CFA70196010E945B362B013C010E94AE
:1030E000B2374B015C014AE00E9465177C01E00E9B
:1030F000F11ECC23B1F1C501B4010E947B349B01C8
:10310000AC01C301B2010E945A364B015C018EE250
:103110000E94760FE80EF91EC15018F120E030E051
:1031200040E251E4C501B4010E94DC342B013C01B2
:103130000E94B2374B01B12CA12C4AE0C501B40169
:103140000E946517E80EF91EC501B4010E947B3488
:103150009B01AC01C301B2010E945A364B015C01D4
:10316000DBCFC701CF911F910F91FF90EF90DF90C0
:10317000CF90BF90AF909F908F907F906F905F9017
:103180004F900895CF93DF930E94EA17EC010E94BD
:10319000C70A8C0F9D1FDF91CF910895009761F0B2
:1031A000FC0120812F7D213429F401960E94A63252
:1031B0000E9608950C94A6328EE090E008958091CA
:1031C0007A0390917B03892BC1F480E094E00E9404
:1031D000583890937B0380937A03009731F481ED04
:1031E00090E00E94CB0A80E0089520E034E0FC01EA
:1031F000A901119241505040E1F781E008950E94E9
:10320000DF18882361F0E0917A03F0917B0380E07E
:1032100094E0DF019C011D9221503040E1F70895B8
:10322000EF92FF920F931F93CF93DF93F82E062F09
:10323000142F80917C0390917D03009779F0209169
:10324000D9022F1109C020911001261305C0209129
:103250000F01241709F4A6C00E94F4388CE090E016
:103260000E945838EC011B821A8285E291E0998312
:103270008883FC82088719871A8688E0E82EEB8607
:10328000D0937D03C0937C03F092D9020093100188
:1032900010930F0110922703109226031092170427
:1032A000109239040E94F60788E295E0909321037A
:1032B0008093200389E295E0909323038093220377
:1032C0001D828985823008F0ED829A85992329F044
:1032D000813019F48D8184608D8362E370E080E039
:1032E00090E00E94430F6B85CE010E946B0A68EE4E
:1032F00073E080E090E00E94430F60E3CE010E9403
:10330000840A0BE416E4C8010197F1F760E3CE01EB
:103310000E94840AC8010197F1F760E3CE010E9480
:10332000840A83E592E00197F1F760E2CE010E9402
:10333000840A6D81606240E0CE010E949D0A84E0B3
:103340008E8340E06CE0CE010E949D0ACE010E9477
:103350005C1782E08F8340E066E0CE010E949D0A08
:1033600040E062E0CE010E949D0A8BE39FE101975D
:10337000F1F78CE08093B80080917C0390917D03FD
:1033800028E0FC01238760E00E946B0A80917C03A7
:1033900090917D03DF91CF911F910F91FF90EF905E
:1033A0000C945C17DF91CF911F910F91FF90EF90DC
:1033B00008950F931F93CF93DF938C01809178032F
:1033C00090917903009749F020910001309101011B
:1033D0002017310791F10E94F43882E190E00E94B9
:1033E0005838EC010D838BE08E83C8019927FC01CE
:1033F000E05FF84FE491EF83FC01E450F94FE49172
:10340000E88780E89EE3A0E0B0E08D879E87AF87E5
:10341000B88BD0937903C093780362E0802F0E9429
:103420005E0480E398EFAFEFBFEF89879A87AB87A1
:10343000BC871093010100930001DF91CF911F9190
:103440000F9108950C949A352F923F924F925F926C
:103450006F927F928F929F92AF92BF92CF92DF92A4
:10346000EF92FF920F931F93CF93DF93CDB7DEB709
:103470002C970FB6F894DEBF0FBECDBF9C878B870D
:1034800088E60E94C7036BE370E0AB85BC858D9135
:103490009C910E94640A80E00E9435086EE088E6F4
:1034A0000E947C131092270380932603EB85FC85F2
:1034B00080819181DC01ED91FC910284F385E02D06
:1034C0000995182FEB85FC8580819181DC01ED91B8
:1034D000FC910284F385E02D099520E0822B912B4D
:1034E000EB85FC859383828380819181DC01ED9162
:1034F000FC910284F385E02D0995182FEB85FC855E
:1035000080819181DC01ED91FC910284F385E02DB5
:10351000099520E0822B912BEB85FC859583848394
:1035200080819181DC01ED91FC910284F385E02D95
:103530000995182FEB85FC8580819181DC01ED9147
:10354000FC910284F385E02D099520E0822B912BDC
:10355000EB85FC859783868380819181DC01ED91E9
:10356000FC910284F385E02D0995182FEB85FC85ED
:1035700080819181DC01ED91FC910284F385E02D45
:10358000099520E0822B912BEB85FC859187808724
:1035900080819181DC01ED91FC910284F385E02D25
:1035A0000995182FEB85FC8580819181DC01ED91D7
:1035B000FC910284F385E02D099520E0822B912B6C
:1035C000EB85FC859387828780819181DC01ED9179
:1035D000FC910284F385E02D0995182FEB85FC857D
:1035E00080819181DC01ED91FC910284F385E02DD5
:1035F000099520E0822B912BEB85FC8595878487AC
:1036000080819181DC01ED91FC910284F385E02DB4
:103610000995182FEB85FC8580819181DC01ED9166
:10362000FC910284F385E02D099520E0312F1901EA
:10363000282A392AEB85FC853786268660857185A0
:10364000072E000C880B990B0E947D3420E030EF90
:1036500041E456E40E945B3620E030E04AEA53E45D
:103660000E943937AB85BC855C966D937D938D93B5
:103670009C935F9712966D917C91072E000C880B9E
:10368000990B0E947D3420E030E040E858E30E942E
:10369000DC344B015C01EB85FC8580A291A2A2A2E7
:1036A000B3A264817581072E000C880B990B0E94D0
:1036B0007D3420E030E040E858E30E94DC346B01C8
:1036C0007C01AB85BC859496CD92DD92ED92FC9207
:1036D000979716966D917C91072E000C880B990B8D
:1036E0000E947D3420E030E040E858E30E94DC3462
:1036F0002B013C01EB85FC8540A651A662A673A672
:1037000020E030E0A901C501B4010E940838A501FC
:10371000940118160CF05058C301B2010E945B3698
:103720009B01AC01C701B6010E94DA360B851C85EE
:103730000C5B1F4F20E030E044EB53E40E94DC348C
:1037400020E030E040E05FE30E94DC342BED3FE01E
:1037500049E450E40E943937D8016D937D938D93ED
:103760009C93139720E030E0A901C701B6010E94A5
:103770000838181624F0F7FAF094F7F8F094A70137
:103780009601C301B2010E945B369B01AC01C501E9
:10379000B4010E94DA360B851C85085B1F4F20E0C0
:1037A00030E044EB53E40E94DC3420E030E040E0C1
:1037B0005FEB0E94DC342BED3FE049E450E40E94D3
:1037C0003937F8016083718382839383AB85BC852D
:1037D0001C966D917C91072E000C880B990B0E9412
:1037E0007D3420E030E043E852E40E9439376B0139
:1037F0007C01EB85FC8562857385072E000C880BA8
:10380000990B0E947D3420E030E043E852E40E94AE
:103810003937AB85BC8550962D913D914D915C918A
:1038200053970E945A36EB85FC8564A775A786A737
:1038300097A72489358946895789C701B6010E940F
:103840005A36AB85BC85D0966D937D938D939C93B2
:10385000D397B101330C880B990B0E947D3420E083
:1038600030E043E852E40E943937EB85FC85208D37
:10387000318D428D538D0E945A36AB85BC85D496CE
:103880006D937D938D939C93D7970E941C05EB8538
:10389000FC85E05AFF4FFE83ED83C080D180E2803B
:1038A000F3806C197D098E099F090E947B342FE6F5
:1038B00032E143E85AE30E94DC342B013C01EB8502
:1038C000FC85E45AFF4F4082518262827382AB854D
:1038D000BC859C962D913D914D915C919F970E9446
:1038E000DC344B015C01AC019B01EB85FC8560ADD8
:1038F00071AD82AD93AD0E945B36AB85BC85D89629
:103900006D937D938D939C93DB97D0962D913D91F4
:103910004D915C91D397C301B2010E94DC346B01DD
:103920007C01AC019B01EB85FC8564AD75AD86AD7A
:1039300097AD0E945B36AB85BC85DC966D937D931D
:103940008D939C93DF97D4962D913D914D915C91F1
:10395000D797C301B2010E94DC346B847C84B0E44D
:103960006B0E711CF30120813181428153810E94D1
:103970005B366F83788789879A87D3016D937D93B0
:103980008D939C931397EB85FC85E859FF4F4080FE
:10399000518062807380EB85FC85EC59FF4F8081FC
:1039A0009181A281B38189839A83AB83BC832B8469
:1039B0003C8490E5290E311CD1012D913D914D9112
:1039C0005C91C501B4010E945B36A30192010E9483
:1039D000DC344B015C01EB85FC85EC5BFF4F208107
:1039E00031814281538169817A818B819C810E94DE
:1039F000DC349B01AC01C501B4010E945B36F101CE
:103A00006083718382839383AB84BC84F4E5AF0EBF
:103A1000B11CD5012D913D914D915C91C701B6012D
:103A20000E945B36A30192010E94DC346B017C0191
:103A3000F801208131814281538169817A818B81B2
:103A40009C810E94DC349B01AC01C701B6010E943D
:103A50005B36D5016D937D938D939C931397EB8586
:103A6000FC85E85AFF4F8F819885A985BA858083A8
:103A70009183A283B3830E941C05AD81BE816D93A7
:103A80007D938D939C9313972C960FB6F894DEBF7D
:103A90000FBECDBFDF91CF911F910F91FF90EF909F
:103AA000DF90CF90BF90AF909F908F907F906F905E
:103AB0005F904F903F902F900895CF93DF93809128
:103AC000DA0281117DC08091740390917503892B76
:103AD00001F58CE690E00E94583827EA34E0FC01BA
:103AE00031832083EC59FF4F4AE057ED63EA7CE3D2
:103AF0004083518362837383349648E451EE6AE7CE
:103B00007FE3408351836283738390937503809333
:103B10007403C0917403D0917503209731F48EED36
:103B200090E0DF91CF910C94CB0A40E069E1CE01A7
:103B30000E944B1440E06AE1CE010E944B1448E021
:103B40006BE1CE010E944B1440E06CE1CE010E947B
:103B50004B1441E06BE6CE010E944B14CE010E9453
:103B6000241A18AE19AE1AAE1BAE1CAE1DAE1EAE98
:103B70001FAEFE01E05BFF4FDE01AC5BBF4F8D91DE
:103B80009D910D90BC91A02D80839183A283B383DE
:103B90003496DE01A85BBF4F8D919D910D90BC9135
:103BA000A02D80839183A283B3830E941C05C05AF9
:103BB000DF4F688379838A839B8381E08093DA0275
:103BC000DF91CF91089566E771E090E080E00E9478
:103BD000CD32009711F00C94A23260E070E0CB017E
:103BE000089510923D0410923C0488EE93E0A0E00A
:103BF000B0E080933E0490933F04A0934004B093C0
:103C0000410427E431E030933B0420933A0425EC4F
:103C100030E0309347042093460424EC30E03093A6
:103C200049042093480420EC30E030934B04209367
:103C30004A0421EC30E030934D0420934C0422ECF4
:103C400030E030934F0420934E0426EC30E0309364
:103C50005104209350041092530410925404109273
:103C60005504109256041092AA041092A90480934D
:103C7000AB049093AC04A093AD04B093AE0489E57B
:103C800091E09093A8048093A7048091D7048C308E
:103C900008F04BC091E0980F9093D7048093F704FD
:103CA00090E0FC01EE0FFF1FE80FF91FED54FB4FF2
:103CB00088EB9BE09283818380E090E0A8ECB1E404
:103CC0008093E8049093E904A093EA04B093EB0492
:103CD00080E090E0A0EEB0E48093D8049093D90403
:103CE000A093DA04B093DB0484E19EE0AEEFB4E489
:103CF0008093DC049093DD04A093DE04B093DF0492
:103D000080E090E8ABEBB4E48093E0049093E104AE
:103D1000A093E204B093E3048093E4049093E50459
:103D2000A093E604B093E70408958FEF8093F7041F
:103D3000C3CFCF93DF93CDB7DEB7C455D1090FB64C
:103D4000F894DEBF0FBECDBF789484B5826084BD89
:103D500084B5816084BD85B5826085BD85B581608F
:103D600085BD80916E00816080936E00109281000D
:103D700080918100826080938100809181008160C8
:103D80008093810080918000816080938000809189
:103D9000B10084608093B1008091B0008160809315
:103DA000B00080917A00846080937A0080917A00DC
:103DB000826080937A0080917A00816080937A009B
:103DC00080917A00806880937A001092C100E0911F
:103DD0004A04F0914B0482E08083E0914604F09124
:103DE00047041082E0914804F091490480E1808307
:103DF00010925204E0914E04F0914F0486E08083CB
:103E0000E0914C04F0914D04808180618083E091C9
:103E10004C04F0914D04808188608083E0914C04D3
:103E2000F0914D04808180688083E0914C04F09192
:103E30004D0480818F7D808310922703109226038A
:103E400010921704109239040E94F60788E295E058
:103E5000909321038093200389E295E090932303BC
:103E6000809322038CE08093B8000E94CC0B8AE000
:103E700091E00E94CB0A8091C0038823A9F00E94A0
:103E80001C050091BC031091BD032091BE0330912D
:103E9000BF03601B710B820B930B693C710581059D
:103EA000910510F01092C0038AE394E00E948B0504
:103EB000892B11F40C9425310E941C056093BC03DE
:103EC0007093BD038093BE039093BF038AE394E095
:103ED0000E946605E091C0038A3021F08D3011F018
:103EE0000C941731EE2301F3F0E0EC57FC4F1082F5
:103EF000E4E8F3E0CF0121912032E1F3222391F2B3
:103F000066E771E00E94CD327C01009759F26FE7BD
:103F100071E00E948439892B29F487EC96E00E9495
:103F2000CB0AC0CF65E871E0C7010E948439892BB4
:103F300019F48EE196E0F3CF6BE871E0C7010E94BF
:103F40008439892B19F489E196E0E9CF60E971E0C1
:103F5000C7010E948439892B39F484E196E00E94DC
:103F60001B0680E196E0DBCF64E971E0C7010E94A7
:103F70008439892B09F04FC00E94FE0AF82E0E9456
:103F8000FE0A082F0E94FE0A182F0E94FE0A982E91
:103F9000A92E0E94FE0AB82EC92E0E94FE0AD82E13
:103FA000E92E61E08F2D0E945E0461E0802F0E9467
:103FB0005E0461E0812F0E945E04692D7A2D6F3FBF
:103FC000710519F014F06FEF70E077FF02C070E038
:103FD00060E08F2D0E949A046B2D7C2D6F3F710540
:103FE00019F014F06FEF70E077FF02C070E060E04E
:103FF000802F0E949A046D2D7E2D6F3F710519F060
:1040000014F06FEF70E077FF02C070E060E0812F86
:104010000E949A0447CF68E971E0C7010E94843981
:10402000892B79F40E94FE0A182F0E94D70A082FC4
:1040300061E0812F0E945E04602F812F0E94300476
:1040400031CF6EE971E0C7010E948439892B09F0F4
:1040500087C00E94FE0A6C0166E771E090E080E094
:104060000E94CD328C010D2C000CEE08FF08009749
:1040700069F065EA71E00E948439892B39F069EAB8
:1040800071E0C8010E948439892B19F460E08C2DFD
:10409000D5CF9C2CC8010E94A6325C010E94FE0A6A
:1040A0008C011A141B0494F71816190614F008EC66
:1040B00010E0B50190E080E00E947B349B01AC01F0
:1040C00060E074E284E799E40E9439370E94AB37DC
:1040D000072E000C880B990B0E947D342B013C01AC
:1040E00020E030E040E05FE30E94DC340E94AB3728
:1040F0005B0161E08C2D0E945E04B801110F880BFA
:10410000990B0E947B3420E030E04AE754E40E949F
:10411000DC34A30192010E9439376B017C0101E07C
:1041200010E0B801012E000C880B990B0E947D3421
:10413000A70196010E94763418160CF4B3CE61E004
:10414000892D0E943004C5010E94FA0E60E0892D7D
:104150000E943004C5010E94FA0E0F5F1F4FE1CF8D
:104160006BEA71E0C7010E948439892B09F074C0A1
:1041700066E771E090E080E00E94CD328C0100970C
:1041800009F490CE61EB71E00E948439892BD9F457
:104190000E94FE0A8C010E94FE0A7C0161E0C801B7
:1041A0000E94B109C70125ECE21629E0F20614F0DD
:1041B00084EC99E0843F31E0930714F484EF91E0BC
:1041C0000E94D1036FCEC8010E94A6328C010E94CA
:1041D000FE0A7C0160E0C8010E94B1098091F804E8
:1041E0009091F904FDE78F2E912C881A990A880C7A
:1041F000991C880C991C092C000CAA08BB088091FA
:10420000FA049091FB0422EE34E0281B390B220FB4
:10421000331F220F331F032E000C440B550B28199C
:1042200039094A095B09D701A53BB10514F0A4EB94
:10423000B0E0B7FF02C0B0E0A0E00E940C3624EB73
:1042400030E040E050E00E94E235DA01C901880D1B
:10425000991DAA1DBB1DB4CF64EB71E0C7010E947C
:104260008439892B71F40E94FE0A182F0E94FE0ADD
:10427000F82E092F61E0812F0E945E046F2D702FB0
:10428000BCCE6CEB71E0C7010E948439892B09F028
:1042900054C00E94FE0AE82E0E94FE0AF82E66E72D
:1042A00071E090E080E00E94CD328C0161E08E2DC3
:1042B0000E945E0461E08F2D0E945E0401151105CD
:1042C00071F060EC71E0C8010E948439892B39F0EB
:1042D00065EA71E0C8010E948439892B49F470E0D5
:1042E00060E08E2D0E949A0470E060E08F2D90CEE9
:1042F000C8010E94A6328C018F3F910519F014F07D
:104300000FEF10E017FF02C010E000E066E771E079
:1043100090E080E00E94CD32009769F065EC71E09A
:104320000E948439892B39F070E060E08E2D0E9464
:104330009A04B801DBCFB801D4CF68EC71E0C701B3
:104340000E948439892B09F0BCC00E94FE0A7C01BE
:1043500066E771E090E080E00E94CD328C0100972A
:1043600009F4A0CD6CEC71E00E948439892B39F4FA
:104370000E94FE0ABC01C7010E940B0B93CD609105
:104380008203709183036115710539F080911101E9
:1043900090911201E816F90611F060E170E0C70192
:1043A0000E940B0B61ED71E0C8010E948439892BDA
:1043B000A1F40091800310918103D80114964D91CE
:1043C0005C91159770E060E019968D919C910E9428
:1043D0007D39C8010E94FA0665CD67ED71E0C8011C
:1043E0000E948439892B99F40E94FE0A009180036F
:1043F000109181038F3F910519F014F08FEF90E039
:1044000097FD80E0682FC8010E945706E2CF6EED4D
:1044100071E0C8010E948439892B39F50E94FE0A97
:10442000182F0E94FE0AC82E0E94FE0AD12CF12CE1
:10443000E12CFE2CED2CDC2CCC24E12AC82A10E047
:1044400000E020918203309183038091800390915A
:1044500081030217130708F0BDCFA7019601B80129
:104460000E9499060F5F1F4FECCFC8010E94A63231
:104470008C010E94FE0AE82E0E94FE0AF82E0E947D
:10448000FE0A682F17FD18C0809180039091810368
:104490002091820330918303021713076CF42F2DB0
:1044A00030E050E040E0542F432F322F22274E2996
:1044B000262BB8010E949906809180039091810378
:1044C00089CF62EE71E0C7010E948439892B09F01F
:1044D000CFC00E94FE0A6C010E94FE0A5C0166E7E2
:1044E00071E090E080E00E94CD327C01892B09F4DC
:1044F000D9CC80917E0390917F03009781F0209129
:104500000D0130910E01C216D30639F420910B0132
:1045100030910C01A216B30691F10E94F43885E0A7
:1045200090E00E9458388C01FC01C082A18284E690
:1045300090E09483838360E08C2D0E945E0460E0B1
:10454000D80111968C910E945E0460E0F801808190
:104550000E94300460E0D80111968C910E943004D2
:1045600010937F0300937E038DE0F8018283D09245
:104570000E01C0920D01B0920C01A0920B0161EDF1
:1045800071E0C7010E948439892B71F480917E0308
:1045900090917F0319821A821B821C82BE016F5F79
:1045A0007F4F0E94C3127ECC67ED71E0C7010E946D
:1045B0008439892BB9F40E94FE0AE0917E03F091C0
:1045C0007F038830910514F087E090E097FD80E04C
:1045D0008860828320E050E040E06AE0CF010E94E2
:1045E000FD1260CC66EE71E0C7010E948439892B10
:1045F00091F40E94FE0AE0917E03F0917F03AC01EA
:1046000097FF04C044275527481B590B66EF97FFB7
:104610006AE020E4E3CF6CEE71E0C7010E948439C8
:10462000892B91F40E94FE0AE0917E03F0917F03B2
:10463000AC0197FF04C044275527481B590B66EF70
:1046400097FF6AE020E0CACF00917E0310917F03BC
:10465000C7010E94A632AC0197FF04C0442755272A
:10466000481B590B66EF97FF6AE020E0C801B7CFFF
:1046700061EF71E0C7010E948439892B09F000C104
:1046800066E771E090E080E00E94CD328C010097F7
:1046900009F408CC6CEC71E00E948439892B31F567
:1046A00066E771E090E080E00E94CD3250E2F52EA6
:1046B000009739F050E040E070E060E00E948B31FC
:1046C000F62E0E94FE0A8C010E94FE0A10161106A8
:1046D00014F000E110E01816190614F082E090E0E2
:1046E000482F602F8F2D0E941019DCCB80917C0306
:1046F00090917D03892B29F442E060E180E20E94E1
:10470000101961ED71E0C8010E948439892B39F4D8
:1047100080917C0390917D030E945C17C3CB65EF71
:1047200071E0C8010E948439892B89F40E94D70A5C
:10473000E0917C03F0917D03882339F088E0838742
:1047400060E0CF010E946B0AADCB1386F9CF68EF12
:1047500071E0C8010E948439892B09F0A3CB0E9423
:10476000FE0A7C010E94FE0A5C0169E671E090E0AD
:1047700080E00E94CD32FC01892B09F493CB6F01BC
:10478000DF018D91803251F08232D1F480E091913D
:10479000992331F09232D9F78F5FF9CFFD01EFCF36
:1047A000823009F07FCBFFEFCF1ADF0A62E270E0C0
:1047B000C6010E949C39009709F474CBDC011C925D
:1047C0008701F7FE02C010E000E07501B7FE02C0ED
:1047D000F12CE12C4E2D602F80917C0390917D0374
:1047E0000E942B17F60181916F01882361F180915E
:1047F00010018017110609F09CF4FFEFEF1AFF0A71
:1048000080910F018E151F04E1F0DCF04E2D60E069
:1048100080917C0390917D030E942B1710E000E0B3
:1048200080917C0390917D03DC01ED91FC910190DE
:10483000F081E02DD60111976C9109950F5F1F4F04
:10484000D1CF10E000E080910F018E151F0409F018
:104850000CF428CB809110018017110609F00CF49C
:1048600021CB80917C0390917D03DC01ED91FC9143
:104870000190F081E02D60E209950F5F1F4FEACFB4
:104880006DEF71E0C7010E948439892B09F063C282
:1048900066E771E090E080E00E94CD328C010097E5
:1048A00009F400CB6CEC71E00E948439892BE9F4A7
:1048B00066E771E090E080E00E94CD32009799F0C9
:1048C00050E040E070E060E00E948B31862F0E9453
:1048D000CC150E94DF18882309F4E4CA0E94FF184F
:1048E0000E945016DFCA8CE3F2CF0E94DF188823A3
:1048F00009F4D8CA61ED71E0C8010E948439892B9E
:1049000069F368EF71E0C8010E948439892B09F0CE
:10491000ACC00E94FE0A7C010E94FE0AD82E192F0C
:1049200069E671E090E080E00E94CD32FC01892BC5
:1049300009F4B8CA2F01DF018D91803251F0823223
:10494000D1F480E09191992331F09232D9F78F5FC1
:10495000F9CFFD01EFCF823009F0A4CABFEF4B1AA7
:104960005B0A62E270E0C2010E949C39009709F480
:1049700099CAFC011082C701F7FE02C090E080E0F6
:10498000ED2CF12EF7FE02C0F12CE12C2696EFAEB5
:10499000269720917A0330917B03FE2DF83068F43E
:1049A000F701F695FE2FEE27F795E795E20FF31F37
:1049B00040E8DF011D924A95E9F71701B3E0220CA8
:1049C000331CBA95E1F78C0183E0000F111F8A9523
:1049D000E1F7232B09F466CAF20181902F018820A8
:1049E00011F40C9435310038110514F00C94353164
:1049F000882D90EE980D903608F080E28052990B49
:104A00004C01A3E0880C991CAA95E1F73801F8E065
:104A10006F0E711C80E892E0801B910B880E991E2E
:104A2000F401E00FF11FE491D12CC12CAE2EB12C7A
:104A3000C5010C2C02C0959587950A94E2F780FF7A
:104A400007C041E0B1016C0D7D1DC8010E94FC143E
:104A50002FEFC21AD20A38E0C316D10449F70F5F0C
:104A60001F4F06151705E1F6B7CF62E072E0C801E7
:104A70000E948439892B89F40E94FE0A8C010E94CD
:104A8000FE0A7C010E94FE0A41E0892B09F440E005
:104A9000B701C8010E94FC1423CF68E072E0C8018E
:104AA0000E948439892B91F40E94FE0A8C010E9495
:104AB000FE0A7C010E94FE0A6C010E94FE0A9C0113
:104AC000A601B701C8010E9428150ACF6DE072E067
:104AD000C8010E9484394C01892B09F046C00E940C
:104AE000FE0A6C010E94FE0A5C010E94FE0A8C0113
:104AF0000E94FE0A7C010E94FE0A20917A033091F6
:104B00007B03232B09F4ECCE0C0D1D1D0150110964
:104B1000892B81F08E149F040CF0E2CEB501680D54
:104B2000791D9B01A801C6010E9428159FEF891AD3
:104B3000990AF0CF9501A801B501C6010E94281578
:104B4000EA0CFB1CA1E0EA1AF1089701A801B701E1
:104B5000C6010E9428159701A601B501C6010E9451
:104B600028159701A801B501ADCF62E172E0C80137
:104B70000E9484396C01892B09F094C90E94FE0AB5
:104B800027969FAF8EAF27970E94FE0A2B969FAF66
:104B90008EAF2B970E94FE0A7C010E94FE0A65964A
:104BA0009FAF8EAF659780917A0390917B03892B9D
:104BB00009F496CE01E010E00E191F09E3E0F0E0E1
:104BC0006396FFAFEEAF6397EC14FD040CF488CE50
:104BD0002B968EAC9FAC2B978C0C9D1C2796AEAC65
:104BE000BFAC2797AE0CBF1C27964EAD5FAD279785
:104BF0004E195F092F965FAF4EAF2F972B968EAD54
:104C00009FAD2B978C199D0961969FAF8EAF6197D1
:104C10002B96AEADBFAD2B97AE0DBF1D2D96BFAF82
:104C2000AEAF2D9727962EAC3FAC27972C0C3D1C92
:104C300027966EAC7FAC27976C187D082B964EACF0
:104C40005FAC2B974E185F086596EEADFFAD65978C
:104C5000EF2BD1F19401A501B4012F968EAD9FAD3C
:104C60002F970E94281561962EAD3FAD6197A50143
:104C7000B9012F968EAD9FAD2F970E9428152D96C6
:104C80002EAD3FAD2D97A101B901C3010E9428159A
:104C90009201A101B201C3010E942815FFEFCF1AB2
:104CA000DF0A17FF4CC063962EAD3FAD6397020F2E
:104CB000131F63962EAD3FAD63972E5F3F4F6396F4
:104CC0003FAF2EAF639780CF41E0B401C5010E9492
:104CD000FC1441E0B4012F968EAD9FAD2F970E943A
:104CE000FC1441E061966EAD7FAD6197C5010E94F5
:104CF000FC1441E061966EAD7FAD61972F968EAD4D
:104D00009FAD2F970E94FC1441E02D966EAD7FADB4
:104D10002D97C1010E94FC1441E02D966EAD7FAD30
:104D20002D97C3010E94FC1441E0B201C1010E9411
:104D3000FC1441E0B201C3010E94FC14AFCF31E08A
:104D4000E31AF108C6018E199F09880F991F019671
:104D5000080F191FAECF69E172E0C7010E948439C4
:104D6000892B09F093C566E771E090E080E00E942E
:104D7000CD328C01009709F495C86DE172E00E9474
:104D80008439892B09F0A4C00E94FE0AB82E0E9423
:104D9000FE0A8C018AE096E00E941B0661E08B2DE2
:104DA0000E945E0460E0802F0E945E040E941C0549
:104DB0002B013C01C0900601D0900701E090080152
:104DC000F090090120E030E0A901C701B6010E947E
:104DD000083887FD15C080912A0390912B03A0917C
:104DE0002C03B0912D03A3019201281B390B4A0B10
:104DF0005B0BDA01C901CC97A105B10508F44AC0E3
:104E000040922A0350922B0360922C0370922D0340
:104E100060E08B2D0E94300483E090E00197F1F771
:104E200061E08B2D0E94300483E290E00197F1F75E
:104E300060E08B2D0E9430041127F801E05FF84FED
:104E40006491F801E450F94FE491F0E0EE0FFF1F98
:104E5000EE50F94F8591949108EA11E620E030E098
:104E6000462F0E94B50E611571058105910551F01F
:104E70006F5F7F4F8F4F9F4F9F7061157105810549
:104E8000910569F4C0900601D0900701E0900801F7
:104E9000F090090141E050E0C701B601FCC00E945A
:104EA0007B3428E23EE74CE05DE30E94DC3420E006
:104EB00030E040E05FE30E94DC346B017C01C09293
:104EC0000601D0920701E0920801F0920901E2CFB9
:104ED00062E272E0C8010E948439892B09F09EC009
:104EE00066E771E090E080E00E94CD320E94CE182B
:104EF000B82E8FEF95E00E941B06AE014F5F5F4F0B
:104F00006A017E015DE3E50EF11C86018B2D0E9496
:104F10002E0FD6018D939D936D01AE15BF05B1F790
:104F2000DE01139690E04D915D91892F282F082E78
:104F3000000C330BF901EE0FFF1FE00FF11F608132
:104F40007181F90131964617570744F4EE0FFF1FA0
:104F5000E00FF11F71836083815040F7E82F880FC5
:104F6000FF0B3196EE0FFF1FE00FF11F51834083BF
:104F70009F5F9D31C1F66D8D7E8D8F8D98A1680FDD
:104F8000791F072E000C880B990B0E947D3420E0BE
:104F900030E040E05FE30E94DC3420E030E040EAB3
:104FA00050E40E94DC3420E030E040E85AE30E9404
:104FB000DC346B017C01AC019B016DEC7CEC84E882
:104FC00090E40E945A3620E030E040E05FE30E9427
:104FD00008381816FCF420E030E040E250E4C70145
:104FE000B6010E945A3620E030E84DEE54E40E94AB
:104FF000DC349B01AC0160E070E088E494E40E9442
:105000005A366B017C0120E030E0A9010E94763421
:1050100087FF40CFC12CD12C76013CCF6CE272E0EF
:10502000C8010E948439892B09F04AC066E771E003
:1050300090E080E00E94CD320E94CE187C0186EF85
:1050400095E00E941B0687010E50110904301105DE
:1050500010F00FEF1FEF8E2D0E942E0F6C01990F95
:10506000EE08FF080F3F1007D1F0C701B6010E94FC
:105070007D34AB01BC0181E1809FF001819FF00D87
:105080001124E15DFC4F8081882349F0C8010E9412
:10509000711443E050E00E94C2180C94521FC701E3
:1050A000B6010E947D3420E030E040E054E40E94EC
:1050B0005A3620E030E040E05BE30E94DC34E9CF88
:1050C00064E372E0C8010E948439892B09F047C06B
:1050D00066E771E090E080E00E94CD320E94CE1839
:1050E0007C018DEE95E00E941B0687010E50110990
:1050F0000430110510F00FEF1FEF8E2D0E942E0FC0
:105100006C01990FEE08FF080F3F1007B9F0C701B7
:10511000B6010E947D34AB01BC0181E1809FF001AA
:10512000819FF00D1124E15DFC4F8081882331F0D7
:10513000C8010E94711442E050E0ADCFC701B60132
:105140000E947D3420E030E048EC51E40E94DC34E1
:1051500020E030EC4FE754E40E943937ECCF6CE3A9
:1051600072E0C8010E948439892B09F067C00E944F
:10517000FE0A0E94D9190091780310917903C801A1
:105180000E944A11882351F0D80116968C911697E7
:105190008B3059F018F08551823028F1C12CD12C78
:1051A00050ECE52E5FE7F52E09C0F801628170E052
:1051B00090E080E00E947B346B017C0186EE95E0FC
:1051C0000E941B06A7019601C701B6010E9419386B
:1051D000882309F45FCEC12C30ECD32E39E7E32EBF
:1051E00034ECF32E57CE1296BC906B2D6F7770E097
:1051F00090E080E00E947D3420E030E040E853E41D
:105200000E94DC346B017C01F801638170E090E066
:1052100080E00E947D34A70196010E945B362DEC50
:105220003CEC4CEC5DE30E94DC346B017C01B7FE8E
:10523000C5CFF7FAF094F7F8F094C0CF62E472E0CB
:10524000C8010E948439892B09F04AC00E94FE0AD5
:105250000E94D9190091780310917903C8010E9426
:105260004A11882351F0D80116968C9116978B30ED
:1052700059F018F08551823098F0C12CD12C40ECB7
:10528000E42E4FE7F42E09C0F801608170E090E051
:1052900080E00E947B346B017C018FED95E090CF24
:1052A0006C9170E090E080E00E947B3420E030E080
:1052B00040E853E40E94DC346B017C01F801618119
:1052C00070E090E080E00E947D34A70196010E948A
:1052D0005B362DEC3CEC4CEC5DE30E94DC34DBCF28
:1052E00068E472E0C8010E9484396C01892B09F0DE
:1052F0000CC266E771E090E080E00E94CD325C0174
:105300000E94CE184C0166E771E090E080E00E94B8
:10531000CD32009719F00E94A6326C01809176037D
:1053200090917703009771F020910401309105016D
:105330008216930609F4DCC00E94F43810927703B9
:10534000109276038091280390912903009711F021
:105350000E94F4388EE090E00E9458387C0160E0B2
:10536000882D0E945E04C4019927FC01E05FF84F7C
:10537000E491D701EC93FC01E450F94FE491F0E0A3
:10538000EE0FFF1FEE50F94F85919491F701928334
:105390008183138615861486F0922903E0922803F0
:1053A00084E190E00E9458388C01DC011796FC9251
:1053B000EE92169714961C92149715961C921597B8
:1053C0001C9289E011968C93119781E012968C9330
:1053D000129713968C93139753961C921E92529782
:1053E0001093770300937603F701128611861086D7
:1053F00017821682158214821382EE24E394BE0172
:105400006F5F7F4FD80116968D919C910E94AB16CD
:10541000882309F469C067E0CE0101960E947B0FE2
:1054200098858913ECCFF8018081811124C0868191
:1054300097810E943810BE016F5F7F4FD80116968A
:105440008D919C910E94191040E064EBF8018681D7
:1054500097810E94E50FD80116968D919C910E942C
:10546000920FF82EF801868197810E943810F11072
:1054700002C0D801EC92F801F1808981803109F4F1
:1054800045C7BE016F5F7F4FC8010E94BD108F15D9
:10549000C8F4D80111968C91F801818384818F5FC3
:1054A00084838981883231F0C8F4803119F08232E6
:1054B00009F0A5CFD80115968C9115978F5F159699
:1054C0008C939DCF8981803111F48CE0E5CFBE01B2
:1054D0006F5F7F4FC8010E94BD10DECF8B3351F349
:1054E000823409F08CCFE6CF9092050180920401BE
:1054F0000091760310917703F801868197810E94CD
:10550000381040E06CECD80116968D919C910E9469
:10551000E50FF801408164E4868197810E94E50FE0
:10552000D80112968C911297882309F43FC01196E6
:10553000EC91E9508EEEE82E82E0F82EE33038F45C
:10554000F0E0EE0FFF1FE35DFE4FE080F180F80119
:105550008381882309F467C08081811164C00E941F
:105560001C052B013C019701FF0C440B550B2996A0
:105570002CAF3DAF4EAF5FAF2997D80116968D91F6
:105580009C910E94920F813089F00E941C052996FF
:105590002CAD3DAD4EAD5FAD2997621B730B840BF7
:1055A000950B641575058605970538F3EC2CD80125
:1055B0001696ED91FC911386158614861286118637
:1055C000108617821682158214821382F12CBE0176
:1055D000635C7F4FF801868197810E94AB16811131
:1055E00029C0412C512CAEEF6A2EA2EC7A2E8BED05
:1055F00095E00E941B06A114B10421F479E8A72EBE
:1056000071E0B72EC5010E94E3178FE50E94760F67
:10561000C6010E94A91780E20E94760F41E050E087
:10562000C301B20138CDB701FF0C880B990B0E9462
:10563000430FBCCFEF1421F0F394EF1440F6D1CF19
:1056400067E0CE01CD960E947B0F25969FAD2597F2
:105650008913F2CFF801868197810E943810882340
:1056600009F4BFCFAE014F5F5F4FBE01635C7F4F58
:10567000C8010E947010882309F4B3CF68E0CE01FE
:1056800001960E947B0F99858913ABCF6A8170E0E8
:10569000762F6627770F770F770F2981F8E02F9FF6
:1056A00090011124262B372B8DAD8031D1F46885E4
:1056B00070E08F81AB01481B5109CA019695982F64
:1056C0008827979587950E943E38CB014097B9016E
:1056D000F3E0660F771FFA95E1F760789C01260FDB
:1056E000371F213854EE35070CF47BCFB901330F47
:1056F000880B990B0E947D3420E030E040E05CE3B1
:105700000E94DC342B013C0172CF62E572E0C801DB
:105710000E948439892B89F50E945D1D8091740354
:10572000909175030E94241A84ED95E00E941B0657
:10573000E0917403F091750360A171A182A193A11E
:1057400042E00E94EA1780E20E94760FE091740323
:10575000F091750364A175A186A197A142E00E9412
:10576000EA1780E20E94760FE0917403F0917503CE
:1057700060A571A582A593A5DECC68E572E0C8019D
:105780000E948439892B89F50E945D1D80917403E4
:10579000909175030E94241A8EEC95E00E941B06DE
:1057A000E0917403F091750364A575A586A597A58E
:1057B00042E00E94EA1780E20E94760FE0917403B3
:1057C000F091750360A971A982A993A942E00E9492
:1057D000EA1780E20E94760FE0917403F09175035E
:1057E00064A975A986A997A9A6CC6DE572E0C80140
:1057F0000E948439892B71F063E672E0C8010E942F
:105800008439892B39F068E672E0C8010E94843936
:10581000892B89F466E771E090E080E00E94CD3248
:105820000E94CE18F82EC8010E94E31780E20E9461
:10583000760F8F2D28C06CE672E0C8010E94843973
:10584000892B11F00C94521F66E771E090E080E024
:105850000E94CD320E94CE18082F66E771E090E0DA
:1058600080E00E94CD320E94CE18182F89EC95E07E
:105870000E941B06802F0E942E0F0E94A91780E213
:105880000E94760F812F0E942E0F4BC060E772E0BE
:10589000C7010E948439892B09F094C066E771E042
:1058A00090E080E00E94CD325C01892B11F40C94D1
:1058B000521F0E94FE0A8C0101978F37910510F04C
:1058C00003E610E088E48093B800802F0E94C703AD
:1058D00087EA94E00E94AB09882339F1EE24EA9428
:1058E000FE2C0FEF1FEFCC24CA94DC2C8CE08093AD
:1058F000B8006AE772E0C5010E948439892B79F506
:1059000080EC95E00E941B06C6010E94A91780E268
:105910000E94760FC8010E94A91780E20E94760FAC
:10592000C7010E94D7170C94521F63E0802F0E947A
:105930007C131092270380932603833079F687EA3D
:1059400094E00E9435096C0187EA94E00E943509D1
:105950008C0187EA94E00E9435097C01C7CF8FEF64
:10596000C816D10451F5012E000C220B330B322F37
:10597000212F102F00276701FF0CEE08FF08C02A17
:10598000D12AE22AF32A85EB95E00E941B064AE021
:10599000C701B601F7FE0BC08DE20E94760F6627A5
:1059A0007727CB016C197D098E099F094AE00E9477
:1059B00065170E94C70A0C94521FCC24CA94DC2C91
:1059C0007601E1CF6EE772E0C7010E9484398C0155
:1059D000892B09F007C366E771E090E080E00E9440
:1059E000CD327C01892B11F40C94521F80917303EA
:1059F0008111B9C020EEA22E24E0B22ED12CC12CF0
:105A00004501C6010E94221AD4018D934D01BFEFBA
:105A1000CB1ADB0AE4E0CE16D10499F781E892E0D4
:105A20000E94E3176091E0047091E1048091E20428
:105A30009091E30442E050E00E94C21890E080E0C0
:105A40000E94221A8F3F49F581E090E00E94221ABD
:105A50008F3F19F582E090E00E94221A8F3FE9F40F
:105A600083E090E00E94221A8F3FB9F480E090E832
:105A7000ABEBB4E48093E0049093E104A093E204E0
:105A8000B093E304D5016D915D01C8010E94A23578
:105A90000F5F1F4F04301105A9F784E090E00E94CA
:105AA000221A8093DC0485E090E00E94221A809301
:105AB000DD0486E090E00E94221A8093DE0487E0F5
:105AC00090E00E94221A8093DF0482E992E00E9413
:105AD000E3176091DC047091DD048091DE04909105
