:100000000C94A2030C94CA030C94CA030C94CA0364
:100010000C94CA030C94CA030C94CA030C94CA032C
:100020000C94CA030C94CA030C94CA030C94D50C08
:100030000C94CA030C94CA030C94CA030C94CA030C
:100040000C94250C0C94CA030C94950C0C946F0C16
:100050000C94CA030C94CA030C94CA030C94CA03EC
:100060000C94910D0C94CA03084AD73B3BCE016E09
:1000700084BCBFFDC12F3D6C74319ABD56833DDAFF
:100080003D00C77F11BED9E4BB4C3E916BAAAABE0E
:10009000000000803F004E414E494E495459494EA0
:1000A00046CDCCCC3D0AD7233C17B7D13877CC2BE3
:1000B000329595E6241FB14F0A000020410000C888
:1000C0004200401C4620BCBE4CCA1B0E5AAEC59D09
:1000D00074657272206F6C65645F6F6F6D0065721E
:1000E00072206D70755F6F6F6D00005EBCE2613FE6
:1000F000DD83C29C7E20A3FD1F41009D23BE46DB05
:1001000065F88C11AF32CA57E97452454144592001
:10011000626F6172643D756E6F2066773D312E327D
:10012000002C457869742050482043616C696272E4
:100130006174696F6E204D6F64653C3C3C003E3ECF
:100140003E43616C6962726174696F6E20466169D9
:100150006C6564003E3E3E43616C69627261746925
:100160006F6E205375636365737366756C003E3EF6
:100170003E42756666657220536F6C7574696F6E6A
:10018000204572726F722054727920416761696EE6
:100190003C3C3C002C53656E642045584954504803
:1001A00020746F205361766520616E642045786904
:1001B000743C3C3C003E3E3E427566666572205390
:1001C0006F6C7574696F6E3A342E30002C53656E07
:1001D000642045584954504820746F205361766517
:1001E00020616E6420457869743C3C3C003E3E3E94
:1001F00042756666657220536F6C7574696F6E3AEE
:10020000372E30003E3E3E506C6561736520707540
:1002100074207468652070726F626520696E746FF7
:100220002074686520342E30206F7220372E3020E5
:100230007374616E646172642062756666657220B3
:10024000736F6C7574696F6E3C3C3C003E3E3E457E
:100250006E7465722050482043616C6962726174EB
:10026000696F6E204D6F64653C3C3C003E3E3E43F2
:100270006F6D6D616E64204572726F723C3C3C0024
:10028000000000000000000000005F00000000000F
:100290000003000003000000147F147F140000001E
:1002A000242A7F2A12000000231308646200000041
:1002B00036495522500000000005030000000000F0
:1002C0001C2241000000000041221C000000000030
:1002D00014083E081400000008083E08080000004A
:1002E0000050300000000000080808080800000066
:1002F0000060600000000000201008040200000000
:100300003E5149453E00000000427F400000000091
:1003100042615149460000002141454B3100000037
:100320001814127F100000002745454539000000D1
:100330003C4A4949300000000171090503000000F2
:100340003649494936000000064949291E00000087
:1003500000363600000000000056360000000000A5
:1003600008142241000000001414141414000000AA
:10037000004122140800000002015109060000009B
:10038000324979413E0000007E1111117E000000CB
:100390007F494949360000003E41414122000000AA
:1003A0007F4141221C0000007F4949494100000073
:1003B0007F090901010000003E4141513200000067
:1003C0007F0808087F00000000417F410000000016
:1003D0002040413F010000007F081422410000003E
:1003E0007F404040400000007F0204027F00000088
:1003F0007F0408107F0000003E4141413E000000A4
:100400007F090909060000003E4151215E000000FD
:100410007F0919294600000046494949310000007A
:1004200001017F01010000003F4040403F0000000B
:100430001F2040201F0000007F2018207F000000A8
:100440006314081463000000030478040300000030
:100450006151494543000000007F41410000000018
:1004600002040810200000000041417F000000004D
:10047000040201020400000040404040400000002F
:1004800000010204000000002054545478000000D1
:100490007F484444380000003844444420000000B1
:1004A000384444487F000000385454541800000079
:1004B000087E0901020000000C5252523E0000006A
:1004C0007F0804047800000000447D400000000024
:1004D0002040443D000000007F1028440000000040
:1004E00000417F40000000007C04180478000000F8
:1004F0007C080404780000003844444438000000BC
:100500007C14141408000000081414187C00000067
:100510007C080404080000004854545420000000E3
:10052000043F4440200000003C4040207C0000008C
:100530001C2040201C0000003C4030403C000000DB
:1005400044281028440000000C5050503C0000008B
:100550004464544C44000000000836410000000090
:1005600000007F000000000000413608000000008D
:100570000201020402000000000000000000000070
:1005800065727220756E6B6E6F776E2000617220DF
:1005900000647220004F4B004F4B004F4B004F4BFD
:1005A0000063616C72617720004F4B0070687620A9
:1005B00000706820004F4B004F4B006878726561F7
:1005C00064792000776569676874200077656967DA
:1005D0006874202D31006A6F7920006779726F206E
:1005E00000616363656C200064735F006468745F1E
:1005F0006820006468745F742000766F6C746167B3
:1006000065200063757272656E7420007475726285
:1006100069646974792000646973742000312E3232
:10062000007665722000706F6E6700434150532062
:100630007267622C6C617365722C62757A7A65726E
:100640002C736572766F2C736572766F75732C766A
:100650006962726174652C66616E2C6E656F2C66C2
:100660006E642C6C63642C6F6C65642C6468742CF1
:10067000776174657274656D702C646973742C7421
:1006800075726269646974792C63757272656E74CF
:100690002C766F6C746167652C63616C2C70682CB0
:1006A00068783731312C6A6F792C6C696768742CE3
:1006B0006B6E6F622C6D69632C616363656C2C6774
:1006C00079726F2C64772C64722C61722C617700C4
:1006D000524541445920626F6172643D756E6F20CE
:1006E00066773D312E320000000000240027002AEA
:1006F0000000000000250028002B0000000000235F
:100700000026002900040404040404040402020274
:100710000202020303030303030102040810204042
:1007200080010204081020010204081020000000CB
:1007300008000201000003040700000000000000A0
:1007400000002E1F11241FBECFEFD8E0DEBFCDBFAB
:1007500012E0A0E0B1E0E2ECF6E702C005900D92F5
:10076000A23FB107D9F725E0A2EFB2E001C01D9288
:10077000A032B207E1F713E0C2EAD3E004C0219748
:10078000FE010E94F039C13AD107C9F70E94D61F75
:100790000C945F3B0C940000E0911305EC3088F55D
:1007A00040911405509115052DE730E0241B350BC1
:1007B000220F331F220F331F8217930784F04091BB
:1007C00016055091170522EE34E0241B350B220F3D
:1007D000331F220F331F821793070CF49C01225002
:1007E0003109220F331F4FB7F8948E2F90E0FC0190
:1007F000EE0FFF1FE80FF91FE153FB4F32832183F8
:100800004FBF0895833081F028F4813099F0823011
:10081000A9F008958730A9F08830C9F08430B1F488
:10082000809180008F7D03C0809180008F778093BE
:100830008000089584B58F7784BD089584B58F7D39
:10084000FBCF8091B0008F778093B00008958091A6
:10085000B0008F7DF9CF1F93CF93DF93282F30E027
:10086000F901E35DF84F8491F901E75EF84FD49107
:10087000F901EB5FF84FC491CC23A9F0162F811139
:100880000E940204EC2FF0E0EE0FFF1FEF50F94F33
:10089000A591B4918FB7F894EC91111108C0D0953F
:1008A000DE23DC938FBFDF91CF911F910895DE2B64
:1008B000F8CFCF93DF9390E0FC01E75EF84F2491EF
:1008C0008B5F984FFC0184918823C9F090E0880FDA
:1008D000991FFC01E951F94FA591B491FC01EF502A
:1008E000F94FC591D49161110DC09FB7F8948C91C7
:1008F000209582238C938881282328839FBFDF91B2
:10090000CF910895623051F49FB7F8943C91822FB3
:10091000809583238C93E8812E2BEFCF8FB7F894AB
:10092000EC912E2B2C938FBFEACF1F93CF93DF93A5
:10093000182FEB0161E00E945904209739F460E020
:10094000812FDF91CF911F910C942B04CF3FD105C4
:1009500011F461E0F5CFE12FF0E0E35DF84FE491B1
:10096000E33031F140F4E130B1F0E230E1F0C03891
:10097000D1057CF7E4CFE73029F1E83059F1E430D4
:10098000B1F780918000806280938000D0938B00CB
:10099000C0938A0004C084B5806884BDC7BDDF9160
:1009A000CF911F91089584B5806284BDC8BDF7CFF3
:1009B00080918000806880938000D0938900C093EC
:1009C0008800EDCF8091B00080688093B000C09324
:1009D000B300E5CF8091B00080628093B000C093F7
:1009E000B400DDCF3FB7F8948091020490910304E6
:1009F000A0910404B091050426B5A89B05C02F3F23
:100A000019F00196A11DB11D3FBFBA2FA92F982F34
:100A10008827BC01CD01620F711D811D911D42E02F
:100A2000660F771F881F991F4A95D1F708952FB732
:100A3000F8946091FE037091FF03809100049091FF
:100A400001042FBF089508950895AF92BF92CF92E9
:100A5000DF92EF92FF920F931F93CF93DF936C017E
:100A60007B018B01040F151FEB015E01AE18BF085F
:100A7000C017D10759F06991D601ED91FC91019011
:100A8000F081E02DC6010995892B79F7C501DF9129
:100A9000CF911F910F91FF90EF90DF90CF90BF907B
:100AA000AF900895FC01538D448D252F30E0842FA5
:100AB00090E0821B930B541710F04F960895019706
:100AC0000895FC01918D828D981779F0A28DAE0F5B
:100AD000BF2FB11D5D962C91828D8F5F60E30E94C8
:100AE000BC39928F822F90E008958FEF9FEF089589
:100AF000FC01918D828D981731F0828DE80FF11DE8
:100B0000858D90E008958FEF9FEF0895FC01918D02
:100B1000228D892F90E0C096821B910960E370E0DE
:100B20000E94C839089586E594E00E94860521E078
:100B3000892B09F420E0822F089580E090E0892B32
:100B400029F00E94930581110C9400000895FC0186
:100B5000A48DA80FB92FB11DA35BBF4F2C91848D1D
:100B600090E001968F719927848FA689B7892C937D
:100B7000A089B1898C91837080648C93938D848DCE
:100B8000981306C00288F389E02D80818F7D8083D1
:100B90000895EF92FF920F931F93CF93DF93EC0191
:100BA00081E0888F9B8D8C8D98131AC0E889F98914
:100BB000808185FF15C09FB7F894EE89FF89608317
:100BC000E889F98980818370806480839FBF81E098
:100BD00090E0DF91CF911F910F91FF90EF900895DA
:100BE000F62E0B8D10E00F5F1F4F0F711127E02EB7
:100BF0008C8D8E110CC00FB607FCFACFE889F989ED
:100C0000808185FFF5CFCE010E94A705F1CFEB8D46
:100C1000EC0FFD2FF11DE35BFF4FF0829FB7F894BF
:100C20000B8FEA89FB8980818062CFCF0F931F935E
:100C3000CF93DF938C01D0E0C0E0F801EC0FFD1FF3
:100C40006491662341F086E594E00E94C905892BF2
:100C500011F02196F2CFCE01DF91CF911F910F912C
:100C60000895CF93DF93EC01888D8823B9F0AA898A
:100C7000BB89E889F9898C9185FD03C0808186FD57
:100C80000DC00FB607FCF7CF8C9185FFF2CF8081A6
:100C900085FFEDCFCE010E94A705E9CFDF91CF916F
:100CA000089508950895FF920F931F93CF93DF93B4
:100CB000EC01FF24F394F60E28852F1581F10985A8
:100CC0001A85215041F16F3FE1F430E050E040E0FF
:100CD0006FEF7FEF80E090E00E948037B901F8016C
:100CE0004C815D81CF01801B910B84179507B0F477
:100CF0004081469FC001479F900D112490833196FB
:100D0000EFCF8F2D90E0982F88270197622F70E00A
:100D10000E94C839E4CF70E060E0E1CFF886DF914F
:100D2000CF911F910F91FF9008958F929F92AF9254
:100D3000BF92CF92DF92EF92FF92CF93DF93FC01AD
:100D40008281938168177907D8F54A01AA24BB24C8
:100D5000C32ED42EE52EFF24DC2DC22F8085982DA6
:100D6000882391F0C82FD0E0C89DD001C99DB00D57
:100D7000D89DB00D11249B2F8C9D60011124DD2D79
:100D8000829F90011124C32FA685218532858385FA
:100D9000A81321C0AB01440F551F640F751F620FCC
:100DA000731FA385A60FB72FB11D9C93A485A60F13
:100DB000B72FB11DDC938585680F711DFB01C083C2
:100DC000DF91CF91FF90EF90DF90CF90BF90AF90E9
:100DD0009F908F900895660F771F660F771F620FA1
:100DE000731FA60FB72FB11D1C92DBCFCF92DF92DE
:100DF000EF92FF920F931F93CF93DF93CDB7DEB7A0
:100E000029970FB6F894DEBF0FBECDBF8C01DC0171
:100E100019968D919C91892B09F473C00E94F2045C
:100E2000F801C784D088E188F2886C157D058E05AD
:100E30009F0520F46787708B818B928BF801C784A4
:100E4000D088E188F2886C197D098E099F096C327F
:100E500071408105910510F3F894D80114968D9195
:100E60009C9115979A8389831996ED91FC917F0146
:100E7000BFEFEB1AFB0A80818987F8019081038814
:100E8000F489E02DD80155968C91992309F448C036
:100E90009081982B98879081809589238F838F816B
:100EA0008C8388E08B8358856F8149853B812C81B9
:100EB00089819A81D701508347FD252F3A95208358
:100EC000262F39F0441F00C000006083000000C0DE
:100ED000F2CF38E04D9160830000019761F7D801AF
:100EE0005496FC93EE93539749873B832C839A83C4
:100EF000898378940E94F204F8016787708B818B54
:100F0000928B29960FB6F894DEBF0FBECDBFDF914E
:100F1000CF911F910F91FF90EF90DF90CF900895A8
:100F20009081982B98879081809589238F838F81DA
:100F30008E8388E08D8358856F8149853D812E8120
:100F400089819A81D701508347FD252F00C000C0B9
:100F5000208300C000C000C000C000C0608300004B
:100F6000262F3A9541F0441F000000C000C000C089
:100F700000C000C0E8CF38E04D9100C0608300C0E1
:100F8000019709F7D8015496FC93EE93539749873C
:100F90003D832E83ACCF20911603260F3327331FBA
:100FA00021323105ECF420912C04FC0190E080E02A
:100FB000243069F082E00895A09116032191AC01DC
:100FC0004A505D4FA40FB52FB11D2C930196861783
:100FD00098F380911603680F6093160380E00895DC
:100FE00081E0089510922C0481E080932B041092EC
:100FF000060461E082E10E942B0461E083E10E942B
:101000002B04E9EBF0E080818E7F808380818D7FEF
:10101000808388E48093B80085E48093BC000895C1
:10102000CF93DF9391E09093F5028823B9F0C091BC
:10103000B800D091BA008091BC008A7B8093BC003C
:1010400060E082E10E942B0460E083E10E942B04B7
:101050000E94F207D093BA00C093B800DF91CF91FD
:1010600008958F929F92AF92BF92CF92DF92EF92AC
:10107000FF920F931F93CF93DF93D0915504D132FA
:1010800008F0D7C0182FC09154040E94F2046B01DD
:101090007C0180912C0481116BC082E080932C0430
:1010A00010932B048FEF80932A0410922904D0937D
:1010B0002804A4E3B4E0E8E0F4E080E0D81391C0B1
:1010C0001092070480910704CC0FC82BC09307042B
:1010D00080910604813009F088C0109206040E94B5
:1010E000F2046B017C01809107048093BB00809126
:1010F0002E0490912F04A0913004B0913104892BDB
:101100008A2B8B2BA1F00E94F20400912E041091E7
:101110002F0420913004309131046C197D098E091F
:101120009F09061717072807390708F442C080915E
:10113000BC0083FDD8CF85EC8093BC000E94F204F4
:101140006B017C0180912C04823009F450C08091A5
:101150002A048F3F09F46FC080912A04803209F479
:101160006CC080912A04803309F469C084E026C0F1
:1011700080912E0490912F04A0913004B0913104FD
:10118000892B8A2B8B2B09F484CF0E94F204809048
:101190002E0490902F04A0903004B09031046C196C
:1011A0007D098E099F0986169706A806B90608F0DC
:1011B00070CF80912D040E94100885E010923304B6
:1011C0001092550410923204DF91CF911F910F912C
:1011D000FF90EF90DF90CF90BF90AF909F908F9057
:1011E00008959D9191938F5F69CF85EEA5CF8091F2
:1011F0002E0490912F04A0913004B0913104892BDA
:101200008A2B8B2B09F49ECF0E94F20400912E04AE
:1012100010912F0420913004309131046C197D0914
:101220008E099F09061717072807390708F08ACF84
:10123000C0CF81E0C3CF80E0C1CF82E0BFCF83E0E9
:10124000BDCF0895E0915F0380915E03E81730F40D
:10125000F0E0E65CFC4F808190E008958FEF9FEF17
:10126000089590915F0380915E032FEF3FEF9817F1
:1012700048F4E92FF0E0E65CFC4F208130E09F5F0E
:1012800090935F03C901089580915E0390915F037D
:10129000891B990B0895CF92DF92EF92FF920F93E3
:1012A0001F93CF93DF937C01CB018A0120913204FD
:1012B000222389F0EB016B01C40ED51ECC15DD0590
:1012C00069F06991D701ED91FC910190F081E02DD9
:1012D000C7010995F3CF642F0E94CB07C801DF91A6
:1012E000CF911F910F91FF90EF90DF90CF900895D5
:1012F000CF93DF931F92CDB7DEB76983209132047D
:101300002223F9F020915504203258F021E030E0FA
:10131000FC013383228390E080E00F90DF91CF9136
:10132000089580913304E82FF0E0EC5CFB4F998145
:1013300090838F5F809333048093550481E090E025
:10134000ECCF61E0CE0101960E94CB07F7CF81E0A0
:101350000C94310890E080E00895CF92DF92EF92F4
:10136000FF921F93CF93DF93EC0120910601309100
:1013700007012817390729F48091F202861709F42A
:1013800097C09091130537FD0CC0292F30E0F9016B
:10139000EE0FFF1FE20FF31FE153FB4F80818F7BA6
:1013A0008083E4ECEE2EE9E0FE2EF4EFCF2EDD2478
:1013B000D394611108C050E6E52E59E0F52E70E295
:1013C000C72E72E0D72E162F9C3008F06BC061E05C
:1013D0008C2F0E94590480911305282F30E0F901C9
:1013E000EE0FFF1FE20FF31FE153FB4F9081907C44
:1013F0002C2F2F73922B908324EF31E02C193D0971
:1014000037FF02C02D5F3F4F3595279535952795BE
:10141000309315052093140528E833E12E193F0970
:101420003595279535952795309317052093160503
:101430002CE0622F0E94BC39829FB001112430E061
:1014400020E0AB01420F531FFA01EE0FFF1FE40F24
:10145000F51FE153FB4F908196FD16C02F5F3F4F64
:101460002C30310571F781110FC01092800082E09D
:10147000809381001092850010928400B19A80912F
:101480006F00826080936F00E09113058E2F90E0D3
:10149000FC01EE0FFF1FE80FF91FE153FB4F8081A6
:1014A00080648083D0930701C09306011093F202F9
:1014B000DF91CF911F91FF90EF90DF90CF90089533
:1014C000DC01ED91FC910190F081E02D0994FC018B
:1014D000248131E030933204209354041092330479
:1014E000109255048385682B70E083EC94E00E9491
:1014F000600A83EC94E00C94A7090F931F93CF9399
:101500008C01C62F0E94670A6C2F6460C8010E947C
:10151000670A6C2F6B7FC8010E94670A83EC90E01A
:101520000197F1F7CF911F910F9108950F931F939A
:10153000CF93DF938C01D62FC42F607F642B0E9442
:101540007D0A80E1D89FB00111246C2BC801DF9186
:10155000CF911F910F910C947D0A41E00E94960A51
:1015600081E090E00895FC0101900020E9F73197B7
:10157000AF01481B590BBC0186E594E00C9425058E
:1015800087E791E00C94B30ACF93DF930E9416068D
:10159000EC010E94C00A8C0F9D1FDF91CF9108952E
:1015A000CF93DF9366E871E090E080E00E946B34B7
:1015B000EC010097A9F067EF71E00E94223B892BB4
:1015C000A1F062E872E0CE010E94223B892B69F013
:1015D00068E871E0CE010E94223B21E0892B09F0EE
:1015E00020E0822FDF91CF91089521E0FACF66E8C5
:1015F00071E090E080E00E946B34009711F00C9451
:10160000443490E080E008950C94923ACF92DF92B7
:10161000EF92FF920F931F93CF93DF937C0161159D
:10162000710549F46091BE037091BF0300E110E0C1
:101630006115710531F08B016F31710510F00EE10C
:1016400010E0C091BC03D091BD03209709F18091B7
:10165000190190911A018E159F0541F48091BE03E6
:101660009091BF038017910709F481C089859A85FD
:101670000E94923A8E819F8197FD03C060E00E9494
:101680005904CE010E94923A1092BD031092BC03FD
:1016900086E190E00E94F639EC01198218861F86D7
:1016A000188A198A1A8A81E08E878B871C8692E0B5
:1016B0009D8788836801CC0CDD1CC00ED11EDD82A5
:1016C000CC82C6010E94F6399A878987009709F46F
:1016D00057C0A60170E060E00E941B3B1B830A8399
:1016E000FF82EE828981882341F061E08E2D0E9485
:1016F000590460E08E2D0E942B04F701EB5FF84F38
:10170000E491F0E0EE0FFF1FEF50F94F85919491B7
:101710009C8B8B8BF701E75EF84FE491ED8BD093B8
:10172000BD03C093BC038E819F8197FD2EC061E0F5
:101730000E94590460E08E810E942B0481E089831D
:1017400060E5CE010E9453064C815D8170E060E04F
:1017500089859A850E941B3BCE010E94F606F09275
:101760001A01E09219011093BF030093BE03DF91A9
:10177000CF911F910F91FF90EF90DF90CF90089540
:101780001D821C821B821A82ABCF1982D9CF0F9384
:101790001F93CF93DF9384E690E00E943837823C1A
:1017A00069F01092690310927A0310928B031092E1
:1017B0009C03DF91CF911F910F91089509E613E0EB
:1017C000C5E6D0E0CE010E943837F80181938F0141
:1017D0002196C93AD105B1F7ECCF85ED8093BC00D5
:1017E00080912E0490912F04A0913004B091310487
:1017F0000796A11DB11D23E0B695A79597958795EE
:101800002A95D1F72091BC0024FD03C010922C042E
:10181000089540912E0450912F04609130047091EE
:101820003104452B462B472B69F30097A105B105E1
:1018300041F02AE22A95F1F700C00197A109B10908
:10184000E1CF80912D040C9410081F920F920FB6D7
:101850000F9211242F933F938F939F93AF93BF9336
:101860008091FE039091FF03A0910004B0910104C8
:101870003091FD0323E0230F2D3758F50196A11D6C
:10188000B11D2093FD038093FE039093FF03A0936B
:101890000004B09301048091020490910304A0918C
:1018A0000404B09105040196A11DB11D80930204AA
:1018B00090930304A0930404B0930504BF91AF91E7
:1018C0009F918F913F912F910F900FBE0F901F907E
:1018D000189526E8230F0296A11DB11DD2CF1F92A5
:1018E0000F920FB60F9211242F933F934F935F9354
:1018F0006F937F938F939F93AF93BF93EF93FF93D8
:1019000086E594E00E94A705FF91EF91BF91AF910A
:101910009F918F917F916F915F914F913F912F9107
:101920000F900FBE0F901F9018951F920F920FB639
:101930000F9211242F935F936F937F938F939F93B5
:10194000AF93BF93EF93FF93E0916604F091670428
:101950008081E0916C04F0916D0482FD24C02081AF
:1019600080916F0490E0019660E370E00E94C839B6
:1019700090917004981741F0E0916F04F0E0EA5AFA
:10198000FB4F258F80936F04FF91EF91BF91AF9133
:101990009F918F917F916F915F912F910F900FBECB
:1019A0000F901F9018958081EFCF1F920F920FB666
:1019B0000F9211242F933F934F935F936F937F93D5
:1019C0008F939F93AF93BF93CF93DF93EF93FF9347
:1019D00080913903C091F304D0E087FF24C01092B6
:1019E000850010928400809139038F5F80933903C2
:1019F00080913903082E000C990B8C179D0724F455
:101A0000809139038C30C4F18091840090918500DD
:101A1000049680349C4908F47AC0809184009091A7
:101A20008500049676C080913903082E000C990B2E
:101A30008C179D07C4F6E09139038E2FEE0F990B9A
:101A4000FC01EE0FFF1FE80FF91FE153FB4F8081F0
:101A500086FFC9CFE09139038E2FEE0F990BFC0161
:101A6000EE0FFF1FE80FF91FE153FB4F808160E08D
:101A70008F730E942B04B7CF209184003091850092
:101A8000E09139038E2FEE0F990BFC01EE0FFF1F33
:101A9000E80FF91FE153FB4F81819281820F931F61
:101AA0009093890080938800E09139038E2FEE0F88
:101AB000990BFC01EE0FFF1FE80FF91FE153FB4FDD
:101AC000808186FF11C0E09139038E2FEE0F990BB4
:101AD000FC01EE0FFF1FE80FF91FE153FB4F808160
:101AE00061E08F730E942B04FF91EF91DF91CF9102
:101AF000BF91AF919F918F917F916F915F914F9126
:101B00003F912F910F900FBE0F901F90189580E47A
:101B10009CE990938900809388008FEF809339032C
:101B2000E3CF1F920F920FB60F9211242F933F9382
:101B30004F935F936F937F938F939F93AF93BF93D5
:101B4000EF93FF938091B900887F803609F44AC0F3
:101B5000F0F5883209F4A7C018F5803109F49BC06C
:101B6000B8F4882309F4F9C0883009F494C0FF91CF
:101B7000EF91BF91AF919F918F917F916F915F9105
:101B80004F913F912F910F900FBE0F901F9018957E
:101B9000883109F488C0803251F780932A0414C038
:101BA000803409F49DC040F48033B9F38833F9F6EA
:101BB00080932A0485ECB0C0803509F485C088354F
:101BC00009F496C0883499F60E94ED0BD0CF88397D
:101BD00009F48CC038F5883729F050F4883611F0B4
:101BE000803729F683E080932C041092380357C085
:101BF000883809F47BC0803919F0803809F0B7CFF4
:101C000080913803803208F071C0E091380381E0A0
:101C10008E0F809338038091BB00F0E0E85EFC4FAC
:101C200080833DC0803B39F0E0F4803A09F479C00C
:101C3000883A09F09CCF84E080932C04109217031B
:101C400010921603E0915A03F0915B03099580917D
:101C5000160381110FC081E0809316031092F602E3
:101C600009C0803C09F4A6CF883C09F4A3CF883B87
:101C700009F07DCFE091170381E08E0F8093170369
:101C8000F0E0EA50FD4F80818093BB0090911703F4
:101C90008091160329C0809107048093BB0085ECD6
:101CA0008093BC0064CF90912904809128049817F8
:101CB00058F5E091290481E08E0F80932904F0E02B
:101CC000E85FFB4F8081E9CFE091290481E08E0F2E
:101CD000809329048091BB00F0E0E85FFB4F808394
:101CE00090912904809128049817C8F285E8D8CFEC
:101CF000E091290481E08E0F809329048091BB003C
:101D0000F0E0E85FFB4F808380912B0481115CCF72
:101D100081E08093060484EA8093BC0010922C0436
:101D200026CF85EC8093BC0010922C048091380360
:101D3000803230F4E0913803F0E0E85EFC4F10822E
:101D40006091380370E0E0915C03F0915D0388E1FD
:101D500093E00995109238030ACF10922A0434CFE9
:101D6000CF92DF92EF92FF920F931F93E82FF92FFC
:101D700005C0015011092109310961F190819623B3
:101D80009417B9F305C0015011092109310911F166
:101D9000908196239413F7CFC12CD12CE12CF12CF8
:101DA0000AC08FEFC81AD80AE80AF80A0C151D05F0
:101DB0002E053F0579F080818623841791F36C2DE1
:101DC0007D2D8E2D9F2D1F910F91FF90EF90DF9015
:101DD000CF90089560E070E080E090E01F910F9157
:101DE000FF90EF90DF90CF9008958230910538F00A
:101DF000880F991F880F991F05970197F1F708958C
:101E0000CF93DF93282F30E0F901E35DF84F849101
:101E1000F901E75EF84FD491F901EB5FF84FC491F7
:101E2000CC23A1F081110E940204EC2FF0E0EE0F10
:101E3000FF1FE550F94FA591B491EC91ED2381E09E
:101E400090E009F480E0DF91CF91089580E090E088
:101E5000FACF8E3008F08E508770806480937C00BB
:101E600080917A00806480937A0080917A0086FD68
:101E7000FCCF809178009091790008958F929F9285
:101E8000AF92BF92CF92DF92EF92FF926B017C01F3
:101E90000E94F2044B015C01C114D104E104F1047D
:101EA000B9F00E94F204681979098A099B09683E11
:101EB00073408105910580F321E0C21AD108E10841
:101EC000F10888EE880E83E0981EA11CB11CE4CFB7
:101ED000FF90EF90DF90CF90BF90AF909F908F904A
:101EE0000895682F86E594E00C94C905DC0180E034
:101EF000615090F09D919827E92FEF70F0E0E65146
:101F0000FF4F2491E92FE295EF70F0E0E650FF4F8C
:101F1000E491822F8E27ECCF0895DC012C9111964D
:101F2000ED91FC91F8948181822B81839281322FF3
:101F300030959323928387E090E00197F1F78181B8
:101F40008323818383E290E00197F1F79081789475
:101F5000EFECF0E03197F1F7922381E009F480E0B3
:101F60000895FC0190810180F281E02D292F2095B8
:101F700060FF14C0F8948281822382838181892B3F
:101F80008183A3E2B0E01197F1F78281982B9283CD
:101F9000789487ED90E00197F1F70895F8948281A5
:101FA000822382838181892B8183AFEFB0E01197F7
:101FB000F1F78281982B928378948FE090E0EBCFB9
:101FC000DF92EF92FF920F931F93CF93DF93EC0179
:101FD000D62EE42E08E010E0FF24F39461E08D2D6E
:101FE0008F2109F460E0CE010E94B10FFF0C015077
:101FF0001109A1F7E11010C0F894E981FA819181EB
:102000008881809589238183E981FA819281888101
:102010008095892382837894DF91CF911F910F91CE
:10202000FF90EF90DF900895EF92FF920F931F9330
:10203000CF93DF938C017B0140E065E50E94E00FC8
:10204000E70188E0E80EF11C699140E0C8010E94B8
:10205000E00FCE15DF05C1F7DF91CF911F910F91F2
:10206000FF90EF900895FC0190810180F281E02DB6
:10207000F8948181292F20958223818378943DE7EC
:1020800043E050E0315029F1DA011197F1F78081F6
:102090008923C1F3F8948281822382838181892BF1
:1020A00081837894ABE7B7E01197F1F7F8948181D9
:1020B00082238183A3E1B1E01197F1F78081982316
:1020C00081E009F080E07894E3E6F6E03197F1F7FB
:1020D000089580E008958F929F92AF92BF92CF9221
:1020E000DF92EF92FF920F931F93CF93DF938C01B8
:1020F0007A01FC01868197810E94141040E06EEB0A
:10210000F801868197810E94E00FE7015701F9E00D
:10211000AF0EB11CF8018680978088E0C82ED12CC4
:10212000F12CEE24E394C4010E948D0F8111FE284E
:10213000EE0CF1E0CF1AD108B1F7F992AC16BD065A
:1021400049F7F801868197810E94331091E0813030
:1021500009F090E0892FDF91CF911F910F91FF90AF
:10216000EF90DF90CF90BF90AF909F908F900895A9
:10217000EF92FF920F931F93CF93DF93CDB7DEB70C
:1021800029970FB6F894DEBF0FBECDBF8C017B013F
:10219000FC01868197810E943310811102C080E08A
:1021A00020C0AE014F5F5F4FB701C8010E946B10A6
:1021B0008823A9F368E0CE0101960E94760F9985E5
:1021C0008913EDCF8D818F33C9F020F48F3139F72A
:1021D00089E007C08F3521F08F3709F78CE001C007
:1021E0008BE029960FB6F894DEBF0FBECDBFDF910E
:1021F000CF911F910F91FF90EF9008958AE0F1CF5A
:102200008F929F92AF92BF92CF92DF92EF92FF9206
:10221000CF93DC011796CC91179750E061115C2F9A
:1022200018962C91189730E0220F331F2550394F04
:1022300060E070E0CB01F901E590F490F701408196
:102240004C23451315C04B015C01FFEF8F1A9F0A09
:10225000AF0ABF0A1D96CD90DD90ED90FC9050978F
:102260006C157D058E059F0568F060E070E0CB0180
:10227000CF91FF90EF90DF90CF90BF90AF909F9065
:102280008F900895C501B401D6CF8F929F92AF92DF
:10229000BF92CF92DF92EF92FF920F931F93CF9353
:1022A000DF93CDB7DEB7C054D1400FB6F894DEBF90
:1022B0000FBECDBF8C010E941705F801C184D284E6
:1022C000E384F4849B01AC012C193D094E095F099C
:1022D00069017A0130EDC31637E0D306E104F10459
:1022E000A8F48189C05CDE4F0FB6F894DEBF0FBE44
:1022F000CDBFDF91CF911F910F91FF90EF90DF90B5
:10230000CF90BF90AF909F908F9008956187728714
:10231000838794871482138212821182108261E073
:1023200085810E942B046AEF70E080E090E00E94BB
:102330003E0F61E0F80185810E94590460E0F801D8
:1023400085810E942B0464E170E080E090E00E94AF
:102350003E0FF89461E0F80185810E942B048BE91F
:1023600090E00197F1F762E0F80185810E9459043D
:1023700083E290E00197F1F760E0C8010E9400114C
:10238000672B682B692B29F4F801118A789480E077
:10239000A9CF61E0C8010E940011672B682B692B4F
:1023A00099F39E012F5F3F4F79015E013FEBA31A26
:1023B0003EEFB30A670160E0C8010E940011F60118
:1023C000608371838283938361E0C8010E9400115E
:1023D000F6016483758386839783F8E0CF0ED11C62
:1023E000CA14DB0441F7789430E020E0F7018080E4
:1023F0009180A280B3804481558166817781811468
:102400009104A104B10429F041155105610571053C
:1024100019F4F801118ABBCFF90183E0F595E7952E
:102420008A95E1F7E00FF11F8081880F84169506E9
:10243000A606B706F0F080832F5F3F4FF8E0EF0E5F
:10244000F11C2832310591F6F80144812081818107
:10245000280F3327331F8281280F311D8381820F7C
:10246000932F911D99274817190699F681E0818BC2
:1024700039CF8160E0CFFC01838194810C94F50E0B
:10248000EF92FF920F931F93CF93DF93EC01062FF0
:1024900018E061E088810E945904CE010E943B123D
:1024A000E02EF12C60E000FF61E089810E94590478
:1024B000CE010E943B1260E088810E945904CE0147
:1024C0000E943B12F594E7940E2D115011F761E034
:1024D00088810E94590460E089810E945904CE01DC
:1024E0000E943B1260E088810E945904CE010E9444
:1024F0003B1289810E94000F182F811104C061E0F6
:1025000089810E945904CE010E943B1261E08881BA
:102510000E945904CE010E943B1281E0111101C0BA
:1025200080E0DF91CF911F910F91FF90EF90089580
:10253000CF93DF93EC0161E089810E945904CE01C1
:102540000E943B1260E088810E945904CE010E94E3
:102550003B1260E089810E945904CE01DF91CF9146
:102560000C943B12CF93DF93EC0161E089810E94D0
:102570005904CE01DF91CF910C943B12EF92FF9260
:102580000F931F93CF93DF93EC017B010E94B21254
:1025900060E4CE010E944012CE010E949812CE014A
:1025A0000E94B21260ECCE010E944012870184E0CA
:1025B000E80EF11CF80161918F01CE010E944012DA
:1025C0000E151F05B9F7CE010E949812CE010E9488
:1025D000B2126A816F706058CE010E944012CE0123
:1025E000DF91CF911F910F91FF90EF900C94981273
:1025F0007F928F929F92AF92BF92CF92DF92EF9293
:10260000FF920F931F93CF93DF9300D000D0CDB7ED
:10261000DEB75C01FA0130E067FF02C0619531E08E
:102620003097E9F419821A821B828FE38C83BE01F2
:102630006F5F7F4FC5010E94BE120F900F900F90E9
:102640000F90DF91CF911F910F91FF90EF90DF904E
:10265000CF90BF90AF909F908F907F900895CE01C4
:1026600001966C014E0193E0891A91088601E62ECD
:10267000660FFF0880E4782ECF01B7010E94C839A9
:10268000AC01982F81110BC0309749F4D8011396F3
:102690001C92332379F0F801738230E00BC04D5B5C
:1026A0005E4FDA018C91D80113968C93911102C080
:1026B000EF2B79F3FB010150110980169106E1F629
:1026C000222309F4B4CF41E050E04C0F5D1F4C5F72
:1026D0005F4FD6019D916D01FD013197822F80786A
:1026E000892B8083220FA417B50799F7A0CF1F93DA
:1026F000CF93DF93EC01142F8881998121E02093FF
:10270000320428E6209354041092330410925504A6
:10271000DC01ED91FC910190F081E02D099588811B
:102720009981DC01ED91FC910190F081E02D612F08
:10273000099588819981DF91CF911F910C94A70908
:102740004F925F926F927F928F929F92AF92BF92C1
:10275000CF92DF92EF92FF92CF93DF93CDB7DEB7A8
:102760002A970FB6F894DEBF0FBECDBF4D835E83B0
:102770006F83788721E1289FA001299F500D1124A4
:1027800047595C4F5A874987DA0119968D919D9177
:102790000D90BC91A02D89839A83AB83BC83FA01F1
:1027A00081809280A380B480C580D680E780F08449
:1027B000A5019401BC01CD010E9414368823A1F12A
:1027C000A7019601A985BA851D966D917D918D9180
:1027D0009C9150970E94F8372B013C01A501940170
:1027E0006D817E818F8198850E94F8379B01AC01B5
:1027F000C301B2010E947A362B013C01A50194016C
:1028000069817A818B819C810E94F8379B01AC01A0
:10281000C301B2010E94D7389B01AC01C701B601C8
:102820000E94F9376B017C01C701B6012A960FB6E9
:10283000F894DEBF0FBECDBFDF91CF91FF90EF9038
:10284000DF90CF90BF90AF909F908F907F906F90D0
:102850005F904F900895E091B603F091B7033097E1
:1028600011F180389105F8F460347105E0F4DB0172
:10287000A770BB2721E030E001C0220FAA95EAF73C
:1028800033E0759567953A95E1F77695762F66274B
:1028900077956795860F971FE80FF91F808144236E
:1028A00019F0282B2083089520952823FBCF2F9201
:1028B0003F924F925F926F927F928F929F92AF92D0
:1028C000BF92CF92DF92EF92FF920F931F93CF931D
:1028D000DF9300D000D0CDB7DEB77C017C836B8363
:1028E0004A0139018091B6039091B703892B09F40D
:1028F00055C08A010E191F0917FF03C011950195D4
:10290000110944244A94542CE814F9041CF4442476
:102910004394512C63012B813C81C21AD30AD7FE08
:1029200003C0D194C194D108882799278C199D0997
:102930009A8389832B813C8122242A94322C261568
:1029400037051CF422242394312C5801AC18BD08FF
:1029500041E06B817C81C7010E942B14E814F904CB
:1029600029F48B819C8186159705C1F0C501880FDC
:10297000991F29813A81821793073CF0AC18BD0852
:10298000E40CF51C081719071CF3A00EB11E8B816F
:102990009C81820D931D9C838B83DACF0F900F90C7
:1029A0000F900F90DF91CF911F910F91FF90EF90BB
:1029B000DF90CF90BF90AF909F908F907F906F905F
:1029C0005F904F903F902F900895CF93C82F8091A4
:1029D0000E0191E0909332048093540410923304DA
:1029E0001092550470E060E083EC94E00E94600A6D
:1029F0006C2F83EC94E00E94780983EC94E0CF91F3
:102A00000C94A7090F931F93CF93DF93811101C0FB
:102A10008CE380930E0162E370E080E090E00E941E
:102A20003E0F8EEA0E94E51485ED0E94E51480E8D1
:102A30000E94E51488EA0E94E5148FE30E94E514E1
:102A400083ED0E94E51480E00E94E51480E40E947A
:102A5000E5148DE80E94E51484E10E94E51481EA02
:102A60000E94E51488EC0E94E5148AED0E94E514AA
:102A700082E10E94E51481E80E94E5148FE70E943C
:102A8000E51489ED0E94E51481EF0E94E5148BEDB9
:102A90000E94E51480E40E94E51484EA0E94E51493
:102AA00086EA0E94E5148EE20E94E51481E080939C
:102AB0006803C0E001E08C2F806B0E94E51482E087
:102AC0000E94E51480E10E94E514D0E080910E019F
:102AD00000933204809354041092330410925504EE
:102AE00060E470E083EC94E00E94600A10E160E032
:102AF00083EC94E00E9478091150C9F783EC94E0CC
:102B00000E94A709D05FD03809F7CF5FC83099F687
:102B10008FEADF91CF911F910F910C94E514CF9222
:102B2000DF92EF92FF920F931F93CF93DF938091E9
:102B3000B6039091B703892B09F44DC080916803C7
:102B4000811104C080910E010E940215D0E0C0E006
:102B5000D12CCC24C3948D2D806B0E94E51482E08F
:102B60000E94E51480E10E94E5148E0100581F4F79
:102B7000C017D10761F180910E01C0923204809399
:102B80005404109233041092550460E470E083EC16
:102B900094E00E94600AF12CE12CE091B603F091E0
:102BA000B703EE0DFF1DEC0FFD1F608183EC94E079
:102BB0000E9478098FEFE81AF80A80E1E816F1041C
:102BC00061F783EC94E00E94A7096096D1CFD3947B
:102BD00088E0D812C0CFDF91CF911F910F91FF9065
:102BE000EF90DF90CF900895FF920F931F93CF93B4
:102BF000DF93F82E062FC7E0D0E010E061E0802FD1
:102C00000E942B048F2D0E94000F0C2E01C0880FF4
:102C10000A94EAF7182B60E0802F0E942B0421977A
:102C200068F7812FDF91CF911F910F91FF90089549
:102C3000CF92DF92FF920F931F93CF93DF93EC011C
:102C40008B810E94000F892BD9F76A818B810E94AA
:102C5000F415082F6A818B810E94F415182F6A8160
:102C60008B810E94F415F82ED12CC12C8C818C15EF
:102C70001D0469F060F061E08A810E942B0460E02D
:102C80008A810E942B048FEFC81AD80AEFCFD02F69
:102C9000D095C12FC0954F2D40952FEFD7FD09C07E
:102CA000DF37F1F4CF3FE1F421E04F3F09F020E0BE
:102CB00021956C2F70E090E080E0982F872F762F81
:102CC00066278D2B642B922B6F5F7F4F8F4F9F4F0B
:102CD000DF91CF911F910F91FF90DF90CF900895DA
:102CE00020E0E7CFBF92CF92DF92EF92FF920F9357
:102CF0001F93CF93DF93EC01B62EC72E8D858111E4
:102D000005C0CE010E94331081110EC01B861D86A6
:102D10001C8680E0DF91CF911F910F91FF90EF9083
:102D2000DF90CF90BF90089540E060EFCE010E9409
:102D3000E00F01E0E12CD12C11E0CE010E948D0FBB
:102D4000F82ECE010E948D0F91E0F91218C081304B
:102D500099F51134D8F2DB86D11002C081E08D875D
:102D60008B81882399F22396EB2DFC2DCF010896B9
:102D700029912193E817F907D9F781E0CBCFEE2D00
:102D8000F0E0F8120FC08B851817A0F4DE01AE0F2B
:102D9000BF1F13968C91802379F4F12C193008F41D
:102DA0001C87D12EEC0FFD1F8381902F90958923D6
:102DB00083830AC08113F1CFFE01EE0DF11D8381E3
:102DC000802B8383FF24F3946F2DCE010E94B10FDB
:102DD0001F5F000F11F4E39401E087E08E1508F007
:102DE000ACCFB7CFCF93DF93CDB7DEB728970FB671
:102DF000F894DEBF0FBECDBF28E0E1E2F1E0DE01D6
:102E0000119601900D922A95E1F7FC012185241776
:102E100010F44FEF420F50E0440F551F21E030E017
:102E20002C0F3D1F420F531FFA012081620F606873
:102E300040E028960FB6F894DEBF0FBECDBFDF91FD
:102E4000CF910C94960A40E061E00E94960A8BE3D1
:102E50009FE10197F1F708958F929F92AF92BF92F1
:102E60000F931F93CF93DF93CDB7DEB7A1970FB624
:102E7000F894DEBF0FBECDBF19A2423008F44AE07D
:102E80008E010F5D1F4F842E912CB12CA12CA5011A
:102E900094010E945E37E62FB901CA01EA30F4F4CA
:102EA000E05DD801EE938D01232B242B252B79F7A0
:102EB00090E080E0109719F0CD010E94B30AA1962E
:102EC0000FB6F894DEBF0FBECDBFDF91CF911F913B
:102ED0000F91BF90AF909F908F900895E95CE1CFE4
:102EE000CF92DF92EF92FF92CF93DF936C01990F15
:102EF000EE08FF08F7FE1BC08DE20E94710FEC0187
:102F000066277727CB016C197D098E099F094AE056
:102F10000E942C17C80FD91F0E94C00A8C0F9D1F3A
:102F2000DF91CF91FF90EF90DF90CF9008954AE02E
:102F3000C701B6010E942C17EC01EECFCF92DF92B1
:102F4000EF92FF92CF93DF936C01990FEE08FF0889
:102F5000F7FE17C08DE20E94710FEC0166277727FC
:102F6000CB016C197D098E099F094AE00E942C173C
:102F70008C0F9D1FDF91CF91FF90EF90DF90CF904E
:102F800008954AE0C701B601DF91CF91FF90EF901D
:102F9000DF90CF900C942C17009711F00C94B30A8B
:102FA00090E080E008954F925F926F927F928F92AF
:102FB0009F92AF92BF92CF92DF92EF92FF920F93C8
:102FC0001F93CF936B017C01742EAC019B010E9477
:102FD000B739882399F08AE791E0CF911F910F913B
:102FE000FF90EF90DF90CF90BF90AF909F908F9029
:102FF0007F906F905F904F900C94B30A46015701F9
:10300000E894B7F82FEF3FEF4FE75FE7C501B40152
:103010000E94B73981110DC02FEF3FEF4FE75FE7F7
:10302000C501B4010E94143618161CF48EE791E015
:10303000D4CF2FEF3FEF4FE75FE4C701B6010E9407
:10304000A63918161CF482E891E0C7CF2FEF3FEFA6
:103050004FE75FECC701B6010E94143687FDF3CF3E
:1030600020E030E0A901C701B6010E94143610E04B
:1030700000E087FF08C08DE20E94710F8C01F7FA13
:10308000F094F7F8F094C0E060E070E080E09FE337
:103090007C1641F020E030E040E251E40E94D73855
:1030A000CF5FF6CFA70196010E94F9372B013C01B3
:1030B0000E9450394B015C014AE00E942C177C01B0
:1030C000E00EF11ECC23B1F1C501B4010E94193606
:1030D0009B01AC01C301B2010E94F8374B015C01B6
:1030E0008EE20E94710FE80EF91EC15018F120E027
:1030F00030E040E251E4C501B4010E947A362B0170
:103100003C010E9450394B01B12CA12C4AE0C50171
:10311000B4010E942C17E80EF91EC501B4010E94EB
:1031200019369B01AC01C301B2010E94F8374B0173
:103130005C01DBCFC701CF911F910F91FF90EF9002
:10314000DF90CF90BF90AF909F908F907F906F90C7
:103150005F904F900895CF93DF930E94D317EC01B7
:103160000E94C00A8C0F9D1FDF91CF910895009798
:1031700061F0FC0120812F7D213429F401960E9409
:1031800044340E9608950C9444348EE090E00895F3
:103190008F929F92AF92BF92DF92EF92FF920F9326
:1031A0001F93CF93DF93C091AE03D091AF03181656
:1031B00019061CF41616170634F081E0CD2B09F021
:1031C00074C080E072C0209779F0209102013091A4
:1031D00003012817390741F42091000130910101C2
:1031E0002617370709F460C08B017C01D82E60E0F8
:1031F0000E94590461E0802F0E94590460E0802FF2
:103200000E942B040E9417054B015C018D2D0E942A
:10321000000F019761F40E941705681979098A095E
:103220009B09613971408105910580F3CACF2097D0
:1032300039F0E881F9810280F381E02DCE01099512
:103240008DE090E00E94F639EC018DE291E09983E7
:1032500088830A83EB8261E0802F0E94590460E03A
:103260008B810E94590481E08C8360E08A810E94F6
:103270002B04CE010E941816D093AF03C093AE0367
:10328000F0920301E092020110930101009300010A
:103290008091130190911401A0911501B091160134
:1032A00089879A87AB87BC8781E0DF91CF911F9197
:1032B0000F91FF90EF90DF90BF90AF909F908F9015
:1032C00008958091B6039091B703892BC1F480E0F3
:1032D00094E00E94F6399093B7038093B603009769
:1032E00031F481ED90E00E94C40A80E0089520E06E
:1032F00034E0FC01A901119241505040E1F781E016
:1033000008950E946119882361F0E091B603F0915D
:10331000B70380E094E0DF019C011D922150304012
:10332000E1F70895EF92FF920F931F93CF93DF93EE
:10333000F82E062F142F8091B8039091B9030097AF
:1033400079F02091F3022F1109C020911801261362
:1033500005C020911701241709F4A6C00E94923AD3
:103360008CE090E00E94F639EC011B821A8285E322
:1033700091E099838883FC82088719871A8688E000
:10338000E82EEB86D093B903C093B803F092F30212
:10339000009318011093170110925F0310925E03BF
:1033A00010923304109255040E94F20783E295E0D4
:1033B00090935B0380935A0384E295E090935D03BE
:1033C00080935C031D828985823008F0ED829A85A6
:1033D000992329F0813019F48D8184608D8362E313
:1033E00070E080E090E00E943E0F6B85CE010E946D
:1033F000670A68EE73E080E090E00E943E0F60E3B1
:10340000CE010E947D0A0BE416E4C8010197F1F792
:1034100060E3CE010E947D0AC8010197F1F760E3E5
:10342000CE010E947D0A83E592E00197F1F760E208
:10343000CE010E947D0A6D81606240E0CE010E9453
:10344000960A84E08E8340E06CE0CE010E94960AEA
:10345000CE010E94231782E08F8340E066E0CE0118
:103460000E94960A40E062E0CE010E94960A8BE339
:103470009FE10197F1F78CE08093B8008091B80349
:103480009091B90328E0FC01238760E00E94670A5D
:103490008091B8039091B903DF91CF911F910F9163
:1034A000FF90EF900C942317DF91CF911F910F9114
:1034B000FF90EF9008950F931F93CF93DF938C01AC
:1034C0008091B4039091B503009749F020910401D5
:1034D000309105012017310791F10E94923A82E163
:1034E00090E00E94F639EC010D838BE08E83C801D9
:1034F0009927FC01E75EF84FE491EF83FC01EB5F55
:10350000F84FE491E88780E89EE3A0E0B0E08D8783
:103510009E87AF87B88BD093B503C093B40362E0A6
:10352000802F0E94590480E398EFAFEFBFEF8987A7
:103530009A87AB87BC871093050100930401DF9144
:10354000CF911F910F9108950C9438372F923F928D
:103550004F925F926F927F928F929F92AF92BF92A3
:10356000CF92DF92EF92FF920F931F93CF93DF934F
:10357000CDB7DEB72C970FB6F894DEBF0FBECDBF28
:103580009C878B87DC018D919C9121E020933204F4
:1035900028E62093540410923304109255046BE3F0
:1035A00070E00E94600A80E00E9431080E94F204EC
:1035B0006B017C0180912C04811165C081E08093B6
:1035C0002C0480932B049FEF90932A0410922904DB
:1035D0009DE0909328048093070480910704806DF8
:1035E0008093070480910604813009F07DC3109216
:1035F00006040E94F2046B017C0180910704809311
:10360000BB0080912E0490912F04A0913004B091C2
:103610003104892B8A2B8B2BA1F00E94F20400919C
:103620002E0410912F0420913004309131046C1934
:103630007D098E099F09061717072807390708F41F
:1036400043C08091BC0083FDD8CF85EC8093BC0043
:103650000E94F2046B017C0180912C04813009F4FA
:1036600045C3809129048E3008F062C380912904FB
:10367000E8E0F4E0AAE3B3E090E0981751F121917B
:103680002D939F5FFACF80912E0490912F04A091EB
:103690003004B0913104892B8A2B8B2B09F48ACF0B
:1036A0000E94F20400912E0410912F042091300406
:1036B000309131046C197D098E099F09061717078F
:1036C0002807390708F076CF80912D040E94100852
:1036D00080E010925F0380935E03EB85FC85808120
:1036E0009181DC01ED91FC910284F385E02D099537
:1036F000182FEB85FC8580819181DC01ED91FC9197
:103700000284F385E02D099520E0822B912BEB8537
:10371000FC859383828380819181DC01ED91FC9112
:103720000284F385E02D0995182FEB85FC858081B7
:103730009181DC01ED91FC910284F385E02D0995E6
:1037400020E0822B912BEB85FC85958384838081FF
:103750009181DC01ED91FC910284F385E02D0995C6
:10376000182FEB85FC8580819181DC01ED91FC9126
:103770000284F385E02D099520E0822B912BEB85C7
:10378000FC859783868380819181DC01ED91FC919A
:103790000284F385E02D0995182FEB85FC85808147
:1037A0009181DC01ED91FC910284F385E02D099576
:1037B00020E0822B912BEB85FC859187808780818F
:1037C0009181DC01ED91FC910284F385E02D099556
:1037D000182FEB85FC8580819181DC01ED91FC91B6
:1037E0000284F385E02D099520E0822B912BEB8557
:1037F000FC859387828780819181DC01ED91FC912A
:103800000284F385E02D0995182FEB85FC858081D6
:103810009181DC01ED91FC910284F385E02D099505
:1038200020E0822B912BEB85FC8595878487808116
:103830009181DC01ED91FC910284F385E02D0995E5
:10384000182FEB85FC8580819181DC01ED91FC9145
:103850000284F385E02D099520E0312F1901282AF3
:10386000392AEB85FC853786268660857185072E8B
:10387000000C880B990B0E941B3620E030EF41E4CE
:1038800056E40E94F93720E030E04AEA53E40E940F
:10389000D738AB85BC855C966D937D938D939C9357
:1038A0005F9712966D917C91072E000C880B990BF7
:1038B0000E941B3620E030E040E858E30E947A3650
:1038C0004B015C01EB85FC8580A291A2A2A2B3A270
:1038D00064817581072E000C880B990B0E941B36A2
:1038E00020E030E040E858E30E947A366B017C012A
:1038F000AB85BC859496CD92DD92ED92FC92979724
:1039000016966D917C91072E000C880B990B0E94E6
:103910001B3620E030E040E858E30E947A362B0165
:103920003C01EB85FC8540A651A662A673A620E06B
:1039300030E0A901C501B4010E94A639A501940196
:1039400018160CF05058C301B2010E94F9379B01C0
:10395000AC01C701B6010E9478380B851C850C5B51
:103960001F4F20E030E044EB53E40E947A3620E021
:1039700030E040E05FE30E947A362BED3FE049E41F
:1039800050E40E94D738D8016D937D938D939C931A
:10399000139720E030E0A901C701B6010E94A639C3
:1039A000181624F0F7FAF094F7F8F094A7019601AE
:1039B000C301B2010E94F9379B01AC01C501B401FA
:1039C0000E9478380B851C85085B1F4F20E030E093
:1039D00044EB53E40E947A3620E030E040E05FEBB5
:1039E0000E947A362BED3FE049E450E40E94D7383C
:1039F000F8016083718382839383AB85BC851C96B9
:103A00006D917C91072E000C880B990B0E941B3640
:103A100020E030E043E852E40E94D7386B017C019B
:103A2000EB85FC8562857385072E000C880B990B4E
:103A30000E941B3620E030E043E852E40E94D73871
:103A4000AB85BC8550962D913D914D915C915397DE
:103A50000E94F837EB85FC8564A775A786A797A712
:103A60002489358946895789C701B6010E94F837EC
:103A7000AB85BC85D0966D937D938D939C93D397A6
:103A8000B101330C880B990B0E941B3620E030E00B
:103A900043E852E40E94D738EB85FC85208D318DB8
:103AA000428D538D0E94F837AB85BC85D4966D93BB
:103AB0007D938D939C93D7970E941705EB85FC858A
:103AC000E05AFF4FFE83ED83C080D180E280F38017
:103AD0006C197D098E099F090E9419362FE632E183
:103AE00043E85AE30E947A362B013C01EB85FC85C2
:103AF000E45AFF4F4082518262827382AB85BC855B
:103B00009C962D913D914D915C919F970E947A36A4
:103B10004B015C01AC019B01EB85FC8560AD71AD97
:103B200082AD93AD0E94F937AB85BC85D8966D9375
:103B30007D938D939C93DB97D0962D913D914D91E4
:103B40005C91D397C301B2010E947A366B017C016C
:103B5000AC019B01EB85FC8564AD75AD86AD97AD81
:103B60000E94F937AB85BC85DC966D937D938D9370
:103B70009C93DF97D4962D913D914D915C91D79771
:103B8000C301B2010E947A366B847C84B0E46B0E70
:103B9000711CF30120813181428153810E94F937E8
:103BA0006F83788789879A87D3016D937D938D93EF
:103BB0009C931397EB85FC85E859FF4F408051801B
:103BC00062807380EB85FC85EC59FF4F8081918189
:103BD000A281B38189839A83AB83BC832B843C8489
:103BE00090E5290E311CD1012D913D914D915C91B3
:103BF000C501B4010E94F937A30192010E947A36EF
:103C00004B015C01EB85FC85EC5BFF4F2081318132
:103C10004281538169817A818B819C810E947A36AD
:103C20009B01AC01C501B4010E94F937F101608329
:103C3000718382839383AB84BC84F4E5AF0EB11CA3
:103C4000D5012D913D914D915C91C701B6010E9426
:103C5000F937A30192010E947A366B017C01F801C9
:103C6000208131814281538169817A818B819C815C
:103C70000E947A369B01AC01C701B6010E94F93758
:103C8000D5016D937D938D939C931397EB85FC8564
:103C9000E85AFF4F8F819885A985BA8580839183E3
:103CA000A283B3830E941705AD81BE816D937D937E
:103CB0008D939C9313972C960FB6F894DEBF0FBE8E
:103CC000CDBFDF91CF911F910F91FF90EF90DF90CB
:103CD000CF90BF90AF909F908F907F906F905F90AC
:103CE0004F903F902F90089585EEB0CC80912E0498
:103CF00090912F04A0913004B0913104892B8A2B2C
:103D00008B2B09F4A9CC0E94F20400912E0410918F
:103D10002F0420913004309131046C197D098E09F3
:103D20009F09061717072807390708F095CCCCCC50
:103D30008EE09ECCCF93DF938091F40281117DC001
:103D40008091B0039091B103892B01F58CE690E04E
:103D50000E94F63923EC34E0FC0131832083EC59D6
:103D6000FF4F4AE057ED63EA7CE34083518362836F
:103D70007383349648E451EE6AE77FE340835183CE
:103D8000628373839093B1038093B003C091B003B7
:103D9000D091B103209731F48EED90E0DF91CF9177
:103DA0000C94C40A40E069E1CE010E94771340E020
:103DB0006AE1CE010E94771348E06BE1CE010E94D8
:103DC000771340E06CE1CE010E94771341E06BE68F
:103DD000CE010E947713CE010E94A61A18AE19AE2A
:103DE0001AAE1BAE1CAE1DAE1EAE1FAEFE01E05BDA
:103DF000FF4FDE01AC5BBF4F8D919D910D90BC914B
:103E0000A02D80839183A283B3833496DE01A85BC7
:103E1000BF4F8D919D910D90BC91A02D808391837A
:103E2000A283B3830E941705C05ADF4F688379834A
:103E30008A839B8381E08093F402DF91CF91089580
:103E400066E871E090E080E00E946B34009711F02A
:103E50000C94403460E070E0CB0108951092590456
:103E60001092580488EE93E0A0E0B0E080935A04EA
:103E700090935B04A0935C04B0935D0427E531E06C
:103E8000309357042093560425EC30E030936304BC
:103E90002093620424EC30E03093650420936404A2
:103EA00020EC30E0309367042093660421EC30E08E
:103EB000309369042093680422EC30E030936B0463
:103EC00020936A0426EC30E030936D0420936C0458
:103ED00010926F0410927004109271041092720488
:103EE0001092C6041092C5048093C7049093C8042E
:103EF000A093C904B093CA0489E691E09093C404E6
:103F00008093C3048091F3048C3008F04BC091E09F
:103F1000980F9093F3048093130590E0FC01EE0F4B
:103F2000FF1FE80FF91FE153FB4F88EB9BE09283E3
:103F3000818380E090E0A8ECB1E480930405909345
:103F40000505A0930605B093070580E090E0A0EE7C
:103F5000B0E48093F4049093F504A093F604B09336
:103F6000F70484E19EE0AEEFB4E48093F80490930C
:103F7000F904A093FA04B093FB0480E090E8ABEB63
:103F8000B4E48093FC049093FD04A093FE04B093EA
:103F9000FF048093000590930105A0930205B09360
:103FA000030508958FEF80931305C3CFCF93DF935D
:103FB000CDB7DEB7C455D1090FB6F894DEBF0FBE3A
:103FC000CDBF789484B5826084BD84B5816084BDA2
:103FD00085B5826085BD85B5816085BD80916E00A7
:103FE000816080936E0010928100809181008260D8
:103FF0008093810080918100816080938100809115
:1040000080008160809380008091B1008460809303
:10401000B1008091B00081608093B00080917A00FF
:10402000846080937A0080917A00826080937A0025
:1040300080917A00816080937A0080917A00806814
:1040400080937A001092C100E0916604F0916704B9
:1040500082E08083E0916204F09163041082E09139
:104060006404F091650480E1808310926E04E09115
:104070006A04F0916B0486E08083E0916804F0911B
:104080006904808180618083E0916804F091690413
:10409000808188608083E0916804F0916904808168
:1040A00080688083E0916804F091690480818F7D4D
:1040B000808310925F0310925E031092330410927B
:1040C00055040E94F20783E295E090935B0380938E
:1040D0005A0384E295E090935D0380935C038CE047
:1040E0008093B8000E94C70B8AE091E00E94C40A46
:1040F0008091FC038823A9F00E9417050091F80322
:104100001091F9032091FA033091FB03601B710BAE
:10411000820B930B693C71058105910510F010929B
:10412000FC0386E594E00E948605892B11F40C942B
:10413000BB320E9417056093F8037093F9038093D4
:10414000FA039093FB0386E594E00E946105E091F9
:10415000FC038A3021F08D3011F00C94AD32EE2347
:1041600001F3F0E0E054FC4F1082E0ECF3E0CF010B
:1041700021912032E1F3222391F266E871E00E945E
:104180006B347C01009759F26DE871E00E94223B8C
:10419000892B29F480ED96E00E94C40AC0CF63E920
:1041A00071E0C7010E94223B892B19F48BE296E053
:1041B000F3CF69E971E0C7010E94223B892B19F412
:1041C00086E296E0E9CF6EE971E0C7010E94223BEA
:1041D000892B39F481E296E00E9416068DE196E083
:1041E000DBCF62EA71E0C7010E94223B892B09F014
:1041F0004FC00E94F70AF82E0E94F70A082F0E946B
:10420000F70A182F0E94F70A982EA92E0E94F70A83
:10421000B82EC92E0E94F70AD82EE92E61E08F2D04
:104220000E94590461E0802F0E94590461E0812FAF
:104230000E945904692D7A2D6F3F710519F014F011
:104240006FEF70E077FF02C070E060E08F2D0E949A
:1042500095046B2D7C2D6F3F710519F014F06FEFF5
:1042600070E077FF02C070E060E0802F0E9495044C
:104270006D2D7E2D6F3F710519F014F06FEF70E01A
:1042800077FF02C070E060E0812F0E94950447CF65
:1042900066EA71E0C7010E94223B892B79F40E94F3
:1042A000F70A182F0E94D00A082F61E0812F0E9480
:1042B0005904602F812F0E942B0431CF6CEA71E0EA
:1042C000C7010E94223B892B09F087C00E94F70A90
:1042D0006C0166E871E090E080E00E946B348C0134
:1042E0000D2C000CEE08FF08009769F063EB71E0FD
:1042F0000E94223B892B39F067EB71E0C8010E94D4
:10430000223B892B19F460E08C2DD5CF9C2CC80161
:104310000E9444345C010E94F70A8C011A141B04A9
:1043200094F71816190614F008EC10E0B50190E0A7
:1043300080E00E9419369B01AC0160E074E284E7E2
:1043400099E40E94D7380E944939072E000C880B47
:10435000990B0E941B362B013C0120E030E040E02D
:104360005FE30E947A360E9449395B0161E08C2D3F
:104370000E945904B801110F880B990B0E9419363D
:1043800020E030E04AE754E40E947A36A30192012B
:104390000E94D7386B017C0101E010E0B801012ECA
:1043A000000C880B990B0E941B36A70196010E94F6
:1043B000143618160CF4B3CE61E0892D0E942B043C
:1043C000C5010E94F50E60E0892D0E942B04C501F5
:1043D0000E94F50E0F5F1F4FE1CF69EB71E0C7013F
:1043E0000E94223B892B09F074C066E871E090E0DE
:1043F00080E00E946B348C01009709F490CE6FEB43
:1044000071E00E94223B892BD9F40E94F70A8C01AB
:104410000E94F70A7C0161E0C8010E94AD09C70152
:1044200025ECE21629E0F20614F084EC99E0843FD2
:1044300031E0930714F484EF91E00E94CC036FCE37
:10444000C8010E9444348C010E94F70A5C0160E0BC
:10445000C8010E94AD098091140590911505FDE7F2
:10446000CF2ED12CC81AD90ACC0CDD1CCC0CDD1CEB
:104470000D2C000CEE08FF08809116059091170591
:1044800022EE34E0281B390B220F331F220F331F7B
:10449000032E000C440B550B2C193D094E095F09E6
:1044A000D501A53BB10514F0A4EBB0E0B7FF02C005
:1044B000B0E0A0E00E94AA3724EB30E040E050E0FA
:1044C0000E948037DA01C9018C0D9D1DAE1DBF1DF4
:1044D000B4CF62EC71E0C7010E94223B892B71F4DA
:1044E0000E94F70A182F0E94F70AF82E092F61E0A0
:1044F000812F0E9459046F2D702FBCCE6AEC71E0A1
:10450000C7010E94223B892B09F054C00E94F70A80
:10451000E82E0E94F70AF82E66E871E090E080E04D
:104520000E946B348C0161E08E2D0E94590461E081
:104530008F2D0E9459040115110571F06EEC71E088
:10454000C8010E94223B892B39F063EB71E0C8015E
:104550000E94223B892B49F470E060E08E2D0E947E
:10456000950470E060E08F2D90CEC8010E94443425
:104570008C018F3F910519F014F00FEF10E017FF39
:1045800002C010E000E066E871E090E080E00E9488
:104590006B34009769F063ED71E00E94223B892B38
:1045A00039F070E060E08E2D0E949504B801DBCFF9
:1045B000B801D4CF66ED71E0C7010E94223B892B80
:1045C00009F0BCC00E94F70A7C0166E871E090E047
:1045D00080E00E946B348C01009709F4A0CD6AED55
:1045E00071E00E94223B892B39F40E94F70ABC013A
:1045F000C7010E94060B93CD6091BE037091BF036B
:104600006115710539F08091190190911A01E81630
:10461000F90611F060E170E0C7010E94060B6FED32
:1046200071E0C8010E94223B892BA1F40091BC03D8
:104630001091BD03D80114964D915C91159770E0CF
:1046400060E019968D919C910E941B3BC8010E94CD
:10465000F60665CD65EE71E0C8010E94223B892B0C
:1046600099F40E94F70A0091BC031091BD038F3F9B
:10467000910519F014F08FEF90E097FD80E0682F1E
:10468000C8010E945306E2CF6CEE71E0C8010E949F
:10469000223B892B39F50E94F70A182F0E94F70A4E
:1046A000C82E0E94F70AD12CF12CE12CFE2CED2C07
:1046B000DC2CCC24E12AC82A10E000E02091BE03C3
:1046C0003091BF038091BC039091BD030217130783
:1046D00008F0BDCFA7019601B8010E9495060F5FB3
:1046E0001F4FECCFC8010E9444348C010E94F70A8E
:1046F000E82E0E94F70AF82E0E94F70A682F17FD8D
:1047000018C08091BC039091BD032091BE033091ED
:10471000BF03021713076CF42F2D30E050E040E088
:10472000542F432F322F22274E29262BB8010E94C7
:1047300095068091BC039091BD0389CF60EF71E035
:10474000C7010E94223B892B09F0CFC00E94F70AC3
:104750006C010E94F70A5C0166E871E090E080E07D
:104760000E946B347C01892B09F4D9CC8091BA0367
:104770009091BB03009781F02091110130911201BB
:10478000C216D30639F420910F0130911001A21600
:10479000B30691F10E94923A85E090E00E94F639CA
:1047A0008C01FC01C082A18284E690E09483838323
:1047B00060E08C2D0E94590460E0D80111968C9124
:1047C0000E94590460E0F80180810E942B0460E09F
:1047D000D80111968C910E942B041093BB03009377
:1047E000BA038DE0F8018283D0921201C0921101C8
:1047F000B0921001A0920F016FED71E0C7010E940D
:10480000223B892B71F48091BA039091BB031982EA
:104810001A821B821C82BE016F5F7F4F0E94BE12F4
:104820007ECC65EE71E0C7010E94223B892BB9F472
:104830000E94F70AE091BA03F091BB03883091051A
:1048400014F087E090E097FD80E08860828320E0AC
:1048500050E040E06AE0CF010E94F81260CC64EFC3
:1048600071E0C7010E94223B892B91F40E94F70A54
:10487000E091BA03F091BB03AC0197FF04C0442759
:104880005527481B590B66EF97FF6AE020E4E3CFFA
:104890006AEF71E0C7010E94223B892B91F40E94CC
:1048A000F70AE091BA03F091BB03AC0197FF04C093
:1048B00044275527481B590B66EF97FF6AE020E015
:1048C000CACF0091BA031091BB03C7010E944434C0
:1048D000AC0197FF04C044275527481B590B66EFCE
:1048E00097FF6AE020E0C801B7CF6FEF71E0C70122
:1048F0000E94223B892B09F000C166E871E090E03C
:1049000080E00E946B348C01009709F408CC6AEDBA
:1049100071E00E94223B892B31F566E871E090E05E
:1049200080E00E946B3450E2F52E009739F050E0A1
:1049300040E070E060E00E942933F62E0E94F70A02
:104940008C010E94F70A1016110614F000E110E025
:104950001816190614F082E090E0482F602F8F2D72
:104960000E949219DCCB8091B8039091B903892BF6
:1049700029F442E060E180E20E9492196FED71E05B
:10498000C8010E94223B892B39F48091B803909191
:10499000B9030E942317C3CB63E072E0C8010E94F1
:1049A000223B892B89F40E94D00AE091B803F09150
:1049B000B903882339F088E0838760E0CF010E9443
:1049C000670AADCB1386F9CF66E072E0C8010E949A
:1049D000223B892B09F0A3CB0E94F70A7C010E949D
:1049E000F70A5C0169E771E090E080E00E946B34B7
:1049F000FC01892B09F493CB6F01DF018D9180328B
:104A000051F08232D1F480E09191992331F09232C9
:104A1000D9F78F5FF9CFFD01EFCF823009F07FCB5F
:104A2000FFEFCF1ADF0A62E270E0C6010E943A3B54
:104A3000009709F474CBDC011C928701F7FE02C0D9
:104A400010E000E07501B7FE02C0F12CE12C4E2D04
:104A5000602F8091B8039091B9030E94F216F6017D
:104A600081916F01882361F18091180180171106EF
:104A700009F09CF4FFEFEF1AFF0A809117018E15E1
:104A80001F04E1F0DCF04E2D60E08091B8039091BE
:104A9000B9030E94F21610E000E08091B8039091F3
:104AA000B903DC01ED91FC910190F081E02DD6017C
:104AB00011976C9109950F5F1F4FD1CF10E000E067
:104AC000809117018E151F0409F00CF428CB8091FA
:104AD00018018017110609F00CF421CB8091B8035E
:104AE0009091B903DC01ED91FC910190F081E02DF2
:104AF00060E209950F5F1F4FEACF6BE072E0C701DC
:104B00000E94223B892B09F064C266E871E090E0C4
:104B100080E00E946B348C01009709F400CB6AEDB1
:104B200071E00E94223B892BE9F466E871E090E095
:104B300080E00E946B34009799F050E040E070E014
:104B400060E00E942933862F0E9402150E9461199D
:104B5000882309F4E4CA0E9481190E948F15DFCAD4
:104B60008CE3F2CF0E946119882309F4D8CA6FED53
:104B700071E0C8010E94223B892B69F366E072E074
:104B8000C8010E94223B892B09F0ADC00E94F70AA0
:104B90007C010E94F70AD82E192F69E771E090E096
:104BA00080E00E946B34FC01892B09F4B8CA2F0104
:104BB000DF018D91803251F08232D1F480E0919109
:104BC000992331F09232D9F78F5FF9CFFD01EFCF02
:104BD000823009F0A4CABFEF4B1A5B0A62E270E0B0
:104BE000C2010E943A3B009709F499CAFC01108265
:104BF000C701F7FE02C090E080E0ED2CF12EF7FE39
:104C000002C0F12CE12C2696EFAE26972091B60338
:104C10003091B703FE2DF83068F4F701F695FE2FBA
:104C2000EE27F795E795E20FF31F40E8DF011D92AD
:104C30004A95E9F71701B3E0220C331CBA95E1F766
:104C40008C0183E0000F111F8A95E1F7232B09F4F3
:104C500066CAF20161902F01662011F40C94CB32E8
:104C60000038110514F00C94CB32862D90EE960D81
:104C7000903608F080E28052990B3C01A3E0660C6C
:104C8000771CAA95E1F74801F8E08F0E911C80E8A7
:104C900092E0801B910B680E791EF301E00FF11F6B
:104CA000E491D12CC12CAE2EB12CC5010C2C02C02C
:104CB000959587950A94E2F780FF07C041E0B1011E
:104CC0006C0D7D1DC8010E942B142FEFC21AD20A51
:104CD00038E0C316D10449F70F5F1F4F80169106C5
:104CE000E1F68401B6CF60E172E0C8010E94223B88
:104CF000892B89F40E94F70A8C010E94F70A7C0133
:104D00000E94F70A41E0892B09F440E0B701C8018D
:104D10000E942B1422CF66E172E0C8010E94223B60
:104D2000892B91F40E94F70A8C010E94F70A7C01FA
:104D30000E94F70A6C010E94F70A9C01A601B701C4
:104D4000C8010E94571409CF6BE172E0C8010E94AC
:104D5000223B4C01892B09F046C00E94F70A6C01E6
:104D60000E94F70A5C010E94F70A8C010E94F70A70
:104D70007C010E94F70A2091B6033091B703232BE0
:104D800009F4EBCE0C0D1D1D01501109892B81F08A
:104D90008E149F040CF0E1CEB501680D791D9B01C6
:104DA000A801C6010E9457149FEF891A990AF0CFF3
:104DB0009501A801B501C6010E945714EA0CFB1C1D
:104DC000A1E0EA1AF1089701A801B701C6010E9403
:104DD00057149701A601B501C6010E945714970107
:104DE000A801B501ADCF60E272E0C8010E94223B8C
:104DF0006C01892B09F093C90E94F70A27969FAF8F
:104E00008EAF27970E94F70A2B969FAF8EAF2B97F6
:104E10000E94F70A7C010E94F70A65969FAF8EAF49
:104E200065978091B6039091B703892B09F495CECD
:104E300001E010E00E191F09E3E0F0E06396FFAF18
:104E4000EEAF6397EC14FD040CF487CE2B968EAC7A
:104E50009FAC2B978C0C9D1C2796AEACBFAC2797B4
:104E6000AE0CBF1C27964EAD5FAD27974E195F095C
:104E700061965FAF4EAF61972B968EAD9FAD2B972E
:104E80008C199D092F969FAF8EAF2F972B96AEADA5
:104E9000BFAD2B97AE0DBF1D2D96BFAFAEAF2D97FB
:104EA00027962EAC3FAC27972C0C3D1C27966EAC5A
:104EB0007FAC27976C187D082B964EAC5FAC2B9778
:104EC0004E185F086596EEADFFAD6597EF2BD1F1FB
:104ED0009401A501B40161968EAD9FAD61970E94CA
:104EE00057142F962EAD3FAD2F97A501B9016196AE
:104EF0008EAD9FAD61970E9457142D962EAD3FAD9C
:104F00002D97A101B901C3010E9457149201A1017B
:104F1000B201C3010E945714FFEFCF1ADF0A17FF37
:104F20004CC063962EAD3FAD6397020F131F63967F
:104F30002EAD3FAD63972E5F3F4F63963FAF2EAFD1
:104F4000639780CF41E0B401C5010E942B1441E07A
:104F5000B40161968EAD9FAD61970E942B1441E024
:104F60002F966EAD7FAD2F97C5010E942B1441E0A7
:104F70002F966EAD7FAD2F9761968EAD9FAD6197E9
:104F80000E942B1441E02D966EAD7FAD2D97C1018F
:104F90000E942B1441E02D966EAD7FAD2D97C3017D
:104FA0000E942B1441E0B201C1010E942B1441E088
:104FB000B201C3010E942B14AFCF31E0E31AF10814
:104FC000C6018E199F09880F991F0196080F191F96
:104FD000AECF67E272E0C7010E94223B892B09F045
:104FE00081C566E871E090E080E00E946B348C013E
:104FF000009709F494C86BE272E00E94223B892B6F
:1050000009F0A4C00E94F70AB82E0E94F70A8C018A
:1050100087E196E00E94160661E08B2D0E945904FC
:1050200060E0802F0E9459040E9417052B013C016B
:10503000C0900A01D0900B01E0900C01F0900D019E
:1050400020E030E0A901C701B6010E94A63987FD22
:1050500015C08091640390916503A0916603B0919F
:105060006703A3019201281B390B4A0B5B0BDA0182
:10507000C901CC97A105B10508F44AC04092640368
:1050800050926503609266037092670360E08B2D17
:105090000E942B0483E090E00197F1F761E08B2DF3
:1050A0000E942B0483E290E00197F1F760E08B2DE2
:1050B0000E942B041127F801E75EF84F6491F80174
:1050C000EB5FF84FE491F0E0EE0FFF1FE550F94F72
:1050D0008591949108EA11E620E030E0462F0E9485
:1050E000B00E611571058105910551F06F5F7F4F1D
:1050F0008F4F9F4F9F70611571058105910569F470
:10510000C0900A01D0900B01E0900C01F0900D01CD
:1051100041E050E0C701B601FCC00E94193628E208
:105120003EE74CE05DE30E947A3620E030E040E06C
:105130005FE30E947A366B017C01C0920A01D09233
:105140000B01E0920C01F0920D01E2CF60E372E0FE
:10515000C8010E94223B892B09F09EC066E871E0DD
:1051600090E080E00E946B340E94B718B82E8CE06B
:1051700096E00E941606AE014F5F5F4F6A017E0106
:105180005DE3E50EF11C86018B2D0E94290FD601EF
:105190008D939D936D01EA16FB06B1F7DE01139620
:1051A00090E04D915D91892F282F082E000C330B34
:1051B000F901EE0FFF1FE00FF11F60817181F9010E
:1051C00031964617570744F4EE0FFF1FE00FF11F0B
:1051D00071836083815040F7E82F880FFF0B319671
:1051E000EE0FFF1FE00FF11F518340839F5F9D3142
:1051F000C1F66D8D7E8D8F8D98A1680F791F072E5A
:10520000000C880B990B0E941B3620E030E040E038
:105210005FE30E947A3620E030E040EA50E40E94EA
:105220007A3620E030E040E85AE30E947A366B019B
:105230007C01AC019B016DEC7CEC84E890E40E9465
:10524000F83720E030E040E05FE30E94A63918160E
:10525000FCF420E030E040E250E4C701B6010E94D7
:10526000F83720E030E84DEE54E40E947A369B0196
:10527000AC0160E070E088E494E40E94F8376B01D0
:105280007C0120E030E0A9010E94143687FF40CF66
:10529000C12CD12C76013CCF6AE372E0C8010E9498
:1052A000223B892B09F04AC066E871E090E080E07B
:1052B0000E946B340E94B7187C0183E096E00E9444
:1052C000160687010E5011090430110510F00FEF7A
:1052D0001FEF8E2D0E94290F6C01990FEE08FF0819
:1052E0000F3F1007D1F0C701B6010E941B36AB017A
:1052F000BC0181E1809FF001819FF00D1124E759ED
:10530000FC4F8081882349F0C8010E94A01343E02C
:1053100050E00E94AB180C948F20C701B6010E9488
:105320001B3620E030E040E054E40E94F83720E0F3
:1053300030E040E05BE30E947A36E9CF62E472E05D
:10534000C8010E94223B892B09F047C066E871E042
:1053500090E080E00E946B340E94B7187C018AEFD5
:1053600095E00E94160687010E50110904301105C0
:1053700010F00FEF1FEF8E2D0E94290F6C01990F77
:10538000EE08FF080F3F1007B9F0C701B6010E94F1
:105390001B36AB01BC0181E1809FF001819FF00DC4
:1053A0001124E759FC4F8081882331F0C8010E9405
:1053B000A01342E050E0ADCFC701B6010E941B36FA
:1053C00020E030E048EC51E40E947A3620E030ECF6
:1053D0004FE754E40E94D738ECCF6AE472E0C8018A
:1053E0000E94223B892B09F067C00E94F70A0E94A5
:1053F0005B1A0091B4031091B503C8010E944511D6
:10540000882351F0D80116968C9116978B3059F05D
:1054100018F08551823028F1C12CD12C50ECE52EAA
:105420005FE7F52E09C0F801628170E090E080E04E
:105430000E9419366B017C0183EF95E00E941606ED
:10544000A7019601C701B6010E94B739882309F464
:105450005FCEC12C30ECD32E39E7E32E34ECF32EA3
:1054600057CE1296BC906B2D6F7770E090E080E085
:105470000E941B3620E030E040E853E40E947A3678
:105480006B017C01F801638170E090E080E00E9494
:105490001B36A70196010E94F9372DEC3CEC4CEC31
:1054A0005DE30E947A366B017C01B7FEC5CFF7FA47
:1054B000F094F7F8F094C0CF60E572E0C8010E9464
:1054C000223B892B09F04AC00E94F70A0E945B1A0E
:1054D0000091B4031091B503C8010E9445118823BF
:1054E00051F0D80116968C9116978B3059F018F020
:1054F0008551823098F0C12CD12C40ECE42E4FE73E
:10550000F42E09C0F801608170E090E080E00E9414
:1055100019366B017C018CEE95E090CF6C9170E0B8
:1055200090E080E00E94193620E030E040E853E44B
:105530000E947A366B017C01F801618170E090E095
:1055400080E00E941B36A70196010E94F9372DECDE
:105550003CEC4CEC5DE30E947A36DBCF66E572E012
:10556000C8010E94223B4C01892B09F0FAC166E870
:1055700071E090E080E00E946B345C010E94B718FB
:105580006C0166E871E090E080E00E946B34009767
:1055900019F00E9444344C018091B2039091B303FE
:1055A000009771F02091080130910901C216D306CD
:1055B00009F4DCC00E94923A1092B3031092B20335
:1055C0008091620390916303009711F00E94923AD8
:1055D0008EE090E00E94F6397C0160E08C2D0E9404
:1055E0005904C6019927FC01E75EF84FE491D70101
:1055F000EC93FC01EB5FF84FE491F0E0EE0FFF1F3E
:10560000E550F94F85919491F70192838183138638
:1056100015861486F0926303E092620384E190E0C1
:105620000E94F6398C01DC011796FC92EE921697D7
:1056300014961C92149715961C9215971C9289E04B
:1056400011968C93119781E012968C931297139672
:105650008C93139753961C921E9252971093B303F8
:105660000093B203F7011286118610861782168204
:10567000158214821382EE24E394BE016F5F7F4F84
:10568000D80116968D919C910E947216882309F478
:1056900069C067E0CE0101960E94760F9885891354
:1056A000ECCFF8018081811124C0868197810E940E
:1056B0003310BE016F5F7F4FD80116968D919C917C
:1056C0000E94141040E064EBF801868197810E94EB
:1056D000E00FD80116968D919C910E948D0FF82EA7
:1056E000F801868197810E943310F11002C0D80121
:1056F000EC92F801F1808981803109F4A5C7BE01DF
:105700006F5F7F4FC8010E94B8108F15C8F4D80191
:1057100011968C91F801818384818F5F84838981C4
:10572000883231F0C8F4803119F0823209F0A5CF07
:10573000D80115968C9115978F5F15968C939DCFF8
:105740008981803111F48CE0E5CFBE016F5F7F4F1E
:10575000C8010E94B810DECF8B3351F3823409F0B8
:105760008CCFE6CFD0920901C09208010091B2031C
:105770001091B303F801868197810E94331040E0B5
:105780006CECD80116968D919C910E94E00FF80167
:10579000408164E4868197810E94E00FD8011296CF
:1057A0008C911297882399F11196EC91E9508EEE25
:1057B000C82E82E0D82EE33038F4F0E0EE0FFF1F61
:1057C000E35CFE4FC080D180F8018381882309F417
:1057D00057C08081811154C00E9417052B013C01E4
:1057E0000D2C000CEE08FF08D80116968D919C91A7
:1057F0000E948D0F813059F00E9417056C197D09A8
:105800008E099F09641575058605970568F3E82CD0
:10581000D8011696ED91FC91138615861486128692
:105820001186108617821682158214821382F12C3B
:10583000BE01635C7F4FF801868197810E947216DA
:10584000811125C0C12CD12CAEEFEA2EA2ECFA2E8C
:1058500088EE95E00E941606A114B10421F467E9D0
:10586000A62E61E0B62EC5010E94CC178FE50E94DE
:10587000710FC4010E949E1780E20E94710F48CCF4
:10588000B601DD0C880B990B0E943E0FC0CFEF14C0
:1058900021F0F394EF1460F6D5CF67E0CE01CD96FA
:1058A0000E94760F25969FAD25978913F2CFF801B8
:1058B000868197810E943310882321F2AE014F5FC9
:1058C0005F4FBE01635C7F4FC8010E946B1088234D
:1058D00009F4B8CF68E0CE0101960E94760F998551
:1058E0008913B0CF6A8170E0762F6627770F770F24
:1058F000770F2981F8E02F9F90011124262B372B59
:105900008DAD8031D1F4688570E08F816B01C81A4C
:10591000D108C6019695982F8827979587950E945C
:10592000DC39CB014097B901F3E0660F771FFA9598
:10593000E1F760789C01260F371F213844EE3407C9
:105940000CF480CFB901330F880B990B0E941B36E2
:1059500020E030E040E05CE30E947A366B017C019D
:1059600077CF60E672E0C8010E94223B892B89F55F
:105970000E949A1E8091B0039091B1030E94A61AD2
:1059800081EE95E00E941606E091B003F091B1031C
:1059900060A171A182A193A142E00E94D31780E28D
:1059A0000E94710FE091B003F091B10364A175A161
:1059B00086A197A142E00E94D31780E20E94710F56
:1059C000E091B003F091B10360A571A582A593A504
:1059D000F0CC66E672E0C8010E94223B892B89F573
:1059E0000E949A1E8091B0039091B1030E94A61A62
:1059F0008BED95E00E941606E091B003F091B103A3
:105A000064A575A586A597A542E00E94D31780E2FC
:105A10000E94710FE091B003F091B10360A971A9E8
:105A200082A993A942E00E94D31780E20E94710FDD
:105A3000E091B003F091B10364A975A986A997A973
:105A4000B8CC6BE672E0C8010E94223B892B71F052
:105A500061E772E0C8010E94223B892B39F066E7BA
:105A600072E0C8010E94223B892B89F466E871E04C
:105A700090E080E00E946B340E94B718F82EC801B5
:105A80000E94CC1780E20E94710F8F2D28C06AE718
:105A900072E0C8010E94223B892B11F00C948F20E8
:105AA00066E871E090E080E00E946B340E94B718D5
:105AB000082F66E871E090E080E00E946B340E945D
:105AC000B718182F86ED95E00E941606802F0E94C9
:105AD000290F0E949E1780E20E94710F812F0E9461
