:100000000C94081E0C94301E0C94301E0C94D929AC
:100010000C94D9290C94D9290C94301E0C94301EC0
:100020000C94301E0C94301E0C94301E0C94512AEB
:100030000C94301E0C94301E0C94301E0C94301E08
:100040000C9429290C94301E0C9499290C94732932
:100050000C94301E0C94301E0C94301E0C94301EE8
:100060000C940D2B0C94301E6F6B00657272200087
:1000700062745F61742000000000002300260029E4
:1000800000524541445920626F6172643D61726D56
:1000900035617869732066773D312E3000000000AD
:1000A0000000000000000000000000000000000050
:1000B0000000000000000000000000000000000040
:1000C0000000000000000000000000000000000030
:1000D0000000000000000000000000000000000020
:1000E00000FCFEFFFEFD03030303030303030303FE
:1000F0000303030303FDFEFFFEFC000000000000FD
:100100000000010B1D3E3E3E3E3E3E3E3E3E3E3E1C
:100110003E3E3E3E3E3E1D0B010000000000000042
:100120000080C0E8DCBE3E3E3E3E3E3E3E3E3E3EA1
:100130003E3E3E3E3EBEDCE8C080000000000000C7
:10014000001F3F7FBFDFE0E0E0E0E0E0E0E0E0E074
:10015000E0E0E0E0E0DFBF7F3F1F000000000000C4
:100160000000000000010303030303030303030370
:100170000303030303FDFEFFFEFC0000000000007C
:10018000000000081C3E3E3E3E3E3E3E3E3E3E3EA1
:100190003E3E3E3E3E3E1D090100000000000000C4
:1001A0000080C0E8DCBE3E3E3E3E3E3E3E3E3E3E21
:1001B0003E3E3E3E3EBEDCE8C08000000000000047
:1001C000001F3F7FBFDFE0E0E0E0E0E0E0E0E0E0F4
:1001D000E0E0E0E0E0DFBF7F3F1F00000000000044
:1001E00000FCFEFFFEFD03030303030303030303FD
:1001F0000303030303FDFEFFFEFC000000000000FC
:100200000000010B1D3E3E3E3E3E3E3E3E3E3E3E1B
:100210003E3E3E3E3E3E1D0B010000000000000041
:100220000080C0E8DCBE3E3E3E3E3E3E3E3E3E3EA0
:100230003E3E3E3E3EBEDCE8C080000000000000C6
:10024000001F3F7F3F1F0000000000000000000073
:1002500000000000001F3F7F3F1F00000000000063
:10026000000000000000000000000000000000008E
:100270000000000000FCFEFFFEFC0000000000008B
:10028000000000000000000000000000000000006E
:10029000000000000003070F07030000000000003B
:1002A0000080C0E8DCBE3E3E3E3E3E3E3E3E3E3E20
:1002B0003E3E3E3E3E3E1C080000000000000000A6
:1002C000001F3F7FBFDFE0E0E0E0E0E0E0E0E0E0F3
:1002D000E0E0E0E0E0C0800000000000000000007E
:1002E00000FCFEFFFEFD03030303030303030303FC
:1002F0000303030303FDFEFFFEFC000000000000FB
:100300000000010B1D3E3E3E3E3E3E3E3E3E3E3E1A
:100310003E3E3E3E3E3E1D0B010000000000000040
:100320000080C0E8DCBE3E3E3E3E3E3E3E3E3E3E9F
:100330003E3E3E3E3E3E1C08000000000000000025
:10034000001F3F7FBFDFE0E0E0E0E0E0E0E0E0E072
:10035000E0E0E0E0E0C080000000000000000000FD
:10036000000000000001030303030303030303036E
:100370000303030303FDFEFFFEFC0000000000007A
:10038000000000081C3E3E3E3E3E3E3E3E3E3E3E9F
:100390003E3E3E3E3E3E1D0B0100000000000000C0
:1003A00000E0F0F8F0E000000000000000000000B5
:1003B0000000000000E0F0F8F0E0000000000000A5
:1003C000001F3F7FBFDFE0E0E0E0E0E0E0E0E0E0F2
:1003D000E0E0E0E0E0DFBF7F3F1F00000000000042
:1003E00000000000000103030303030303030303EE
:1003F0000303030303FDFEFFFEFC000000000000FA
:1004000000000000000000000000000000000000EC
:10041000000000000003070F0703000000000000B9
:10042000000000081C3E3E3E3E3E3E3E3E3E3E3EFE
:100430003E3E3E3E3EBEDCE8C080000000000000C4
:100440000000000080C0E0E0E0E0E0E0E0E0E0E0AC
:10045000E0E0E0E0E0DFBF7F3F1F000000000000C1
:10046000000000000001030303030303030303036D
:100470000303030303FDFEFFFEFC00000000000079
:10048000000000081C3E3E3E3E3E3E3E3E3E3E3E9E
:100490003E3E3E3E3E3E1D0B0100000000000000BF
:1004A000000000081C3E3E3E3E3E3E3E3E3E3E3E7E
:1004B0003E3E3E3E3EBEDCE8C08000000000000044
:1004C0000000000080C0E0E0E0E0E0E0E0E0E0E02C
:1004D000E0E0E0E0E0DFBF7F3F1F00000000000041
:1004E00000FCFEFFFEFD03030303030303030303FA
:1004F00003030303030100000000000000000000EC
:100500000000010B1D3E3E3E3E3E3E3E3E3E3E3E18
:100510003E3E3E3E3E3E1C08000000000000000043
:1005200000000000000000000000000000000000CB
:100530000000000000F0F8FCF8F0000000000000EF
:1005400000000000000000000000000000000000AB
:1005500000000000001F3F7F3F1F00000000000060
:10056000000000000000000000000000000000008B
:100570000000000000FCFEFFFEFC00000000000088
:10058000000000000000000000000000000000006B
:100590000000000000070F1F0F0700000000000010
:1005A0000080C0E8DCBE3E3E3E3E3E3E3E3E3E3E1D
:1005B0003E3E3E3E3EBEDCE8C08000000000000043
:1005C000001F3F7F3F1F00000000000000000000F0
:1005D00000000000001F3F7F3F1F000000000000E0
:1005E00000FCFEFFFEFC0000000000000000000018
:1005F0000000000000FCFEFFFEFC00000000000008
:100600000000010B1D3E3E3E3E3E3E3E3E3E3E3E17
:100610003E3E3E3E3E3E1D0B01000000000000003D
:1006200000000000000000000000000000000000CA
:1006300000000000000000000000000000000000BA
:1006400082C262321E0E00000000000000000000A6
:100650000000000000000000000000000000004258
:1006600062325E6E321E0E000000000000000000CC
:10067000000000000000000000000000000000007A
:10068000FEFE80808080000000000000000000006E
:10069000000000000000000000000000000000005A
:1006A000FEFE828282820000000000000000000046
:1006B000000000000000000000000000000000FE3C
:1006C000FE82FEFE828200000000000000000000AA
:1006D0000000000000000000000000000000007AA0
:1006E0007A4A4A4A4E4E0000000000000000000016
:1006F0000000000000000000000000000000007E7C
:100700007E4242427E7E00000000000000000000A9
:100710000000000000000000000000000000007E5B
:100720007E4848487E7E0000000000000000000077
:100730000000000000000000000000000000007E3B
:100740005E487E5E487E7E000000000000000000E3
:100750000000000000000000000000000000004059
:1007600060301E1E306040000000000000000000ED
:1007700000000000000000000000000000004060D9
:100780003E5E603E1E604000000000000000000071
:100790000000000000000000000000000000000059
:1007A0003C7E42427E3C0000000000000000000051
:1007B00000000000000000000000000000000042F7
:1007C00062321E1E32624200000000000000000083
:1007D0000000000000000000000000000000426275
:1007E0003E5E623E1E62420000000000000000000B
:1007F00000000000000000000000000000000044B5
:1008000064341E1E34644400000000000000000038
:1008100000000000000000000000000000000000D8
:100820008ACA6A3A1E0E00000000000000000000A4
:100830000000000000000000000000000000007E3A
:100840007E4A4A4A4A4000000000000000000000C2
:100850000000000000000000000000000000004256
:100860007E7E42427E7E42000000000000000000CA
:100870000000000000000000000000000000000276
:100880003A7E47477E3A0200000000000000000068
:100890000000000000000000000000000000000058
:1008A0000000000000000000000000000000000048
:1008B0000000000000000000000000000000000038
:1008C00002020202020202023E3E0000000000009C
:1008D0000000000000000000000000000000000018
:1008E0000202023E3E0202023E3E00000000000004
:1008F00000000000000000000000000000000000F8
:100900003E3E20202020202020200000000000006B
:1009100000000000000000000000000000000000D7
:100920003E3E22222222222222220000000000003B
:1009300000000000000000000000000000000000B7
:100940003E3E2222003E3E22222200000000000005
:100950000000000000000000000000000000000097
:100960003A3A2A2A2A2A2A2A2E2E000000000000BB
:100970000000000000000000000000000000000077
:10098000003E3E222222223E3E00000000000000E7
:100990000000000000000000000000000000000057
:1009A0003E3E2828282828283E3E0000000000005F
:1009B0000000000000000000000000000000000037
:1009C0003E3E28283E3E28283E3E00000000000013
:1009D0000000000000000000000000000000000017
:1009E0002030180C06060C18302000000000000013
:1009F00000000000000000000000000000000000F7
:100A000020301E1E30301E1E30200000000000006E
:100A100000000000000000000000000000000000D6
:100A2000001C3E222222223E1C000000000000008A
:100A300000000000000000000000000000000000B6
:100A400022321A0E06060E1A3222000000000000A2
:100A50000000000000000000000000000000000096
:100A600022321A2E361A0E0E32220000000000002A
:100A70000000000000000000000000000000000076
:100A800024341C0C06060C1C34240000000000005A
:100A90000000000000000000000000000000000056
:100AA0000A0A0A0A0A0A0A0A3E3E0000000000007A
:100AB0000000000000000000000000000000000036
:100AC0003E3E2A2A2A2A2A2A2A2A0000000000005A
:100AD0000000000000000000000000000000000016
:100AE00022223E3E22223E3E222200000000000042
:100AF00000000000000000000000000000000000F6
:100B0000021A3E262727263E1A0200000000000097
:100B100000000000000000000000000000000000D5
:100B200000000000000000000000000000000000C5
:100B300000000000000000000000000000000000B5
:100B400002020202020202023E3E00000000000019
:100B50000000000000000000000000000000000095
:100B60000202023E3E0202023E3E00000000000081
:100B70000000000000000000000000000000000075
:100B80003E3E2020202020202020000000000000E9
:100B90000000000000000000000000000000000055
:100BA0003E3E2222222222222222000000000000B9
:100BB0000000000000000000000000000000000035
:100BC0003E3E2222003E3E22222200000000000083
:100BD0000000000000000000000000000000000015
:100BE0003A3A2A2A2A2A2A2A2E2E00000000000039
:100BF00000000000000000000000000000000000F5
:100C0000003E3E222222223E3E0000000000000064
:100C100000000000000000000000000000000000D4
:100C20003E3E2828282828283E3E000000000000DC
:100C300000000000000000000000000000000000B4
:100C40003E3E28283E3E28283E3E00000000000090
:100C50000000000000000000000000000000000094
:100C60002030180C06060C18302000000000000090
:100C70000000000000000000000000000000000074
:100C800020301E1E30301E1E3020000000000000EC
:100C90000000000000000000000000000000000054
:100CA000001C3E222222223E1C0000000000000008
:100CB0000000000000000000000000000000000034
:100CC00022321A0E06060E1A322200000000000020
:100CD0000000000000000000000000000000000014
:100CE00022321A2E361A0E0E3222000000000000A8
:100CF00000000000000000000000000000000000F4
:100D000024341C0C06060C1C3424000000000000D7
:100D100000000000000000000000000000000000D3
:100D20000A0A0A0A0A0A0A0A3E3E000000000000F7
:100D300000000000000000000000000000000000B3
:100D40003E3E2A2A2A2A2A2A2A2A000000000000D7
:100D50000000000000000000000000000000000093
:100D600022223E3E22223E3E2222000000000000BF
:100D70000000000000000000000000000000000073
:100D8000021A3E262727263E1A0200000000000015
:100D90000000000000000000000000000000000053
:100DA0000000000000000000000000000000000043
:100DB0000000000000000000000000000000000231
:100DC000020202023E3E000000000000000000009F
:100DD000000000000000000000000000000002020F
:100DE0003E3E02023E3E0000000000000000000007
:100DF0000000000000000000000000000000003EB5
:100E00003E202020202020000000000000000000E4
:100E10000000000000000000000000000000003E94
:100E20003E222222222222000000000000000000B8
:100E30000000000000000000000000000000003E74
:100E40003E22223E3E222200000000000000000060
:100E50000000000000000000000000000000003A58
:100E60003A2A2A2A2E2E000000000000000000006E
:100E70000000000000000000000000000000003E34
:100E80003E2222223E3E0000000000000000000042
:100E90000000000000000000000000000000003E14
:100EA0003E2828283E3E0000000000000000000010
:100EB0000000000000000000000000000000003EF4
:100EC0002E283E2E283E3E000000000000000000BC
:100ED00000000000000000000000000000000020F2
:100EE00030180E0E18302000000000000000000036
:100EF00000000000000000000000000000000020D2
:100F0000301E2E301E0E30200000000000000000B9
:100F100000000000000000000000000000000000D1
:100F20001C3E22223E1C00000000000000000000C9
:100F3000000000000000000000000000000000228F
:100F4000321A0E0E1A3222000000000000000000CB
:100F5000000000000000000000000000000022323D
:100F60001E2E321E0E322200000000000000000083
:100F7000000000000000000000000000000000244D
:100F8000341C0E0E1C342400000000000000000081
:100F90000000000000000000000000000000000A47
:100FA0000A0A0A0A0A3E3E00000000000000000093
:100FB0000000000000000000000000000000003EF3
:100FC0003E2A2A2A2A2A0000000000000000000011
:100FD00000000000000000000000000000000022EF
:100FE0003E3E22223E3E22000000000000000000A3
:100FF00000000000000000000000000000000002EF
:101000001A3E27273E1A02000000000000000000E0
:1010100000000000000000000000000000000000D0
:1010200000000000000000000000000000000000C0
:1010300000000000000000000000000000000002AE
:10104000020202023E3E000000000000000000001C
:10105000000000000000000000000000000002028C
:101060003E3E02023E3E0000000000000000000084
:101070000000000000000000000000000000003E32
:101080003E20202020202000000000000000000062
:101090000000000000000000000000000000003E12
:1010A0003E22222222222200000000000000000036
:1010B0000000000000000000000000000000003EF2
:1010C0003E22223E3E2222000000000000000000DE
:1010D0000000000000000000000000000000003AD6
:1010E0003A2A2A2A2E2E00000000000000000000EC
:1010F0000000000000000000000000000000003EB2
:101100003E2222223E3E00000000000000000000BF
:101110000000000000000000000000000000003E91
:101120003E2828283E3E000000000000000000008D
:101130000000000000000000000000000000003E71
:101140002E283E2E283E3E00000000000000000039
:10115000000000000000000000000000000000206F
:1011600030180E0E183020000000000000000000B3
:10117000000000000000000000000000000000204F
:10118000301E2E301E0E3020000000000000000037
:10119000000000000000000000000000000000004F
:1011A0001C3E22223E1C0000000000000000000047
:1011B000000000000000000000000000000000220D
:1011C000321A0E0E1A322200000000000000000049
:1011D00000000000000000000000000000002232BB
:1011E0001E2E321E0E322200000000000000000001
:1011F00000000000000000000000000000000024CB
:10120000341C0E0E1C3424000000000000000000FE
:101210000000000000000000000000000000000AC4
:101220000A0A0A0A0A3E3E00000000000000000010
:101230000000000000000000000000000000003E70
:101240003E2A2A2A2A2A000000000000000000008E
:10125000000000000000000000000000000000226C
:101260003E3E22223E3E2200000000000000000020
:10127000000000000000000000000000000000026C
:101280001A3E27273E1A020000000000000000005E
:10129000000000000000000000000000000000004E
:1012A000000000000000000000000000000000003E
:1012B00000000000000000000000000000000082AC
:1012C000C262321E0E00000000000000000000009C
:1012D000000000000000000000000000000042626A
:1012E000325E6E321E0E00000000000000000000A2
:1012F000000000000000000000000000000000FEF0
:10130000FE8080808080000000000000000000005F
:10131000000000000000000000000000000000FECF
:10132000FE828282820000000000000000000000B7
:10133000000000000000000000000000000000FEAF
:10134000FE82FEFE8282000000000000000000001D
:101350000000000000000000000000000000007A13
:101360007A4A4A4E4E0000000000000000000000D3
:101370000000000000000000000000000000007EEF
:101380007E42427E7E00000000000000000000005F
:101390000000000000000000000000000000007ECF
:1013A0007E48487E7E000000000000000000000033
:1013B00000000000000000000000000000007E5E51
:1013C000487E5E487E000000000000000000000033
:1013D000000000000000000000000000000040606D
:1013E000301E1E30604000000000000000000000C1
:1013F0000000000000000000000000000040603E0F
:101400005E603E1E60400000000000000000000022
:101410000000000000000000000000000000003C90
:101420007E42427E3C000000000000000000000000
:101430000000000000000000000000000000426208
:10144000321E1E3262420000000000000000000058
:101450000000000000000000000000000042623EAA
:101460005E623E1E624000000000000000000000BE
:1014700000000000000000000000000000004464C4
:10148000341E1E3464440000000000000000000010
:101490000000000000000000000000000000008AC2
:1014A000CA6A3A1E0E0000000000000000000000A2
:1014B0000000000000000000000000000000007EAE
:1014C0007E4A4A4A4A000000000000000000000076
:1014D0000000000000000000000000000000427E4C
:1014E0007E427E7E420000000000000000000000FE
:1014F0000000000000000000000000000000023AB0
:101500007E47477E3A020000000000000000000015
:1015100000000000000000000000000000000000CB
:1015200000000000000000000000000000000000BB
:1015300000000000000000000000000000000000AB
:1015400002020202020202023E3E0000000000000F
:10155000000000000000000000000000000000008B
:101560000202023E3E0202023E3E00000000000077
:10157000000000000000000000000000000000006B
:101580003E3E2020202020202020000000000000DF
:10159000000000000000000000000000000000004B
:1015A0003E3E2222222222222222000000000000AF
:1015B000000000000000000000000000000000002B
:1015C0003E3E2222003E3E22222200000000000079
:1015D000000000000000000000000000000000000B
:1015E0003A3A2A2A2A2A2A2A2E2E0000000000002F
:1015F00000000000000000000000000000000000EB
:10160000003E3E222222223E3E000000000000005A
:1016100000000000000000000000000000000000CA
:101620003E3E2828282828283E3E000000000000D2
:1016300000000000000000000000000000000000AA
:101640003E3E28283E3E28283E3E00000000000086
:10165000000000000000000000000000000000008A
:101660002030180C06060C18302000000000000086
:10167000000000000000000000000000000000006A
:1016800020301E1E30301E1E3020000000000000E2
:10169000000000000000000000000000000000004A
:1016A000001C3E222222223E1C00000000000000FE
:1016B000000000000000000000000000000000002A
:1016C00022321A0E06060E1A322200000000000016
:1016D000000000000000000000000000000000000A
:1016E00022321A2E361A0E0E32220000000000009E
:1016F00000000000000000000000000000000000EA
:1017000024341C0C06060C1C3424000000000000CD
:1017100000000000000000000000000000000000C9
:101720000A0A0A0A0A0A0A0A3E3E000000000000ED
:1017300000000000000000000000000000000000A9
:101740003E3E2A2A2A2A2A2A2A2A000000000000CD
:101750000000000000000000000000000000000089
:1017600022223E3E22223E3E2222000000000000B5
:101770000000000000000000000000000000000069
:10178000021A3E262727263E1A020000000000000B
:101790000000000000000000000000000000000049
:1017A0000000000000000000000000000000000039
:1017B0000000000000000000000000000000000227
:1017C0000202023E3E000000000000000000000097
:1017D0000000000000000000000000000000020205
:1017E0003E3E02023E3E00000000000000000000FD
:1017F0000000000000000000000000000000003EAB
:101800003E202020202000000000000000000000FA
:101810000000000000000000000000000000003E8A
:101820003E222222220000000000000000000000F2
:101830000000000000000000000000000000003E6A
:101840003E223E3E22220000000000000000000078
:1018500000000000000000000000000000003A3A14
:101860002A2A2A2E2E00000000000000000000009E
:1018700000000000000000000000000000003E3EEC
:101880002222223E3E000000000000000000000076
:1018900000000000000000000000000000003E3ECC
:1018A0002828283E3E000000000000000000000044
:1018B00000000000000000000000000000003E2EBC
:1018C000283E2E283E00000000000000000000001E
:1018D00000000000000000000000000000002030B8
:1018E000180E0E183020000000000000000000005C
:1018F0000000000000000000000000000000203098
:101900001E2E301E0E3020000000000000000000DF
:101910000000000000000000000000000000001CAB
:101920003E22223E1C0000000000000000000000DB
:101930000000000000000000000000000000223253
:101940001A0E0E1A322200000000000000000000F3
:101950000000000000000000000000000022321E15
:101960002E321E0E32220000000000000000000097
:10197000000000000000000000000000000024340F
:101980001C0E0E1C342400000000000000000000AB
:1019900000000000000000000000000000000A0A33
:1019A0000A0A0A3E3E00000000000000000000009D
:1019B0000000000000000000000000000000003EE9
:1019C0003E2A2A2A2A000000000000000000000031
:1019D0000000000000000000000000000000223EA7
:1019E0003E223E3E220000000000000000000000F9
:1019F0000000000000000000000000000000021ACB
:101A00003E27273E1A0200000000000000000000F0
:101A100000000000000000000000000000000000C6
:101A200000000000000000000000000000000000B6
:101A300000000000000000000000000000000000A6
:101A4000000000000000000000FEFE10100000007A
:101A50000000000000000000001F1F000000000048
:101A600000000000000000FEFE20FEFE000000005E
:101A7000000000000000000F0F001F1F000000000A
:101A8000000000000000000000FEFE4848000000CA
:101A90000000000000000000001F1F000000000008
:101AA00000000000000000FEFE90FEFE00000000AE
:101AB000000000000000000F0F001F1F00000000CA
:101AC000000000000000101010FEFE0000000000EA
:101AD0000000000000000000001F1F0000000000C8
:101AE00000000000101010FEFE00FEFE00000000CE
:101AF000000000000000000F0F001F1F000000008A
:101B0000000000000000282828FEFE000000000061
:101B10000000000000000000001F1F000000000087
:101B200000000000282828FEFE00FEFE0000000045
:101B3000000000000000000F0F001F1F0000000049
:101B40000000000080800000000000000000000491
:101B50000404040407070404040404000000000053
:101B60000000808000000000FEFE80800000000277
:101B700002020303020202001F1F00000000000017
:101B800000808000000000FEFE20FEFE0000020239
:101B9000020303020202020F0F001F1F00000000D9
:101BA000000080800000000000FEFE000000000237
:101BB0000202030302020202021F1F0000000000D3
:101BC0000000808000008080000000000000000411
:101BD00004040707040407070404040000000000CD
:101BE00000000000000000000000000000000001F4
:101BF000010101013F3F01010101010000000080DE
:101C0000808080808080808000FEFE0000000000D8
:101C100000001F1F00000404043F3F0000008080FC
:101C200080808080808000FEFE00FEFE00000000BC
:101C3000000F0F000404041F1F003F3F000000803E
:101C4000808080808080808000FEFE000000000098
:101C500000001F1F00000000003F3F0000000000C8
:101C60000000000000000000000000000000000173
:101C700001013F3F01013F3F010101000000000061
:101C80000000000000000000000000000000000450
:101C90000404040404040404040404040000000014
:101CA000000000000000000000FEFE000000000137
:101CB0000101010101010101001F1F0000000000DE
:101CC000000000000000000000FEFE000000000018
:101CD0000000000000000000001F1F0000000000C6
:101CE00000000000000000000000000000000000F4
:101CF00000000000000000000000000000000000E4
:101D0000000000000000000000FEFE1010000000B7
:101D10000000000000000000001F1F000000000085
:101D200000000000000000FEFE20FEFE000000009B
:101D3000000000000000000F0F001F1F0000000047
:101D4000000000000000000000FEFE484800000007
:101D50000000000000000000001F1F000000000045
:101D600000000000000000FEFE90FEFE00000000EB
:101D7000000000000000000F0F001F1F0000000007
:101D8000000000000000101010FEFE000000000027
:101D90000000000000000000001F1F000000000005
:101DA00000000000101010FEFE00FEFE000000000B
:101DB000000000000000000F0F001F1F00000000C7
:101DC000000000000000282828FEFE00000000009F
:101DD0000000000000000000001F1F0000000000C5
:101DE00000000000282828FEFE00FEFE0000000083
:101DF000000000000000000F0F001F1F0000000087
:101E000000000000808000000000000000000004CE
:101E10000404040407070404040404000000000090
:101E20000000808000000000FEFE808000000002B4
:101E300002020303020202001F1F00000000000054
:101E400000808000000000FEFE20FEFE0000020276
:101E5000020303020202020F0F001F1F0000000016
:101E6000000080800000000000FEFE000000000274
:101E70000202030302020202021F1F000000000010
:101E8000000080800000808000000000000000044E
:101E9000040407070404070704040400000000000A
:101EA0000000000000000000000000000000000131
:101EB000010101013F3F010101010100000000801B
:101EC000808080808080808000FEFE000000000016
:101ED00000001F1F00000404043F3F00000080803A
:101EE00080808080808000FEFE00FEFE00000000FA
:101EF000000F0F000404041F1F003F3F000000807C
:101F0000808080808080808000FEFE0000000000D5
:101F100000001F1F00000000003F3F000000000005
:101F200000000000000000000000000000000001B0
:101F300001013F3F01013F3F01010100000000009E
:101F4000000000000000000000000000000000048D
:101F50000404040404040404040404040000000051
:101F6000000000000000000000FEFE000000000174
:101F70000101010101010101001F1F00000000001B
:101F8000000000000000000000FEFE000000000055
:101F90000000000000000000001F1F000000000003
:101FA0000000000000000000000000000000000031
:101FB0000000000000000000000000000000000021
:101FC000000000000000000000FEFE1010000000F5
:101FD00000000000000000000001010000000000FF
:101FE00000000000000000FEFE10FEFE00000000E9
:101FF00000000000000000010100010100000000DD
:10200000000000000000000000FEFE282800000084
:1020100000000000000000000001010000000000BE
:1020200000000000000000FEFE50FEFE0000000068
:10203000000000000000000101000101000000009C
:10204000000000000000101010FEFE000000000064
:10205000000000000000000000010100000000007E
:1020600000000000101010FEFE00FEFE0000000048
:10207000000000000000000101000101000000005C
:10208000000000000000282828FEFE0000000000DC
:10209000000000000000000000010100000000003E
:1020A00000000000002828FEFE00FEFE00000000E8
:1020B000000000000000000101000101000000001C
:1020C00000000000E0E0000000000000000000014F
:1020D00001010101010101010101010000000000F5
:1020E0000000C0C00000000000FEFE101000000153
:1020F00001010101010101010001010000000000D6
:1021000000C0C000000000FEFE10FEFE0000010145
:1021100001010101010100010100010100000000B5
:102120000000C0C00000000000FEFE000000000132
:102130000101010101010101000101000000000095
:102140000000C0C00000C0C000000000000000018E
:1021500001010101010101010101010000000080F4
:1021600080808080808080808080800000000000EF
:1021700000000000030300000000000000000080D9
:10218000808080808080001010FEFE000000000033
:102190000203010000000000000101000000808037
:1021A00080808080809010FEFE00FEFE0000000017
:1021B0000203010000000001010001010000008095
:1021C000808080808080808000FEFE000000000013
:1021D0000203010000000000000101000000008077
:1021E000808080808080808080808000000000006F
:1021F00000000303000003030000000000000000D3
:1022000000000000000000000000000000000001CD
:1022100001010101010101010101010000000000B3
:10222000000000000000000000FEFE0000000001B1
:102230000101010101010101000101000000000094
:10224000000000000000000000FEFE000000000092
:10225000000000000000000000010100000000007C
:10226000000000000000000000000000000000006E
:10227000000000000000000000000000000000005E
:10228000000000000000000000FEFE101000000032
:10229000000000000000000000010100000000003C
:1022A00000000000000000FEFE10FEFE0000000026
:1022B000000000000000000101000101000000001A
:1022C000000000000000000000FEFE2828000000C2
:1022D00000000000000000000001010000000000FC
:1022E00000000000000000FEFE50FEFE00000000A6
:1022F00000000000000000010100010100000000DA
:10230000000000000000101010FEFE0000000000A1
:1023100000000000000000000001010000000000BB
:1023200000000000101010FEFE00FEFE0000000085
:102330000000000000000001010001010000000099
:10234000000000000000282828FEFE000000000019
:10235000000000000000000000010100000000007B
:1023600000000000002828FEFE00FEFE0000000025
:102370000000000000000001010001010000000059
:1023800000000000E0E0000000000000000000018C
:102390000101010101010101010101000000000032
:1023A0000000C0C00000000000FEFE101000000190
:1023B0000101010101010101000101000000000013
:1023C00000C0C000000000FEFE10FEFE0000010183
:1023D00001010101010100010100010100000000F3
:1023E0000000C0C00000000000FEFE000000000170
:1023F00001010101010101010001010000000000D3
:102400000000C0C00000C0C00000000000000001CB
:102410000101010101010101010101000000008031
:10242000808080808080808080808000000000002C
:102430000000000003030000000000000000008016
:10244000808080808080001010FEFE000000000070
:102450000203010000000000000101000000808074
:1024600080808080809010FEFE00FEFE0000000054
:1024700002030100000000010100010100000080D2
:10248000808080808080808000FEFE000000000050
:1024900002030100000000000001010000000080B4
:1024A00080808080808080808080800000000000AC
:1024B0000000030300000303000000000000000010
:1024C000000000000000000000000000000000010B
:1024D00001010101010101010101010000000000F1
:1024E000000000000000000000FEFE0000000001EF
:1024F00001010101010101010001010000000000D2
:10250000000000000000000000FEFE0000000000CF
:1025100000000000000000000001010000000000B9
:1025200000000000000000000000000000000000AB
:10253000000000000000000000000000000000009B
:10254000000000000000000000000000000000008B
:102550000000040404040404047C7C000000000067
:10256000000000000000000000000000000000006B
:10257000000404047C7C0404047C7C000000000053
:10258000000000000000000000000000000000004B
:10259000000404047C7C40603C3C6040000000007F
:1025A000000000000000000000000000000000002B
:1025B0000000007C7C4040404040400000000000A3
:1025C000000000000000000000000000000000000B
:1025D00000007C7C404044643C3C644400000000BB
:1025E00000000000000000000000000000000000EB
:1025F00000007C7C404028785C5C7828000000006B
:1026000000000000000000000000000000000000CA
:102610000000007C7C44444444444400000000002A
:1026200000000000000000000000000000000000AA
:102630000000007474545454545C5C0000000000AA
:10264000000000000000000000000000000000008A
:1026500000007474545C5C04047C7C000000000086
:10266000000000000000000000000000000000006A
:10267000007474545C5C007C7C447C7C0000000032
:10268000000000000000000000000000000000004A
:10269000007474545C5C007C7C507C7C0000000006
:1026A000000000000000000000000000000000002A
:1026B00000007474545C5C40603C3C60400000006E
:1026C000000000000000000000000000000000000A
:1026D000007474545C5C007C7C5454540000000012
:1026E00000000000000000000000000000000000EA
:1026F000007474545C5C00447C447C440000000022
:1027000000000000000000000000000000000000C9
:10271000007474545C5C28785C5C782800000000CD
:1027200000000000000000000000000000000000A9
:102730000000007C7C444444447C7C000000000099
:102740000000000000000000000000000000000089
:102750000000007C7C505050507C7C000000000049
:102760000000000000000000000000000000000069
:1027700000007C7C507C7C40603C3C604000000061
:102780000000000000000000000000000000000049
:102790000000406030180C0C183060400000000051
:1027A0000000000000000000000000000000000029
:1027B00000004060305C7C301C1C30604000000039
:1027C0000000000000000000000000000000000009
:1027D00000000000387C4444447C380000000000C5
:1027E00000000000000000000000000000000000E9
:1027F00000004848283818183828484800000000C9
:1028000000000000000000000000000000000000C8
:102810000000484828381C1C3828484800000000A0
:1028200000000000000000000000000000000000A8
:102830000000141414141414147C7C000000000014
:102840000000000000000000000000000000000088
:10285000000000007C7C54545454540000000000DC
:102860000000000000000000000000000000000068
:10287000000000447C7C44447C7C44000000000058
:102880000000000000000000000000000000000048
:102890000000000828785C5C5C78280800000000D4
:1028A0000000000000000000000000000000000028
:1028B0000000000000000000000000000000000018
:1028C0000000000000000000000000000000000008
:1028D0000000040404040404047C7C0000000000E4
:1028E00000000000000000000000000000000000E8
:1028F000000404047C7C0404047C7C0000000000D0
:1029000000000000000000000000000000000000C7
:10291000000404047C7C40603C3C604000000000FB
:1029200000000000000000000000000000000000A7
:102930000000007C7C40404040404000000000001F
:102940000000000000000000000000000000000087
:1029500000007C7C404044643C3C64440000000037
:102960000000000000000000000000000000000067
:1029700000007C7C404028785C5C782800000000E7
:102980000000000000000000000000000000000047
:102990000000007C7C4444444444440000000000A7
:1029A0000000000000000000000000000000000027
:1029B0000000007474545454545C5C000000000027
:1029C0000000000000000000000000000000000007
:1029D00000007474545C5C04047C7C000000000003
:1029E00000000000000000000000000000000000E7
:1029F000007474545C5C007C7C447C7C00000000AF
:102A000000000000000000000000000000000000C6
:102A1000007474545C5C007C7C507C7C0000000082
:102A200000000000000000000000000000000000A6
:102A300000007474545C5C40603C3C6040000000EA
:102A40000000000000000000000000000000000086
:102A5000007474545C5C007C7C545454000000008E
:102A60000000000000000000000000000000000066
:102A7000007474545C5C00447C447C44000000009E
:102A80000000000000000000000000000000000046
:102A9000007474545C5C28785C5C7828000000004A
:102AA0000000000000000000000000000000000026
:102AB0000000007C7C444444447C7C000000000016
:102AC0000000000000000000000000000000000006
:102AD0000000007C7C505050507C7C0000000000C6
:102AE00000000000000000000000000000000000E6
:102AF00000007C7C507C7C40603C3C6040000000DE
:102B000000000000000000000000000000000000C5
:102B10000000406030180C0C1830604000000000CD
:102B200000000000000000000000000000000000A5
:102B300000004060305C7C301C1C306040000000B5
:102B40000000000000000000000000000000000085
:102B500000000000387C4444447C38000000000041
:102B60000000000000000000000000000000000065
:102B70000000484828381818382848480000000045
:102B80000000000000000000000000000000000045
:102B90000000484828381C1C38284848000000001D
:102BA0000000000000000000000000000000000025
:102BB0000000141414141414147C7C000000000091
:102BC0000000000000000000000000000000000005
:102BD000000000007C7C5454545454000000000059
:102BE00000000000000000000000000000000000E5
:102BF000000000447C7C44447C7C440000000000D5
:102C000000000000000000000000000000000000C4
:102C10000000000828785C5C5C7828080000000050
:102C200000000000000000000000000000000000A4
:102C30000000000000000000000000000000000094
:102C40000000000000000000000000000000000084
:102C5000000004040404040404047C7C000000005C
:102C60000000000000000000000000000000000064
:102C700000040404047C7C0404047C7C0000000048
:102C80000000000000000000000000000000000044
:102C900000040404047C7C40603C3C604000000074
:102CA0000000000000000000000000000000000024
:102CB0000000007C7C40404040404040000000005C
:102CC0000000000000000000000000000000000004
:102CD00000007C7C404044643C3C644400000000B4
:102CE00000000000000000000000000000000000E4
:102CF000007C7C40404028785C5C78280000000024
:102D000000000000000000000000000000000000C3
:102D10000000007C7C4444444444444400000000DF
:102D200000000000000000000000000000000000A3
:102D3000000000747454545454545C5C000000004F
:102D40000000000000000000000000000000000083
:102D500000007474545C5C0404047C7C000000007B
:102D60000000000000000000000000000000000063
:102D7000007474545C5C007C7C447C7C000000002B
:102D80000000000000000000000000000000000043
:102D9000007474545C5C007C7C507C7C00000000FF
:102DA0000000000000000000000000000000000023
:102DB00000007474545C5C40603C3C604000000067
:102DC0000000000000000000000000000000000003
:102DD000007474545C5C007C7C545454000000000B
:102DE00000000000000000000000000000000000E3
:102DF000007474545C5C00447C447C44000000001B
:102E000000000000000000000000000000000000C2
:102E1000007474545C5C0028785C5C7828000000C6
:102E200000000000000000000000000000000000A2
:102E30000000007C7C44444444447C7C000000004E
:102E40000000000000000000000000000000000082
:102E50000000007C7C50505050507C7C00000000F2
:102E60000000000000000000000000000000000062
:102E700000007C7C507C7C40603C3C60400000005A
:102E80000000000000000000000000000000000042
:102E90000000406030180C0C18306040000000004A
:102EA0000000000000000000000000000000000022
:102EB00000004060305C7C301C1C30604000000032
:102EC0000000000000000000000000000000000002
:102ED0000000000000387C4444447C3800000000BE
:102EE00000000000000000000000000000000000E2
:102EF00000004848283818183828484800000000C2
:102F000000000000000000000000000000000000C1
:102F10000000484828381C1C382848480000000099
:102F200000000000000000000000000000000000A1
:102F3000000000141414141414147C7C000000000D
:102F40000000000000000000000000000000000081
:102F5000000000007C7C5454545454540000000081
:102F60000000000000000000000000000000000061
:102F7000000044447C7C44447C7C444400000000C9
:102F80000000000000000000000000000000000041
:102F90000000000828785C5C5C5C78280800000071
:102FA0000000000000000000000000000000000021
:102FB0000000000000000000000000000000000011
:102FC0000000000000000000000000000000000001
:102FD00004040404040404047C7C000000000000D9
:102FE00000000000000000000000000000000000E1
:102FF0000404047C7C0404047C7C000000000000C9
:1030000000000000000000000000000000000000C0
:103010000404047C7C40603C3C60400000000000F4
:1030200000000000000000000000000000000000A0
:103030007C7C404040404040404000000000000098
:103040000000000000000000000000000000000080
:103050007C7C40404044643C3C64440000000000F0
:103060000000000000000000000000000000000060
:103070007C7C40404028785C5C78280000000000A0
:103080000000000000000000000000000000000040
:103090007C7C444444444444444400000000000018
:1030A0000000000000000000000000000000000020
:1030B00074745454545454545C5C00000000000078
:1030C0000000000000000000000000000000000000
:1030D0007474545C5C0004047C7C000000000000FC
:1030E00000000000000000000000000000000000E0
:1030F0007474545C5C007C7C447C7C0000000000A8
:1031000000000000000000000000000000000000BF
:103110007474545C5C007C7C507C7C00000000007B
:10312000000000000000000000000000000000009F
:103130007474545C5C40603C3C60400000000000E3
:10314000000000000000000000000000000000007F
:103150007474545C5C007C7C545454000000000087
:10316000000000000000000000000000000000005F
:103170007474545C5C00447C447C44000000000097
:10318000000000000000000000000000000000003F
:103190007474545C5C28785C5C7828000000000043
:1031A000000000000000000000000000000000001F
:1031B0007C7C4444444444447C7C00000000000087
:1031C00000000000000000000000000000000000FF
:1031D0007C7C5050505050507C7C0000000000001F
:1031E00000000000000000000000000000000000DF
:1031F0007C7C507C7C40603C3C60400000000000D7
:1032000000000000000000000000000000000000BE
:10321000406030180C0C18306040000000000000C6
:10322000000000000000000000000000000000009E
:103230004060305C7C301C1C3060400000000000AE
:10324000000000000000000000000000000000007E
:1032500000387C444444447C3800000000000000F6
:10326000000000000000000000000000000000005E
:10327000486838180808183868480000000000003E
:10328000000000000000000000000000000000003E
:10329000486838180C0C1838684800000000000016
:1032A000000000000000000000000000000000001E
:1032B00014141414141414147C7C00000000000076
:1032C00000000000000000000000000000000000FE
:1032D0007C7C545454545454545400000000000056
:1032E00000000000000000000000000000000000DE
:1032F00044447C7C44447C7C444400000000000046
:1033000000000000000000000000000000000000BD
:103310000828785C5C5C5C782808000000000000ED
:1033200000000000000000000000000000F804148D
:1033300004041404F80708090B0B090807F8FC6CCF
:103340007C7C6CFCF8070F0F0C0C0F0F0700F0F8DB
:10335000F8F0F8F8F000000103070301000040E076
:10336000F0F8F0E0400000000103010000E0E0F8A8
:103370001C1CF8E0E0000004070704000060F0F8FF
:10338000FCFCF8F060000004070704000000006087
:10339000F0F0600000000000000000000000FF1FCF
:1033A0000F0F0F1FFF00FFFFFEFEFEFFFF0000E0FC
:1033B000101010E000000000010101000000FF1FDC
:1033C000EFEFEF1FFF00FFFFFEFEFEFFFF0000908C
:1033D000487C4890000003040808080403003048B3
:1033E0008484844830000202020F020202000000BE
:1033F000FC0408700000060F070000000000000039
:10340000FC141414FC000C1E0F00060F075050E0B3
:10341000BCBCE0505001010007070001010000FCA6
:10342000F8F0E04000000007030100000000004049
:10343000E0F0F8FC00000000000103070000101895
:10344000FCFC18100000010307070301000000FC4A
:10345000FC0000FCFC0000040400000404387C4470
:10346000FCFC04FCFC000000070700070700C4EE9A
:103470003A1232E6C40008191312171D08000000A2
:103480000000000000000E0E0E0E0E0E00001018C0
:10349000FCFC18100008090B0F0F0B09080010188E
:1034A000FCFC1810000000000707000000000000EE
:1034B000FCFC00000000010307070301000040407E
:1034C0004050F0E04000000000010100000040E03A
:1034D000F0504040400000000101000000F80000F2
:1034E0000000000000030202020202020240E0505B
:1034F000404050E0400000010000010000000000DA
:10350000C0F0C000000004070707070704001070A0
:10351000F0F0F07010000000010701000000000052
:103520000000000000000000000000000000003863
:10353000FCFC3800000000000D0D000000000E1E15
:1035400000001E0E00000000000000000020F8F83F
:1035500020F8F82000020F0F020F0F0200387C4401
:103560004747CC9800060C0838380F070030300069
:1035700080C06030000C060301000C0C0080D87C79
:10358000E4BCD84000070F0808070F080000101E11
:103590000E0000000000000000000000000000F02D
:1035A000F80C040000000003070C080000000004F1
:1035B0000CF8F000000000080C0703000080A0E0F9
:1035C000C0C0E0A08000020301010302000080806F
:1035D000E0E0808000000000030300000000000025
:1035E00000000000000000101E0E0000008080801F
:1035F00080808080000000000000000000000000CB
:1036000000000000000000000C0C000000000000A2
:1036100080C06030000C06030100000000F0F80CD0
:10362000C40CF8F00003070C080C07030000101886
:10363000FCFC0000000008080F0F080800080C84BC
:10364000C4643C18000E0F0908080C0C00080C4458
:103650004444FCB800040C0808080F0700C0E0B0A0
:1036600098FCFC8000000000080F0F08007C7C44E0
:103670004444C48400040C0808080F0700F0F84C08
:103680004444C08000070F0808080F07000C0C0412
:1036900084C47C3C0000000F0F00000000B8FC4414
:1036A0004444FCB800070F0808080F0700387C44A2
:1036B0004444FCF800000808080C07030000000060
:1036C000303000000000000006060000000000008E
:1036D00030300000000000080E060000000080C02E
:1036E000603018080000000103060C0800002020CC
:1036F0002020202000000101010101010000081824
:103700003060C0800000080C0603010000181C0493
:10371000C4E43C18000000000D0D000000F0F808A3
:10372000C8C8F8F000070F080B0B0B0100E0F09879
:103730008C98F0E0000F0F0000000F0F0004FCFC5D
:103740004444FCB800080F0F08080F0700F0F80CFD
:1037500004040C180003070C08080C060004FCFC09
:10376000040CF8F000080F0F080C07030004FCFC21
:1037700044E40C1C00080F0F08080C0E0004FCFCAD
:1037800044E40C1C00080F0F0800000000F0F80CC7
:1037900084848C980003070C0808070F00FCFC4089
:1037A0004040FCFC000F0F0000000F0F0000000461
:1037B000FCFC0400000000080F0F080000000000DF
:1037C00004FCFC0400070F08080F07000004FCFCC1
:1037D000C0E03C1C00080F0F00010F0E0004FCFCB1
:1037E0000400000000080F0F08080C0E00FCFC3855
:1037F0007038FCFC000F0F0000000F0F00FCFC38BD
:1038000070E0FCFC000F0F0000000F0F00F8FC043C
:103810000404FCF800070F0808080F070004FCFC6C
:1038200044447C3800080F0F0800000000F8FC0436
:103830000404FCF800070F080E3C3F270004FCFCC2
:1038400044C4FC3800080F0F00000F0F00183C6440
:1038500044C49C1800060E0808080F0700001C0C42
:10386000FCFC0C1C000000080F0F080000FCFC0012
:103870000000FCFC00070F0808080F0700FCFC0014
:103880000000FCFC000103060C06030100FCFC0028
:10389000C000FCFC00070F0E030E0F07000C3CF0ED
:1038A000E0F03C0C000C0F0301030F0C00003C7C0B
:1038B000C0C07C3C000000080F0F0800001C0C84F6
:1038C000C4643C1C000E0F0908080C0E000000FC2C
:1038D000FC0404000000000F0F080800003870E02E
:1038E000C0800000000000000103070E000000047B
:1038F00004FCFC0000000008080F0F0000080C0684
:1039000003060C080000000000000000000000009A
:1039100000000000002020202020202020000003A4
:103920000704000000000000000000000000A0A04C
:10393000A0E0C00000070F0808070F080004FCFC07
:103940002060C08000000F0F08080F0700C0E020B3
:103950002020604000070F0808080C040080C060A9
:1039600024FCFC0000070F0808070F0800C0E0A0B7
:10397000A0A0E0C000070F0808080C040040F8FCF5
:10398000440C180000080F0F0800000000C0E020E1
:1039900020C0E02000276F48487F3F000004FCFC67
:1039A0004020E0C000080F0F00000F0F00000020B3
:1039B000ECEC0000000000080F0F08000000000001
:1039C0000020ECEC0000307040407F3F0004FCFC25
:1039D00080C0602000080F0F01030E0C00000004DF
:1039E000FCFC0000000000080F0F080000E0E06091
:1039F000C060E0C0000F0F0007000F0F0020E0C004
:103A00002020E0C000000F0F00000F0F00C0E020DA
:103A10002020E0C000070F0808080F070020E0C0C2
:103A20002020E0C000407F7F48080F0700C0E02052
:103A300020C0E02000070F08487F7F400020E0C042
:103A40006020E0C000080F0F080000000040E0A068
:103A50002020604000040C09090B0E04002020F80F
:103A6000FC202000000000070F080C0400E0E0002C
:103A700000E0E00000070F0808070F080000E0E082
:103A80000000E0E0000003070C0C070300E0E0008A
:103A90008000E0E000070F0C070C0F07002060C05B
:103AA00080C0602000080C0703070C0800E0E0005D
:103AB0000000E0E000474F4848683F1F006060207A
:103AC000A0E06020000C0E0B09080C0C0000404028
:103AD000F8BC040400000000070F08080000000004
:103AE000BCBC0000000000000F0F00000000040438
:103AF000BCF84040000008080F0700000080C040EC
:103B0000C080C0400000000000000000000000066F
:103B100009060000000000000000000000AEB0C870
:103B2000001040813FA1A6A83FA4D300D5F0D92220
:103B3000DA12DB208D14AF630062006E0062746ED7
:103B4000616D65200062746261756420006274704A
:103B5000696E73200070006100700062006F006188
:103B6000006F00670070006C696D69742000700060
:103B7000720070006100616E676C652000700070FB
:103B8000006100700061006700667720312E300010
:103B900043415053206765656B2C6F6C65642C62E4
:103BA0007400524541445920626F6172643D6172F4
:103BB0006D35617869732066773D312E30000000E5
:103BC0000000240027002A00000000002500280033
:103BD0002B0004040404040404040202020202028E
:103BE00003030303030301020408102040800102C1
:103BF0000408102001020408102000000008000240
:103C00000100000304070000000000000000A42CD5
:103C100011241FBECFEFD8E0DEBFCDBF12E0A0E081
:103C2000B1E0E6E8FCE602C005900D92A835B107C8
:103C3000D9F724E0A8E5B2E001C01D92A439B2078B
:103C4000E1F71EE1C8E0DEE104C02197FE010E9419
:103C5000FF35C730D107C9F70E941B2D0C944136A0
:103C60000C94000090E0FC01E650F44C2491FC011F
:103C7000EA51F44C3491FC01EE52F44CE491EE2301
:103C8000C9F0222339F0233001F1A8F4213019F1D1
:103C9000223029F1F0E0EE0FFF1FE853F44CA5911C
:103CA000B4918FB7F894EC91611126C030953E2302
:103CB0003C938FBF08952730A9F02830C9F02430F5
:103CC00049F7809180008F7D03C0809180008F77BD
:103CD00080938000DFCF84B58F7784BDDBCF84B540
:103CE0008F7DFBCF8091B0008F778093B000D2CFD3
:103CF0008091B0008F7DF9CF3E2BDACFCF93DF9349
:103D000090E0FC01EA51F44C24918E52944CFC0159
:103D100084918823D1F090E0880F991FFC01E25430
:103D2000F44CA591B491FC01E853F44CC591D491A5
:103D300061110EC09FB7F8948C91E22FE0958E230D
:103D40008C932881E223E8839FBFDF91CF91089570
:103D50008FB7F894EC91E22BEC938FBFF6CF3FB77F
:103D6000F8948091820390918303A0918403B09191
:103D7000850326B5A89B05C02F3F19F00196A11D0C
:103D8000B11D3FBFBA2FA92F982F8827BC01CD01A5
:103D9000620F711D811D911D42E0660F771F881F04
:103DA000991F4A95D1F7089508950895DC01ED9182
:103DB000FC910190F081E02D0994EF92FF920F9316
:103DC0001F93CF93DF938C017B01D0E0C0E0F7011C
:103DD000EC0FFD1F6491662361F0D801ED91FC9119
:103DE0000190F081E02DC8010995892B11F02196F1
:103DF000EECFCE01DF91CF911F910F91FF90EF9009
:103E00000895AF92BF92CF92DF92EF92FF920F93FD
:103E10001F93CF93DF936C017B018B01040F151F60
:103E2000EB015E01AE18BF08C017D10759F06991C8
:103E3000D601ED91FC910190F081E02DC60109952C
:103E4000892B79F7C501DF91CF911F910F91FF90D9
:103E5000EF90DF90CF90BF90AF900895FC01538D0D
:103E6000448D252F30E0842F90E0821B930B541754
:103E700010F04F96089501970895FC01918D828D61
:103E8000981779F0A28DAE0FBF2FB11D5D962C91C2
:103E9000828D8F5F60E30E94DF35928F822F90E0EA
:103EA00008958FEF9FEF0895FC01918D828D9817F3
:103EB00031F0828DE80FF11D858D90E008958FEF30
:103EC0009FEF0895FC01918D228D892F90E0C0967F
:103ED000821B910960E370E00E94EB35089586ED46
:103EE00093E00E94621F21E0892B09F420E0822FD9
:103EF000089580E090E0892B29F00E946F1F8111C6
:103F00000C9400000895FC01A48DA80FB92FB11DD9
:103F1000A35BBF4F2C91848D90E001968F71992700
:103F2000848FA689B7892C93A089B1898C918370DD
:103F300080648C93938D848D981306C00288F389D6
:103F4000E02D80818F7D80830895EF92FF920F9303
:103F50001F93CF93DF93EC0181E0888F9B8D8C8D35
:103F600098131AC0E889F989808185FF15C09FB729
:103F7000F894EE89FF896083E889F98980818370EC
:103F8000806480839FBF81E090E0DF91CF911F919B
:103F90000F91FF90EF900895F62E0B8D10E00F5FBC
:103FA0001F4F0F711127E02E8C8D8E110CC00FB694
:103FB00007FCFACFE889F989808185FFF5CFCE012A
:103FC0000E94831FF1CFEB8DEC0FFD2FF11DE35B02
:103FD000FF4FF0829FB7F8940B8FEA89FB898081AD
:103FE0008062CFCFCF93DF93EC01888D8823B9F027
:103FF000AA89BB89E889F9898C9185FD03C08081F4
:1040000086FD0DC00FB607FCF7CF8C9185FFF2CF70
:10401000808185FFEDCFCE010E94831FE9CFDF9124
:10402000CF91089520910503309106032817390791
:1040300071F49091040380910303981741F0E0918B
:104040000403F0E0ED53FD4F808190E008958FEF81
:104050009FEF08950895EF92FF920F931F93CF93D0
:10406000DF93DC015C96ED90FC905D97E114F10428
:1040700079F481E090E013969C938E93129790E0F0
:1040800080E0DF91CF911F910F91FF90EF90089505
:104090005196ED91FC91529750968C915097982F94
:1040A00090950FB75E962C915E97122F127021FD9E
:1040B0006095F8942081112319F1282B2083E701C2
:1040C0002197F1F728E0462F50E0308160FF1AC0B9
:1040D000382B3083E7012197F1F7BA017595679581
:1040E000215089F7112381F08081892380830FBFBC
:1040F0005C968D919C910197F1F781E090E0C1CFA2
:104100002923DCCF3923E5CF9081892BEFCF209174
:104110000503309106032817390761F480910303E2
:104120002091040390E0805C9F4F821B91098F7364
:104130009927089590E080E008952091050330913B
:10414000060328173907B9F49091040380910303FB
:10415000981789F0E0910403F0E0ED53FD4F808162
:104160002091040330E02F5F3F4F2F7333272093BC
:10417000040390E008958FEF9FEF08951F93CF936E
:10418000DF93EC01162F60E0812F0E947E1E8E8D42
:1041900081FD04C061E0812F0E94321E1C87812FA7
:1041A00090E0FC01EA51F44CE491ED87FC01EE5201
:1041B000F44CE491F0E0EE0FFF1FE958FF4F8591BA
:1041C00094919F878E87DF91CF911F9108951F93C0
:1041D000CF93DF93EC01162F6E8D6695617081E0B1
:1041E0006827812F0E94321E61E0812F0E947E1E6F
:1041F000812F90E0FC01EA51F44CE491E88BFC0142
:10420000EE52F44CE491F0E0EE0FFF1FE853F44C53
:10421000859194919A8B898BDF91CF911F9108950D
:10422000E0910503F0910603E817F90769F4A38903
:10423000B4899C918589809589238C93109206037B
:104240001092050381E0089580E0089520919F0277
:10425000260F3327331F21323105ECF42091AC03B4
:10426000FC0190E080E0243069F082E00895A091A4
:104270009F022191AC0141585D4FA40FB52FB11D94
:104280002C930196861798F380919F02680F609394
:104290009F0280E0089581E008951092AC0381E0D0
:1042A0008093AB031092860361E082E10E94321E8C
:1042B00061E083E10E94321EE9EBF0E080818E7FB5
:1042C000808380818D7F808388E48093B80085E43B
:1042D0008093BC000895CF93DF9391E090937E028A
:1042E0008823B9F0C091B800D091BA008091BC0089
:1042F0008A7B8093BC0060E082E10E94321E60E015
:1043000083E10E94321E0E944D21D093BA00C093D7
:10431000B800DF91CF910895CF92DF92EF92FF9294
:104320000F931F93CF93DF93D091D50381E0D132C8
:1043300008F09CC0C091D4030E94AF1E6B017C01A9
:104340008091AC0381116CC082E08093AC0381E06A
:104350008093AB038FEF8093AA031092A903D093AD
:10436000A803A4EBB3E0E8E8F3E080E0D8138DC045
:104370001092870380918703CC0FC82BC0938703CB
:1043800080918603813009F084C0109286030E94D8
:10439000AF1E6B017C01809187038093BB008091ED
:1043A000AE039091AF03A091B003B091B103892BFC
:1043B0008A2B8B2BA1F00E94AF1E0091AE031091AF
:1043C000AF032091B0033091B1036C197D098E09C0
:1043D0009F09061717072807390708F442C080917C
:1043E000BC0083FDD8CF85EC8093BC000E94AF1E3B
:1043F0006B017C018091AC03823009F44CC0809148
:10440000AA038F3F09F469C08091AA03803209F49E
:1044100066C08091AA03803309F463C084E026C09B
:104420008091AE039091AF03A091B003B091B1031E
:10443000892B8A2B8B2B09F483CF0E94AF1E00910E
:10444000AE031091AF032091B0033091B1036C190A
:104450007D098E099F09061717072807390708F0F5
:104460006FCF8091AD030E946B2185E01092B30362
:104470001092D5031092B203DF91CF911F910F914B
:10448000FF90EF90DF90CF9008959D9191938F5F73
:104490006DCF85EEA9CF8091AE039091AF03A0912F
:1044A000B003B091B103892B8A2B8B2B09F4A2CFD7
:1044B0000E94AF1E0091AE031091AF032091B00394
:1044C0003091B1036C197D098E099F0906171707F2
:1044D0002807390708F08ECFC4CF80E0C7CF82E02D
:1044E000C5CF83E0C3CFE0912D0380912C03E81763
:1044F00030F4F0E0E25AFD4F808190E008958FEFB4
:104500009FEF089590912D0380912C032FEF3FEFA3
:10451000981748F4E92FF0E0E25AFD4F208130E08F
:104520009F5F90932D03C901089580912C03909172
:104530002D03891B990B0895CF92DF92EF92FF9282
:104540000F931F93CF93DF937C01CB018A012091BE
:10455000B203222389F0EB016B01C40ED51ECC15EA
:10456000DD0569F06991D701ED91FC910190F08131
:10457000E02DC7010995F3CF642F0E942621C801C1
:10458000DF91CF911F910F91FF90EF90DF90CF902F
:104590000895CF93DF931F92CDB7DEB76983209143
:1045A000B2032223F9F02091D503203258F021E004
:1045B00030E0FC013383228390E080E00F90DF91B4
:1045C000CF9108958091B303E82FF0E0EC54FC4FB5
:1045D000998190838F5F8093B3038093D50381E0AB
:1045E00090E0ECCF61E0CE0101960E942621F7CF4A
:1045F000682F83E494E00C94C92290E080E0089551
:10460000CF93C82F81E08093B2038CE38093D403CF
:104610001092B3031092D50380E490E00E94F82238
:104620006C2F83E494E00E94C922CF910C948C21DA
:10463000CF93C82F81E08093B2038CE38093D4039F
:104640001092B3031092D50390E080E00E94F8220C
:104650006C2F83E494E00E94C922CF910C948C21AA
:10466000CF93C82F80EB860F0E941823CC0FCC0F5E
:10467000CC0FCE5F8C2F8E700E9418238C2F8295CA
:104680008F70805FCF910C9418230F931F93CF935B
:10469000DF93D0E0C0E0BE0190E080E00E943023D4
:1046A00000E810E080E00E94002301501109D1F7DA
:1046B0002196C830D10579F7DF91CF911F910F91E5
:1046C0000895BF92CF92DF92EF92FF920F931F93C4
:1046D000CF93DF9387FD04C16B01E82E880FFF089D
:1046E000E701C85ADD4F8881811170C085E08E9D39
:1046F00080018F9D100D11240C581B4FF8018081F3
:104700008C3008F061C0F701EC58FE4FB08061E0DA
:104710008B2D0E947E1EF8018081282F30E0F90148
:10472000EE0FFF1FE20FF31FE15BFB4F2B2D2F73EB
:104730009081907C922B9083F8011282118221E764
:1047400032E0348323832CE0622F0E94DF35829F86
:10475000B001112430E020E0AB01420F531FFA01F9
:10476000EE0FFF1FE40FF51FE15BFB4F908196FDFD
:1047700016C02F5F3F4F2C30310571F781110FC0EC
:104780001092800082E08093810010928500109248
:104790008400B19A80916F00826080936F0085E001
:1047A0008E9DF0018F9DF00D1124EC58FB4FE081A0
:1047B0008E2F90E0FC01EE0FFF1FE80FF91FE15B69
:1047C000FB4F80818064808381E088838701000FB4
:1047D000111FF801E15DFC4FC081D181CC16DD06CF
:1047E0004CF0F801EA5FFE4FC081D181CC16DD06A6
:1047F0000CF4E601D7FD25C0C936F1E0DF070CF067
:1048000090C09E010D2E000C440B550BDE01CB35E4
:10481000D105CCF0C53BD1050CF06CC02A5531094F
:1048200041095109A8E0B2E00E94A3352AE530E031
:1048300040E050E00E94843522523C4F4F4F5F4F82
:1048400010C0A0E0B0E02AEE31E00E9405362AE573
:1048500030E040E050E00E9484352C503E4F4F4FF6
:104860005F4F85E08E9DD0018F9DB00D1124AC5817
:10487000BB4FEC91EC3078F511964D915C9112970D
:104880008DE790E0841B950B880F991F880F991F67
:10489000281739077CF013964D915C9182EE94E0D5
:1048A000841B950B880F991F880F991F28173907AC
:1048B0000CF4C9010297880F991F4FB7F8942E2F57
:1048C00030E0F901EE0FFF1FE20FF31FE15BFB4F3A
:1048D000928381834FBFF801EE5EFE4FD183C08388
:1048E000DF91CF911F910F91FF90EF90DF90CF90CC
:1048F000BF900895CF3081E0D80764F5245B31097B
:1049000041095109AEEFB1E00E94A3352AE530E03C
:1049100040E050E00E9484352A513A4F4F4F5F4F9C
:10492000A0CF28E631E0032E000C440B550B2E508F
:10493000314041095109A0EEB1E00E94A3352AE5BA
:1049400030E040E050E00E9484352C51384F4F4F0A
:104950005F4F87CF9E01E7CF9EEF980F9031E8F42D
:10496000833079F0853079F0863079F0893079F0CC
:104970008A3079F08B3079F485E0881F8827881F8A
:10498000089580E0FACF81E0F8CF82E0F6CF83E0AF
:10499000F4CF84E0F2CF8FEFF0CF80E0089587FD71
:1049A0001FC0082E000C990BDC01A85ABD4F2C919A
:1049B0002223B1F025E0289FF001299FF00D11245A
:1049C000EC58FB4FE0818E2F90E0FC01EE0FFF1FB3
:1049D000E80FF91FE15BFB4F80818F7B80831C9286
:1049E0000895FB0101900020E9F73197AF01461BC4
:1049F000570BDC01ED91FC910280F381E02D0994CD
:104A00008F929F92AF92BF92EF92FF920F931F935C
:104A1000CF93DF93CDB7DEB7A1970FB6F894DEBF83
:104A20000FBECDBF7C01FA01CB0119A2223008F4E0
:104A30002AE08E010F5D1F4F822E912CB12CA12CEC
:104A4000BF01A50194010E94AE35F901CA016A3087
:104A50000CF5605DD8016E938D01232B242B252B43
:104A600079F790E080E0109721F0BD01C7010E9426
:104A7000F124A1960FB6F894DEBF0FBECDBFDF9133
:104A8000CF911F910F91FF90EF90BF90AF909F90AB
:104A90008F900895695CDECFCF92DF92EF92FF9204
:104AA0000F931F93CF93DF938C016B01770FEE0869
:104AB000FF08F7FE21C06DE20E94D61EEC014427DC
:104AC0005527BA014C195D096E097F092AE0C80112
:104AD0000E940025C80FD91F6EE971E0C8010E942D
:104AE000F1248C0F9D1FDF91CF911F910F91FF90AB
:104AF000EF90DF90CF9008952AE0B701A6010E94C1
:104B00000025EC01E9CFCF92DF92EF92FF920F9355
:104B10001F93CF93DF936B01770FEE08FF08F7FE2B
:104B20001BC0EC016DE20E94D61E8C014427552764
:104B3000BA014C195D096E097F092AE0CE010E9475
:104B40000025800F911FDF91CF911F910F91FF9052
:104B5000EF90DF90CF9008952AE0B701A601DF9192
:104B6000CF911F910F91FF90EF90DF90CF900C9419
:104B700000250F931F93CF93DF93EC010E94DD1E5E
:104B80008C016EE971E0CE010E94F124800F911F2B
:104B9000DF91CF911F910F910895CF93DF93EC0197
:104BA0006BE670E080911E0190911F010E94DD1E56
:104BB000BE0180911E0190911F01DF91CF910C9455
:104BC000B92568E670E080911E0190911F010C9458
:104BD000B9254F925F926F927F928F929F92AF9280
:104BE000BF92CF92DF92EF92FF920F931F93CF93DA
:104BF000DF934B015C017A018901C0912603D091BA
:104C00002703209709F466C11B8E1A8E198E188E01
:104C10001F8A1E8A60E079E08DE390E0A50194018F
:104C20000E948435F901C90103972430310510F43D
:104C300081E090E09D8F8C8F6C85663108F054C0C8
:104C4000C901969587958431910508F4ABC04397C7
:104C50009F8B8E8BC9010597369710F481E090E009
:104C6000998F888FC901880F991F280F391F369592
:104C70002795369527952D30310508F496C02C5090
:104C800031093B8F2A8F9091680084E0683048F0AA
:104C900021E06E3008F420E081E001C0880F2A9501
:104CA000EAF7892B809368009C852DE630E09830E8
:104CB00050F02BE630E09E3030F02CE630E09631BC
:104CC00010F030E020E03C8B2B8B292F30E0983027
:104CD00008F06EC081E001C0880F9A95EAF78D8BCD
:104CE0008C8D9D8D0197F1F78A8D9B8D892BE1F03D
:104CF0008091050390910603C817D907A9F0009782
:104D000011F00E9410218E8D8E7F8E8F10920303E2
:104D100010920403D0930603C0930503EB89FC892A
:104D200080819D89892B80830E94AF1E2B013C01CD
:104D300082E3882E912CA12CB12C0E94AF1E641905
:104D4000750986099709683E734081059105A8F3A6
:104D500021E0821A9108A108B10888EE480E83E08C
:104D6000581E611C711C81149104A104B10429F71F
:104D70008091260390912703DC01ED91FC91008442
:104D8000F185E02D0995A0912603B0912703892B89
:104D9000E1F0ED91FC9111970284F385E02DCD01B6
:104DA0000995E6CF81E090E053CF21E030E069CF74
:104DB0009E3040F42850310981E001C0880F2A95C7
:104DC000EAF78DCF2E503109F7CFB701CD010E9400
:104DD000F1246EE971E080912603909127030E94EF
:104DE000F12460E770E080911E0190911F010E9404
:104DF000DD1E8FB7F894C0907E03D0907F03E090C3
:104E00008003F09081038FBFC0E04801B12CA12C3A
:104E10002FB7F89480917E0390917F03A091800337
:104E2000B09181032FBF8C199D09AE09BF09881568
:104E30009905AA05BB0580F580912603909127036B
:104E4000DC01ED91FC910084F185E02D0995892B21
:104E5000F9F28091260390912703DC01ED91FC91FA
:104E60000284F385E02D09958D3031F38A3059F4B1
:104E7000CC2311F360E280911E0190911F010E94EA
:104E8000D61EC0E0D9CF682F80911E0190911F01DE
:104E90000E94D61ECF5FD0CF6EE971E080911E01D7
:104EA00090911F010E94F124809126039091270385
:104EB000DF91CF911F910F91FF90EF90DF90CF90F6
:104EC000BF90AF909F908F907F906F905F904F902A
:104ED0000C941021DF91CF911F910F91FF90EF90D3
:104EE000DF90CF90BF90AF909F908F907F906F900A
:104EF0005F904F9008950F931F93CF93DF938C0192
:104F0000EB010E946E358883C80101960E946E35C0
:104F10008983CE01DF91CF911F910F910895CF9298
:104F2000DF92EF92FF920F931F93CF93DF93EB01EA
:104F30007B0124E0E20EF11C8B016C01C61AD70A3A
:104F4000C601800F911F0E946E35F80181938F0179
:104F5000EE15FF05A9F7CE01DF91CF911F910F91BB
:104F6000FF90EF90DF90CF90089585ED8093BC0087
:104F70008091AE039091AF03A091B003B091B103C3
:104F80000796A11DB11D23E0B695A7959795879526
:104F90002A95D1F72091BC0024FD03C01092AC03E8
:104FA00008954091AE035091AF036091B0037091AA
:104FB000B103452B462B472B69F30097A105B1059B
:104FC00041F02AE22A95F1F700C00197A109B10941
:104FD000E1CF8091AD030C946B21CF93DF9360EA16
:104FE00071E090E080E00E942D35EC01009781F0A7
:104FF000EC01288101962032D9F3223269F4EC01C8
:1050000062E270E00E941736009711F0FC011082F6
:10501000CE01DF91CF91089560E270E0CE01F2CF32
:1050200061EA71E090E080E00E942D35009781F008
:10503000FC0120812D3211F02B3209F431962081B0
:10504000222331F02191222351F020532A30D0F332
:1050500081E080933B0360E070E0CB0108950C9405
:1050600006350E941028CB010895FF920F931F93DD
:10507000CF93DF93EC01F62E08811981C8010E94BD
:105080006E35F81621F06F2DC8010E947635CE01DD
:10509000DF91CF911F910F91FF900895EF92FF92B2
:1050A0000F931F93CF93DF9300D0CDB7DEB78C0162
:1050B0007B019A838983FB016081CE0101960E9466
:1050C00035280F5F1F4F1A830983F7016181CE01D5
:1050D00001960E943528C7010F900F90DF91CF9164
:1050E0001F910F91FF90EF900895AF92BF92CF92D2
:1050F000DF92EF92FF920F931F93CF93DF9300D035
:10510000CDB7DEB78B016B0124E0C20ED11C7B0151
:105110005C01A61AB70AC5018E0D9F1D9A8389836B
:10512000F70161917F01CE0101960E943528EC14B0
:10513000FD0489F7C8010F900F90DF91CF911F9167
:105140000F91FF90EF90DF90CF90BF90AF900895B8
:10515000EF92FF920F931F93CF93DF93CDB7DEB7FC
:1051600028970FB6F894DEBF0FBECDBFBE016B5FB0
:105170007F4F90E080E00E948F278D819E81AF81DC
:10518000B88585339D46A247B14409F455C085E3EF
:105190009DE6A2E7B1E489839A83AB83BC83BE0119
:1051A0006F5F7F4F90E080E00E94752880E895E275
:1051B000A0E0B0E089839A83AB83BC83BE016F5FBC
:1051C0007F4F84E090E00E94752888E090E09A8309
:1051D000898360E0CE0101960E9435288DE190E040
:1051E0009A83898367E0CE0101960E9435288EE17B
:1051F00090E09A83898368E0CE0101960E94352869
:1052000008E210E088E6E82EFF24F3941A8219825F
:10521000BE016F5F7F4FC8010E944E28FA82E9826B
:10522000BE016F5F7F4FC80102960E944E280C5F3F
:105230001F4F0034110551F728960FB6F894DEBFC2
:105240000FBECDBFDF91CF911F910F91FF90EF90D7
:1052500008951F920F920FB60F9211242F933F9330
:105260008F939F93AF93BF9380917E0390917F0321
:10527000A0918003B091810330917D0323E0230F3F
:105280002D3758F50196A11DB11D20937D03809304
:105290007E0390937F03A0938003B093810380915A
:1052A000820390918303A0918403B09185030196BA
:1052B000A11DB11D8093820390938303A093840367
:1052C000B0938503BF91AF919F918F913F912F91A3
:1052D0000F900FBE0F901F90189526E8230F02968F
:1052E000A11DB11DD2CF1F920F920FB60F921124A4
:1052F0002F933F934F935F936F937F938F939F93DE
:10530000AF93BF93EF93FF9386ED93E00E94831FCB
:10531000FF91EF91BF91AF919F918F917F916F918D
:105320005F914F913F912F910F900FBE0F901F9063
:1053300018951F920F920FB60F9211242F935F931F
:105340006F937F938F939F93AF93BF93EF93FF934D
:10535000E091E603F091E7038081E091EC03F091A6
:10536000ED0382FD24C020818091EF0390E001963F
:1053700060E370E00E94EB359091F003981741F0E4
:10538000E091EF03F0E0EA52FC4F258F8093EF03AA
:10539000FF91EF91BF91AF919F918F917F916F910D
:1053A0005F912F910F900FBE0F901F9018958081E5
:1053B000EFCF1F920F920FB60F9211242F933F93AE
:1053C0004F935F936F937F938F939F93AF93BF930D
:1053D000EF93FF93E0910503F0910603309749F0B6
:1053E000A685B7858585968D91FF14C09C918923EC
:1053F000A1F4FF91EF91BF91AF919F918F917F9118
:105400006F915F914F913F912F910F900FBE0F9031
:105410001F9018959C91892361F7A389B4899C9169
:105420008589809589238C93868997890197F1F7DF
:10543000608D718DA685B785558538E020E0CB015C
:105440000197F1F7822F90E095958795282F4C9141
:10545000452309F02068315091F7868D81FD209514
:105460008091030390E001968F7399273091040394
:10547000381799F0A0910303B0E0AD53BD4F2C93C2
:1054800080930303828D938D0197F1F7A389B489EB
:105490008C919589892B8C93ACCF868D8160868F7A
:1054A000F1CF1F920F920FB60F9211242F933F93BB
:1054B0004F935F936F937F938F939F93AF93BF931C
:1054C000CF93DF93EF93FF938091C202C091730457
:1054D000D0E087FF24C01092850010928400809154
:1054E000C2028F5F8093C2028091C202082E000C1C
:1054F000990B8C179D0724F48091C2028C30C4F163
:105500008091840090918500049680349C4908F431
:105510007AC08091840090918500049676C0809135
:10552000C202082E000C990B8C179D07C4F6E0915F
:10553000C2028E2FEE0F990BFC01EE0FFF1FE80F3A
:10554000F91FE15BFB4F808186FFC9CFE091C2026A
:105550008E2FEE0F990BFC01EE0FFF1FE80FF91FC6
:10556000E15BFB4F808160E08F730E94321EB7CFFA
:105570002091840030918500E091C2028E2FEE0FC1
:10558000990BFC01EE0FFF1FE80FF91FE15BFB4FCA
:1055900081819281820F931F90938900809388006C
:1055A000E091C2028E2FEE0F990BFC01EE0FFF1F50
:1055B000E80FF91FE15BFB4F808186FF11C0E0918E
:1055C000C2028E2FEE0F990BFC01EE0FFF1FE80FAA
:1055D000F91FE15BFB4F808161E08F730E94321EF7
:1055E000FF91EF91DF91CF91BF91AF919F918F91FB
:1055F0007F916F915F914F913F912F910F900FBECF
:105600000F901F90189580E49CE9909389008093F7
:1056100088008FEF8093C202E3CF1F920F920FB6E4
:105620000F9211242F933F934F935F936F937F9328
:105630008F939F93AF93BF93EF93FF938091B900A4
:10564000887F803609F44AC0F0F5883209F4A7C093
:1056500018F5803109F49BC0B8F4882309F4F9C027
:10566000883009F494C0FF91EF91BF91AF919F9161
:105670008F917F916F915F914F913F912F910F90FB
:105680000FBE0F901F901895883109F488C08032A2
:1056900051F78093AA0314C0803409F49DC040F4EC
:1056A0008033B9F38833F9F68093AA0385ECB0C050
:1056B000803509F485C0883509F496C0883499F698
:1056C0000E94B527D0CF883909F48CC038F58837C7
:1056D00029F050F4883611F0803729F683E0809362
:1056E000AC031092C10257C0883809F47BC08039DE
:1056F00019F0803809F0B7CF8091C102803208F0EC
:1057000071C0E091C10281E08E0F8093C10280914F
:10571000BB00F0E0EF55FD4F80833DC0803B39F08A
:10572000E0F4803A09F479C0883A09F09CCF84E02B
:105730008093AC031092A00210929F02E0912A0382
:10574000F0912B03099580919F0281110FC081E098
:1057500080939F0210927F0209C0803C09F4A6CF7B
:10576000883C09F4A3CF883B09F07DCFE091A002EB
:1057700081E08E0F8093A002F0E0E158FD4F808120
:105780008093BB009091A00280919F0229C08091DC
:1057900087038093BB0085EC8093BC0064CF90911D
:1057A000A9038091A803981758F5E091A90381E017
:1057B0008E0F8093A903F0E0E857FC4F8081E9CF7A
:1057C000E091A90381E08E0F8093A9038091BB0033
:1057D000F0E0E857FC4F80839091A9038091A803E3
:1057E0009817C8F285E8D8CFE091A90381E08E0F21
:1057F0008093A9038091BB00F0E0E857FC4F8083C1
:105800008091AB0381115CCF81E08093860384EAB1
:105810008093BC001092AC0326CF85EC8093BC0033
:105820001092AC038091C102803230F4E091C10249
:10583000F0E0EF55FD4F10826091C10270E0E09101
:105840002803F091290381EA92E009951092C102A0
:105850000ACF1092AA0334CFCF93DF93C82FD62F4D
:105860008091260390912703009759F02091010120
:105870002C1305C020910001261709F442C00E9494
:105880001021C0930101D093000110920A031092DD
:10589000090388EE93E0A0E0B0E080930B039093BF
:1058A0000C03A0930D03B0930E0386E691E0909352
:1058B00008038093070310921E0310921D03109299
:1058C000200310921F0310922203109221031092C2
:1058D000240310922303809125038E7F8D7F809374
:1058E00025036D2F87E093E00E94E7206C2F87E06F
:1058F00093E00E94BE2087E093E09093270380937B
:105900002603DF91CF910895CF93DF9300D0CDB7D9
:10591000DEB70E94A828609101018DE190E09A8392
:105920008983CE0101960E943528609100018EE1A5
:1059300090E09A838983CE0101960E9435280F90CA
:105940000F90DF91CF9108951092D9031092D80350
:1059500088EE93E0A0E0B0E08093DA039093DB035D
:10596000A093DC03B093DD032EE731E03093D7033F
:105970002093D60325EC30E03093E3032093E20339
:1059800024EC30E03093E5032093E40320EC30E096
:105990003093E7032093E60321EC30E03093E903F2
:1059A0002093E80322EC30E03093EB032093EA03EA
:1059B00026EC30E03093ED032093EC031092EF03DC
:1059C0001092F0031092F1031092F2031092460429
:1059D000109245048093470490934804A09349048F
:1059E000B0934A0480E991E0909344048093430487
:1059F000E4E7F4E022E934E04FEF68EB7BE08091EC
:105A000073048C30B0F491E0980F9093730480830A
:105A100090E0DC01AA0FBB1FA80FB91FA15BBB4F11
:105A200012967C936E93119735962E173F0739F790
:105A300008954083F9CFCF93DF93CDB7DEB7C0573A
:105A4000D1090FB6F894DEBF0FBECDBF789484B5F0
:105A5000826084BD84B5816084BD85B5826085BD6A
:105A600085B5816085BD80916E00816080936E00F8
:105A700010928100809181008260809381008091EA
:105A8000810081608093810080918000816080939B
:105A900080008091B10084608093B1008091B0005B
:105AA00081608093B00080917A00846080937A0056
:105AB00080917A00826080937A0080917A00816080
:105AC00080937A0080917A00806880937A001092A7
:105AD000C1000E94A8288DE190E00E946E35082F39
